{
  "_format": "hh-sol-artifact-1",
  "contractName": "OpenHelp",
  "sourceName": "contracts/OpenHelp.sol",
  "abi": [
    {
      "inputs": [
        {
          "internalType": "address",
          "name": "_nftContractAddress",
          "type": "address"
        }
      ],
      "stateMutability": "nonpayable",
      "type": "constructor"
    },
    {
      "inputs": [],
      "name": "_donate",
      "outputs": [],
      "stateMutability": "payable",
      "type": "function"
    },
    {
      "inputs": [
        {
          "internalType": "address",
          "name": "_user",
          "type": "address"
        },
        {
          "internalType": "uint256",
          "name": "amount",
          "type": "uint256"
        }
      ],
      "name": "_getLevel",
      "outputs": [
        {
          "internalType": "enum OpenHelp.Level",
          "name": "_level",
          "type": "uint8"
        }
      ],
      "stateMutability": "view",
      "type": "function"
    },
    {
      "inputs": [
        {
          "internalType": "address",
          "name": "_user",
          "type": "address"
        }
      ],
      "name": "_validateUser",
      "outputs": [
        {
          "internalType": "bool",
          "name": "_isNew",
          "type": "bool"
        },
        {
          "internalType": "uint256",
          "name": "_nftID",
          "type": "uint256"
        },
        {
          "internalType": "enum OpenHelp.Level",
          "name": "_actualUserLevel",
          "type": "uint8"
        }
      ],
      "stateMutability": "view",
      "type": "function"
    },
    {
      "inputs": [],
      "name": "getPreviewNFT",
      "outputs": [
        {
          "internalType": "string[5]",
          "name": "",
          "type": "string[5]"
        }
      ],
      "stateMutability": "view",
      "type": "function"
    },
    {
      "inputs": [
        {
          "internalType": "address",
          "name": "_nftContractAddress",
          "type": "address"
        }
      ],
      "name": "setNftContractAddress",
      "outputs": [],
      "stateMutability": "nonpayable",
      "type": "function"
    },
    {
      "inputs": [],
      "name": "totalAmount",
      "outputs": [
        {
          "internalType": "uint256",
          "name": "",
          "type": "uint256"
        }
      ],
      "stateMutability": "view",
      "type": "function"
    },
    {
      "inputs": [
        {
          "internalType": "address",
          "name": "",
          "type": "address"
        }
      ],
      "name": "userList",
      "outputs": [
        {
          "internalType": "address",
          "name": "id",
          "type": "address"
        },
        {
          "internalType": "uint256",
          "name": "donationAmount",
          "type": "uint256"
        },
        {
          "internalType": "uint256",
          "name": "nftID",
          "type": "uint256"
        },
        {
          "internalType": "enum OpenHelp.Level",
          "name": "level",
          "type": "uint8"
        }
      ],
      "stateMutability": "view",
      "type": "function"
    }
  ],
  "bytecode": "0x60806040523480156200001157600080fd5b50604051620017003803806200170083398181016040528101906200003791906200019a565b33600160006101000a81548173ffffffffffffffffffffffffffffffffffffffff021916908373ffffffffffffffffffffffffffffffffffffffff1602179055506040518060a00160405280600060ff168152602001600a60ff168152602001601460ff168152602001601e60ff168152602001602860ff168152506004906005620000c59291906200010d565b50806000806101000a81548173ffffffffffffffffffffffffffffffffffffffff021916908373ffffffffffffffffffffffffffffffffffffffff1602179055505062000214565b82805482825590600052602060002090810192821562000151579160200282015b8281111562000150578251829060ff169055916020019190600101906200012e565b5b50905062000160919062000164565b5090565b5b808211156200017f57600081600090555060010162000165565b5090565b6000815190506200019481620001fa565b92915050565b600060208284031215620001ad57600080fd5b6000620001bd8482850162000183565b91505092915050565b6000620001d382620001da565b9050919050565b600073ffffffffffffffffffffffffffffffffffffffff82169050919050565b6200020581620001c6565b81146200021157600080fd5b50565b6114dc80620002246000396000f3fe6080604052600436106100705760003560e01c8063991d39421161004e578063991d39421461010b578063da31d6401461014a578063e154763e14610173578063f0b1004d146101b057610070565b80630bbc735a146100755780631a39d8ef146100a05780631b4e7bd2146100cb575b600080fd5b34801561008157600080fd5b5061008a6101ba565b6040516100979190611059565b60405180910390f35b3480156100ac57600080fd5b506100b561026a565b6040516100c2919061110d565b60405180910390f35b3480156100d757600080fd5b506100f260048036038101906100ed9190610dd8565b610270565b6040516101029493929190611014565b60405180910390f35b34801561011757600080fd5b50610132600480360381019061012d9190610dd8565b6102cd565b6040516101419392919061107b565b60405180910390f35b34801561015657600080fd5b50610171600480360381019061016c9190610dd8565b6103c7565b005b34801561017f57600080fd5b5061019a60048036038101906101959190610e01565b61040a565b6040516101a791906110b2565b60405180910390f35b6101b8610707565b005b6101c2610c8f565b60008054906101000a900473ffffffffffffffffffffffffffffffffffffffff1673ffffffffffffffffffffffffffffffffffffffff16630bbc735a6040518163ffffffff1660e01b815260040160006040518083038186803b15801561022857600080fd5b505afa15801561023c573d6000803e3d6000fd5b505050506040513d6000823e3d601f19601f820116820180604052508101906102659190610e3d565b905090565b60025481565b60036020528060005260406000206000915090508060000160009054906101000a900473ffffffffffffffffffffffffffffffffffffffff16908060010154908060020154908060030160009054906101000a900460ff16905084565b600080600080600360008673ffffffffffffffffffffffffffffffffffffffff1673ffffffffffffffffffffffffffffffffffffffff16815260200190815260200160002060020154146103bb5760009250600360008573ffffffffffffffffffffffffffffffffffffffff1673ffffffffffffffffffffffffffffffffffffffff168152602001908152602001600020600201549150600360008573ffffffffffffffffffffffffffffffffffffffff1673ffffffffffffffffffffffffffffffffffffffff16815260200190815260200160002060030160009054906101000a900460ff1690506103c0565b600192505b9193909250565b806000806101000a81548173ffffffffffffffffffffffffffffffffffffffff021916908373ffffffffffffffffffffffffffffffffffffffff16021790555050565b60008082600360008673ffffffffffffffffffffffffffffffffffffffff1673ffffffffffffffffffffffffffffffffffffffff1681526020019081526020016000206001015461045b9190611227565b90506004600081548110610498577f4e487b7100000000000000000000000000000000000000000000000000000000600052603260045260246000fd5b906000526020600020015481101580156104f6575060046001815481106104e8577f4e487b7100000000000000000000000000000000000000000000000000000000600052603260045260246000fd5b906000526020600020015481105b156105045760009150610700565b600460018154811061053f577f4e487b7100000000000000000000000000000000000000000000000000000000600052603260045260246000fd5b9060005260206000200154811015801561059d5750600460028154811061058f577f4e487b7100000000000000000000000000000000000000000000000000000000600052603260045260246000fd5b906000526020600020015481105b156105ab57600191506106ff565b60046002815481106105e6577f4e487b7100000000000000000000000000000000000000000000000000000000600052603260045260246000fd5b9060005260206000200154811015801561064457506004600381548110610636577f4e487b7100000000000000000000000000000000000000000000000000000000600052603260045260246000fd5b906000526020600020015481105b1561065257600291506106fe565b600460038154811061068d577f4e487b7100000000000000000000000000000000000000000000000000000000600052603260045260246000fd5b906000526020600020015481101580156106ea5750600480815481106106dc577f4e487b7100000000000000000000000000000000000000000000000000000000600052603260045260246000fd5b906000526020600020015481105b156106f857600391506106fd565b600491505b5b5b5b5092915050565b6004600081548110610742577f4e487b7100000000000000000000000000000000000000000000000000000000600052603260045260246000fd5b9060005260206000200154341161078e576040517f08c379a0000000000000000000000000000000000000000000000000000000008152600401610785906110ed565b60405180910390fd5b600033905060008060006107a1846102cd565b92509250925060006107b3853461040a565b9050600160009054906101000a900473ffffffffffffffffffffffffffffffffffffffff1673ffffffffffffffffffffffffffffffffffffffff166108fc349081150290604051600060405180830381858888f1935050505061084b576040517f08c379a0000000000000000000000000000000000000000000000000000000008152600401610842906110cd565b60405180910390fd5b34600360008773ffffffffffffffffffffffffffffffffffffffff1673ffffffffffffffffffffffffffffffffffffffff168152602001908152602001600020600101600082825461089d9190611227565b9250508190555080600360008773ffffffffffffffffffffffffffffffffffffffff1673ffffffffffffffffffffffffffffffffffffffff16815260200190815260200160002060030160006101000a81548160ff0219169083600481111561092f577f4e487b7100000000000000000000000000000000000000000000000000000000600052602160045260246000fd5b021790555034600260008282546109469190611227565b925050819055506000600360008773ffffffffffffffffffffffffffffffffffffffff1673ffffffffffffffffffffffffffffffffffffffff16815260200190815260200160002060030160009054906101000a900460ff1660048111156109d7577f4e487b7100000000000000000000000000000000000000000000000000000000600052602160045260246000fd5b90508415610abb5760006109eb8783610b46565b905086600360008973ffffffffffffffffffffffffffffffffffffffff1673ffffffffffffffffffffffffffffffffffffffff16815260200190815260200160002060000160006101000a81548173ffffffffffffffffffffffffffffffffffffffff021916908373ffffffffffffffffffffffffffffffffffffffff16021790555080600360008973ffffffffffffffffffffffffffffffffffffffff1673ffffffffffffffffffffffffffffffffffffffff1681526020019081526020016000206002018190555050610b3e565b816004811115610af4577f4e487b7100000000000000000000000000000000000000000000000000000000600052602160045260246000fd5b836004811115610b2d577f4e487b7100000000000000000000000000000000000000000000000000000000600052602160045260246000fd5b14610b3d57610b3c8482610bfe565b5b5b505050505050565b60008060009054906101000a900473ffffffffffffffffffffffffffffffffffffffff1673ffffffffffffffffffffffffffffffffffffffff1663a144819484846040518363ffffffff1660e01b8152600401610ba4929190610feb565b602060405180830381600087803b158015610bbe57600080fd5b505af1158015610bd2573d6000803e3d6000fd5b505050506040513d601f19601f82011682018060405250810190610bf69190610e7e565b905092915050565b60008054906101000a900473ffffffffffffffffffffffffffffffffffffffff1673ffffffffffffffffffffffffffffffffffffffff1663cd057e8883836040518363ffffffff1660e01b8152600401610c59929190611128565b600060405180830381600087803b158015610c7357600080fd5b505af1158015610c87573d6000803e3d6000fd5b505050505050565b6040518060a001604052806005905b6060815260200190600190039081610c9e5790505090565b6000610cc9610cc484611176565b611151565b9050808260005b85811015610d005781518501610ce68882610d84565b845260208401935060208301925050600181019050610cd0565b5050509392505050565b6000610d1d610d188461119c565b611151565b905082815260208101848484011115610d3557600080fd5b610d408482856112ea565b509392505050565b600081359050610d5781611478565b92915050565b600082601f830112610d6e57600080fd5b6005610d7b848285610cb6565b91505092915050565b600082601f830112610d9557600080fd5b8151610da5848260208601610d0a565b91505092915050565b600081359050610dbd8161148f565b92915050565b600081519050610dd28161148f565b92915050565b600060208284031215610dea57600080fd5b6000610df884828501610d48565b91505092915050565b60008060408385031215610e1457600080fd5b6000610e2285828601610d48565b9250506020610e3385828601610dae565b9150509250929050565b600060208284031215610e4f57600080fd5b600082015167ffffffffffffffff811115610e6957600080fd5b610e7584828501610d5d565b91505092915050565b600060208284031215610e9057600080fd5b6000610e9e84828501610dc3565b91505092915050565b6000610eb38383610f5d565b905092915050565b610ec48161127d565b82525050565b6000610ed5826111d7565b610edf81856111fa565b935083602082028501610ef1856111cd565b8060005b85811015610f2d5784840389528151610f0e8582610ea7565b9450610f19836111ed565b925060208a01995050600181019050610ef5565b50829750879550505050505092915050565b610f488161128f565b82525050565b610f57816112d8565b82525050565b6000610f68826111e2565b610f728185611205565b9350610f828185602086016112ea565b610f8b816113db565b840191505092915050565b6000610fa3601583611216565b9150610fae826113ec565b602082019050919050565b6000610fc6602e83611216565b9150610fd182611415565b604082019050919050565b610fe5816112ce565b82525050565b60006040820190506110006000830185610ebb565b61100d6020830184610fdc565b9392505050565b60006080820190506110296000830187610ebb565b6110366020830186610fdc565b6110436040830185610fdc565b6110506060830184610f4e565b95945050505050565b600060208201905081810360008301526110738184610eca565b905092915050565b60006060820190506110906000830186610f3f565b61109d6020830185610fdc565b6110aa6040830184610f4e565b949350505050565b60006020820190506110c76000830184610f4e565b92915050565b600060208201905081810360008301526110e681610f96565b9050919050565b6000602082019050818103600083015261110681610fb9565b9050919050565b60006020820190506111226000830184610fdc565b92915050565b600060408201905061113d6000830185610fdc565b61114a6020830184610fdc565b9392505050565b600061115b61116c565b9050611167828261131d565b919050565b6000604051905090565b600067ffffffffffffffff821115611191576111906113ac565b5b602082029050919050565b600067ffffffffffffffff8211156111b7576111b66113ac565b5b6111c0826113db565b9050602081019050919050565b6000819050919050565b600060059050919050565b600081519050919050565b6000602082019050919050565b600081905092915050565b600082825260208201905092915050565b600082825260208201905092915050565b6000611232826112ce565b915061123d836112ce565b9250827fffffffffffffffffffffffffffffffffffffffffffffffffffffffffffffffff038211156112725761127161134e565b5b828201905092915050565b6000611288826112ae565b9050919050565b60008115159050919050565b60008190506112a982611464565b919050565b600073ffffffffffffffffffffffffffffffffffffffff82169050919050565b6000819050919050565b60006112e38261129b565b9050919050565b60005b838110156113085780820151818401526020810190506112ed565b83811115611317576000848401525b50505050565b611326826113db565b810181811067ffffffffffffffff82111715611345576113446113ac565b5b80604052505050565b7f4e487b7100000000000000000000000000000000000000000000000000000000600052601160045260246000fd5b7f4e487b7100000000000000000000000000000000000000000000000000000000600052602160045260246000fd5b7f4e487b7100000000000000000000000000000000000000000000000000000000600052604160045260246000fd5b6000601f19601f8301169050919050565b7f5472616e7361636374696f6e2061626f727465642e0000000000000000000000600082015250565b7f56616c7565206d7573742062652067726561746572207468616e20746865206d60008201527f696e696d756e20616d6f756e742e000000000000000000000000000000000000602082015250565b600581106114755761147461137d565b5b50565b6114818161127d565b811461148c57600080fd5b50565b611498816112ce565b81146114a357600080fd5b5056fea264697066735822122049583fad34bd9a2f21a14f4c6d9bf6fb1d3928cc77bbfbfd58263a284baf7f9664736f6c63430008010033",
  "linkReferences": {},
  "deployedLinkReferences": {}
}