{
	"contracts/OpenHelp.sol": {
		"OpenHelp": {
			"abi": [
				{
					"inputs": [
						{
							"internalType": "address",
							"name": "_nftContractAddress",
							"type": "address"
						}
					],
					"stateMutability": "nonpayable",
					"type": "constructor"
				},
				{
					"inputs": [],
					"name": "_donate",
					"outputs": [],
					"stateMutability": "payable",
					"type": "function"
				},
				{
					"inputs": [
						{
							"internalType": "address",
							"name": "_user",
							"type": "address"
						},
						{
							"internalType": "uint256",
							"name": "amount",
							"type": "uint256"
						}
					],
					"name": "_getLevel",
					"outputs": [
						{
							"internalType": "enum OpenHelp.Level",
							"name": "_level",
							"type": "uint8"
						}
					],
					"stateMutability": "view",
					"type": "function"
				},
				{
					"inputs": [
						{
							"internalType": "address",
							"name": "_user",
							"type": "address"
						}
					],
					"name": "_getUserData",
					"outputs": [
						{
							"components": [
								{
									"internalType": "address",
									"name": "id",
									"type": "address"
								},
								{
									"internalType": "uint256",
									"name": "donationAmount",
									"type": "uint256"
								},
								{
									"internalType": "uint256",
									"name": "nftID",
									"type": "uint256"
								},
								{
									"internalType": "enum OpenHelp.Level",
									"name": "level",
									"type": "uint8"
								}
							],
							"internalType": "struct OpenHelp.UserData",
							"name": "",
							"type": "tuple"
						}
					],
					"stateMutability": "view",
					"type": "function"
				},
				{
					"inputs": [
						{
							"internalType": "address",
							"name": "_user",
							"type": "address"
						}
					],
					"name": "_validateUser",
					"outputs": [
						{
							"internalType": "bool",
							"name": "_isNew",
							"type": "bool"
						},
						{
							"internalType": "uint256",
							"name": "_nftID",
							"type": "uint256"
						},
						{
							"internalType": "enum OpenHelp.Level",
							"name": "_actualUserLevel",
							"type": "uint8"
						}
					],
					"stateMutability": "view",
					"type": "function"
				},
				{
					"inputs": [],
					"name": "getPreviewNFT",
					"outputs": [
						{
							"internalType": "string[5]",
							"name": "",
							"type": "string[5]"
						}
					],
					"stateMutability": "view",
					"type": "function"
				},
				{
					"inputs": [
						{
							"internalType": "address",
							"name": "_nftContractAddress",
							"type": "address"
						}
					],
					"name": "setNftContractAddress",
					"outputs": [],
					"stateMutability": "nonpayable",
					"type": "function"
				},
				{
					"inputs": [],
					"name": "totalAmount",
					"outputs": [
						{
							"internalType": "uint256",
							"name": "",
							"type": "uint256"
						}
					],
					"stateMutability": "view",
					"type": "function"
				},
				{
					"inputs": [
						{
							"internalType": "address",
							"name": "",
							"type": "address"
						}
					],
					"name": "userList",
					"outputs": [
						{
							"internalType": "address",
							"name": "id",
							"type": "address"
						},
						{
							"internalType": "uint256",
							"name": "donationAmount",
							"type": "uint256"
						},
						{
							"internalType": "uint256",
							"name": "nftID",
							"type": "uint256"
						},
						{
							"internalType": "enum OpenHelp.Level",
							"name": "level",
							"type": "uint8"
						}
					],
					"stateMutability": "view",
					"type": "function"
				}
			],
			"devdoc": {
				"kind": "dev",
				"methods": {
					"_donate()": {
						"details": "Store value in variable param num value to store"
					}
				},
				"version": 1
			},
			"evm": {
				"assembly": "    /* \"contracts/OpenHelp.sol\":320:4057  contract OpenHelp{... */\n  mstore(0x40, 0x80)\n    /* \"contracts/OpenHelp.sol\":704:923  constructor(address _nftContractAddress){... */\n  callvalue\n  dup1\n  iszero\n  tag_1\n  jumpi\n  0x00\n  dup1\n  revert\ntag_1:\n  pop\n  mload(0x40)\n  sub(codesize, bytecodeSize)\n  dup1\n  bytecodeSize\n  dup4\n  codecopy\n  dup2\n  dup2\n  add\n  0x40\n  mstore\n  dup2\n  add\n  swap1\n  tag_2\n  swap2\n  swap1\n  tag_3\n  jump\t// in\ntag_2:\n    /* \"contracts/OpenHelp.sol\":805:815  msg.sender */\n  caller\n    /* \"contracts/OpenHelp.sol\":788:793  owner */\n  0x01\n  0x00\n    /* \"contracts/OpenHelp.sol\":788:816  owner =  payable(msg.sender) */\n  0x0100\n  exp\n  dup2\n  sload\n  dup2\n  0xffffffffffffffffffffffffffffffffffffffff\n  mul\n  not\n  and\n  swap1\n  dup4\n  0xffffffffffffffffffffffffffffffffffffffff\n  and\n  mul\n  or\n  swap1\n  sstore\n  pop\n    /* \"contracts/OpenHelp.sol\":826:866  userAmountsLevelLimits = [0,10,20,30,40] */\n  mload(0x40)\n  dup1\n  0xa0\n  add\n  0x40\n  mstore\n  dup1\n    /* \"contracts/OpenHelp.sol\":852:853  0 */\n  0x00\n    /* \"contracts/OpenHelp.sol\":826:866  userAmountsLevelLimits = [0,10,20,30,40] */\n  0xff\n  and\n  dup2\n  mstore\n  0x20\n  add\n    /* \"contracts/OpenHelp.sol\":854:856  10 */\n  0x0a\n    /* \"contracts/OpenHelp.sol\":826:866  userAmountsLevelLimits = [0,10,20,30,40] */\n  0xff\n  and\n  dup2\n  mstore\n  0x20\n  add\n    /* \"contracts/OpenHelp.sol\":857:859  20 */\n  0x14\n    /* \"contracts/OpenHelp.sol\":826:866  userAmountsLevelLimits = [0,10,20,30,40] */\n  0xff\n  and\n  dup2\n  mstore\n  0x20\n  add\n    /* \"contracts/OpenHelp.sol\":860:862  30 */\n  0x1e\n    /* \"contracts/OpenHelp.sol\":826:866  userAmountsLevelLimits = [0,10,20,30,40] */\n  0xff\n  and\n  dup2\n  mstore\n  0x20\n  add\n    /* \"contracts/OpenHelp.sol\":863:865  40 */\n  0x28\n    /* \"contracts/OpenHelp.sol\":826:866  userAmountsLevelLimits = [0,10,20,30,40] */\n  0xff\n  and\n  dup2\n  mstore\n  pop\n    /* \"contracts/OpenHelp.sol\":826:848  userAmountsLevelLimits */\n  0x04\n    /* \"contracts/OpenHelp.sol\":826:866  userAmountsLevelLimits = [0,10,20,30,40] */\n  swap1\n  0x05\n  tag_6\n  swap3\n  swap2\n  swap1\n  tag_7\n  jump\t// in\ntag_6:\n  pop\n    /* \"contracts/OpenHelp.sol\":897:916  _nftContractAddress */\n  dup1\n    /* \"contracts/OpenHelp.sol\":876:894  nftContractAddress */\n  0x00\n  dup1\n    /* \"contracts/OpenHelp.sol\":876:916  nftContractAddress = _nftContractAddress */\n  0x0100\n  exp\n  dup2\n  sload\n  dup2\n  0xffffffffffffffffffffffffffffffffffffffff\n  mul\n  not\n  and\n  swap1\n  dup4\n  0xffffffffffffffffffffffffffffffffffffffff\n  and\n  mul\n  or\n  swap1\n  sstore\n  pop\n    /* \"contracts/OpenHelp.sol\":704:923  constructor(address _nftContractAddress){... */\n  pop\n    /* \"contracts/OpenHelp.sol\":320:4057  contract OpenHelp{... */\n  jump(tag_8)\ntag_7:\n  dup3\n  dup1\n  sload\n  dup3\n  dup3\n  sstore\n  swap1\n  0x00\n  mstore\n  keccak256(0x00, 0x20)\n  swap1\n  dup2\n  add\n  swap3\n  dup3\n  iszero\n  tag_9\n  jumpi\n  swap2\n  0x20\n  mul\n  dup3\n  add\ntag_10:\n  dup3\n  dup2\n  gt\n  iszero\n  tag_11\n  jumpi\n  dup3\n  mload\n  dup3\n  swap1\n  0xff\n  and\n  swap1\n  sstore\n  swap2\n  0x20\n  add\n  swap2\n  swap1\n  0x01\n  add\n  swap1\n  jump(tag_10)\ntag_11:\ntag_9:\n  pop\n  swap1\n  pop\n  tag_12\n  swap2\n  swap1\n  tag_13\n  jump\t// in\ntag_12:\n  pop\n  swap1\n  jump\t// out\ntag_13:\ntag_14:\n  dup1\n  dup3\n  gt\n  iszero\n  tag_15\n  jumpi\n  0x00\n  dup2\n  0x00\n  swap1\n  sstore\n  pop\n  0x01\n  add\n  jump(tag_14)\ntag_15:\n  pop\n  swap1\n  jump\t// out\n    /* \"#utility.yul\":7:150   */\ntag_17:\n    /* \"#utility.yul\":64:69   */\n  0x00\n    /* \"#utility.yul\":95:101   */\n  dup2\n    /* \"#utility.yul\":89:102   */\n  mload\n    /* \"#utility.yul\":80:102   */\n  swap1\n  pop\n    /* \"#utility.yul\":111:144   */\n  tag_19\n    /* \"#utility.yul\":138:143   */\n  dup2\n    /* \"#utility.yul\":111:144   */\n  tag_20\n  jump\t// in\ntag_19:\n    /* \"#utility.yul\":70:150   */\n  swap3\n  swap2\n  pop\n  pop\n  jump\t// out\n    /* \"#utility.yul\":156:507   */\ntag_3:\n    /* \"#utility.yul\":226:232   */\n  0x00\n    /* \"#utility.yul\":275:277   */\n  0x20\n    /* \"#utility.yul\":263:272   */\n  dup3\n    /* \"#utility.yul\":254:261   */\n  dup5\n    /* \"#utility.yul\":250:273   */\n  sub\n    /* \"#utility.yul\":246:278   */\n  slt\n    /* \"#utility.yul\":243:245   */\n  iszero\n  tag_22\n  jumpi\n    /* \"#utility.yul\":281:360   */\n  tag_23\n  tag_24\n  jump\t// in\ntag_23:\n    /* \"#utility.yul\":243:245   */\ntag_22:\n    /* \"#utility.yul\":401:402   */\n  0x00\n    /* \"#utility.yul\":426:490   */\n  tag_25\n    /* \"#utility.yul\":482:489   */\n  dup5\n    /* \"#utility.yul\":473:479   */\n  dup3\n    /* \"#utility.yul\":462:471   */\n  dup6\n    /* \"#utility.yul\":458:480   */\n  add\n    /* \"#utility.yul\":426:490   */\n  tag_17\n  jump\t// in\ntag_25:\n    /* \"#utility.yul\":416:490   */\n  swap2\n  pop\n    /* \"#utility.yul\":372:500   */\n  pop\n    /* \"#utility.yul\":233:507   */\n  swap3\n  swap2\n  pop\n  pop\n  jump\t// out\n    /* \"#utility.yul\":594:690   */\ntag_28:\n    /* \"#utility.yul\":631:638   */\n  0x00\n    /* \"#utility.yul\":660:684   */\n  tag_30\n    /* \"#utility.yul\":678:683   */\n  dup3\n    /* \"#utility.yul\":660:684   */\n  tag_31\n  jump\t// in\ntag_30:\n    /* \"#utility.yul\":649:684   */\n  swap1\n  pop\n    /* \"#utility.yul\":639:690   */\n  swap2\n  swap1\n  pop\n  jump\t// out\n    /* \"#utility.yul\":696:822   */\ntag_31:\n    /* \"#utility.yul\":733:740   */\n  0x00\n    /* \"#utility.yul\":773:815   */\n  0xffffffffffffffffffffffffffffffffffffffff\n    /* \"#utility.yul\":766:771   */\n  dup3\n    /* \"#utility.yul\":762:816   */\n  and\n    /* \"#utility.yul\":751:816   */\n  swap1\n  pop\n    /* \"#utility.yul\":741:822   */\n  swap2\n  swap1\n  pop\n  jump\t// out\n    /* \"#utility.yul\":951:1068   */\ntag_24:\n    /* \"#utility.yul\":1060:1061   */\n  0x00\n    /* \"#utility.yul\":1057:1058   */\n  dup1\n    /* \"#utility.yul\":1050:1062   */\n  revert\n    /* \"#utility.yul\":1074:1196   */\ntag_20:\n    /* \"#utility.yul\":1147:1171   */\n  tag_37\n    /* \"#utility.yul\":1165:1170   */\n  dup2\n    /* \"#utility.yul\":1147:1171   */\n  tag_28\n  jump\t// in\ntag_37:\n    /* \"#utility.yul\":1140:1145   */\n  dup2\n    /* \"#utility.yul\":1137:1172   */\n  eq\n    /* \"#utility.yul\":1127:1129   */\n  tag_38\n  jumpi\n    /* \"#utility.yul\":1186:1187   */\n  0x00\n    /* \"#utility.yul\":1183:1184   */\n  dup1\n    /* \"#utility.yul\":1176:1188   */\n  revert\n    /* \"#utility.yul\":1127:1129   */\ntag_38:\n    /* \"#utility.yul\":1117:1196   */\n  pop\n  jump\t// out\n    /* \"contracts/OpenHelp.sol\":320:4057  contract OpenHelp{... */\ntag_8:\n  dataSize(sub_0)\n  dup1\n  dataOffset(sub_0)\n  0x00\n  codecopy\n  0x00\n  return\nstop\n\nsub_0: assembly {\n        /* \"contracts/OpenHelp.sol\":320:4057  contract OpenHelp{... */\n      mstore(0x40, 0x80)\n      jumpi(tag_1, lt(calldatasize, 0x04))\n      shr(0xe0, calldataload(0x00))\n      dup1\n      0x991d3942\n      gt\n      tag_10\n      jumpi\n      dup1\n      0x991d3942\n      eq\n      tag_6\n      jumpi\n      dup1\n      0xda31d640\n      eq\n      tag_7\n      jumpi\n      dup1\n      0xe154763e\n      eq\n      tag_8\n      jumpi\n      dup1\n      0xf0b1004d\n      eq\n      tag_9\n      jumpi\n      jump(tag_1)\n    tag_10:\n      dup1\n      0x0bbc735a\n      eq\n      tag_2\n      jumpi\n      dup1\n      0x1a39d8ef\n      eq\n      tag_3\n      jumpi\n      dup1\n      0x1b4e7bd2\n      eq\n      tag_4\n      jumpi\n      dup1\n      0x4a3c06a1\n      eq\n      tag_5\n      jumpi\n    tag_1:\n      0x00\n      dup1\n      revert\n        /* \"contracts/OpenHelp.sol\":1343:1474  function getPreviewNFT() public view returns(string[5] memory){... */\n    tag_2:\n      callvalue\n      dup1\n      iszero\n      tag_11\n      jumpi\n      0x00\n      dup1\n      revert\n    tag_11:\n      pop\n      tag_12\n      tag_13\n      jump\t// in\n    tag_12:\n      mload(0x40)\n      tag_14\n      swap2\n      swap1\n      tag_15\n      jump\t// in\n    tag_14:\n      mload(0x40)\n      dup1\n      swap2\n      sub\n      swap1\n      return\n        /* \"contracts/OpenHelp.sol\":523:546  uint public totalAmount */\n    tag_3:\n      callvalue\n      dup1\n      iszero\n      tag_16\n      jumpi\n      0x00\n      dup1\n      revert\n    tag_16:\n      pop\n      tag_17\n      tag_18\n      jump\t// in\n    tag_17:\n      mload(0x40)\n      tag_19\n      swap2\n      swap1\n      tag_20\n      jump\t// in\n    tag_19:\n      mload(0x40)\n      dup1\n      swap2\n      sub\n      swap1\n      return\n        /* \"contracts/OpenHelp.sol\":552:596  mapping(address => UserData) public userList */\n    tag_4:\n      callvalue\n      dup1\n      iszero\n      tag_21\n      jumpi\n      0x00\n      dup1\n      revert\n    tag_21:\n      pop\n      tag_22\n      0x04\n      dup1\n      calldatasize\n      sub\n      dup2\n      add\n      swap1\n      tag_23\n      swap2\n      swap1\n      tag_24\n      jump\t// in\n    tag_23:\n      tag_25\n      jump\t// in\n    tag_22:\n      mload(0x40)\n      tag_26\n      swap5\n      swap4\n      swap3\n      swap2\n      swap1\n      tag_27\n      jump\t// in\n    tag_26:\n      mload(0x40)\n      dup1\n      swap2\n      sub\n      swap1\n      return\n        /* \"contracts/OpenHelp.sol\":2633:2746  function _getUserData(address _user) public view returns (UserData memory){... */\n    tag_5:\n      callvalue\n      dup1\n      iszero\n      tag_28\n      jumpi\n      0x00\n      dup1\n      revert\n    tag_28:\n      pop\n      tag_29\n      0x04\n      dup1\n      calldatasize\n      sub\n      dup2\n      add\n      swap1\n      tag_30\n      swap2\n      swap1\n      tag_24\n      jump\t// in\n    tag_30:\n      tag_31\n      jump\t// in\n    tag_29:\n      mload(0x40)\n      tag_32\n      swap2\n      swap1\n      tag_33\n      jump\t// in\n    tag_32:\n      mload(0x40)\n      dup1\n      swap2\n      sub\n      swap1\n      return\n        /* \"contracts/OpenHelp.sol\":2752:3085  function _validateUser(address _user) public view returns (bool _isNew, uint _nftID, Level _actualUserLevel){... */\n    tag_6:\n      callvalue\n      dup1\n      iszero\n      tag_34\n      jumpi\n      0x00\n      dup1\n      revert\n    tag_34:\n      pop\n      tag_35\n      0x04\n      dup1\n      calldatasize\n      sub\n      dup2\n      add\n      swap1\n      tag_36\n      swap2\n      swap1\n      tag_24\n      jump\t// in\n    tag_36:\n      tag_37\n      jump\t// in\n    tag_35:\n      mload(0x40)\n      tag_38\n      swap4\n      swap3\n      swap2\n      swap1\n      tag_39\n      jump\t// in\n    tag_38:\n      mload(0x40)\n      dup1\n      swap2\n      sub\n      swap1\n      return\n        /* \"contracts/OpenHelp.sol\":929:1052  function setNftContractAddress(address _nftContractAddress) public{... */\n    tag_7:\n      callvalue\n      dup1\n      iszero\n      tag_40\n      jumpi\n      0x00\n      dup1\n      revert\n    tag_40:\n      pop\n      tag_41\n      0x04\n      dup1\n      calldatasize\n      sub\n      dup2\n      add\n      swap1\n      tag_42\n      swap2\n      swap1\n      tag_24\n      jump\t// in\n    tag_42:\n      tag_43\n      jump\t// in\n    tag_41:\n      stop\n        /* \"contracts/OpenHelp.sol\":3091:4055  function _getLevel(address _user, uint amount) public view returns (Level _level){... */\n    tag_8:\n      callvalue\n      dup1\n      iszero\n      tag_44\n      jumpi\n      0x00\n      dup1\n      revert\n    tag_44:\n      pop\n      tag_45\n      0x04\n      dup1\n      calldatasize\n      sub\n      dup2\n      add\n      swap1\n      tag_46\n      swap2\n      swap1\n      tag_47\n      jump\t// in\n    tag_46:\n      tag_48\n      jump\t// in\n    tag_45:\n      mload(0x40)\n      tag_49\n      swap2\n      swap1\n      tag_50\n      jump\t// in\n    tag_49:\n      mload(0x40)\n      dup1\n      swap2\n      sub\n      swap1\n      return\n        /* \"contracts/OpenHelp.sol\":1621:2627  function _donate() public payable{... */\n    tag_9:\n      tag_51\n      tag_52\n      jump\t// in\n    tag_51:\n      stop\n        /* \"contracts/OpenHelp.sol\":1343:1474  function getPreviewNFT() public view returns(string[5] memory){... */\n    tag_13:\n        /* \"contracts/OpenHelp.sol\":1388:1404  string[5] memory */\n      tag_53\n      tag_54\n      jump\t// in\n    tag_53:\n        /* \"contracts/OpenHelp.sol\":1432:1450  nftContractAddress */\n      0x00\n      dup1\n      sload\n      swap1\n      0x0100\n      exp\n      swap1\n      div\n      0xffffffffffffffffffffffffffffffffffffffff\n      and\n        /* \"contracts/OpenHelp.sol\":1422:1465  IOpenHelp(nftContractAddress).getPreviewNFT */\n      0xffffffffffffffffffffffffffffffffffffffff\n      and\n      0x0bbc735a\n        /* \"contracts/OpenHelp.sol\":1422:1467  IOpenHelp(nftContractAddress).getPreviewNFT() */\n      mload(0x40)\n      dup2\n      0xffffffff\n      and\n      0xe0\n      shl\n      dup2\n      mstore\n      0x04\n      add\n      0x00\n      mload(0x40)\n      dup1\n      dup4\n      sub\n      dup2\n      dup7\n      dup1\n      extcodesize\n      iszero\n      dup1\n      iszero\n      tag_56\n      jumpi\n      0x00\n      dup1\n      revert\n    tag_56:\n      pop\n      gas\n      staticcall\n      iszero\n      dup1\n      iszero\n      tag_58\n      jumpi\n      returndatasize\n      0x00\n      dup1\n      returndatacopy\n      revert(0x00, returndatasize)\n    tag_58:\n      pop\n      pop\n      pop\n      pop\n      mload(0x40)\n      returndatasize\n      0x00\n      dup3\n      returndatacopy\n      returndatasize\n      not(0x1f)\n      0x1f\n      dup3\n      add\n      and\n      dup3\n      add\n      dup1\n      0x40\n      mstore\n      pop\n      dup2\n      add\n      swap1\n      tag_59\n      swap2\n      swap1\n      tag_60\n      jump\t// in\n    tag_59:\n        /* \"contracts/OpenHelp.sol\":1415:1467  return IOpenHelp(nftContractAddress).getPreviewNFT() */\n      swap1\n      pop\n        /* \"contracts/OpenHelp.sol\":1343:1474  function getPreviewNFT() public view returns(string[5] memory){... */\n      swap1\n      jump\t// out\n        /* \"contracts/OpenHelp.sol\":523:546  uint public totalAmount */\n    tag_18:\n      sload(0x02)\n      dup2\n      jump\t// out\n        /* \"contracts/OpenHelp.sol\":552:596  mapping(address => UserData) public userList */\n    tag_25:\n      mstore(0x20, 0x03)\n      dup1\n      0x00\n      mstore\n      keccak256(0x00, 0x40)\n      0x00\n      swap2\n      pop\n      swap1\n      pop\n      dup1\n      0x00\n      add\n      0x00\n      swap1\n      sload\n      swap1\n      0x0100\n      exp\n      swap1\n      div\n      0xffffffffffffffffffffffffffffffffffffffff\n      and\n      swap1\n      dup1\n      0x01\n      add\n      sload\n      swap1\n      dup1\n      0x02\n      add\n      sload\n      swap1\n      dup1\n      0x03\n      add\n      0x00\n      swap1\n      sload\n      swap1\n      0x0100\n      exp\n      swap1\n      div\n      0xff\n      and\n      swap1\n      pop\n      dup5\n      jump\t// out\n        /* \"contracts/OpenHelp.sol\":2633:2746  function _getUserData(address _user) public view returns (UserData memory){... */\n    tag_31:\n        /* \"contracts/OpenHelp.sol\":2691:2706  UserData memory */\n      tag_61\n      tag_62\n      jump\t// in\n    tag_61:\n        /* \"contracts/OpenHelp.sol\":2724:2732  userList */\n      0x03\n        /* \"contracts/OpenHelp.sol\":2724:2739  userList[_user] */\n      0x00\n        /* \"contracts/OpenHelp.sol\":2733:2738  _user */\n      dup4\n        /* \"contracts/OpenHelp.sol\":2724:2739  userList[_user] */\n      0xffffffffffffffffffffffffffffffffffffffff\n      and\n      0xffffffffffffffffffffffffffffffffffffffff\n      and\n      dup2\n      mstore\n      0x20\n      add\n      swap1\n      dup2\n      mstore\n      0x20\n      add\n      0x00\n      keccak256\n        /* \"contracts/OpenHelp.sol\":2717:2739  return userList[_user] */\n      mload(0x40)\n      dup1\n      0x80\n      add\n      0x40\n      mstore\n      swap1\n      dup2\n      0x00\n      dup3\n      add\n      0x00\n      swap1\n      sload\n      swap1\n      0x0100\n      exp\n      swap1\n      div\n      0xffffffffffffffffffffffffffffffffffffffff\n      and\n      0xffffffffffffffffffffffffffffffffffffffff\n      and\n      0xffffffffffffffffffffffffffffffffffffffff\n      and\n      dup2\n      mstore\n      0x20\n      add\n      0x01\n      dup3\n      add\n      sload\n      dup2\n      mstore\n      0x20\n      add\n      0x02\n      dup3\n      add\n      sload\n      dup2\n      mstore\n      0x20\n      add\n      0x03\n      dup3\n      add\n      0x00\n      swap1\n      sload\n      swap1\n      0x0100\n      exp\n      swap1\n      div\n      0xff\n      and\n      0x04\n      dup2\n      gt\n      iszero\n      tag_64\n      jumpi\n      tag_65\n      tag_66\n      jump\t// in\n    tag_65:\n    tag_64:\n      0x04\n      dup2\n      gt\n      iszero\n      tag_67\n      jumpi\n      tag_68\n      tag_66\n      jump\t// in\n    tag_68:\n    tag_67:\n      dup2\n      mstore\n      pop\n      pop\n      swap1\n      pop\n        /* \"contracts/OpenHelp.sol\":2633:2746  function _getUserData(address _user) public view returns (UserData memory){... */\n      swap2\n      swap1\n      pop\n      jump\t// out\n        /* \"contracts/OpenHelp.sol\":2752:3085  function _validateUser(address _user) public view returns (bool _isNew, uint _nftID, Level _actualUserLevel){... */\n    tag_37:\n        /* \"contracts/OpenHelp.sol\":2811:2822  bool _isNew */\n      0x00\n        /* \"contracts/OpenHelp.sol\":2824:2835  uint _nftID */\n      dup1\n        /* \"contracts/OpenHelp.sol\":2837:2859  Level _actualUserLevel */\n      0x00\n        /* \"contracts/OpenHelp.sol\":2898:2899  0 */\n      dup1\n        /* \"contracts/OpenHelp.sol\":2873:2881  userList */\n      0x03\n        /* \"contracts/OpenHelp.sol\":2873:2888  userList[_user] */\n      0x00\n        /* \"contracts/OpenHelp.sol\":2882:2887  _user */\n      dup7\n        /* \"contracts/OpenHelp.sol\":2873:2888  userList[_user] */\n      0xffffffffffffffffffffffffffffffffffffffff\n      and\n      0xffffffffffffffffffffffffffffffffffffffff\n      and\n      dup2\n      mstore\n      0x20\n      add\n      swap1\n      dup2\n      mstore\n      0x20\n      add\n      0x00\n      keccak256\n        /* \"contracts/OpenHelp.sol\":2873:2894  userList[_user].nftID */\n      0x02\n      add\n      sload\n        /* \"contracts/OpenHelp.sol\":2873:2899  userList[_user].nftID != 0 */\n      eq\n        /* \"contracts/OpenHelp.sol\":2870:3079  if(userList[_user].nftID != 0){... */\n      tag_70\n      jumpi\n        /* \"contracts/OpenHelp.sol\":2923:2928  false */\n      0x00\n        /* \"contracts/OpenHelp.sol\":2914:2928  _isNew = false */\n      swap3\n      pop\n        /* \"contracts/OpenHelp.sol\":2951:2959  userList */\n      0x03\n        /* \"contracts/OpenHelp.sol\":2951:2966  userList[_user] */\n      0x00\n        /* \"contracts/OpenHelp.sol\":2960:2965  _user */\n      dup6\n        /* \"contracts/OpenHelp.sol\":2951:2966  userList[_user] */\n      0xffffffffffffffffffffffffffffffffffffffff\n      and\n      0xffffffffffffffffffffffffffffffffffffffff\n      and\n      dup2\n      mstore\n      0x20\n      add\n      swap1\n      dup2\n      mstore\n      0x20\n      add\n      0x00\n      keccak256\n        /* \"contracts/OpenHelp.sol\":2951:2972  userList[_user].nftID */\n      0x02\n      add\n      sload\n        /* \"contracts/OpenHelp.sol\":2942:2972  _nftID = userList[_user].nftID */\n      swap2\n      pop\n        /* \"contracts/OpenHelp.sol\":3005:3013  userList */\n      0x03\n        /* \"contracts/OpenHelp.sol\":3005:3020  userList[_user] */\n      0x00\n        /* \"contracts/OpenHelp.sol\":3014:3019  _user */\n      dup6\n        /* \"contracts/OpenHelp.sol\":3005:3020  userList[_user] */\n      0xffffffffffffffffffffffffffffffffffffffff\n      and\n      0xffffffffffffffffffffffffffffffffffffffff\n      and\n      dup2\n      mstore\n      0x20\n      add\n      swap1\n      dup2\n      mstore\n      0x20\n      add\n      0x00\n      keccak256\n        /* \"contracts/OpenHelp.sol\":3005:3026  userList[_user].level */\n      0x03\n      add\n      0x00\n      swap1\n      sload\n      swap1\n      0x0100\n      exp\n      swap1\n      div\n      0xff\n      and\n        /* \"contracts/OpenHelp.sol\":2986:3026  _actualUserLevel = userList[_user].level */\n      swap1\n      pop\n        /* \"contracts/OpenHelp.sol\":2870:3079  if(userList[_user].nftID != 0){... */\n      jump(tag_71)\n    tag_70:\n        /* \"contracts/OpenHelp.sol\":3064:3068  true */\n      0x01\n        /* \"contracts/OpenHelp.sol\":3055:3068  _isNew = true */\n      swap3\n      pop\n        /* \"contracts/OpenHelp.sol\":2870:3079  if(userList[_user].nftID != 0){... */\n    tag_71:\n        /* \"contracts/OpenHelp.sol\":2752:3085  function _validateUser(address _user) public view returns (bool _isNew, uint _nftID, Level _actualUserLevel){... */\n      swap2\n      swap4\n      swap1\n      swap3\n      pop\n      jump\t// out\n        /* \"contracts/OpenHelp.sol\":929:1052  function setNftContractAddress(address _nftContractAddress) public{... */\n    tag_43:\n        /* \"contracts/OpenHelp.sol\":1026:1045  _nftContractAddress */\n      dup1\n        /* \"contracts/OpenHelp.sol\":1005:1023  nftContractAddress */\n      0x00\n      dup1\n        /* \"contracts/OpenHelp.sol\":1005:1045  nftContractAddress = _nftContractAddress */\n      0x0100\n      exp\n      dup2\n      sload\n      dup2\n      0xffffffffffffffffffffffffffffffffffffffff\n      mul\n      not\n      and\n      swap1\n      dup4\n      0xffffffffffffffffffffffffffffffffffffffff\n      and\n      mul\n      or\n      swap1\n      sstore\n      pop\n        /* \"contracts/OpenHelp.sol\":929:1052  function setNftContractAddress(address _nftContractAddress) public{... */\n      pop\n      jump\t// out\n        /* \"contracts/OpenHelp.sol\":3091:4055  function _getLevel(address _user, uint amount) public view returns (Level _level){... */\n    tag_48:\n        /* \"contracts/OpenHelp.sol\":3159:3171  Level _level */\n      0x00\n        /* \"contracts/OpenHelp.sol\":3244:3260  uint _nextAmount */\n      dup1\n        /* \"contracts/OpenHelp.sol\":3296:3302  amount */\n      dup3\n        /* \"contracts/OpenHelp.sol\":3263:3271  userList */\n      0x03\n        /* \"contracts/OpenHelp.sol\":3263:3278  userList[_user] */\n      0x00\n        /* \"contracts/OpenHelp.sol\":3272:3277  _user */\n      dup7\n        /* \"contracts/OpenHelp.sol\":3263:3278  userList[_user] */\n      0xffffffffffffffffffffffffffffffffffffffff\n      and\n      0xffffffffffffffffffffffffffffffffffffffff\n      and\n      dup2\n      mstore\n      0x20\n      add\n      swap1\n      dup2\n      mstore\n      0x20\n      add\n      0x00\n      keccak256\n        /* \"contracts/OpenHelp.sol\":3263:3293  userList[_user].donationAmount */\n      0x01\n      add\n      sload\n        /* \"contracts/OpenHelp.sol\":3263:3302  userList[_user].donationAmount + amount */\n      tag_74\n      swap2\n      swap1\n      tag_75\n      jump\t// in\n    tag_74:\n        /* \"contracts/OpenHelp.sol\":3244:3302  uint _nextAmount = userList[_user].donationAmount + amount */\n      swap1\n      pop\n        /* \"contracts/OpenHelp.sol\":3343:3365  userAmountsLevelLimits */\n      0x04\n        /* \"contracts/OpenHelp.sol\":3366:3367  0 */\n      0x00\n        /* \"contracts/OpenHelp.sol\":3343:3368  userAmountsLevelLimits[0] */\n      dup2\n      sload\n      dup2\n      lt\n      tag_76\n      jumpi\n      tag_77\n      tag_78\n      jump\t// in\n    tag_77:\n    tag_76:\n      swap1\n      0x00\n      mstore\n      keccak256(0x00, 0x20)\n      add\n      sload\n        /* \"contracts/OpenHelp.sol\":3328:3339  _nextAmount */\n      dup2\n        /* \"contracts/OpenHelp.sol\":3328:3368  _nextAmount >= userAmountsLevelLimits[0] */\n      lt\n      iszero\n        /* \"contracts/OpenHelp.sol\":3328:3424  _nextAmount >= userAmountsLevelLimits[0] && ... */\n      dup1\n      iszero\n      tag_80\n      jumpi\n      pop\n        /* \"contracts/OpenHelp.sol\":3399:3421  userAmountsLevelLimits */\n      0x04\n        /* \"contracts/OpenHelp.sol\":3422:3423  1 */\n      0x01\n        /* \"contracts/OpenHelp.sol\":3399:3424  userAmountsLevelLimits[1] */\n      dup2\n      sload\n      dup2\n      lt\n      tag_81\n      jumpi\n      tag_82\n      tag_78\n      jump\t// in\n    tag_82:\n    tag_81:\n      swap1\n      0x00\n      mstore\n      keccak256(0x00, 0x20)\n      add\n      sload\n        /* \"contracts/OpenHelp.sol\":3385:3396  _nextAmount */\n      dup2\n        /* \"contracts/OpenHelp.sol\":3385:3424  _nextAmount < userAmountsLevelLimits[1] */\n      lt\n        /* \"contracts/OpenHelp.sol\":3328:3424  _nextAmount >= userAmountsLevelLimits[0] && ... */\n    tag_80:\n        /* \"contracts/OpenHelp.sol\":3312:4049  if(... */\n      iszero\n      tag_84\n      jumpi\n        /* \"contracts/OpenHelp.sol\":3457:3469  Level.Nivel1 */\n      0x00\n        /* \"contracts/OpenHelp.sol\":3448:3469  _level = Level.Nivel1 */\n      swap2\n      pop\n        /* \"contracts/OpenHelp.sol\":3312:4049  if(... */\n      jump(tag_85)\n    tag_84:\n        /* \"contracts/OpenHelp.sol\":3516:3538  userAmountsLevelLimits */\n      0x04\n        /* \"contracts/OpenHelp.sol\":3539:3540  1 */\n      0x01\n        /* \"contracts/OpenHelp.sol\":3516:3541  userAmountsLevelLimits[1] */\n      dup2\n      sload\n      dup2\n      lt\n      tag_86\n      jumpi\n      tag_87\n      tag_78\n      jump\t// in\n    tag_87:\n    tag_86:\n      swap1\n      0x00\n      mstore\n      keccak256(0x00, 0x20)\n      add\n      sload\n        /* \"contracts/OpenHelp.sol\":3501:3512  _nextAmount */\n      dup2\n        /* \"contracts/OpenHelp.sol\":3501:3541  _nextAmount >= userAmountsLevelLimits[1] */\n      lt\n      iszero\n        /* \"contracts/OpenHelp.sol\":3501:3597  _nextAmount >= userAmountsLevelLimits[1] && ... */\n      dup1\n      iszero\n      tag_89\n      jumpi\n      pop\n        /* \"contracts/OpenHelp.sol\":3572:3594  userAmountsLevelLimits */\n      0x04\n        /* \"contracts/OpenHelp.sol\":3595:3596  2 */\n      0x02\n        /* \"contracts/OpenHelp.sol\":3572:3597  userAmountsLevelLimits[2] */\n      dup2\n      sload\n      dup2\n      lt\n      tag_90\n      jumpi\n      tag_91\n      tag_78\n      jump\t// in\n    tag_91:\n    tag_90:\n      swap1\n      0x00\n      mstore\n      keccak256(0x00, 0x20)\n      add\n      sload\n        /* \"contracts/OpenHelp.sol\":3558:3569  _nextAmount */\n      dup2\n        /* \"contracts/OpenHelp.sol\":3558:3597  _nextAmount < userAmountsLevelLimits[2] */\n      lt\n        /* \"contracts/OpenHelp.sol\":3501:3597  _nextAmount >= userAmountsLevelLimits[1] && ... */\n    tag_89:\n        /* \"contracts/OpenHelp.sol\":3485:4049  if(... */\n      iszero\n      tag_93\n      jumpi\n        /* \"contracts/OpenHelp.sol\":3630:3642  Level.Nivel2 */\n      0x01\n        /* \"contracts/OpenHelp.sol\":3621:3642  _level = Level.Nivel2 */\n      swap2\n      pop\n        /* \"contracts/OpenHelp.sol\":3485:4049  if(... */\n      jump(tag_94)\n    tag_93:\n        /* \"contracts/OpenHelp.sol\":3689:3711  userAmountsLevelLimits */\n      0x04\n        /* \"contracts/OpenHelp.sol\":3712:3713  2 */\n      0x02\n        /* \"contracts/OpenHelp.sol\":3689:3714  userAmountsLevelLimits[2] */\n      dup2\n      sload\n      dup2\n      lt\n      tag_95\n      jumpi\n      tag_96\n      tag_78\n      jump\t// in\n    tag_96:\n    tag_95:\n      swap1\n      0x00\n      mstore\n      keccak256(0x00, 0x20)\n      add\n      sload\n        /* \"contracts/OpenHelp.sol\":3674:3685  _nextAmount */\n      dup2\n        /* \"contracts/OpenHelp.sol\":3674:3714  _nextAmount >= userAmountsLevelLimits[2] */\n      lt\n      iszero\n        /* \"contracts/OpenHelp.sol\":3674:3770  _nextAmount >= userAmountsLevelLimits[2] && ... */\n      dup1\n      iszero\n      tag_98\n      jumpi\n      pop\n        /* \"contracts/OpenHelp.sol\":3745:3767  userAmountsLevelLimits */\n      0x04\n        /* \"contracts/OpenHelp.sol\":3768:3769  3 */\n      0x03\n        /* \"contracts/OpenHelp.sol\":3745:3770  userAmountsLevelLimits[3] */\n      dup2\n      sload\n      dup2\n      lt\n      tag_99\n      jumpi\n      tag_100\n      tag_78\n      jump\t// in\n    tag_100:\n    tag_99:\n      swap1\n      0x00\n      mstore\n      keccak256(0x00, 0x20)\n      add\n      sload\n        /* \"contracts/OpenHelp.sol\":3731:3742  _nextAmount */\n      dup2\n        /* \"contracts/OpenHelp.sol\":3731:3770  _nextAmount < userAmountsLevelLimits[3] */\n      lt\n        /* \"contracts/OpenHelp.sol\":3674:3770  _nextAmount >= userAmountsLevelLimits[2] && ... */\n    tag_98:\n        /* \"contracts/OpenHelp.sol\":3658:4049  if(... */\n      iszero\n      tag_102\n      jumpi\n        /* \"contracts/OpenHelp.sol\":3803:3815  Level.Nivel3 */\n      0x02\n        /* \"contracts/OpenHelp.sol\":3794:3815  _level = Level.Nivel3 */\n      swap2\n      pop\n        /* \"contracts/OpenHelp.sol\":3658:4049  if(... */\n      jump(tag_103)\n    tag_102:\n        /* \"contracts/OpenHelp.sol\":3862:3884  userAmountsLevelLimits */\n      0x04\n        /* \"contracts/OpenHelp.sol\":3885:3886  3 */\n      0x03\n        /* \"contracts/OpenHelp.sol\":3862:3887  userAmountsLevelLimits[3] */\n      dup2\n      sload\n      dup2\n      lt\n      tag_104\n      jumpi\n      tag_105\n      tag_78\n      jump\t// in\n    tag_105:\n    tag_104:\n      swap1\n      0x00\n      mstore\n      keccak256(0x00, 0x20)\n      add\n      sload\n        /* \"contracts/OpenHelp.sol\":3847:3858  _nextAmount */\n      dup2\n        /* \"contracts/OpenHelp.sol\":3847:3887  _nextAmount >= userAmountsLevelLimits[3] */\n      lt\n      iszero\n        /* \"contracts/OpenHelp.sol\":3847:3943  _nextAmount >= userAmountsLevelLimits[3] && ... */\n      dup1\n      iszero\n      tag_107\n      jumpi\n      pop\n        /* \"contracts/OpenHelp.sol\":3918:3940  userAmountsLevelLimits */\n      0x04\n        /* \"contracts/OpenHelp.sol\":3941:3942  4 */\n      dup1\n        /* \"contracts/OpenHelp.sol\":3918:3943  userAmountsLevelLimits[4] */\n      dup2\n      sload\n      dup2\n      lt\n      tag_108\n      jumpi\n      tag_109\n      tag_78\n      jump\t// in\n    tag_109:\n    tag_108:\n      swap1\n      0x00\n      mstore\n      keccak256(0x00, 0x20)\n      add\n      sload\n        /* \"contracts/OpenHelp.sol\":3904:3915  _nextAmount */\n      dup2\n        /* \"contracts/OpenHelp.sol\":3904:3943  _nextAmount < userAmountsLevelLimits[4] */\n      lt\n        /* \"contracts/OpenHelp.sol\":3847:3943  _nextAmount >= userAmountsLevelLimits[3] && ... */\n    tag_107:\n        /* \"contracts/OpenHelp.sol\":3831:4049  if(... */\n      iszero\n      tag_111\n      jumpi\n        /* \"contracts/OpenHelp.sol\":3976:3988  Level.Nivel4 */\n      0x03\n        /* \"contracts/OpenHelp.sol\":3967:3988  _level = Level.Nivel4 */\n      swap2\n      pop\n        /* \"contracts/OpenHelp.sol\":3831:4049  if(... */\n      jump(tag_112)\n    tag_111:\n        /* \"contracts/OpenHelp.sol\":4026:4038  Level.Nivel5 */\n      0x04\n        /* \"contracts/OpenHelp.sol\":4017:4038  _level = Level.Nivel5 */\n      swap2\n      pop\n        /* \"contracts/OpenHelp.sol\":3831:4049  if(... */\n    tag_112:\n        /* \"contracts/OpenHelp.sol\":3658:4049  if(... */\n    tag_103:\n        /* \"contracts/OpenHelp.sol\":3485:4049  if(... */\n    tag_94:\n        /* \"contracts/OpenHelp.sol\":3312:4049  if(... */\n    tag_85:\n        /* \"contracts/OpenHelp.sol\":3172:4055  {... */\n      pop\n        /* \"contracts/OpenHelp.sol\":3091:4055  function _getLevel(address _user, uint amount) public view returns (Level _level){... */\n      swap3\n      swap2\n      pop\n      pop\n      jump\t// out\n        /* \"contracts/OpenHelp.sol\":1621:2627  function _donate() public payable{... */\n    tag_52:\n        /* \"contracts/OpenHelp.sol\":1684:1706  userAmountsLevelLimits */\n      0x04\n        /* \"contracts/OpenHelp.sol\":1707:1708  0 */\n      0x00\n        /* \"contracts/OpenHelp.sol\":1684:1709  userAmountsLevelLimits[0] */\n      dup2\n      sload\n      dup2\n      lt\n      tag_114\n      jumpi\n      tag_115\n      tag_78\n      jump\t// in\n    tag_115:\n    tag_114:\n      swap1\n      0x00\n      mstore\n      keccak256(0x00, 0x20)\n      add\n      sload\n        /* \"contracts/OpenHelp.sol\":1672:1681  msg.value */\n      callvalue\n        /* \"contracts/OpenHelp.sol\":1672:1709  msg.value > userAmountsLevelLimits[0] */\n      gt\n        /* \"contracts/OpenHelp.sol\":1664:1760  require(msg.value > userAmountsLevelLimits[0], \"Value must be greater than the minimun amount.\") */\n      tag_117\n      jumpi\n      mload(0x40)\n      0x08c379a000000000000000000000000000000000000000000000000000000000\n      dup2\n      mstore\n      0x04\n      add\n      tag_118\n      swap1\n      tag_119\n      jump\t// in\n    tag_118:\n      mload(0x40)\n      dup1\n      swap2\n      sub\n      swap1\n      revert\n    tag_117:\n        /* \"contracts/OpenHelp.sol\":1770:1785  address _sender */\n      0x00\n        /* \"contracts/OpenHelp.sol\":1788:1798  msg.sender */\n      caller\n        /* \"contracts/OpenHelp.sol\":1770:1798  address _sender = msg.sender */\n      swap1\n      pop\n        /* \"contracts/OpenHelp.sol\":1825:1840  bool _isNewUser */\n      0x00\n        /* \"contracts/OpenHelp.sol\":1842:1857  uint _userNftID */\n      dup1\n        /* \"contracts/OpenHelp.sol\":1859:1881  Level _actualUserLevel */\n      0x00\n        /* \"contracts/OpenHelp.sol\":1885:1907  _validateUser(_sender) */\n      tag_120\n        /* \"contracts/OpenHelp.sol\":1899:1906  _sender */\n      dup5\n        /* \"contracts/OpenHelp.sol\":1885:1898  _validateUser */\n      tag_37\n        /* \"contracts/OpenHelp.sol\":1885:1907  _validateUser(_sender) */\n      jump\t// in\n    tag_120:\n        /* \"contracts/OpenHelp.sol\":1824:1907  (bool _isNewUser, uint _userNftID, Level _actualUserLevel) = _validateUser(_sender) */\n      swap3\n      pop\n      swap3\n      pop\n      swap3\n      pop\n        /* \"contracts/OpenHelp.sol\":1917:1937  Level _userNextLevel */\n      0x00\n        /* \"contracts/OpenHelp.sol\":1940:1969  _getLevel(_sender, msg.value) */\n      tag_121\n        /* \"contracts/OpenHelp.sol\":1950:1957  _sender */\n      dup6\n        /* \"contracts/OpenHelp.sol\":1959:1968  msg.value */\n      callvalue\n        /* \"contracts/OpenHelp.sol\":1940:1949  _getLevel */\n      tag_48\n        /* \"contracts/OpenHelp.sol\":1940:1969  _getLevel(_sender, msg.value) */\n      jump\t// in\n    tag_121:\n        /* \"contracts/OpenHelp.sol\":1917:1969  Level _userNextLevel = _getLevel(_sender, msg.value) */\n      swap1\n      pop\n        /* \"contracts/OpenHelp.sol\":1996:2001  owner */\n      0x01\n      0x00\n      swap1\n      sload\n      swap1\n      0x0100\n      exp\n      swap1\n      div\n      0xffffffffffffffffffffffffffffffffffffffff\n      and\n        /* \"contracts/OpenHelp.sol\":1988:2007  payable(owner).send */\n      0xffffffffffffffffffffffffffffffffffffffff\n      and\n        /* \"contracts/OpenHelp.sol\":1988:2018  payable(owner).send(msg.value) */\n      0x08fc\n        /* \"contracts/OpenHelp.sol\":2008:2017  msg.value */\n      callvalue\n        /* \"contracts/OpenHelp.sol\":1988:2018  payable(owner).send(msg.value) */\n      swap1\n      dup2\n      iszero\n      mul\n      swap1\n      mload(0x40)\n      0x00\n      mload(0x40)\n      dup1\n      dup4\n      sub\n      dup2\n      dup6\n      dup9\n      dup9\n      call\n      swap4\n      pop\n      pop\n      pop\n      pop\n        /* \"contracts/OpenHelp.sol\":1980:2044  require(payable(owner).send(msg.value), \"Transacction aborted.\") */\n      tag_123\n      jumpi\n      mload(0x40)\n      0x08c379a000000000000000000000000000000000000000000000000000000000\n      dup2\n      mstore\n      0x04\n      add\n      tag_124\n      swap1\n      tag_125\n      jump\t// in\n    tag_124:\n      mload(0x40)\n      dup1\n      swap2\n      sub\n      swap1\n      revert\n    tag_123:\n        /* \"contracts/OpenHelp.sol\":2090:2099  msg.value */\n      callvalue\n        /* \"contracts/OpenHelp.sol\":2054:2062  userList */\n      0x03\n        /* \"contracts/OpenHelp.sol\":2054:2071  userList[_sender] */\n      0x00\n        /* \"contracts/OpenHelp.sol\":2063:2070  _sender */\n      dup8\n        /* \"contracts/OpenHelp.sol\":2054:2071  userList[_sender] */\n      0xffffffffffffffffffffffffffffffffffffffff\n      and\n      0xffffffffffffffffffffffffffffffffffffffff\n      and\n      dup2\n      mstore\n      0x20\n      add\n      swap1\n      dup2\n      mstore\n      0x20\n      add\n      0x00\n      keccak256\n        /* \"contracts/OpenHelp.sol\":2054:2086  userList[_sender].donationAmount */\n      0x01\n      add\n      0x00\n        /* \"contracts/OpenHelp.sol\":2054:2099  userList[_sender].donationAmount += msg.value */\n      dup3\n      dup3\n      sload\n      tag_126\n      swap2\n      swap1\n      tag_75\n      jump\t// in\n    tag_126:\n      swap3\n      pop\n      pop\n      dup2\n      swap1\n      sstore\n      pop\n        /* \"contracts/OpenHelp.sol\":2135:2149  _userNextLevel */\n      dup1\n        /* \"contracts/OpenHelp.sol\":2109:2117  userList */\n      0x03\n        /* \"contracts/OpenHelp.sol\":2109:2126  userList[_sender] */\n      0x00\n        /* \"contracts/OpenHelp.sol\":2118:2125  _sender */\n      dup8\n        /* \"contracts/OpenHelp.sol\":2109:2126  userList[_sender] */\n      0xffffffffffffffffffffffffffffffffffffffff\n      and\n      0xffffffffffffffffffffffffffffffffffffffff\n      and\n      dup2\n      mstore\n      0x20\n      add\n      swap1\n      dup2\n      mstore\n      0x20\n      add\n      0x00\n      keccak256\n        /* \"contracts/OpenHelp.sol\":2109:2132  userList[_sender].level */\n      0x03\n      add\n      0x00\n        /* \"contracts/OpenHelp.sol\":2109:2149  userList[_sender].level = _userNextLevel */\n      0x0100\n      exp\n      dup2\n      sload\n      dup2\n      0xff\n      mul\n      not\n      and\n      swap1\n      dup4\n      0x04\n      dup2\n      gt\n      iszero\n      tag_127\n      jumpi\n      tag_128\n      tag_66\n      jump\t// in\n    tag_128:\n    tag_127:\n      mul\n      or\n      swap1\n      sstore\n      pop\n        /* \"contracts/OpenHelp.sol\":2174:2183  msg.value */\n      callvalue\n        /* \"contracts/OpenHelp.sol\":2159:2170  totalAmount */\n      0x02\n      0x00\n        /* \"contracts/OpenHelp.sol\":2159:2183  totalAmount += msg.value */\n      dup3\n      dup3\n      sload\n      tag_129\n      swap2\n      swap1\n      tag_75\n      jump\t// in\n    tag_129:\n      swap3\n      pop\n      pop\n      dup2\n      swap1\n      sstore\n      pop\n        /* \"contracts/OpenHelp.sol\":2193:2208  uint levelValue */\n      0x00\n        /* \"contracts/OpenHelp.sol\":2216:2224  userList */\n      0x03\n        /* \"contracts/OpenHelp.sol\":2216:2233  userList[_sender] */\n      0x00\n        /* \"contracts/OpenHelp.sol\":2225:2232  _sender */\n      dup8\n        /* \"contracts/OpenHelp.sol\":2216:2233  userList[_sender] */\n      0xffffffffffffffffffffffffffffffffffffffff\n      and\n      0xffffffffffffffffffffffffffffffffffffffff\n      and\n      dup2\n      mstore\n      0x20\n      add\n      swap1\n      dup2\n      mstore\n      0x20\n      add\n      0x00\n      keccak256\n        /* \"contracts/OpenHelp.sol\":2216:2239  userList[_sender].level */\n      0x03\n      add\n      0x00\n      swap1\n      sload\n      swap1\n      0x0100\n      exp\n      swap1\n      div\n      0xff\n      and\n        /* \"contracts/OpenHelp.sol\":2211:2240  uint(userList[_sender].level) */\n      0x04\n      dup2\n      gt\n      iszero\n      tag_130\n      jumpi\n      tag_131\n      tag_66\n      jump\t// in\n    tag_131:\n    tag_130:\n        /* \"contracts/OpenHelp.sol\":2193:2240  uint levelValue = uint(userList[_sender].level) */\n      swap1\n      pop\n        /* \"contracts/OpenHelp.sol\":2253:2263  _isNewUser */\n      dup5\n        /* \"contracts/OpenHelp.sol\":2250:2620  if(_isNewUser){... */\n      iszero\n      tag_132\n      jumpi\n        /* \"contracts/OpenHelp.sol\":2278:2288  uint idNft */\n      0x00\n        /* \"contracts/OpenHelp.sol\":2291:2319  safeMint(_sender,levelValue) */\n      tag_133\n        /* \"contracts/OpenHelp.sol\":2300:2307  _sender */\n      dup8\n        /* \"contracts/OpenHelp.sol\":2308:2318  levelValue */\n      dup4\n        /* \"contracts/OpenHelp.sol\":2291:2299  safeMint */\n      tag_134\n        /* \"contracts/OpenHelp.sol\":2291:2319  safeMint(_sender,levelValue) */\n      jump\t// in\n    tag_133:\n        /* \"contracts/OpenHelp.sol\":2278:2319  uint idNft = safeMint(_sender,levelValue) */\n      swap1\n      pop\n        /* \"contracts/OpenHelp.sol\":2357:2364  _sender */\n      dup7\n        /* \"contracts/OpenHelp.sol\":2334:2342  userList */\n      0x03\n        /* \"contracts/OpenHelp.sol\":2334:2351  userList[_sender] */\n      0x00\n        /* \"contracts/OpenHelp.sol\":2343:2350  _sender */\n      dup10\n        /* \"contracts/OpenHelp.sol\":2334:2351  userList[_sender] */\n      0xffffffffffffffffffffffffffffffffffffffff\n      and\n      0xffffffffffffffffffffffffffffffffffffffff\n      and\n      dup2\n      mstore\n      0x20\n      add\n      swap1\n      dup2\n      mstore\n      0x20\n      add\n      0x00\n      keccak256\n        /* \"contracts/OpenHelp.sol\":2334:2354  userList[_sender].id */\n      0x00\n      add\n      0x00\n        /* \"contracts/OpenHelp.sol\":2334:2364  userList[_sender].id = _sender */\n      0x0100\n      exp\n      dup2\n      sload\n      dup2\n      0xffffffffffffffffffffffffffffffffffffffff\n      mul\n      not\n      and\n      swap1\n      dup4\n      0xffffffffffffffffffffffffffffffffffffffff\n      and\n      mul\n      or\n      swap1\n      sstore\n      pop\n        /* \"contracts/OpenHelp.sol\":2404:2409  idNft */\n      dup1\n        /* \"contracts/OpenHelp.sol\":2378:2386  userList */\n      0x03\n        /* \"contracts/OpenHelp.sol\":2378:2395  userList[_sender] */\n      0x00\n        /* \"contracts/OpenHelp.sol\":2387:2394  _sender */\n      dup10\n        /* \"contracts/OpenHelp.sol\":2378:2395  userList[_sender] */\n      0xffffffffffffffffffffffffffffffffffffffff\n      and\n      0xffffffffffffffffffffffffffffffffffffffff\n      and\n      dup2\n      mstore\n      0x20\n      add\n      swap1\n      dup2\n      mstore\n      0x20\n      add\n      0x00\n      keccak256\n        /* \"contracts/OpenHelp.sol\":2378:2401  userList[_sender].nftID */\n      0x02\n      add\n        /* \"contracts/OpenHelp.sol\":2378:2409  userList[_sender].nftID = idNft */\n      dup2\n      swap1\n      sstore\n      pop\n        /* \"contracts/OpenHelp.sol\":2264:2420  {... */\n      pop\n        /* \"contracts/OpenHelp.sol\":2250:2620  if(_isNewUser){... */\n      jump(tag_135)\n    tag_132:\n        /* \"contracts/OpenHelp.sol\":2528:2542  _userNextLevel */\n      dup2\n        /* \"contracts/OpenHelp.sol\":2508:2542  _actualUserLevel != _userNextLevel */\n      0x04\n      dup2\n      gt\n      iszero\n      tag_136\n      jumpi\n      tag_137\n      tag_66\n      jump\t// in\n    tag_137:\n    tag_136:\n        /* \"contracts/OpenHelp.sol\":2508:2524  _actualUserLevel */\n      dup4\n        /* \"contracts/OpenHelp.sol\":2508:2542  _actualUserLevel != _userNextLevel */\n      0x04\n      dup2\n      gt\n      iszero\n      tag_138\n      jumpi\n      tag_139\n      tag_66\n      jump\t// in\n    tag_139:\n    tag_138:\n      eq\n        /* \"contracts/OpenHelp.sol\":2504:2610  if (_actualUserLevel != _userNextLevel){... */\n      tag_140\n      jumpi\n        /* \"contracts/OpenHelp.sol\":2561:2595  changeLevel(_userNftID,levelValue) */\n      tag_141\n        /* \"contracts/OpenHelp.sol\":2573:2583  _userNftID */\n      dup5\n        /* \"contracts/OpenHelp.sol\":2584:2594  levelValue */\n      dup3\n        /* \"contracts/OpenHelp.sol\":2561:2572  changeLevel */\n      tag_142\n        /* \"contracts/OpenHelp.sol\":2561:2595  changeLevel(_userNftID,levelValue) */\n      jump\t// in\n    tag_141:\n        /* \"contracts/OpenHelp.sol\":2504:2610  if (_actualUserLevel != _userNextLevel){... */\n    tag_140:\n        /* \"contracts/OpenHelp.sol\":2250:2620  if(_isNewUser){... */\n    tag_135:\n        /* \"contracts/OpenHelp.sol\":1654:2627  {... */\n      pop\n      pop\n      pop\n      pop\n      pop\n      pop\n        /* \"contracts/OpenHelp.sol\":1621:2627  function _donate() public payable{... */\n      jump\t// out\n        /* \"contracts/OpenHelp.sol\":1058:1200  function safeMint(address _to, uint _level) private  returns (uint){... */\n    tag_134:\n        /* \"contracts/OpenHelp.sol\":1120:1124  uint */\n      0x00\n        /* \"contracts/OpenHelp.sol\":1152:1170  nftContractAddress */\n      dup1\n      0x00\n      swap1\n      sload\n      swap1\n      0x0100\n      exp\n      swap1\n      div\n      0xffffffffffffffffffffffffffffffffffffffff\n      and\n        /* \"contracts/OpenHelp.sol\":1142:1180  IOpenHelp(nftContractAddress).safeMint */\n      0xffffffffffffffffffffffffffffffffffffffff\n      and\n      0xa1448194\n        /* \"contracts/OpenHelp.sol\":1181:1184  _to */\n      dup5\n        /* \"contracts/OpenHelp.sol\":1186:1192  _level */\n      dup5\n        /* \"contracts/OpenHelp.sol\":1142:1193  IOpenHelp(nftContractAddress).safeMint(_to, _level) */\n      mload(0x40)\n      dup4\n      0xffffffff\n      and\n      0xe0\n      shl\n      dup2\n      mstore\n      0x04\n      add\n      tag_144\n      swap3\n      swap2\n      swap1\n      tag_145\n      jump\t// in\n    tag_144:\n      0x20\n      mload(0x40)\n      dup1\n      dup4\n      sub\n      dup2\n      0x00\n      dup8\n      dup1\n      extcodesize\n      iszero\n      dup1\n      iszero\n      tag_146\n      jumpi\n      0x00\n      dup1\n      revert\n    tag_146:\n      pop\n      gas\n      call\n      iszero\n      dup1\n      iszero\n      tag_148\n      jumpi\n      returndatasize\n      0x00\n      dup1\n      returndatacopy\n      revert(0x00, returndatasize)\n    tag_148:\n      pop\n      pop\n      pop\n      pop\n      mload(0x40)\n      returndatasize\n      not(0x1f)\n      0x1f\n      dup3\n      add\n      and\n      dup3\n      add\n      dup1\n      0x40\n      mstore\n      pop\n      dup2\n      add\n      swap1\n      tag_149\n      swap2\n      swap1\n      tag_150\n      jump\t// in\n    tag_149:\n        /* \"contracts/OpenHelp.sol\":1135:1193  return IOpenHelp(nftContractAddress).safeMint(_to, _level) */\n      swap1\n      pop\n        /* \"contracts/OpenHelp.sol\":1058:1200  function safeMint(address _to, uint _level) private  returns (uint){... */\n      swap3\n      swap2\n      pop\n      pop\n      jump\t// out\n        /* \"contracts/OpenHelp.sol\":1206:1337  function changeLevel(uint _tokenId, uint _level) private{... */\n    tag_142:\n        /* \"contracts/OpenHelp.sol\":1282:1300  nftContractAddress */\n      0x00\n      dup1\n      sload\n      swap1\n      0x0100\n      exp\n      swap1\n      div\n      0xffffffffffffffffffffffffffffffffffffffff\n      and\n        /* \"contracts/OpenHelp.sol\":1272:1313  IOpenHelp(nftContractAddress).changeLevel */\n      0xffffffffffffffffffffffffffffffffffffffff\n      and\n      0xcd057e88\n        /* \"contracts/OpenHelp.sol\":1314:1322  _tokenId */\n      dup4\n        /* \"contracts/OpenHelp.sol\":1323:1329  _level */\n      dup4\n        /* \"contracts/OpenHelp.sol\":1272:1330  IOpenHelp(nftContractAddress).changeLevel(_tokenId,_level) */\n      mload(0x40)\n      dup4\n      0xffffffff\n      and\n      0xe0\n      shl\n      dup2\n      mstore\n      0x04\n      add\n      tag_152\n      swap3\n      swap2\n      swap1\n      tag_153\n      jump\t// in\n    tag_152:\n      0x00\n      mload(0x40)\n      dup1\n      dup4\n      sub\n      dup2\n      0x00\n      dup8\n      dup1\n      extcodesize\n      iszero\n      dup1\n      iszero\n      tag_154\n      jumpi\n      0x00\n      dup1\n      revert\n    tag_154:\n      pop\n      gas\n      call\n      iszero\n      dup1\n      iszero\n      tag_156\n      jumpi\n      returndatasize\n      0x00\n      dup1\n      returndatacopy\n      revert(0x00, returndatasize)\n    tag_156:\n      pop\n      pop\n      pop\n      pop\n        /* \"contracts/OpenHelp.sol\":1206:1337  function changeLevel(uint _tokenId, uint _level) private{... */\n      pop\n      pop\n      jump\t// out\n    tag_54:\n      mload(0x40)\n      dup1\n      0xa0\n      add\n      0x40\n      mstore\n      dup1\n      0x05\n      swap1\n    tag_157:\n      0x60\n      dup2\n      mstore\n      0x20\n      add\n      swap1\n      0x01\n      swap1\n      sub\n      swap1\n      dup2\n      tag_157\n      jumpi\n      swap1\n      pop\n      pop\n      swap1\n      jump\t// out\n    tag_62:\n      mload(0x40)\n      dup1\n      0x80\n      add\n      0x40\n      mstore\n      dup1\n      and(0xffffffffffffffffffffffffffffffffffffffff, 0x00)\n      dup2\n      mstore\n      0x20\n      add\n      0x00\n      dup2\n      mstore\n      0x20\n      add\n      0x00\n      dup2\n      mstore\n      0x20\n      add\n      0x00\n      0x04\n      dup2\n      gt\n      iszero\n      tag_158\n      jumpi\n      tag_159\n      tag_66\n      jump\t// in\n    tag_159:\n    tag_158:\n      dup2\n      mstore\n      pop\n      swap1\n      jump\t// out\n        /* \"#utility.yul\":24:929   */\n    tag_161:\n        /* \"#utility.yul\":139:144   */\n      0x00\n        /* \"#utility.yul\":164:253   */\n      tag_163\n        /* \"#utility.yul\":180:252   */\n      tag_164\n        /* \"#utility.yul\":245:251   */\n      dup5\n        /* \"#utility.yul\":180:252   */\n      tag_165\n      jump\t// in\n    tag_164:\n        /* \"#utility.yul\":164:253   */\n      tag_166\n      jump\t// in\n    tag_163:\n        /* \"#utility.yul\":155:253   */\n      swap1\n      pop\n        /* \"#utility.yul\":273:278   */\n      dup1\n        /* \"#utility.yul\":299:305   */\n      dup3\n        /* \"#utility.yul\":349:352   */\n      dup6\n        /* \"#utility.yul\":341:345   */\n      0x20\n        /* \"#utility.yul\":333:339   */\n      dup7\n        /* \"#utility.yul\":329:346   */\n      mul\n        /* \"#utility.yul\":324:327   */\n      dup3\n        /* \"#utility.yul\":320:347   */\n      add\n        /* \"#utility.yul\":317:353   */\n      gt\n        /* \"#utility.yul\":314:316   */\n      iszero\n      tag_167\n      jumpi\n        /* \"#utility.yul\":368:447   */\n      tag_168\n      tag_169\n      jump\t// in\n    tag_168:\n        /* \"#utility.yul\":314:316   */\n    tag_167:\n        /* \"#utility.yul\":481:482   */\n      0x00\n        /* \"#utility.yul\":466:923   */\n    tag_170:\n        /* \"#utility.yul\":491:497   */\n      dup6\n        /* \"#utility.yul\":488:489   */\n      dup2\n        /* \"#utility.yul\":485:498   */\n      lt\n        /* \"#utility.yul\":466:923   */\n      iszero\n      tag_172\n      jumpi\n        /* \"#utility.yul\":566:569   */\n      dup2\n        /* \"#utility.yul\":560:570   */\n      mload\n        /* \"#utility.yul\":602:620   */\n      0xffffffffffffffff\n        /* \"#utility.yul\":589:600   */\n      dup2\n        /* \"#utility.yul\":586:621   */\n      gt\n        /* \"#utility.yul\":583:585   */\n      iszero\n      tag_173\n      jumpi\n        /* \"#utility.yul\":624:703   */\n      tag_174\n      tag_175\n      jump\t// in\n    tag_174:\n        /* \"#utility.yul\":583:585   */\n    tag_173:\n        /* \"#utility.yul\":748:759   */\n      dup1\n        /* \"#utility.yul\":740:746   */\n      dup7\n        /* \"#utility.yul\":736:760   */\n      add\n        /* \"#utility.yul\":786:844   */\n      tag_176\n        /* \"#utility.yul\":840:843   */\n      dup10\n        /* \"#utility.yul\":828:838   */\n      dup3\n        /* \"#utility.yul\":786:844   */\n      tag_177\n      jump\t// in\n    tag_176:\n        /* \"#utility.yul\":781:784   */\n      dup6\n        /* \"#utility.yul\":774:845   */\n      mstore\n        /* \"#utility.yul\":874:878   */\n      0x20\n        /* \"#utility.yul\":869:872   */\n      dup6\n        /* \"#utility.yul\":865:879   */\n      add\n        /* \"#utility.yul\":858:879   */\n      swap5\n      pop\n        /* \"#utility.yul\":908:912   */\n      0x20\n        /* \"#utility.yul\":903:906   */\n      dup5\n        /* \"#utility.yul\":899:913   */\n      add\n        /* \"#utility.yul\":892:913   */\n      swap4\n      pop\n        /* \"#utility.yul\":526:923   */\n      pop\n      pop\n        /* \"#utility.yul\":513:514   */\n      0x01\n        /* \"#utility.yul\":510:511   */\n      dup2\n        /* \"#utility.yul\":506:515   */\n      add\n        /* \"#utility.yul\":501:515   */\n      swap1\n      pop\n        /* \"#utility.yul\":466:923   */\n      jump(tag_170)\n    tag_172:\n        /* \"#utility.yul\":470:484   */\n      pop\n        /* \"#utility.yul\":145:929   */\n      pop\n      pop\n      swap4\n      swap3\n      pop\n      pop\n      pop\n      jump\t// out\n        /* \"#utility.yul\":935:1356   */\n    tag_178:\n        /* \"#utility.yul\":1024:1029   */\n      0x00\n        /* \"#utility.yul\":1049:1115   */\n      tag_180\n        /* \"#utility.yul\":1065:1114   */\n      tag_181\n        /* \"#utility.yul\":1107:1113   */\n      dup5\n        /* \"#utility.yul\":1065:1114   */\n      tag_182\n      jump\t// in\n    tag_181:\n        /* \"#utility.yul\":1049:1115   */\n      tag_166\n      jump\t// in\n    tag_180:\n        /* \"#utility.yul\":1040:1115   */\n      swap1\n      pop\n        /* \"#utility.yul\":1138:1144   */\n      dup3\n        /* \"#utility.yul\":1131:1136   */\n      dup2\n        /* \"#utility.yul\":1124:1145   */\n      mstore\n        /* \"#utility.yul\":1176:1180   */\n      0x20\n        /* \"#utility.yul\":1169:1174   */\n      dup2\n        /* \"#utility.yul\":1165:1181   */\n      add\n        /* \"#utility.yul\":1214:1217   */\n      dup5\n        /* \"#utility.yul\":1205:1211   */\n      dup5\n        /* \"#utility.yul\":1200:1203   */\n      dup5\n        /* \"#utility.yul\":1196:1212   */\n      add\n        /* \"#utility.yul\":1193:1218   */\n      gt\n        /* \"#utility.yul\":1190:1192   */\n      iszero\n      tag_183\n      jumpi\n        /* \"#utility.yul\":1221:1300   */\n      tag_184\n      tag_185\n      jump\t// in\n    tag_184:\n        /* \"#utility.yul\":1190:1192   */\n    tag_183:\n        /* \"#utility.yul\":1311:1350   */\n      tag_186\n        /* \"#utility.yul\":1343:1349   */\n      dup5\n        /* \"#utility.yul\":1338:1341   */\n      dup3\n        /* \"#utility.yul\":1333:1336   */\n      dup6\n        /* \"#utility.yul\":1311:1350   */\n      tag_187\n      jump\t// in\n    tag_186:\n        /* \"#utility.yul\":1030:1356   */\n      pop\n      swap4\n      swap3\n      pop\n      pop\n      pop\n      jump\t// out\n        /* \"#utility.yul\":1362:1501   */\n    tag_188:\n        /* \"#utility.yul\":1408:1413   */\n      0x00\n        /* \"#utility.yul\":1446:1452   */\n      dup2\n        /* \"#utility.yul\":1433:1453   */\n      calldataload\n        /* \"#utility.yul\":1424:1453   */\n      swap1\n      pop\n        /* \"#utility.yul\":1462:1495   */\n      tag_190\n        /* \"#utility.yul\":1489:1494   */\n      dup2\n        /* \"#utility.yul\":1462:1495   */\n      tag_191\n      jump\t// in\n    tag_190:\n        /* \"#utility.yul\":1414:1501   */\n      swap3\n      swap2\n      pop\n      pop\n      jump\t// out\n        /* \"#utility.yul\":1524:1905   */\n    tag_192:\n        /* \"#utility.yul\":1614:1619   */\n      0x00\n        /* \"#utility.yul\":1663:1666   */\n      dup3\n        /* \"#utility.yul\":1656:1660   */\n      0x1f\n        /* \"#utility.yul\":1648:1654   */\n      dup4\n        /* \"#utility.yul\":1644:1661   */\n      add\n        /* \"#utility.yul\":1640:1667   */\n      slt\n        /* \"#utility.yul\":1630:1632   */\n      tag_194\n      jumpi\n        /* \"#utility.yul\":1671:1750   */\n      tag_195\n      tag_175\n      jump\t// in\n    tag_195:\n        /* \"#utility.yul\":1630:1632   */\n    tag_194:\n        /* \"#utility.yul\":1775:1779   */\n      0x05\n        /* \"#utility.yul\":1797:1899   */\n      tag_196\n        /* \"#utility.yul\":1895:1898   */\n      dup5\n        /* \"#utility.yul\":1887:1893   */\n      dup3\n        /* \"#utility.yul\":1879:1885   */\n      dup6\n        /* \"#utility.yul\":1797:1899   */\n      tag_161\n      jump\t// in\n    tag_196:\n        /* \"#utility.yul\":1788:1899   */\n      swap2\n      pop\n        /* \"#utility.yul\":1620:1905   */\n      pop\n      swap3\n      swap2\n      pop\n      pop\n      jump\t// out\n        /* \"#utility.yul\":1925:2280   */\n    tag_177:\n        /* \"#utility.yul\":1992:1997   */\n      0x00\n        /* \"#utility.yul\":2041:2044   */\n      dup3\n        /* \"#utility.yul\":2034:2038   */\n      0x1f\n        /* \"#utility.yul\":2026:2032   */\n      dup4\n        /* \"#utility.yul\":2022:2039   */\n      add\n        /* \"#utility.yul\":2018:2045   */\n      slt\n        /* \"#utility.yul\":2008:2010   */\n      tag_198\n      jumpi\n        /* \"#utility.yul\":2049:2128   */\n      tag_199\n      tag_175\n      jump\t// in\n    tag_199:\n        /* \"#utility.yul\":2008:2010   */\n    tag_198:\n        /* \"#utility.yul\":2159:2165   */\n      dup2\n        /* \"#utility.yul\":2153:2166   */\n      mload\n        /* \"#utility.yul\":2184:2274   */\n      tag_200\n        /* \"#utility.yul\":2270:2273   */\n      dup5\n        /* \"#utility.yul\":2262:2268   */\n      dup3\n        /* \"#utility.yul\":2255:2259   */\n      0x20\n        /* \"#utility.yul\":2247:2253   */\n      dup7\n        /* \"#utility.yul\":2243:2260   */\n      add\n        /* \"#utility.yul\":2184:2274   */\n      tag_178\n      jump\t// in\n    tag_200:\n        /* \"#utility.yul\":2175:2274   */\n      swap2\n      pop\n        /* \"#utility.yul\":1998:2280   */\n      pop\n      swap3\n      swap2\n      pop\n      pop\n      jump\t// out\n        /* \"#utility.yul\":2286:2425   */\n    tag_201:\n        /* \"#utility.yul\":2332:2337   */\n      0x00\n        /* \"#utility.yul\":2370:2376   */\n      dup2\n        /* \"#utility.yul\":2357:2377   */\n      calldataload\n        /* \"#utility.yul\":2348:2377   */\n      swap1\n      pop\n        /* \"#utility.yul\":2386:2419   */\n      tag_203\n        /* \"#utility.yul\":2413:2418   */\n      dup2\n        /* \"#utility.yul\":2386:2419   */\n      tag_204\n      jump\t// in\n    tag_203:\n        /* \"#utility.yul\":2338:2425   */\n      swap3\n      swap2\n      pop\n      pop\n      jump\t// out\n        /* \"#utility.yul\":2431:2574   */\n    tag_205:\n        /* \"#utility.yul\":2488:2493   */\n      0x00\n        /* \"#utility.yul\":2519:2525   */\n      dup2\n        /* \"#utility.yul\":2513:2526   */\n      mload\n        /* \"#utility.yul\":2504:2526   */\n      swap1\n      pop\n        /* \"#utility.yul\":2535:2568   */\n      tag_207\n        /* \"#utility.yul\":2562:2567   */\n      dup2\n        /* \"#utility.yul\":2535:2568   */\n      tag_204\n      jump\t// in\n    tag_207:\n        /* \"#utility.yul\":2494:2574   */\n      swap3\n      swap2\n      pop\n      pop\n      jump\t// out\n        /* \"#utility.yul\":2580:2909   */\n    tag_24:\n        /* \"#utility.yul\":2639:2645   */\n      0x00\n        /* \"#utility.yul\":2688:2690   */\n      0x20\n        /* \"#utility.yul\":2676:2685   */\n      dup3\n        /* \"#utility.yul\":2667:2674   */\n      dup5\n        /* \"#utility.yul\":2663:2686   */\n      sub\n        /* \"#utility.yul\":2659:2691   */\n      slt\n        /* \"#utility.yul\":2656:2658   */\n      iszero\n      tag_209\n      jumpi\n        /* \"#utility.yul\":2694:2773   */\n      tag_210\n      tag_211\n      jump\t// in\n    tag_210:\n        /* \"#utility.yul\":2656:2658   */\n    tag_209:\n        /* \"#utility.yul\":2814:2815   */\n      0x00\n        /* \"#utility.yul\":2839:2892   */\n      tag_212\n        /* \"#utility.yul\":2884:2891   */\n      dup5\n        /* \"#utility.yul\":2875:2881   */\n      dup3\n        /* \"#utility.yul\":2864:2873   */\n      dup6\n        /* \"#utility.yul\":2860:2882   */\n      add\n        /* \"#utility.yul\":2839:2892   */\n      tag_188\n      jump\t// in\n    tag_212:\n        /* \"#utility.yul\":2829:2892   */\n      swap2\n      pop\n        /* \"#utility.yul\":2785:2902   */\n      pop\n        /* \"#utility.yul\":2646:2909   */\n      swap3\n      swap2\n      pop\n      pop\n      jump\t// out\n        /* \"#utility.yul\":2915:3389   */\n    tag_47:\n        /* \"#utility.yul\":2983:2989   */\n      0x00\n        /* \"#utility.yul\":2991:2997   */\n      dup1\n        /* \"#utility.yul\":3040:3042   */\n      0x40\n        /* \"#utility.yul\":3028:3037   */\n      dup4\n        /* \"#utility.yul\":3019:3026   */\n      dup6\n        /* \"#utility.yul\":3015:3038   */\n      sub\n        /* \"#utility.yul\":3011:3043   */\n      slt\n        /* \"#utility.yul\":3008:3010   */\n      iszero\n      tag_214\n      jumpi\n        /* \"#utility.yul\":3046:3125   */\n      tag_215\n      tag_211\n      jump\t// in\n    tag_215:\n        /* \"#utility.yul\":3008:3010   */\n    tag_214:\n        /* \"#utility.yul\":3166:3167   */\n      0x00\n        /* \"#utility.yul\":3191:3244   */\n      tag_216\n        /* \"#utility.yul\":3236:3243   */\n      dup6\n        /* \"#utility.yul\":3227:3233   */\n      dup3\n        /* \"#utility.yul\":3216:3225   */\n      dup7\n        /* \"#utility.yul\":3212:3234   */\n      add\n        /* \"#utility.yul\":3191:3244   */\n      tag_188\n      jump\t// in\n    tag_216:\n        /* \"#utility.yul\":3181:3244   */\n      swap3\n      pop\n        /* \"#utility.yul\":3137:3254   */\n      pop\n        /* \"#utility.yul\":3293:3295   */\n      0x20\n        /* \"#utility.yul\":3319:3372   */\n      tag_217\n        /* \"#utility.yul\":3364:3371   */\n      dup6\n        /* \"#utility.yul\":3355:3361   */\n      dup3\n        /* \"#utility.yul\":3344:3353   */\n      dup7\n        /* \"#utility.yul\":3340:3362   */\n      add\n        /* \"#utility.yul\":3319:3372   */\n      tag_201\n      jump\t// in\n    tag_217:\n        /* \"#utility.yul\":3309:3372   */\n      swap2\n      pop\n        /* \"#utility.yul\":3264:3382   */\n      pop\n        /* \"#utility.yul\":2998:3389   */\n      swap3\n      pop\n      swap3\n      swap1\n      pop\n      jump\t// out\n        /* \"#utility.yul\":3395:3965   */\n    tag_60:\n        /* \"#utility.yul\":3498:3504   */\n      0x00\n        /* \"#utility.yul\":3547:3549   */\n      0x20\n        /* \"#utility.yul\":3535:3544   */\n      dup3\n        /* \"#utility.yul\":3526:3533   */\n      dup5\n        /* \"#utility.yul\":3522:3545   */\n      sub\n        /* \"#utility.yul\":3518:3550   */\n      slt\n        /* \"#utility.yul\":3515:3517   */\n      iszero\n      tag_219\n      jumpi\n        /* \"#utility.yul\":3553:3632   */\n      tag_220\n      tag_211\n      jump\t// in\n    tag_220:\n        /* \"#utility.yul\":3515:3517   */\n    tag_219:\n        /* \"#utility.yul\":3694:3695   */\n      0x00\n        /* \"#utility.yul\":3683:3692   */\n      dup3\n        /* \"#utility.yul\":3679:3696   */\n      add\n        /* \"#utility.yul\":3673:3697   */\n      mload\n        /* \"#utility.yul\":3724:3742   */\n      0xffffffffffffffff\n        /* \"#utility.yul\":3716:3722   */\n      dup2\n        /* \"#utility.yul\":3713:3743   */\n      gt\n        /* \"#utility.yul\":3710:3712   */\n      iszero\n      tag_221\n      jumpi\n        /* \"#utility.yul\":3746:3825   */\n      tag_222\n      tag_223\n      jump\t// in\n    tag_222:\n        /* \"#utility.yul\":3710:3712   */\n    tag_221:\n        /* \"#utility.yul\":3851:3948   */\n      tag_224\n        /* \"#utility.yul\":3940:3947   */\n      dup5\n        /* \"#utility.yul\":3931:3937   */\n      dup3\n        /* \"#utility.yul\":3920:3929   */\n      dup6\n        /* \"#utility.yul\":3916:3938   */\n      add\n        /* \"#utility.yul\":3851:3948   */\n      tag_192\n      jump\t// in\n    tag_224:\n        /* \"#utility.yul\":3841:3948   */\n      swap2\n      pop\n        /* \"#utility.yul\":3644:3958   */\n      pop\n        /* \"#utility.yul\":3505:3965   */\n      swap3\n      swap2\n      pop\n      pop\n      jump\t// out\n        /* \"#utility.yul\":3971:4322   */\n    tag_150:\n        /* \"#utility.yul\":4041:4047   */\n      0x00\n        /* \"#utility.yul\":4090:4092   */\n      0x20\n        /* \"#utility.yul\":4078:4087   */\n      dup3\n        /* \"#utility.yul\":4069:4076   */\n      dup5\n        /* \"#utility.yul\":4065:4088   */\n      sub\n        /* \"#utility.yul\":4061:4093   */\n      slt\n        /* \"#utility.yul\":4058:4060   */\n      iszero\n      tag_226\n      jumpi\n        /* \"#utility.yul\":4096:4175   */\n      tag_227\n      tag_211\n      jump\t// in\n    tag_227:\n        /* \"#utility.yul\":4058:4060   */\n    tag_226:\n        /* \"#utility.yul\":4216:4217   */\n      0x00\n        /* \"#utility.yul\":4241:4305   */\n      tag_228\n        /* \"#utility.yul\":4297:4304   */\n      dup5\n        /* \"#utility.yul\":4288:4294   */\n      dup3\n        /* \"#utility.yul\":4277:4286   */\n      dup6\n        /* \"#utility.yul\":4273:4295   */\n      add\n        /* \"#utility.yul\":4241:4305   */\n      tag_205\n      jump\t// in\n    tag_228:\n        /* \"#utility.yul\":4231:4305   */\n      swap2\n      pop\n        /* \"#utility.yul\":4187:4315   */\n      pop\n        /* \"#utility.yul\":4048:4322   */\n      swap3\n      swap2\n      pop\n      pop\n      jump\t// out\n        /* \"#utility.yul\":4328:4524   */\n    tag_229:\n        /* \"#utility.yul\":4417:4427   */\n      0x00\n        /* \"#utility.yul\":4452:4518   */\n      tag_231\n        /* \"#utility.yul\":4514:4517   */\n      dup4\n        /* \"#utility.yul\":4506:4512   */\n      dup4\n        /* \"#utility.yul\":4452:4518   */\n      tag_232\n      jump\t// in\n    tag_231:\n        /* \"#utility.yul\":4438:4518   */\n      swap1\n      pop\n        /* \"#utility.yul\":4428:4524   */\n      swap3\n      swap2\n      pop\n      pop\n      jump\t// out\n        /* \"#utility.yul\":4530:4638   */\n    tag_233:\n        /* \"#utility.yul\":4607:4631   */\n      tag_235\n        /* \"#utility.yul\":4625:4630   */\n      dup2\n        /* \"#utility.yul\":4607:4631   */\n      tag_236\n      jump\t// in\n    tag_235:\n        /* \"#utility.yul\":4602:4605   */\n      dup3\n        /* \"#utility.yul\":4595:4632   */\n      mstore\n        /* \"#utility.yul\":4585:4638   */\n      pop\n      pop\n      jump\t// out\n        /* \"#utility.yul\":4644:4762   */\n    tag_237:\n        /* \"#utility.yul\":4731:4755   */\n      tag_239\n        /* \"#utility.yul\":4749:4754   */\n      dup2\n        /* \"#utility.yul\":4731:4755   */\n      tag_236\n      jump\t// in\n    tag_239:\n        /* \"#utility.yul\":4726:4729   */\n      dup3\n        /* \"#utility.yul\":4719:4756   */\n      mstore\n        /* \"#utility.yul\":4709:4762   */\n      pop\n      pop\n      jump\t// out\n        /* \"#utility.yul\":4798:5777   */\n    tag_240:\n        /* \"#utility.yul\":4933:4936   */\n      0x00\n        /* \"#utility.yul\":4962:5024   */\n      tag_242\n        /* \"#utility.yul\":5018:5023   */\n      dup3\n        /* \"#utility.yul\":4962:5024   */\n      tag_243\n      jump\t// in\n    tag_242:\n        /* \"#utility.yul\":5040:5134   */\n      tag_244\n        /* \"#utility.yul\":5127:5133   */\n      dup2\n        /* \"#utility.yul\":5122:5125   */\n      dup6\n        /* \"#utility.yul\":5040:5134   */\n      tag_245\n      jump\t// in\n    tag_244:\n        /* \"#utility.yul\":5033:5134   */\n      swap4\n      pop\n        /* \"#utility.yul\":5160:5163   */\n      dup4\n        /* \"#utility.yul\":5205:5209   */\n      0x20\n        /* \"#utility.yul\":5197:5203   */\n      dup3\n        /* \"#utility.yul\":5193:5210   */\n      mul\n        /* \"#utility.yul\":5188:5191   */\n      dup6\n        /* \"#utility.yul\":5184:5211   */\n      add\n        /* \"#utility.yul\":5235:5299   */\n      tag_246\n        /* \"#utility.yul\":5293:5298   */\n      dup6\n        /* \"#utility.yul\":5235:5299   */\n      tag_247\n      jump\t// in\n    tag_246:\n        /* \"#utility.yul\":5322:5329   */\n      dup1\n        /* \"#utility.yul\":5353:5354   */\n      0x00\n        /* \"#utility.yul\":5338:5732   */\n    tag_248:\n        /* \"#utility.yul\":5363:5369   */\n      dup6\n        /* \"#utility.yul\":5360:5361   */\n      dup2\n        /* \"#utility.yul\":5357:5370   */\n      lt\n        /* \"#utility.yul\":5338:5732   */\n      iszero\n      tag_250\n      jumpi\n        /* \"#utility.yul\":5434:5443   */\n      dup5\n        /* \"#utility.yul\":5428:5432   */\n      dup5\n        /* \"#utility.yul\":5424:5444   */\n      sub\n        /* \"#utility.yul\":5419:5422   */\n      dup10\n        /* \"#utility.yul\":5412:5445   */\n      mstore\n        /* \"#utility.yul\":5485:5491   */\n      dup2\n        /* \"#utility.yul\":5479:5492   */\n      mload\n        /* \"#utility.yul\":5513:5597   */\n      tag_251\n        /* \"#utility.yul\":5592:5596   */\n      dup6\n        /* \"#utility.yul\":5577:5590   */\n      dup3\n        /* \"#utility.yul\":5513:5597   */\n      tag_229\n      jump\t// in\n    tag_251:\n        /* \"#utility.yul\":5505:5597   */\n      swap5\n      pop\n        /* \"#utility.yul\":5620:5688   */\n      tag_252\n        /* \"#utility.yul\":5681:5687   */\n      dup4\n        /* \"#utility.yul\":5620:5688   */\n      tag_253\n      jump\t// in\n    tag_252:\n        /* \"#utility.yul\":5610:5688   */\n      swap3\n      pop\n        /* \"#utility.yul\":5717:5721   */\n      0x20\n        /* \"#utility.yul\":5712:5715   */\n      dup11\n        /* \"#utility.yul\":5708:5722   */\n      add\n        /* \"#utility.yul\":5701:5722   */\n      swap10\n      pop\n        /* \"#utility.yul\":5398:5732   */\n      pop\n        /* \"#utility.yul\":5385:5386   */\n      0x01\n        /* \"#utility.yul\":5382:5383   */\n      dup2\n        /* \"#utility.yul\":5378:5387   */\n      add\n        /* \"#utility.yul\":5373:5387   */\n      swap1\n      pop\n        /* \"#utility.yul\":5338:5732   */\n      jump(tag_248)\n    tag_250:\n        /* \"#utility.yul\":5342:5356   */\n      pop\n        /* \"#utility.yul\":5748:5752   */\n      dup3\n        /* \"#utility.yul\":5741:5752   */\n      swap8\n      pop\n        /* \"#utility.yul\":5768:5771   */\n      dup8\n        /* \"#utility.yul\":5761:5771   */\n      swap6\n      pop\n        /* \"#utility.yul\":4938:5777   */\n      pop\n      pop\n      pop\n      pop\n      pop\n      swap3\n      swap2\n      pop\n      pop\n      jump\t// out\n        /* \"#utility.yul\":5783:5892   */\n    tag_254:\n        /* \"#utility.yul\":5864:5885   */\n      tag_256\n        /* \"#utility.yul\":5879:5884   */\n      dup2\n        /* \"#utility.yul\":5864:5885   */\n      tag_257\n      jump\t// in\n    tag_256:\n        /* \"#utility.yul\":5859:5862   */\n      dup3\n        /* \"#utility.yul\":5852:5886   */\n      mstore\n        /* \"#utility.yul\":5842:5892   */\n      pop\n      pop\n      jump\t// out\n        /* \"#utility.yul\":5898:6031   */\n    tag_258:\n        /* \"#utility.yul\":5981:6024   */\n      tag_260\n        /* \"#utility.yul\":6018:6023   */\n      dup2\n        /* \"#utility.yul\":5981:6024   */\n      tag_261\n      jump\t// in\n    tag_260:\n        /* \"#utility.yul\":5976:5979   */\n      dup3\n        /* \"#utility.yul\":5969:6025   */\n      mstore\n        /* \"#utility.yul\":5959:6031   */\n      pop\n      pop\n      jump\t// out\n        /* \"#utility.yul\":6037:6180   */\n    tag_262:\n        /* \"#utility.yul\":6130:6173   */\n      tag_264\n        /* \"#utility.yul\":6167:6172   */\n      dup2\n        /* \"#utility.yul\":6130:6173   */\n      tag_261\n      jump\t// in\n    tag_264:\n        /* \"#utility.yul\":6125:6128   */\n      dup3\n        /* \"#utility.yul\":6118:6174   */\n      mstore\n        /* \"#utility.yul\":6108:6180   */\n      pop\n      pop\n      jump\t// out\n        /* \"#utility.yul\":6186:6530   */\n    tag_232:\n        /* \"#utility.yul\":6264:6267   */\n      0x00\n        /* \"#utility.yul\":6292:6331   */\n      tag_266\n        /* \"#utility.yul\":6325:6330   */\n      dup3\n        /* \"#utility.yul\":6292:6331   */\n      tag_267\n      jump\t// in\n    tag_266:\n        /* \"#utility.yul\":6347:6408   */\n      tag_268\n        /* \"#utility.yul\":6401:6407   */\n      dup2\n        /* \"#utility.yul\":6396:6399   */\n      dup6\n        /* \"#utility.yul\":6347:6408   */\n      tag_269\n      jump\t// in\n    tag_268:\n        /* \"#utility.yul\":6340:6408   */\n      swap4\n      pop\n        /* \"#utility.yul\":6417:6469   */\n      tag_270\n        /* \"#utility.yul\":6462:6468   */\n      dup2\n        /* \"#utility.yul\":6457:6460   */\n      dup6\n        /* \"#utility.yul\":6450:6454   */\n      0x20\n        /* \"#utility.yul\":6443:6448   */\n      dup7\n        /* \"#utility.yul\":6439:6455   */\n      add\n        /* \"#utility.yul\":6417:6469   */\n      tag_187\n      jump\t// in\n    tag_270:\n        /* \"#utility.yul\":6494:6523   */\n      tag_271\n        /* \"#utility.yul\":6516:6522   */\n      dup2\n        /* \"#utility.yul\":6494:6523   */\n      tag_272\n      jump\t// in\n    tag_271:\n        /* \"#utility.yul\":6489:6492   */\n      dup5\n        /* \"#utility.yul\":6485:6524   */\n      add\n        /* \"#utility.yul\":6478:6524   */\n      swap2\n      pop\n        /* \"#utility.yul\":6268:6530   */\n      pop\n      swap3\n      swap2\n      pop\n      pop\n      jump\t// out\n        /* \"#utility.yul\":6536:6902   */\n    tag_273:\n        /* \"#utility.yul\":6678:6681   */\n      0x00\n        /* \"#utility.yul\":6699:6766   */\n      tag_275\n        /* \"#utility.yul\":6763:6765   */\n      0x15\n        /* \"#utility.yul\":6758:6761   */\n      dup4\n        /* \"#utility.yul\":6699:6766   */\n      tag_276\n      jump\t// in\n    tag_275:\n        /* \"#utility.yul\":6692:6766   */\n      swap2\n      pop\n        /* \"#utility.yul\":6775:6868   */\n      tag_277\n        /* \"#utility.yul\":6864:6867   */\n      dup3\n        /* \"#utility.yul\":6775:6868   */\n      tag_278\n      jump\t// in\n    tag_277:\n        /* \"#utility.yul\":6893:6895   */\n      0x20\n        /* \"#utility.yul\":6888:6891   */\n      dup3\n        /* \"#utility.yul\":6884:6896   */\n      add\n        /* \"#utility.yul\":6877:6896   */\n      swap1\n      pop\n        /* \"#utility.yul\":6682:6902   */\n      swap2\n      swap1\n      pop\n      jump\t// out\n        /* \"#utility.yul\":6908:7274   */\n    tag_279:\n        /* \"#utility.yul\":7050:7053   */\n      0x00\n        /* \"#utility.yul\":7071:7138   */\n      tag_281\n        /* \"#utility.yul\":7135:7137   */\n      0x2e\n        /* \"#utility.yul\":7130:7133   */\n      dup4\n        /* \"#utility.yul\":7071:7138   */\n      tag_276\n      jump\t// in\n    tag_281:\n        /* \"#utility.yul\":7064:7138   */\n      swap2\n      pop\n        /* \"#utility.yul\":7147:7240   */\n      tag_282\n        /* \"#utility.yul\":7236:7239   */\n      dup3\n        /* \"#utility.yul\":7147:7240   */\n      tag_283\n      jump\t// in\n    tag_282:\n        /* \"#utility.yul\":7265:7267   */\n      0x40\n        /* \"#utility.yul\":7260:7263   */\n      dup3\n        /* \"#utility.yul\":7256:7268   */\n      add\n        /* \"#utility.yul\":7249:7268   */\n      swap1\n      pop\n        /* \"#utility.yul\":7054:7274   */\n      swap2\n      swap1\n      pop\n      jump\t// out\n        /* \"#utility.yul\":7340:8209   */\n    tag_284:\n        /* \"#utility.yul\":7485:7489   */\n      0x80\n        /* \"#utility.yul\":7480:7483   */\n      dup3\n        /* \"#utility.yul\":7476:7490   */\n      add\n        /* \"#utility.yul\":7570:7574   */\n      0x00\n        /* \"#utility.yul\":7563:7568   */\n      dup3\n        /* \"#utility.yul\":7559:7575   */\n      add\n        /* \"#utility.yul\":7553:7576   */\n      mload\n        /* \"#utility.yul\":7589:7652   */\n      tag_286\n        /* \"#utility.yul\":7646:7650   */\n      0x00\n        /* \"#utility.yul\":7641:7644   */\n      dup6\n        /* \"#utility.yul\":7637:7651   */\n      add\n        /* \"#utility.yul\":7623:7635   */\n      dup3\n        /* \"#utility.yul\":7589:7652   */\n      tag_233\n      jump\t// in\n    tag_286:\n        /* \"#utility.yul\":7500:7662   */\n      pop\n        /* \"#utility.yul\":7754:7758   */\n      0x20\n        /* \"#utility.yul\":7747:7752   */\n      dup3\n        /* \"#utility.yul\":7743:7759   */\n      add\n        /* \"#utility.yul\":7737:7760   */\n      mload\n        /* \"#utility.yul\":7773:7836   */\n      tag_287\n        /* \"#utility.yul\":7830:7834   */\n      0x20\n        /* \"#utility.yul\":7825:7828   */\n      dup6\n        /* \"#utility.yul\":7821:7835   */\n      add\n        /* \"#utility.yul\":7807:7819   */\n      dup3\n        /* \"#utility.yul\":7773:7836   */\n      tag_288\n      jump\t// in\n    tag_287:\n        /* \"#utility.yul\":7672:7846   */\n      pop\n        /* \"#utility.yul\":7929:7933   */\n      0x40\n        /* \"#utility.yul\":7922:7927   */\n      dup3\n        /* \"#utility.yul\":7918:7934   */\n      add\n        /* \"#utility.yul\":7912:7935   */\n      mload\n        /* \"#utility.yul\":7948:8011   */\n      tag_289\n        /* \"#utility.yul\":8005:8009   */\n      0x40\n        /* \"#utility.yul\":8000:8003   */\n      dup6\n        /* \"#utility.yul\":7996:8010   */\n      add\n        /* \"#utility.yul\":7982:7994   */\n      dup3\n        /* \"#utility.yul\":7948:8011   */\n      tag_288\n      jump\t// in\n    tag_289:\n        /* \"#utility.yul\":7856:8021   */\n      pop\n        /* \"#utility.yul\":8104:8108   */\n      0x60\n        /* \"#utility.yul\":8097:8102   */\n      dup3\n        /* \"#utility.yul\":8093:8109   */\n      add\n        /* \"#utility.yul\":8087:8110   */\n      mload\n        /* \"#utility.yul\":8123:8192   */\n      tag_290\n        /* \"#utility.yul\":8186:8190   */\n      0x60\n        /* \"#utility.yul\":8181:8184   */\n      dup6\n        /* \"#utility.yul\":8177:8191   */\n      add\n        /* \"#utility.yul\":8163:8175   */\n      dup3\n        /* \"#utility.yul\":8123:8192   */\n      tag_258\n      jump\t// in\n    tag_290:\n        /* \"#utility.yul\":8031:8202   */\n      pop\n        /* \"#utility.yul\":7454:8209   */\n      pop\n      pop\n      pop\n      jump\t// out\n        /* \"#utility.yul\":8215:8323   */\n    tag_288:\n        /* \"#utility.yul\":8292:8316   */\n      tag_292\n        /* \"#utility.yul\":8310:8315   */\n      dup2\n        /* \"#utility.yul\":8292:8316   */\n      tag_293\n      jump\t// in\n    tag_292:\n        /* \"#utility.yul\":8287:8290   */\n      dup3\n        /* \"#utility.yul\":8280:8317   */\n      mstore\n        /* \"#utility.yul\":8270:8323   */\n      pop\n      pop\n      jump\t// out\n        /* \"#utility.yul\":8329:8447   */\n    tag_294:\n        /* \"#utility.yul\":8416:8440   */\n      tag_296\n        /* \"#utility.yul\":8434:8439   */\n      dup2\n        /* \"#utility.yul\":8416:8440   */\n      tag_293\n      jump\t// in\n    tag_296:\n        /* \"#utility.yul\":8411:8414   */\n      dup3\n        /* \"#utility.yul\":8404:8441   */\n      mstore\n        /* \"#utility.yul\":8394:8447   */\n      pop\n      pop\n      jump\t// out\n        /* \"#utility.yul\":8453:8785   */\n    tag_145:\n        /* \"#utility.yul\":8574:8578   */\n      0x00\n        /* \"#utility.yul\":8612:8614   */\n      0x40\n        /* \"#utility.yul\":8601:8610   */\n      dup3\n        /* \"#utility.yul\":8597:8615   */\n      add\n        /* \"#utility.yul\":8589:8615   */\n      swap1\n      pop\n        /* \"#utility.yul\":8625:8696   */\n      tag_298\n        /* \"#utility.yul\":8693:8694   */\n      0x00\n        /* \"#utility.yul\":8682:8691   */\n      dup4\n        /* \"#utility.yul\":8678:8695   */\n      add\n        /* \"#utility.yul\":8669:8675   */\n      dup6\n        /* \"#utility.yul\":8625:8696   */\n      tag_237\n      jump\t// in\n    tag_298:\n        /* \"#utility.yul\":8706:8778   */\n      tag_299\n        /* \"#utility.yul\":8774:8776   */\n      0x20\n        /* \"#utility.yul\":8763:8772   */\n      dup4\n        /* \"#utility.yul\":8759:8777   */\n      add\n        /* \"#utility.yul\":8750:8756   */\n      dup5\n        /* \"#utility.yul\":8706:8778   */\n      tag_294\n      jump\t// in\n    tag_299:\n        /* \"#utility.yul\":8579:8785   */\n      swap4\n      swap3\n      pop\n      pop\n      pop\n      jump\t// out\n        /* \"#utility.yul\":8791:9356   */\n    tag_27:\n        /* \"#utility.yul\":8974:8978   */\n      0x00\n        /* \"#utility.yul\":9012:9015   */\n      0x80\n        /* \"#utility.yul\":9001:9010   */\n      dup3\n        /* \"#utility.yul\":8997:9016   */\n      add\n        /* \"#utility.yul\":8989:9016   */\n      swap1\n      pop\n        /* \"#utility.yul\":9026:9097   */\n      tag_301\n        /* \"#utility.yul\":9094:9095   */\n      0x00\n        /* \"#utility.yul\":9083:9092   */\n      dup4\n        /* \"#utility.yul\":9079:9096   */\n      add\n        /* \"#utility.yul\":9070:9076   */\n      dup8\n        /* \"#utility.yul\":9026:9097   */\n      tag_237\n      jump\t// in\n    tag_301:\n        /* \"#utility.yul\":9107:9179   */\n      tag_302\n        /* \"#utility.yul\":9175:9177   */\n      0x20\n        /* \"#utility.yul\":9164:9173   */\n      dup4\n        /* \"#utility.yul\":9160:9178   */\n      add\n        /* \"#utility.yul\":9151:9157   */\n      dup7\n        /* \"#utility.yul\":9107:9179   */\n      tag_294\n      jump\t// in\n    tag_302:\n        /* \"#utility.yul\":9189:9261   */\n      tag_303\n        /* \"#utility.yul\":9257:9259   */\n      0x40\n        /* \"#utility.yul\":9246:9255   */\n      dup4\n        /* \"#utility.yul\":9242:9260   */\n      add\n        /* \"#utility.yul\":9233:9239   */\n      dup6\n        /* \"#utility.yul\":9189:9261   */\n      tag_294\n      jump\t// in\n    tag_303:\n        /* \"#utility.yul\":9271:9349   */\n      tag_304\n        /* \"#utility.yul\":9345:9347   */\n      0x60\n        /* \"#utility.yul\":9334:9343   */\n      dup4\n        /* \"#utility.yul\":9330:9348   */\n      add\n        /* \"#utility.yul\":9321:9327   */\n      dup5\n        /* \"#utility.yul\":9271:9349   */\n      tag_262\n      jump\t// in\n    tag_304:\n        /* \"#utility.yul\":8979:9356   */\n      swap6\n      swap5\n      pop\n      pop\n      pop\n      pop\n      pop\n      jump\t// out\n        /* \"#utility.yul\":9362:9767   */\n    tag_15:\n        /* \"#utility.yul\":9521:9525   */\n      0x00\n        /* \"#utility.yul\":9559:9561   */\n      0x20\n        /* \"#utility.yul\":9548:9557   */\n      dup3\n        /* \"#utility.yul\":9544:9562   */\n      add\n        /* \"#utility.yul\":9536:9562   */\n      swap1\n      pop\n        /* \"#utility.yul\":9608:9617   */\n      dup2\n        /* \"#utility.yul\":9602:9606   */\n      dup2\n        /* \"#utility.yul\":9598:9618   */\n      sub\n        /* \"#utility.yul\":9594:9595   */\n      0x00\n        /* \"#utility.yul\":9583:9592   */\n      dup4\n        /* \"#utility.yul\":9579:9596   */\n      add\n        /* \"#utility.yul\":9572:9619   */\n      mstore\n        /* \"#utility.yul\":9636:9760   */\n      tag_306\n        /* \"#utility.yul\":9755:9759   */\n      dup2\n        /* \"#utility.yul\":9746:9752   */\n      dup5\n        /* \"#utility.yul\":9636:9760   */\n      tag_240\n      jump\t// in\n    tag_306:\n        /* \"#utility.yul\":9628:9760   */\n      swap1\n      pop\n        /* \"#utility.yul\":9526:9767   */\n      swap3\n      swap2\n      pop\n      pop\n      jump\t// out\n        /* \"#utility.yul\":9773:10215   */\n    tag_39:\n        /* \"#utility.yul\":9922:9926   */\n      0x00\n        /* \"#utility.yul\":9960:9962   */\n      0x60\n        /* \"#utility.yul\":9949:9958   */\n      dup3\n        /* \"#utility.yul\":9945:9963   */\n      add\n        /* \"#utility.yul\":9937:9963   */\n      swap1\n      pop\n        /* \"#utility.yul\":9973:10038   */\n      tag_308\n        /* \"#utility.yul\":10035:10036   */\n      0x00\n        /* \"#utility.yul\":10024:10033   */\n      dup4\n        /* \"#utility.yul\":10020:10037   */\n      add\n        /* \"#utility.yul\":10011:10017   */\n      dup7\n        /* \"#utility.yul\":9973:10038   */\n      tag_254\n      jump\t// in\n    tag_308:\n        /* \"#utility.yul\":10048:10120   */\n      tag_309\n        /* \"#utility.yul\":10116:10118   */\n      0x20\n        /* \"#utility.yul\":10105:10114   */\n      dup4\n        /* \"#utility.yul\":10101:10119   */\n      add\n        /* \"#utility.yul\":10092:10098   */\n      dup6\n        /* \"#utility.yul\":10048:10120   */\n      tag_294\n      jump\t// in\n    tag_309:\n        /* \"#utility.yul\":10130:10208   */\n      tag_310\n        /* \"#utility.yul\":10204:10206   */\n      0x40\n        /* \"#utility.yul\":10193:10202   */\n      dup4\n        /* \"#utility.yul\":10189:10207   */\n      add\n        /* \"#utility.yul\":10180:10186   */\n      dup5\n        /* \"#utility.yul\":10130:10208   */\n      tag_262\n      jump\t// in\n    tag_310:\n        /* \"#utility.yul\":9927:10215   */\n      swap5\n      swap4\n      pop\n      pop\n      pop\n      pop\n      jump\t// out\n        /* \"#utility.yul\":10221:10455   */\n    tag_50:\n        /* \"#utility.yul\":10320:10324   */\n      0x00\n        /* \"#utility.yul\":10358:10360   */\n      0x20\n        /* \"#utility.yul\":10347:10356   */\n      dup3\n        /* \"#utility.yul\":10343:10361   */\n      add\n        /* \"#utility.yul\":10335:10361   */\n      swap1\n      pop\n        /* \"#utility.yul\":10371:10448   */\n      tag_312\n        /* \"#utility.yul\":10445:10446   */\n      0x00\n        /* \"#utility.yul\":10434:10443   */\n      dup4\n        /* \"#utility.yul\":10430:10447   */\n      add\n        /* \"#utility.yul\":10421:10427   */\n      dup5\n        /* \"#utility.yul\":10371:10448   */\n      tag_262\n      jump\t// in\n    tag_312:\n        /* \"#utility.yul\":10325:10455   */\n      swap3\n      swap2\n      pop\n      pop\n      jump\t// out\n        /* \"#utility.yul\":10461:10880   */\n    tag_125:\n        /* \"#utility.yul\":10627:10631   */\n      0x00\n        /* \"#utility.yul\":10665:10667   */\n      0x20\n        /* \"#utility.yul\":10654:10663   */\n      dup3\n        /* \"#utility.yul\":10650:10668   */\n      add\n        /* \"#utility.yul\":10642:10668   */\n      swap1\n      pop\n        /* \"#utility.yul\":10714:10723   */\n      dup2\n        /* \"#utility.yul\":10708:10712   */\n      dup2\n        /* \"#utility.yul\":10704:10724   */\n      sub\n        /* \"#utility.yul\":10700:10701   */\n      0x00\n        /* \"#utility.yul\":10689:10698   */\n      dup4\n        /* \"#utility.yul\":10685:10702   */\n      add\n        /* \"#utility.yul\":10678:10725   */\n      mstore\n        /* \"#utility.yul\":10742:10873   */\n      tag_314\n        /* \"#utility.yul\":10868:10872   */\n      dup2\n        /* \"#utility.yul\":10742:10873   */\n      tag_273\n      jump\t// in\n    tag_314:\n        /* \"#utility.yul\":10734:10873   */\n      swap1\n      pop\n        /* \"#utility.yul\":10632:10880   */\n      swap2\n      swap1\n      pop\n      jump\t// out\n        /* \"#utility.yul\":10886:11305   */\n    tag_119:\n        /* \"#utility.yul\":11052:11056   */\n      0x00\n        /* \"#utility.yul\":11090:11092   */\n      0x20\n        /* \"#utility.yul\":11079:11088   */\n      dup3\n        /* \"#utility.yul\":11075:11093   */\n      add\n        /* \"#utility.yul\":11067:11093   */\n      swap1\n      pop\n        /* \"#utility.yul\":11139:11148   */\n      dup2\n        /* \"#utility.yul\":11133:11137   */\n      dup2\n        /* \"#utility.yul\":11129:11149   */\n      sub\n        /* \"#utility.yul\":11125:11126   */\n      0x00\n        /* \"#utility.yul\":11114:11123   */\n      dup4\n        /* \"#utility.yul\":11110:11127   */\n      add\n        /* \"#utility.yul\":11103:11150   */\n      mstore\n        /* \"#utility.yul\":11167:11298   */\n      tag_316\n        /* \"#utility.yul\":11293:11297   */\n      dup2\n        /* \"#utility.yul\":11167:11298   */\n      tag_279\n      jump\t// in\n    tag_316:\n        /* \"#utility.yul\":11159:11298   */\n      swap1\n      pop\n        /* \"#utility.yul\":11057:11305   */\n      swap2\n      swap1\n      pop\n      jump\t// out\n        /* \"#utility.yul\":11311:11630   */\n    tag_33:\n        /* \"#utility.yul\":11452:11456   */\n      0x00\n        /* \"#utility.yul\":11490:11493   */\n      0x80\n        /* \"#utility.yul\":11479:11488   */\n      dup3\n        /* \"#utility.yul\":11475:11494   */\n      add\n        /* \"#utility.yul\":11467:11494   */\n      swap1\n      pop\n        /* \"#utility.yul\":11504:11623   */\n      tag_318\n        /* \"#utility.yul\":11620:11621   */\n      0x00\n        /* \"#utility.yul\":11609:11618   */\n      dup4\n        /* \"#utility.yul\":11605:11622   */\n      add\n        /* \"#utility.yul\":11596:11602   */\n      dup5\n        /* \"#utility.yul\":11504:11623   */\n      tag_284\n      jump\t// in\n    tag_318:\n        /* \"#utility.yul\":11457:11630   */\n      swap3\n      swap2\n      pop\n      pop\n      jump\t// out\n        /* \"#utility.yul\":11636:11858   */\n    tag_20:\n        /* \"#utility.yul\":11729:11733   */\n      0x00\n        /* \"#utility.yul\":11767:11769   */\n      0x20\n        /* \"#utility.yul\":11756:11765   */\n      dup3\n        /* \"#utility.yul\":11752:11770   */\n      add\n        /* \"#utility.yul\":11744:11770   */\n      swap1\n      pop\n        /* \"#utility.yul\":11780:11851   */\n      tag_320\n        /* \"#utility.yul\":11848:11849   */\n      0x00\n        /* \"#utility.yul\":11837:11846   */\n      dup4\n        /* \"#utility.yul\":11833:11850   */\n      add\n        /* \"#utility.yul\":11824:11830   */\n      dup5\n        /* \"#utility.yul\":11780:11851   */\n      tag_294\n      jump\t// in\n    tag_320:\n        /* \"#utility.yul\":11734:11858   */\n      swap3\n      swap2\n      pop\n      pop\n      jump\t// out\n        /* \"#utility.yul\":11864:12196   */\n    tag_153:\n        /* \"#utility.yul\":11985:11989   */\n      0x00\n        /* \"#utility.yul\":12023:12025   */\n      0x40\n        /* \"#utility.yul\":12012:12021   */\n      dup3\n        /* \"#utility.yul\":12008:12026   */\n      add\n        /* \"#utility.yul\":12000:12026   */\n      swap1\n      pop\n        /* \"#utility.yul\":12036:12107   */\n      tag_322\n        /* \"#utility.yul\":12104:12105   */\n      0x00\n        /* \"#utility.yul\":12093:12102   */\n      dup4\n        /* \"#utility.yul\":12089:12106   */\n      add\n        /* \"#utility.yul\":12080:12086   */\n      dup6\n        /* \"#utility.yul\":12036:12107   */\n      tag_294\n      jump\t// in\n    tag_322:\n        /* \"#utility.yul\":12117:12189   */\n      tag_323\n        /* \"#utility.yul\":12185:12187   */\n      0x20\n        /* \"#utility.yul\":12174:12183   */\n      dup4\n        /* \"#utility.yul\":12170:12188   */\n      add\n        /* \"#utility.yul\":12161:12167   */\n      dup5\n        /* \"#utility.yul\":12117:12189   */\n      tag_294\n      jump\t// in\n    tag_323:\n        /* \"#utility.yul\":11990:12196   */\n      swap4\n      swap3\n      pop\n      pop\n      pop\n      jump\t// out\n        /* \"#utility.yul\":12202:12331   */\n    tag_166:\n        /* \"#utility.yul\":12236:12242   */\n      0x00\n        /* \"#utility.yul\":12263:12283   */\n      tag_325\n      tag_326\n      jump\t// in\n    tag_325:\n        /* \"#utility.yul\":12253:12283   */\n      swap1\n      pop\n        /* \"#utility.yul\":12292:12325   */\n      tag_327\n        /* \"#utility.yul\":12320:12324   */\n      dup3\n        /* \"#utility.yul\":12312:12318   */\n      dup3\n        /* \"#utility.yul\":12292:12325   */\n      tag_328\n      jump\t// in\n    tag_327:\n        /* \"#utility.yul\":12243:12331   */\n      swap2\n      swap1\n      pop\n      jump\t// out\n        /* \"#utility.yul\":12337:12412   */\n    tag_326:\n        /* \"#utility.yul\":12370:12376   */\n      0x00\n        /* \"#utility.yul\":12403:12405   */\n      0x40\n        /* \"#utility.yul\":12397:12406   */\n      mload\n        /* \"#utility.yul\":12387:12406   */\n      swap1\n      pop\n        /* \"#utility.yul\":12377:12412   */\n      swap1\n      jump\t// out\n        /* \"#utility.yul\":12418:12677   */\n    tag_165:\n        /* \"#utility.yul\":12503:12507   */\n      0x00\n        /* \"#utility.yul\":12593:12611   */\n      0xffffffffffffffff\n        /* \"#utility.yul\":12585:12591   */\n      dup3\n        /* \"#utility.yul\":12582:12612   */\n      gt\n        /* \"#utility.yul\":12579:12581   */\n      iszero\n      tag_331\n      jumpi\n        /* \"#utility.yul\":12615:12633   */\n      tag_332\n      tag_333\n      jump\t// in\n    tag_332:\n        /* \"#utility.yul\":12579:12581   */\n    tag_331:\n        /* \"#utility.yul\":12665:12669   */\n      0x20\n        /* \"#utility.yul\":12657:12663   */\n      dup3\n        /* \"#utility.yul\":12653:12670   */\n      mul\n        /* \"#utility.yul\":12645:12670   */\n      swap1\n      pop\n        /* \"#utility.yul\":12508:12677   */\n      swap2\n      swap1\n      pop\n      jump\t// out\n        /* \"#utility.yul\":12683:12991   */\n    tag_182:\n        /* \"#utility.yul\":12745:12749   */\n      0x00\n        /* \"#utility.yul\":12835:12853   */\n      0xffffffffffffffff\n        /* \"#utility.yul\":12827:12833   */\n      dup3\n        /* \"#utility.yul\":12824:12854   */\n      gt\n        /* \"#utility.yul\":12821:12823   */\n      iszero\n      tag_335\n      jumpi\n        /* \"#utility.yul\":12857:12875   */\n      tag_336\n      tag_333\n      jump\t// in\n    tag_336:\n        /* \"#utility.yul\":12821:12823   */\n    tag_335:\n        /* \"#utility.yul\":12895:12924   */\n      tag_337\n        /* \"#utility.yul\":12917:12923   */\n      dup3\n        /* \"#utility.yul\":12895:12924   */\n      tag_272\n      jump\t// in\n    tag_337:\n        /* \"#utility.yul\":12887:12924   */\n      swap1\n      pop\n        /* \"#utility.yul\":12979:12983   */\n      0x20\n        /* \"#utility.yul\":12973:12977   */\n      dup2\n        /* \"#utility.yul\":12969:12984   */\n      add\n        /* \"#utility.yul\":12961:12984   */\n      swap1\n      pop\n        /* \"#utility.yul\":12750:12991   */\n      swap2\n      swap1\n      pop\n      jump\t// out\n        /* \"#utility.yul\":12997:13105   */\n    tag_247:\n        /* \"#utility.yul\":13072:13076   */\n      0x00\n        /* \"#utility.yul\":13095:13098   */\n      dup2\n        /* \"#utility.yul\":13087:13098   */\n      swap1\n      pop\n        /* \"#utility.yul\":13077:13105   */\n      swap2\n      swap1\n      pop\n      jump\t// out\n        /* \"#utility.yul\":13111:13225   */\n    tag_243:\n        /* \"#utility.yul\":13186:13192   */\n      0x00\n        /* \"#utility.yul\":13214:13218   */\n      0x05\n        /* \"#utility.yul\":13204:13218   */\n      swap1\n      pop\n        /* \"#utility.yul\":13193:13225   */\n      swap2\n      swap1\n      pop\n      jump\t// out\n        /* \"#utility.yul\":13231:13330   */\n    tag_267:\n        /* \"#utility.yul\":13283:13289   */\n      0x00\n        /* \"#utility.yul\":13317:13322   */\n      dup2\n        /* \"#utility.yul\":13311:13323   */\n      mload\n        /* \"#utility.yul\":13301:13323   */\n      swap1\n      pop\n        /* \"#utility.yul\":13290:13330   */\n      swap2\n      swap1\n      pop\n      jump\t// out\n        /* \"#utility.yul\":13336:13457   */\n    tag_253:\n        /* \"#utility.yul\":13414:13418   */\n      0x00\n        /* \"#utility.yul\":13446:13450   */\n      0x20\n        /* \"#utility.yul\":13441:13444   */\n      dup3\n        /* \"#utility.yul\":13437:13451   */\n      add\n        /* \"#utility.yul\":13429:13451   */\n      swap1\n      pop\n        /* \"#utility.yul\":13419:13457   */\n      swap2\n      swap1\n      pop\n      jump\t// out\n        /* \"#utility.yul\":13463:13616   */\n    tag_245:\n        /* \"#utility.yul\":13570:13581   */\n      0x00\n        /* \"#utility.yul\":13607:13610   */\n      dup2\n        /* \"#utility.yul\":13592:13610   */\n      swap1\n      pop\n        /* \"#utility.yul\":13582:13616   */\n      swap3\n      swap2\n      pop\n      pop\n      jump\t// out\n        /* \"#utility.yul\":13622:13781   */\n    tag_269:\n        /* \"#utility.yul\":13696:13707   */\n      0x00\n        /* \"#utility.yul\":13730:13736   */\n      dup3\n        /* \"#utility.yul\":13725:13728   */\n      dup3\n        /* \"#utility.yul\":13718:13737   */\n      mstore\n        /* \"#utility.yul\":13770:13774   */\n      0x20\n        /* \"#utility.yul\":13765:13768   */\n      dup3\n        /* \"#utility.yul\":13761:13775   */\n      add\n        /* \"#utility.yul\":13746:13775   */\n      swap1\n      pop\n        /* \"#utility.yul\":13708:13781   */\n      swap3\n      swap2\n      pop\n      pop\n      jump\t// out\n        /* \"#utility.yul\":13787:13956   */\n    tag_276:\n        /* \"#utility.yul\":13871:13882   */\n      0x00\n        /* \"#utility.yul\":13905:13911   */\n      dup3\n        /* \"#utility.yul\":13900:13903   */\n      dup3\n        /* \"#utility.yul\":13893:13912   */\n      mstore\n        /* \"#utility.yul\":13945:13949   */\n      0x20\n        /* \"#utility.yul\":13940:13943   */\n      dup3\n        /* \"#utility.yul\":13936:13950   */\n      add\n        /* \"#utility.yul\":13921:13950   */\n      swap1\n      pop\n        /* \"#utility.yul\":13883:13956   */\n      swap3\n      swap2\n      pop\n      pop\n      jump\t// out\n        /* \"#utility.yul\":13962:14267   */\n    tag_75:\n        /* \"#utility.yul\":14002:14005   */\n      0x00\n        /* \"#utility.yul\":14021:14041   */\n      tag_346\n        /* \"#utility.yul\":14039:14040   */\n      dup3\n        /* \"#utility.yul\":14021:14041   */\n      tag_293\n      jump\t// in\n    tag_346:\n        /* \"#utility.yul\":14016:14041   */\n      swap2\n      pop\n        /* \"#utility.yul\":14055:14075   */\n      tag_347\n        /* \"#utility.yul\":14073:14074   */\n      dup4\n        /* \"#utility.yul\":14055:14075   */\n      tag_293\n      jump\t// in\n    tag_347:\n        /* \"#utility.yul\":14050:14075   */\n      swap3\n      pop\n        /* \"#utility.yul\":14209:14210   */\n      dup3\n        /* \"#utility.yul\":14141:14207   */\n      0xffffffffffffffffffffffffffffffffffffffffffffffffffffffffffffffff\n        /* \"#utility.yul\":14137:14211   */\n      sub\n        /* \"#utility.yul\":14134:14135   */\n      dup3\n        /* \"#utility.yul\":14131:14212   */\n      gt\n        /* \"#utility.yul\":14128:14130   */\n      iszero\n      tag_348\n      jumpi\n        /* \"#utility.yul\":14215:14233   */\n      tag_349\n      tag_350\n      jump\t// in\n    tag_349:\n        /* \"#utility.yul\":14128:14130   */\n    tag_348:\n        /* \"#utility.yul\":14259:14260   */\n      dup3\n        /* \"#utility.yul\":14256:14257   */\n      dup3\n        /* \"#utility.yul\":14252:14261   */\n      add\n        /* \"#utility.yul\":14245:14261   */\n      swap1\n      pop\n        /* \"#utility.yul\":14006:14267   */\n      swap3\n      swap2\n      pop\n      pop\n      jump\t// out\n        /* \"#utility.yul\":14273:14369   */\n    tag_236:\n        /* \"#utility.yul\":14310:14317   */\n      0x00\n        /* \"#utility.yul\":14339:14363   */\n      tag_352\n        /* \"#utility.yul\":14357:14362   */\n      dup3\n        /* \"#utility.yul\":14339:14363   */\n      tag_353\n      jump\t// in\n    tag_352:\n        /* \"#utility.yul\":14328:14363   */\n      swap1\n      pop\n        /* \"#utility.yul\":14318:14369   */\n      swap2\n      swap1\n      pop\n      jump\t// out\n        /* \"#utility.yul\":14375:14465   */\n    tag_257:\n        /* \"#utility.yul\":14409:14416   */\n      0x00\n        /* \"#utility.yul\":14452:14457   */\n      dup2\n        /* \"#utility.yul\":14445:14458   */\n      iszero\n        /* \"#utility.yul\":14438:14459   */\n      iszero\n        /* \"#utility.yul\":14427:14459   */\n      swap1\n      pop\n        /* \"#utility.yul\":14417:14465   */\n      swap2\n      swap1\n      pop\n      jump\t// out\n        /* \"#utility.yul\":14471:14598   */\n    tag_355:\n        /* \"#utility.yul\":14516:14523   */\n      0x00\n        /* \"#utility.yul\":14545:14550   */\n      dup2\n        /* \"#utility.yul\":14534:14550   */\n      swap1\n      pop\n        /* \"#utility.yul\":14551:14592   */\n      tag_357\n        /* \"#utility.yul\":14586:14591   */\n      dup3\n        /* \"#utility.yul\":14551:14592   */\n      tag_358\n      jump\t// in\n    tag_357:\n        /* \"#utility.yul\":14524:14598   */\n      swap2\n      swap1\n      pop\n      jump\t// out\n        /* \"#utility.yul\":14604:14730   */\n    tag_353:\n        /* \"#utility.yul\":14641:14648   */\n      0x00\n        /* \"#utility.yul\":14681:14723   */\n      0xffffffffffffffffffffffffffffffffffffffff\n        /* \"#utility.yul\":14674:14679   */\n      dup3\n        /* \"#utility.yul\":14670:14724   */\n      and\n        /* \"#utility.yul\":14659:14724   */\n      swap1\n      pop\n        /* \"#utility.yul\":14649:14730   */\n      swap2\n      swap1\n      pop\n      jump\t// out\n        /* \"#utility.yul\":14736:14813   */\n    tag_293:\n        /* \"#utility.yul\":14773:14780   */\n      0x00\n        /* \"#utility.yul\":14802:14807   */\n      dup2\n        /* \"#utility.yul\":14791:14807   */\n      swap1\n      pop\n        /* \"#utility.yul\":14781:14813   */\n      swap2\n      swap1\n      pop\n      jump\t// out\n        /* \"#utility.yul\":14819:14946   */\n    tag_261:\n        /* \"#utility.yul\":14875:14884   */\n      0x00\n        /* \"#utility.yul\":14908:14940   */\n      tag_362\n        /* \"#utility.yul\":14934:14939   */\n      dup3\n        /* \"#utility.yul\":14908:14940   */\n      tag_355\n      jump\t// in\n    tag_362:\n        /* \"#utility.yul\":14895:14940   */\n      swap1\n      pop\n        /* \"#utility.yul\":14885:14946   */\n      swap2\n      swap1\n      pop\n      jump\t// out\n        /* \"#utility.yul\":14952:15259   */\n    tag_187:\n        /* \"#utility.yul\":15020:15021   */\n      0x00\n        /* \"#utility.yul\":15030:15143   */\n    tag_364:\n        /* \"#utility.yul\":15044:15050   */\n      dup4\n        /* \"#utility.yul\":15041:15042   */\n      dup2\n        /* \"#utility.yul\":15038:15051   */\n      lt\n        /* \"#utility.yul\":15030:15143   */\n      iszero\n      tag_366\n      jumpi\n        /* \"#utility.yul\":15129:15130   */\n      dup1\n        /* \"#utility.yul\":15124:15127   */\n      dup3\n        /* \"#utility.yul\":15120:15131   */\n      add\n        /* \"#utility.yul\":15114:15132   */\n      mload\n        /* \"#utility.yul\":15110:15111   */\n      dup2\n        /* \"#utility.yul\":15105:15108   */\n      dup5\n        /* \"#utility.yul\":15101:15112   */\n      add\n        /* \"#utility.yul\":15094:15133   */\n      mstore\n        /* \"#utility.yul\":15066:15068   */\n      0x20\n        /* \"#utility.yul\":15063:15064   */\n      dup2\n        /* \"#utility.yul\":15059:15069   */\n      add\n        /* \"#utility.yul\":15054:15069   */\n      swap1\n      pop\n        /* \"#utility.yul\":15030:15143   */\n      jump(tag_364)\n    tag_366:\n        /* \"#utility.yul\":15161:15167   */\n      dup4\n        /* \"#utility.yul\":15158:15159   */\n      dup2\n        /* \"#utility.yul\":15155:15168   */\n      gt\n        /* \"#utility.yul\":15152:15154   */\n      iszero\n      tag_367\n      jumpi\n        /* \"#utility.yul\":15241:15242   */\n      0x00\n        /* \"#utility.yul\":15232:15238   */\n      dup5\n        /* \"#utility.yul\":15227:15230   */\n      dup5\n        /* \"#utility.yul\":15223:15239   */\n      add\n        /* \"#utility.yul\":15216:15243   */\n      mstore\n        /* \"#utility.yul\":15152:15154   */\n    tag_367:\n        /* \"#utility.yul\":15001:15259   */\n      pop\n      pop\n      pop\n      pop\n      jump\t// out\n        /* \"#utility.yul\":15265:15546   */\n    tag_328:\n        /* \"#utility.yul\":15348:15375   */\n      tag_369\n        /* \"#utility.yul\":15370:15374   */\n      dup3\n        /* \"#utility.yul\":15348:15375   */\n      tag_272\n      jump\t// in\n    tag_369:\n        /* \"#utility.yul\":15340:15346   */\n      dup2\n        /* \"#utility.yul\":15336:15376   */\n      add\n        /* \"#utility.yul\":15478:15484   */\n      dup2\n        /* \"#utility.yul\":15466:15476   */\n      dup2\n        /* \"#utility.yul\":15463:15485   */\n      lt\n        /* \"#utility.yul\":15442:15460   */\n      0xffffffffffffffff\n        /* \"#utility.yul\":15430:15440   */\n      dup3\n        /* \"#utility.yul\":15427:15461   */\n      gt\n        /* \"#utility.yul\":15424:15486   */\n      or\n        /* \"#utility.yul\":15421:15423   */\n      iszero\n      tag_370\n      jumpi\n        /* \"#utility.yul\":15489:15507   */\n      tag_371\n      tag_333\n      jump\t// in\n    tag_371:\n        /* \"#utility.yul\":15421:15423   */\n    tag_370:\n        /* \"#utility.yul\":15529:15539   */\n      dup1\n        /* \"#utility.yul\":15525:15527   */\n      0x40\n        /* \"#utility.yul\":15518:15540   */\n      mstore\n        /* \"#utility.yul\":15308:15546   */\n      pop\n      pop\n      pop\n      jump\t// out\n        /* \"#utility.yul\":15552:15732   */\n    tag_350:\n        /* \"#utility.yul\":15600:15677   */\n      0x4e487b7100000000000000000000000000000000000000000000000000000000\n        /* \"#utility.yul\":15597:15598   */\n      0x00\n        /* \"#utility.yul\":15590:15678   */\n      mstore\n        /* \"#utility.yul\":15697:15701   */\n      0x11\n        /* \"#utility.yul\":15694:15695   */\n      0x04\n        /* \"#utility.yul\":15687:15702   */\n      mstore\n        /* \"#utility.yul\":15721:15725   */\n      0x24\n        /* \"#utility.yul\":15718:15719   */\n      0x00\n        /* \"#utility.yul\":15711:15726   */\n      revert\n        /* \"#utility.yul\":15738:15918   */\n    tag_66:\n        /* \"#utility.yul\":15786:15863   */\n      0x4e487b7100000000000000000000000000000000000000000000000000000000\n        /* \"#utility.yul\":15783:15784   */\n      0x00\n        /* \"#utility.yul\":15776:15864   */\n      mstore\n        /* \"#utility.yul\":15883:15887   */\n      0x21\n        /* \"#utility.yul\":15880:15881   */\n      0x04\n        /* \"#utility.yul\":15873:15888   */\n      mstore\n        /* \"#utility.yul\":15907:15911   */\n      0x24\n        /* \"#utility.yul\":15904:15905   */\n      0x00\n        /* \"#utility.yul\":15897:15912   */\n      revert\n        /* \"#utility.yul\":15924:16104   */\n    tag_78:\n        /* \"#utility.yul\":15972:16049   */\n      0x4e487b7100000000000000000000000000000000000000000000000000000000\n        /* \"#utility.yul\":15969:15970   */\n      0x00\n        /* \"#utility.yul\":15962:16050   */\n      mstore\n        /* \"#utility.yul\":16069:16073   */\n      0x32\n        /* \"#utility.yul\":16066:16067   */\n      0x04\n        /* \"#utility.yul\":16059:16074   */\n      mstore\n        /* \"#utility.yul\":16093:16097   */\n      0x24\n        /* \"#utility.yul\":16090:16091   */\n      0x00\n        /* \"#utility.yul\":16083:16098   */\n      revert\n        /* \"#utility.yul\":16110:16290   */\n    tag_333:\n        /* \"#utility.yul\":16158:16235   */\n      0x4e487b7100000000000000000000000000000000000000000000000000000000\n        /* \"#utility.yul\":16155:16156   */\n      0x00\n        /* \"#utility.yul\":16148:16236   */\n      mstore\n        /* \"#utility.yul\":16255:16259   */\n      0x41\n        /* \"#utility.yul\":16252:16253   */\n      0x04\n        /* \"#utility.yul\":16245:16260   */\n      mstore\n        /* \"#utility.yul\":16279:16283   */\n      0x24\n        /* \"#utility.yul\":16276:16277   */\n      0x00\n        /* \"#utility.yul\":16269:16284   */\n      revert\n        /* \"#utility.yul\":16296:16413   */\n    tag_175:\n        /* \"#utility.yul\":16405:16406   */\n      0x00\n        /* \"#utility.yul\":16402:16403   */\n      dup1\n        /* \"#utility.yul\":16395:16407   */\n      revert\n        /* \"#utility.yul\":16419:16536   */\n    tag_169:\n        /* \"#utility.yul\":16528:16529   */\n      0x00\n        /* \"#utility.yul\":16525:16526   */\n      dup1\n        /* \"#utility.yul\":16518:16530   */\n      revert\n        /* \"#utility.yul\":16542:16659   */\n    tag_185:\n        /* \"#utility.yul\":16651:16652   */\n      0x00\n        /* \"#utility.yul\":16648:16649   */\n      dup1\n        /* \"#utility.yul\":16641:16653   */\n      revert\n        /* \"#utility.yul\":16665:16782   */\n    tag_223:\n        /* \"#utility.yul\":16774:16775   */\n      0x00\n        /* \"#utility.yul\":16771:16772   */\n      dup1\n        /* \"#utility.yul\":16764:16776   */\n      revert\n        /* \"#utility.yul\":16788:16905   */\n    tag_211:\n        /* \"#utility.yul\":16897:16898   */\n      0x00\n        /* \"#utility.yul\":16894:16895   */\n      dup1\n        /* \"#utility.yul\":16887:16899   */\n      revert\n        /* \"#utility.yul\":16911:17013   */\n    tag_272:\n        /* \"#utility.yul\":16952:16958   */\n      0x00\n        /* \"#utility.yul\":17003:17005   */\n      0x1f\n        /* \"#utility.yul\":16999:17006   */\n      not\n        /* \"#utility.yul\":16994:16996   */\n      0x1f\n        /* \"#utility.yul\":16987:16992   */\n      dup4\n        /* \"#utility.yul\":16983:16997   */\n      add\n        /* \"#utility.yul\":16979:17007   */\n      and\n        /* \"#utility.yul\":16969:17007   */\n      swap1\n      pop\n        /* \"#utility.yul\":16959:17013   */\n      swap2\n      swap1\n      pop\n      jump\t// out\n        /* \"#utility.yul\":17019:17190   */\n    tag_278:\n        /* \"#utility.yul\":17159:17182   */\n      0x5472616e7361636374696f6e2061626f727465642e0000000000000000000000\n        /* \"#utility.yul\":17155:17156   */\n      0x00\n        /* \"#utility.yul\":17147:17153   */\n      dup3\n        /* \"#utility.yul\":17143:17157   */\n      add\n        /* \"#utility.yul\":17136:17183   */\n      mstore\n        /* \"#utility.yul\":17125:17190   */\n      pop\n      jump\t// out\n        /* \"#utility.yul\":17196:17429   */\n    tag_283:\n        /* \"#utility.yul\":17336:17370   */\n      0x56616c7565206d7573742062652067726561746572207468616e20746865206d\n        /* \"#utility.yul\":17332:17333   */\n      0x00\n        /* \"#utility.yul\":17324:17330   */\n      dup3\n        /* \"#utility.yul\":17320:17334   */\n      add\n        /* \"#utility.yul\":17313:17371   */\n      mstore\n        /* \"#utility.yul\":17405:17421   */\n      0x696e696d756e20616d6f756e742e000000000000000000000000000000000000\n        /* \"#utility.yul\":17400:17402   */\n      0x20\n        /* \"#utility.yul\":17392:17398   */\n      dup3\n        /* \"#utility.yul\":17388:17403   */\n      add\n        /* \"#utility.yul\":17381:17422   */\n      mstore\n        /* \"#utility.yul\":17302:17429   */\n      pop\n      jump\t// out\n        /* \"#utility.yul\":17435:17548   */\n    tag_358:\n        /* \"#utility.yul\":17516:17517   */\n      0x05\n        /* \"#utility.yul\":17509:17514   */\n      dup2\n        /* \"#utility.yul\":17506:17518   */\n      lt\n        /* \"#utility.yul\":17496:17498   */\n      tag_385\n      jumpi\n        /* \"#utility.yul\":17522:17540   */\n      tag_386\n      tag_66\n      jump\t// in\n    tag_386:\n        /* \"#utility.yul\":17496:17498   */\n    tag_385:\n        /* \"#utility.yul\":17486:17548   */\n      pop\n      jump\t// out\n        /* \"#utility.yul\":17554:17676   */\n    tag_191:\n        /* \"#utility.yul\":17627:17651   */\n      tag_388\n        /* \"#utility.yul\":17645:17650   */\n      dup2\n        /* \"#utility.yul\":17627:17651   */\n      tag_236\n      jump\t// in\n    tag_388:\n        /* \"#utility.yul\":17620:17625   */\n      dup2\n        /* \"#utility.yul\":17617:17652   */\n      eq\n        /* \"#utility.yul\":17607:17609   */\n      tag_389\n      jumpi\n        /* \"#utility.yul\":17666:17667   */\n      0x00\n        /* \"#utility.yul\":17663:17664   */\n      dup1\n        /* \"#utility.yul\":17656:17668   */\n      revert\n        /* \"#utility.yul\":17607:17609   */\n    tag_389:\n        /* \"#utility.yul\":17597:17676   */\n      pop\n      jump\t// out\n        /* \"#utility.yul\":17682:17804   */\n    tag_204:\n        /* \"#utility.yul\":17755:17779   */\n      tag_391\n        /* \"#utility.yul\":17773:17778   */\n      dup2\n        /* \"#utility.yul\":17755:17779   */\n      tag_293\n      jump\t// in\n    tag_391:\n        /* \"#utility.yul\":17748:17753   */\n      dup2\n        /* \"#utility.yul\":17745:17780   */\n      eq\n        /* \"#utility.yul\":17735:17737   */\n      tag_392\n      jumpi\n        /* \"#utility.yul\":17794:17795   */\n      0x00\n        /* \"#utility.yul\":17791:17792   */\n      dup1\n        /* \"#utility.yul\":17784:17796   */\n      revert\n        /* \"#utility.yul\":17735:17737   */\n    tag_392:\n        /* \"#utility.yul\":17725:17804   */\n      pop\n      jump\t// out\n\n    auxdata: 0xa26469706673582212205bd5838ca1fe6565690a7d12012b77999fd4c852b41b30edeb6e373378864f9a64736f6c63430008060033\n}\n",
				"bytecode": {
					"linkReferences": {},
					"object": "60806040523480156200001157600080fd5b50604051620017e9380380620017e983398181016040528101906200003791906200019a565b33600160006101000a81548173ffffffffffffffffffffffffffffffffffffffff021916908373ffffffffffffffffffffffffffffffffffffffff1602179055506040518060a00160405280600060ff168152602001600a60ff168152602001601460ff168152602001601e60ff168152602001602860ff168152506004906005620000c59291906200010d565b50806000806101000a81548173ffffffffffffffffffffffffffffffffffffffff021916908373ffffffffffffffffffffffffffffffffffffffff160217905550506200021f565b82805482825590600052602060002090810192821562000151579160200282015b8281111562000150578251829060ff169055916020019190600101906200012e565b5b50905062000160919062000164565b5090565b5b808211156200017f57600081600090555060010162000165565b5090565b600081519050620001948162000205565b92915050565b600060208284031215620001b357620001b262000200565b5b6000620001c38482850162000183565b91505092915050565b6000620001d982620001e0565b9050919050565b600073ffffffffffffffffffffffffffffffffffffffff82169050919050565b600080fd5b6200021081620001cc565b81146200021c57600080fd5b50565b6115ba806200022f6000396000f3fe60806040526004361061007b5760003560e01c8063991d39421161004e578063991d394214610153578063da31d64014610192578063e154763e146101bb578063f0b1004d146101f85761007b565b80630bbc735a146100805780631a39d8ef146100ab5780631b4e7bd2146100d65780634a3c06a114610116575b600080fd5b34801561008c57600080fd5b50610095610202565b6040516100a291906110d4565b60405180910390f35b3480156100b757600080fd5b506100c06102b2565b6040516100cd91906111a3565b60405180910390f35b3480156100e257600080fd5b506100fd60048036038101906100f89190610dbd565b6102b8565b60405161010d949392919061108f565b60405180910390f35b34801561012257600080fd5b5061013d60048036038101906101389190610dbd565b610315565b60405161014a9190611188565b60405180910390f35b34801561015f57600080fd5b5061017a60048036038101906101759190610dbd565b610413565b604051610189939291906110f6565b60405180910390f35b34801561019e57600080fd5b506101b960048036038101906101b49190610dbd565b61050d565b005b3480156101c757600080fd5b506101e260048036038101906101dd9190610dea565b610550565b6040516101ef919061112d565b60405180910390f35b61020061071d565b005b61020a610be7565b60008054906101000a900473ffffffffffffffffffffffffffffffffffffffff1673ffffffffffffffffffffffffffffffffffffffff16630bbc735a6040518163ffffffff1660e01b815260040160006040518083038186803b15801561027057600080fd5b505afa158015610284573d6000803e3d6000fd5b505050506040513d6000823e3d601f19601f820116820180604052508101906102ad9190610e2a565b905090565b60025481565b60036020528060005260406000206000915090508060000160009054906101000a900473ffffffffffffffffffffffffffffffffffffffff16908060010154908060020154908060030160009054906101000a900460ff16905084565b61031d610c0e565b600360008373ffffffffffffffffffffffffffffffffffffffff1673ffffffffffffffffffffffffffffffffffffffff1681526020019081526020016000206040518060800160405290816000820160009054906101000a900473ffffffffffffffffffffffffffffffffffffffff1673ffffffffffffffffffffffffffffffffffffffff1673ffffffffffffffffffffffffffffffffffffffff16815260200160018201548152602001600282015481526020016003820160009054906101000a900460ff1660048111156103f6576103f5611413565b5b600481111561040857610407611413565b5b815250509050919050565b600080600080600360008673ffffffffffffffffffffffffffffffffffffffff1673ffffffffffffffffffffffffffffffffffffffff16815260200190815260200160002060020154146105015760009250600360008573ffffffffffffffffffffffffffffffffffffffff1673ffffffffffffffffffffffffffffffffffffffff168152602001908152602001600020600201549150600360008573ffffffffffffffffffffffffffffffffffffffff1673ffffffffffffffffffffffffffffffffffffffff16815260200190815260200160002060030160009054906101000a900460ff169050610506565b600192505b9193909250565b806000806101000a81548173ffffffffffffffffffffffffffffffffffffffff021916908373ffffffffffffffffffffffffffffffffffffffff16021790555050565b60008082600360008673ffffffffffffffffffffffffffffffffffffffff1673ffffffffffffffffffffffffffffffffffffffff168152602001908152602001600020600101546105a191906112bd565b905060046000815481106105b8576105b7611442565b5b906000526020600020015481101580156105f0575060046001815481106105e2576105e1611442565b5b906000526020600020015481105b156105fe5760009150610716565b600460018154811061061357610612611442565b5b9060005260206000200154811015801561064b5750600460028154811061063d5761063c611442565b5b906000526020600020015481105b156106595760019150610715565b600460028154811061066e5761066d611442565b5b906000526020600020015481101580156106a65750600460038154811061069857610697611442565b5b906000526020600020015481105b156106b45760029150610714565b60046003815481106106c9576106c8611442565b5b906000526020600020015481101580156107005750600480815481106106f2576106f1611442565b5b906000526020600020015481105b1561070e5760039150610713565b600491505b5b5b5b5092915050565b600460008154811061073257610731611442565b5b9060005260206000200154341161077e576040517f08c379a000000000000000000000000000000000000000000000000000000000815260040161077590611168565b60405180910390fd5b6000339050600080600061079184610413565b92509250925060006107a38534610550565b9050600160009054906101000a900473ffffffffffffffffffffffffffffffffffffffff1673ffffffffffffffffffffffffffffffffffffffff166108fc349081150290604051600060405180830381858888f1935050505061083b576040517f08c379a000000000000000000000000000000000000000000000000000000000815260040161083290611148565b60405180910390fd5b34600360008773ffffffffffffffffffffffffffffffffffffffff1673ffffffffffffffffffffffffffffffffffffffff168152602001908152602001600020600101600082825461088d91906112bd565b9250508190555080600360008773ffffffffffffffffffffffffffffffffffffffff1673ffffffffffffffffffffffffffffffffffffffff16815260200190815260200160002060030160006101000a81548160ff021916908360048111156108f9576108f8611413565b5b0217905550346002600082825461091091906112bd565b925050819055506000600360008773ffffffffffffffffffffffffffffffffffffffff1673ffffffffffffffffffffffffffffffffffffffff16815260200190815260200160002060030160009054906101000a900460ff16600481111561097b5761097a611413565b5b90508415610a5f57600061098f8783610a9e565b905086600360008973ffffffffffffffffffffffffffffffffffffffff1673ffffffffffffffffffffffffffffffffffffffff16815260200190815260200160002060000160006101000a81548173ffffffffffffffffffffffffffffffffffffffff021916908373ffffffffffffffffffffffffffffffffffffffff16021790555080600360008973ffffffffffffffffffffffffffffffffffffffff1673ffffffffffffffffffffffffffffffffffffffff1681526020019081526020016000206002018190555050610a96565b816004811115610a7257610a71611413565b5b836004811115610a8557610a84611413565b5b14610a9557610a948482610b56565b5b5b505050505050565b60008060009054906101000a900473ffffffffffffffffffffffffffffffffffffffff1673ffffffffffffffffffffffffffffffffffffffff1663a144819484846040518363ffffffff1660e01b8152600401610afc929190611066565b602060405180830381600087803b158015610b1657600080fd5b505af1158015610b2a573d6000803e3d6000fd5b505050506040513d601f19601f82011682018060405250810190610b4e9190610e73565b905092915050565b60008054906101000a900473ffffffffffffffffffffffffffffffffffffffff1673ffffffffffffffffffffffffffffffffffffffff1663cd057e8883836040518363ffffffff1660e01b8152600401610bb19291906111be565b600060405180830381600087803b158015610bcb57600080fd5b505af1158015610bdf573d6000803e3d6000fd5b505050505050565b6040518060a001604052806005905b6060815260200190600190039081610bf65790505090565b6040518060800160405280600073ffffffffffffffffffffffffffffffffffffffff168152602001600081526020016000815260200160006004811115610c5857610c57611413565b5b81525090565b6000610c71610c6c8461120c565b6111e7565b90508082856020860282011115610c8b57610c8a6114a5565b5b60005b85811015610cd957815167ffffffffffffffff811115610cb157610cb06114a0565b5b808601610cbe8982610d65565b85526020850194506020840193505050600181019050610c8e565b5050509392505050565b6000610cf6610cf184611232565b6111e7565b905082815260208101848484011115610d1257610d116114aa565b5b610d1d848285611380565b509392505050565b600081359050610d3481611556565b92915050565b600082601f830112610d4f57610d4e6114a0565b5b6005610d5c848285610c5e565b91505092915050565b600082601f830112610d7a57610d796114a0565b5b8151610d8a848260208601610ce3565b91505092915050565b600081359050610da28161156d565b92915050565b600081519050610db78161156d565b92915050565b600060208284031215610dd357610dd26114b4565b5b6000610de184828501610d25565b91505092915050565b60008060408385031215610e0157610e006114b4565b5b6000610e0f85828601610d25565b9250506020610e2085828601610d93565b9150509250929050565b600060208284031215610e4057610e3f6114b4565b5b600082015167ffffffffffffffff811115610e5e57610e5d6114af565b5b610e6a84828501610d3a565b91505092915050565b600060208284031215610e8957610e886114b4565b5b6000610e9784828501610da8565b91505092915050565b6000610eac8383610f74565b905092915050565b610ebd81611313565b82525050565b610ecc81611313565b82525050565b6000610edd8261126d565b610ee78185611290565b935083602082028501610ef985611263565b8060005b85811015610f355784840389528151610f168582610ea0565b9450610f2183611283565b925060208a01995050600181019050610efd565b50829750879550505050505092915050565b610f5081611325565b82525050565b610f5f8161136e565b82525050565b610f6e8161136e565b82525050565b6000610f7f82611278565b610f89818561129b565b9350610f99818560208601611380565b610fa2816114b9565b840191505092915050565b6000610fba6015836112ac565b9150610fc5826114ca565b602082019050919050565b6000610fdd602e836112ac565b9150610fe8826114f3565b604082019050919050565b6080820160008201516110096000850182610eb4565b50602082015161101c6020850182611048565b50604082015161102f6040850182611048565b5060608201516110426060850182610f56565b50505050565b61105181611364565b82525050565b61106081611364565b82525050565b600060408201905061107b6000830185610ec3565b6110886020830184611057565b9392505050565b60006080820190506110a46000830187610ec3565b6110b16020830186611057565b6110be6040830185611057565b6110cb6060830184610f65565b95945050505050565b600060208201905081810360008301526110ee8184610ed2565b905092915050565b600060608201905061110b6000830186610f47565b6111186020830185611057565b6111256040830184610f65565b949350505050565b60006020820190506111426000830184610f65565b92915050565b6000602082019050818103600083015261116181610fad565b9050919050565b6000602082019050818103600083015261118181610fd0565b9050919050565b600060808201905061119d6000830184610ff3565b92915050565b60006020820190506111b86000830184611057565b92915050565b60006040820190506111d36000830185611057565b6111e06020830184611057565b9392505050565b60006111f1611202565b90506111fd82826113b3565b919050565b6000604051905090565b600067ffffffffffffffff82111561122757611226611471565b5b602082029050919050565b600067ffffffffffffffff82111561124d5761124c611471565b5b611256826114b9565b9050602081019050919050565b6000819050919050565b600060059050919050565b600081519050919050565b6000602082019050919050565b600081905092915050565b600082825260208201905092915050565b600082825260208201905092915050565b60006112c882611364565b91506112d383611364565b9250827fffffffffffffffffffffffffffffffffffffffffffffffffffffffffffffffff03821115611308576113076113e4565b5b828201905092915050565b600061131e82611344565b9050919050565b60008115159050919050565b600081905061133f82611542565b919050565b600073ffffffffffffffffffffffffffffffffffffffff82169050919050565b6000819050919050565b600061137982611331565b9050919050565b60005b8381101561139e578082015181840152602081019050611383565b838111156113ad576000848401525b50505050565b6113bc826114b9565b810181811067ffffffffffffffff821117156113db576113da611471565b5b80604052505050565b7f4e487b7100000000000000000000000000000000000000000000000000000000600052601160045260246000fd5b7f4e487b7100000000000000000000000000000000000000000000000000000000600052602160045260246000fd5b7f4e487b7100000000000000000000000000000000000000000000000000000000600052603260045260246000fd5b7f4e487b7100000000000000000000000000000000000000000000000000000000600052604160045260246000fd5b600080fd5b600080fd5b600080fd5b600080fd5b600080fd5b6000601f19601f8301169050919050565b7f5472616e7361636374696f6e2061626f727465642e0000000000000000000000600082015250565b7f56616c7565206d7573742062652067726561746572207468616e20746865206d60008201527f696e696d756e20616d6f756e742e000000000000000000000000000000000000602082015250565b6005811061155357611552611413565b5b50565b61155f81611313565b811461156a57600080fd5b50565b61157681611364565b811461158157600080fd5b5056fea26469706673582212205bd5838ca1fe6565690a7d12012b77999fd4c852b41b30edeb6e373378864f9a64736f6c63430008060033",
					"opcodes": "PUSH1 0x80 PUSH1 0x40 MSTORE CALLVALUE DUP1 ISZERO PUSH3 0x11 JUMPI PUSH1 0x0 DUP1 REVERT JUMPDEST POP PUSH1 0x40 MLOAD PUSH3 0x17E9 CODESIZE SUB DUP1 PUSH3 0x17E9 DUP4 CODECOPY DUP2 DUP2 ADD PUSH1 0x40 MSTORE DUP2 ADD SWAP1 PUSH3 0x37 SWAP2 SWAP1 PUSH3 0x19A JUMP JUMPDEST CALLER PUSH1 0x1 PUSH1 0x0 PUSH2 0x100 EXP DUP2 SLOAD DUP2 PUSH20 0xFFFFFFFFFFFFFFFFFFFFFFFFFFFFFFFFFFFFFFFF MUL NOT AND SWAP1 DUP4 PUSH20 0xFFFFFFFFFFFFFFFFFFFFFFFFFFFFFFFFFFFFFFFF AND MUL OR SWAP1 SSTORE POP PUSH1 0x40 MLOAD DUP1 PUSH1 0xA0 ADD PUSH1 0x40 MSTORE DUP1 PUSH1 0x0 PUSH1 0xFF AND DUP2 MSTORE PUSH1 0x20 ADD PUSH1 0xA PUSH1 0xFF AND DUP2 MSTORE PUSH1 0x20 ADD PUSH1 0x14 PUSH1 0xFF AND DUP2 MSTORE PUSH1 0x20 ADD PUSH1 0x1E PUSH1 0xFF AND DUP2 MSTORE PUSH1 0x20 ADD PUSH1 0x28 PUSH1 0xFF AND DUP2 MSTORE POP PUSH1 0x4 SWAP1 PUSH1 0x5 PUSH3 0xC5 SWAP3 SWAP2 SWAP1 PUSH3 0x10D JUMP JUMPDEST POP DUP1 PUSH1 0x0 DUP1 PUSH2 0x100 EXP DUP2 SLOAD DUP2 PUSH20 0xFFFFFFFFFFFFFFFFFFFFFFFFFFFFFFFFFFFFFFFF MUL NOT AND SWAP1 DUP4 PUSH20 0xFFFFFFFFFFFFFFFFFFFFFFFFFFFFFFFFFFFFFFFF AND MUL OR SWAP1 SSTORE POP POP PUSH3 0x21F JUMP JUMPDEST DUP3 DUP1 SLOAD DUP3 DUP3 SSTORE SWAP1 PUSH1 0x0 MSTORE PUSH1 0x20 PUSH1 0x0 KECCAK256 SWAP1 DUP2 ADD SWAP3 DUP3 ISZERO PUSH3 0x151 JUMPI SWAP2 PUSH1 0x20 MUL DUP3 ADD JUMPDEST DUP3 DUP2 GT ISZERO PUSH3 0x150 JUMPI DUP3 MLOAD DUP3 SWAP1 PUSH1 0xFF AND SWAP1 SSTORE SWAP2 PUSH1 0x20 ADD SWAP2 SWAP1 PUSH1 0x1 ADD SWAP1 PUSH3 0x12E JUMP JUMPDEST JUMPDEST POP SWAP1 POP PUSH3 0x160 SWAP2 SWAP1 PUSH3 0x164 JUMP JUMPDEST POP SWAP1 JUMP JUMPDEST JUMPDEST DUP1 DUP3 GT ISZERO PUSH3 0x17F JUMPI PUSH1 0x0 DUP2 PUSH1 0x0 SWAP1 SSTORE POP PUSH1 0x1 ADD PUSH3 0x165 JUMP JUMPDEST POP SWAP1 JUMP JUMPDEST PUSH1 0x0 DUP2 MLOAD SWAP1 POP PUSH3 0x194 DUP2 PUSH3 0x205 JUMP JUMPDEST SWAP3 SWAP2 POP POP JUMP JUMPDEST PUSH1 0x0 PUSH1 0x20 DUP3 DUP5 SUB SLT ISZERO PUSH3 0x1B3 JUMPI PUSH3 0x1B2 PUSH3 0x200 JUMP JUMPDEST JUMPDEST PUSH1 0x0 PUSH3 0x1C3 DUP5 DUP3 DUP6 ADD PUSH3 0x183 JUMP JUMPDEST SWAP2 POP POP SWAP3 SWAP2 POP POP JUMP JUMPDEST PUSH1 0x0 PUSH3 0x1D9 DUP3 PUSH3 0x1E0 JUMP JUMPDEST SWAP1 POP SWAP2 SWAP1 POP JUMP JUMPDEST PUSH1 0x0 PUSH20 0xFFFFFFFFFFFFFFFFFFFFFFFFFFFFFFFFFFFFFFFF DUP3 AND SWAP1 POP SWAP2 SWAP1 POP JUMP JUMPDEST PUSH1 0x0 DUP1 REVERT JUMPDEST PUSH3 0x210 DUP2 PUSH3 0x1CC JUMP JUMPDEST DUP2 EQ PUSH3 0x21C JUMPI PUSH1 0x0 DUP1 REVERT JUMPDEST POP JUMP JUMPDEST PUSH2 0x15BA DUP1 PUSH3 0x22F PUSH1 0x0 CODECOPY PUSH1 0x0 RETURN INVALID PUSH1 0x80 PUSH1 0x40 MSTORE PUSH1 0x4 CALLDATASIZE LT PUSH2 0x7B JUMPI PUSH1 0x0 CALLDATALOAD PUSH1 0xE0 SHR DUP1 PUSH4 0x991D3942 GT PUSH2 0x4E JUMPI DUP1 PUSH4 0x991D3942 EQ PUSH2 0x153 JUMPI DUP1 PUSH4 0xDA31D640 EQ PUSH2 0x192 JUMPI DUP1 PUSH4 0xE154763E EQ PUSH2 0x1BB JUMPI DUP1 PUSH4 0xF0B1004D EQ PUSH2 0x1F8 JUMPI PUSH2 0x7B JUMP JUMPDEST DUP1 PUSH4 0xBBC735A EQ PUSH2 0x80 JUMPI DUP1 PUSH4 0x1A39D8EF EQ PUSH2 0xAB JUMPI DUP1 PUSH4 0x1B4E7BD2 EQ PUSH2 0xD6 JUMPI DUP1 PUSH4 0x4A3C06A1 EQ PUSH2 0x116 JUMPI JUMPDEST PUSH1 0x0 DUP1 REVERT JUMPDEST CALLVALUE DUP1 ISZERO PUSH2 0x8C JUMPI PUSH1 0x0 DUP1 REVERT JUMPDEST POP PUSH2 0x95 PUSH2 0x202 JUMP JUMPDEST PUSH1 0x40 MLOAD PUSH2 0xA2 SWAP2 SWAP1 PUSH2 0x10D4 JUMP JUMPDEST PUSH1 0x40 MLOAD DUP1 SWAP2 SUB SWAP1 RETURN JUMPDEST CALLVALUE DUP1 ISZERO PUSH2 0xB7 JUMPI PUSH1 0x0 DUP1 REVERT JUMPDEST POP PUSH2 0xC0 PUSH2 0x2B2 JUMP JUMPDEST PUSH1 0x40 MLOAD PUSH2 0xCD SWAP2 SWAP1 PUSH2 0x11A3 JUMP JUMPDEST PUSH1 0x40 MLOAD DUP1 SWAP2 SUB SWAP1 RETURN JUMPDEST CALLVALUE DUP1 ISZERO PUSH2 0xE2 JUMPI PUSH1 0x0 DUP1 REVERT JUMPDEST POP PUSH2 0xFD PUSH1 0x4 DUP1 CALLDATASIZE SUB DUP2 ADD SWAP1 PUSH2 0xF8 SWAP2 SWAP1 PUSH2 0xDBD JUMP JUMPDEST PUSH2 0x2B8 JUMP JUMPDEST PUSH1 0x40 MLOAD PUSH2 0x10D SWAP5 SWAP4 SWAP3 SWAP2 SWAP1 PUSH2 0x108F JUMP JUMPDEST PUSH1 0x40 MLOAD DUP1 SWAP2 SUB SWAP1 RETURN JUMPDEST CALLVALUE DUP1 ISZERO PUSH2 0x122 JUMPI PUSH1 0x0 DUP1 REVERT JUMPDEST POP PUSH2 0x13D PUSH1 0x4 DUP1 CALLDATASIZE SUB DUP2 ADD SWAP1 PUSH2 0x138 SWAP2 SWAP1 PUSH2 0xDBD JUMP JUMPDEST PUSH2 0x315 JUMP JUMPDEST PUSH1 0x40 MLOAD PUSH2 0x14A SWAP2 SWAP1 PUSH2 0x1188 JUMP JUMPDEST PUSH1 0x40 MLOAD DUP1 SWAP2 SUB SWAP1 RETURN JUMPDEST CALLVALUE DUP1 ISZERO PUSH2 0x15F JUMPI PUSH1 0x0 DUP1 REVERT JUMPDEST POP PUSH2 0x17A PUSH1 0x4 DUP1 CALLDATASIZE SUB DUP2 ADD SWAP1 PUSH2 0x175 SWAP2 SWAP1 PUSH2 0xDBD JUMP JUMPDEST PUSH2 0x413 JUMP JUMPDEST PUSH1 0x40 MLOAD PUSH2 0x189 SWAP4 SWAP3 SWAP2 SWAP1 PUSH2 0x10F6 JUMP JUMPDEST PUSH1 0x40 MLOAD DUP1 SWAP2 SUB SWAP1 RETURN JUMPDEST CALLVALUE DUP1 ISZERO PUSH2 0x19E JUMPI PUSH1 0x0 DUP1 REVERT JUMPDEST POP PUSH2 0x1B9 PUSH1 0x4 DUP1 CALLDATASIZE SUB DUP2 ADD SWAP1 PUSH2 0x1B4 SWAP2 SWAP1 PUSH2 0xDBD JUMP JUMPDEST PUSH2 0x50D JUMP JUMPDEST STOP JUMPDEST CALLVALUE DUP1 ISZERO PUSH2 0x1C7 JUMPI PUSH1 0x0 DUP1 REVERT JUMPDEST POP PUSH2 0x1E2 PUSH1 0x4 DUP1 CALLDATASIZE SUB DUP2 ADD SWAP1 PUSH2 0x1DD SWAP2 SWAP1 PUSH2 0xDEA JUMP JUMPDEST PUSH2 0x550 JUMP JUMPDEST PUSH1 0x40 MLOAD PUSH2 0x1EF SWAP2 SWAP1 PUSH2 0x112D JUMP JUMPDEST PUSH1 0x40 MLOAD DUP1 SWAP2 SUB SWAP1 RETURN JUMPDEST PUSH2 0x200 PUSH2 0x71D JUMP JUMPDEST STOP JUMPDEST PUSH2 0x20A PUSH2 0xBE7 JUMP JUMPDEST PUSH1 0x0 DUP1 SLOAD SWAP1 PUSH2 0x100 EXP SWAP1 DIV PUSH20 0xFFFFFFFFFFFFFFFFFFFFFFFFFFFFFFFFFFFFFFFF AND PUSH20 0xFFFFFFFFFFFFFFFFFFFFFFFFFFFFFFFFFFFFFFFF AND PUSH4 0xBBC735A PUSH1 0x40 MLOAD DUP2 PUSH4 0xFFFFFFFF AND PUSH1 0xE0 SHL DUP2 MSTORE PUSH1 0x4 ADD PUSH1 0x0 PUSH1 0x40 MLOAD DUP1 DUP4 SUB DUP2 DUP7 DUP1 EXTCODESIZE ISZERO DUP1 ISZERO PUSH2 0x270 JUMPI PUSH1 0x0 DUP1 REVERT JUMPDEST POP GAS STATICCALL ISZERO DUP1 ISZERO PUSH2 0x284 JUMPI RETURNDATASIZE PUSH1 0x0 DUP1 RETURNDATACOPY RETURNDATASIZE PUSH1 0x0 REVERT JUMPDEST POP POP POP POP PUSH1 0x40 MLOAD RETURNDATASIZE PUSH1 0x0 DUP3 RETURNDATACOPY RETURNDATASIZE PUSH1 0x1F NOT PUSH1 0x1F DUP3 ADD AND DUP3 ADD DUP1 PUSH1 0x40 MSTORE POP DUP2 ADD SWAP1 PUSH2 0x2AD SWAP2 SWAP1 PUSH2 0xE2A JUMP JUMPDEST SWAP1 POP SWAP1 JUMP JUMPDEST PUSH1 0x2 SLOAD DUP2 JUMP JUMPDEST PUSH1 0x3 PUSH1 0x20 MSTORE DUP1 PUSH1 0x0 MSTORE PUSH1 0x40 PUSH1 0x0 KECCAK256 PUSH1 0x0 SWAP2 POP SWAP1 POP DUP1 PUSH1 0x0 ADD PUSH1 0x0 SWAP1 SLOAD SWAP1 PUSH2 0x100 EXP SWAP1 DIV PUSH20 0xFFFFFFFFFFFFFFFFFFFFFFFFFFFFFFFFFFFFFFFF AND SWAP1 DUP1 PUSH1 0x1 ADD SLOAD SWAP1 DUP1 PUSH1 0x2 ADD SLOAD SWAP1 DUP1 PUSH1 0x3 ADD PUSH1 0x0 SWAP1 SLOAD SWAP1 PUSH2 0x100 EXP SWAP1 DIV PUSH1 0xFF AND SWAP1 POP DUP5 JUMP JUMPDEST PUSH2 0x31D PUSH2 0xC0E JUMP JUMPDEST PUSH1 0x3 PUSH1 0x0 DUP4 PUSH20 0xFFFFFFFFFFFFFFFFFFFFFFFFFFFFFFFFFFFFFFFF AND PUSH20 0xFFFFFFFFFFFFFFFFFFFFFFFFFFFFFFFFFFFFFFFF AND DUP2 MSTORE PUSH1 0x20 ADD SWAP1 DUP2 MSTORE PUSH1 0x20 ADD PUSH1 0x0 KECCAK256 PUSH1 0x40 MLOAD DUP1 PUSH1 0x80 ADD PUSH1 0x40 MSTORE SWAP1 DUP2 PUSH1 0x0 DUP3 ADD PUSH1 0x0 SWAP1 SLOAD SWAP1 PUSH2 0x100 EXP SWAP1 DIV PUSH20 0xFFFFFFFFFFFFFFFFFFFFFFFFFFFFFFFFFFFFFFFF AND PUSH20 0xFFFFFFFFFFFFFFFFFFFFFFFFFFFFFFFFFFFFFFFF AND PUSH20 0xFFFFFFFFFFFFFFFFFFFFFFFFFFFFFFFFFFFFFFFF AND DUP2 MSTORE PUSH1 0x20 ADD PUSH1 0x1 DUP3 ADD SLOAD DUP2 MSTORE PUSH1 0x20 ADD PUSH1 0x2 DUP3 ADD SLOAD DUP2 MSTORE PUSH1 0x20 ADD PUSH1 0x3 DUP3 ADD PUSH1 0x0 SWAP1 SLOAD SWAP1 PUSH2 0x100 EXP SWAP1 DIV PUSH1 0xFF AND PUSH1 0x4 DUP2 GT ISZERO PUSH2 0x3F6 JUMPI PUSH2 0x3F5 PUSH2 0x1413 JUMP JUMPDEST JUMPDEST PUSH1 0x4 DUP2 GT ISZERO PUSH2 0x408 JUMPI PUSH2 0x407 PUSH2 0x1413 JUMP JUMPDEST JUMPDEST DUP2 MSTORE POP POP SWAP1 POP SWAP2 SWAP1 POP JUMP JUMPDEST PUSH1 0x0 DUP1 PUSH1 0x0 DUP1 PUSH1 0x3 PUSH1 0x0 DUP7 PUSH20 0xFFFFFFFFFFFFFFFFFFFFFFFFFFFFFFFFFFFFFFFF AND PUSH20 0xFFFFFFFFFFFFFFFFFFFFFFFFFFFFFFFFFFFFFFFF AND DUP2 MSTORE PUSH1 0x20 ADD SWAP1 DUP2 MSTORE PUSH1 0x20 ADD PUSH1 0x0 KECCAK256 PUSH1 0x2 ADD SLOAD EQ PUSH2 0x501 JUMPI PUSH1 0x0 SWAP3 POP PUSH1 0x3 PUSH1 0x0 DUP6 PUSH20 0xFFFFFFFFFFFFFFFFFFFFFFFFFFFFFFFFFFFFFFFF AND PUSH20 0xFFFFFFFFFFFFFFFFFFFFFFFFFFFFFFFFFFFFFFFF AND DUP2 MSTORE PUSH1 0x20 ADD SWAP1 DUP2 MSTORE PUSH1 0x20 ADD PUSH1 0x0 KECCAK256 PUSH1 0x2 ADD SLOAD SWAP2 POP PUSH1 0x3 PUSH1 0x0 DUP6 PUSH20 0xFFFFFFFFFFFFFFFFFFFFFFFFFFFFFFFFFFFFFFFF AND PUSH20 0xFFFFFFFFFFFFFFFFFFFFFFFFFFFFFFFFFFFFFFFF AND DUP2 MSTORE PUSH1 0x20 ADD SWAP1 DUP2 MSTORE PUSH1 0x20 ADD PUSH1 0x0 KECCAK256 PUSH1 0x3 ADD PUSH1 0x0 SWAP1 SLOAD SWAP1 PUSH2 0x100 EXP SWAP1 DIV PUSH1 0xFF AND SWAP1 POP PUSH2 0x506 JUMP JUMPDEST PUSH1 0x1 SWAP3 POP JUMPDEST SWAP2 SWAP4 SWAP1 SWAP3 POP JUMP JUMPDEST DUP1 PUSH1 0x0 DUP1 PUSH2 0x100 EXP DUP2 SLOAD DUP2 PUSH20 0xFFFFFFFFFFFFFFFFFFFFFFFFFFFFFFFFFFFFFFFF MUL NOT AND SWAP1 DUP4 PUSH20 0xFFFFFFFFFFFFFFFFFFFFFFFFFFFFFFFFFFFFFFFF AND MUL OR SWAP1 SSTORE POP POP JUMP JUMPDEST PUSH1 0x0 DUP1 DUP3 PUSH1 0x3 PUSH1 0x0 DUP7 PUSH20 0xFFFFFFFFFFFFFFFFFFFFFFFFFFFFFFFFFFFFFFFF AND PUSH20 0xFFFFFFFFFFFFFFFFFFFFFFFFFFFFFFFFFFFFFFFF AND DUP2 MSTORE PUSH1 0x20 ADD SWAP1 DUP2 MSTORE PUSH1 0x20 ADD PUSH1 0x0 KECCAK256 PUSH1 0x1 ADD SLOAD PUSH2 0x5A1 SWAP2 SWAP1 PUSH2 0x12BD JUMP JUMPDEST SWAP1 POP PUSH1 0x4 PUSH1 0x0 DUP2 SLOAD DUP2 LT PUSH2 0x5B8 JUMPI PUSH2 0x5B7 PUSH2 0x1442 JUMP JUMPDEST JUMPDEST SWAP1 PUSH1 0x0 MSTORE PUSH1 0x20 PUSH1 0x0 KECCAK256 ADD SLOAD DUP2 LT ISZERO DUP1 ISZERO PUSH2 0x5F0 JUMPI POP PUSH1 0x4 PUSH1 0x1 DUP2 SLOAD DUP2 LT PUSH2 0x5E2 JUMPI PUSH2 0x5E1 PUSH2 0x1442 JUMP JUMPDEST JUMPDEST SWAP1 PUSH1 0x0 MSTORE PUSH1 0x20 PUSH1 0x0 KECCAK256 ADD SLOAD DUP2 LT JUMPDEST ISZERO PUSH2 0x5FE JUMPI PUSH1 0x0 SWAP2 POP PUSH2 0x716 JUMP JUMPDEST PUSH1 0x4 PUSH1 0x1 DUP2 SLOAD DUP2 LT PUSH2 0x613 JUMPI PUSH2 0x612 PUSH2 0x1442 JUMP JUMPDEST JUMPDEST SWAP1 PUSH1 0x0 MSTORE PUSH1 0x20 PUSH1 0x0 KECCAK256 ADD SLOAD DUP2 LT ISZERO DUP1 ISZERO PUSH2 0x64B JUMPI POP PUSH1 0x4 PUSH1 0x2 DUP2 SLOAD DUP2 LT PUSH2 0x63D JUMPI PUSH2 0x63C PUSH2 0x1442 JUMP JUMPDEST JUMPDEST SWAP1 PUSH1 0x0 MSTORE PUSH1 0x20 PUSH1 0x0 KECCAK256 ADD SLOAD DUP2 LT JUMPDEST ISZERO PUSH2 0x659 JUMPI PUSH1 0x1 SWAP2 POP PUSH2 0x715 JUMP JUMPDEST PUSH1 0x4 PUSH1 0x2 DUP2 SLOAD DUP2 LT PUSH2 0x66E JUMPI PUSH2 0x66D PUSH2 0x1442 JUMP JUMPDEST JUMPDEST SWAP1 PUSH1 0x0 MSTORE PUSH1 0x20 PUSH1 0x0 KECCAK256 ADD SLOAD DUP2 LT ISZERO DUP1 ISZERO PUSH2 0x6A6 JUMPI POP PUSH1 0x4 PUSH1 0x3 DUP2 SLOAD DUP2 LT PUSH2 0x698 JUMPI PUSH2 0x697 PUSH2 0x1442 JUMP JUMPDEST JUMPDEST SWAP1 PUSH1 0x0 MSTORE PUSH1 0x20 PUSH1 0x0 KECCAK256 ADD SLOAD DUP2 LT JUMPDEST ISZERO PUSH2 0x6B4 JUMPI PUSH1 0x2 SWAP2 POP PUSH2 0x714 JUMP JUMPDEST PUSH1 0x4 PUSH1 0x3 DUP2 SLOAD DUP2 LT PUSH2 0x6C9 JUMPI PUSH2 0x6C8 PUSH2 0x1442 JUMP JUMPDEST JUMPDEST SWAP1 PUSH1 0x0 MSTORE PUSH1 0x20 PUSH1 0x0 KECCAK256 ADD SLOAD DUP2 LT ISZERO DUP1 ISZERO PUSH2 0x700 JUMPI POP PUSH1 0x4 DUP1 DUP2 SLOAD DUP2 LT PUSH2 0x6F2 JUMPI PUSH2 0x6F1 PUSH2 0x1442 JUMP JUMPDEST JUMPDEST SWAP1 PUSH1 0x0 MSTORE PUSH1 0x20 PUSH1 0x0 KECCAK256 ADD SLOAD DUP2 LT JUMPDEST ISZERO PUSH2 0x70E JUMPI PUSH1 0x3 SWAP2 POP PUSH2 0x713 JUMP JUMPDEST PUSH1 0x4 SWAP2 POP JUMPDEST JUMPDEST JUMPDEST JUMPDEST POP SWAP3 SWAP2 POP POP JUMP JUMPDEST PUSH1 0x4 PUSH1 0x0 DUP2 SLOAD DUP2 LT PUSH2 0x732 JUMPI PUSH2 0x731 PUSH2 0x1442 JUMP JUMPDEST JUMPDEST SWAP1 PUSH1 0x0 MSTORE PUSH1 0x20 PUSH1 0x0 KECCAK256 ADD SLOAD CALLVALUE GT PUSH2 0x77E JUMPI PUSH1 0x40 MLOAD PUSH32 0x8C379A000000000000000000000000000000000000000000000000000000000 DUP2 MSTORE PUSH1 0x4 ADD PUSH2 0x775 SWAP1 PUSH2 0x1168 JUMP JUMPDEST PUSH1 0x40 MLOAD DUP1 SWAP2 SUB SWAP1 REVERT JUMPDEST PUSH1 0x0 CALLER SWAP1 POP PUSH1 0x0 DUP1 PUSH1 0x0 PUSH2 0x791 DUP5 PUSH2 0x413 JUMP JUMPDEST SWAP3 POP SWAP3 POP SWAP3 POP PUSH1 0x0 PUSH2 0x7A3 DUP6 CALLVALUE PUSH2 0x550 JUMP JUMPDEST SWAP1 POP PUSH1 0x1 PUSH1 0x0 SWAP1 SLOAD SWAP1 PUSH2 0x100 EXP SWAP1 DIV PUSH20 0xFFFFFFFFFFFFFFFFFFFFFFFFFFFFFFFFFFFFFFFF AND PUSH20 0xFFFFFFFFFFFFFFFFFFFFFFFFFFFFFFFFFFFFFFFF AND PUSH2 0x8FC CALLVALUE SWAP1 DUP2 ISZERO MUL SWAP1 PUSH1 0x40 MLOAD PUSH1 0x0 PUSH1 0x40 MLOAD DUP1 DUP4 SUB DUP2 DUP6 DUP9 DUP9 CALL SWAP4 POP POP POP POP PUSH2 0x83B JUMPI PUSH1 0x40 MLOAD PUSH32 0x8C379A000000000000000000000000000000000000000000000000000000000 DUP2 MSTORE PUSH1 0x4 ADD PUSH2 0x832 SWAP1 PUSH2 0x1148 JUMP JUMPDEST PUSH1 0x40 MLOAD DUP1 SWAP2 SUB SWAP1 REVERT JUMPDEST CALLVALUE PUSH1 0x3 PUSH1 0x0 DUP8 PUSH20 0xFFFFFFFFFFFFFFFFFFFFFFFFFFFFFFFFFFFFFFFF AND PUSH20 0xFFFFFFFFFFFFFFFFFFFFFFFFFFFFFFFFFFFFFFFF AND DUP2 MSTORE PUSH1 0x20 ADD SWAP1 DUP2 MSTORE PUSH1 0x20 ADD PUSH1 0x0 KECCAK256 PUSH1 0x1 ADD PUSH1 0x0 DUP3 DUP3 SLOAD PUSH2 0x88D SWAP2 SWAP1 PUSH2 0x12BD JUMP JUMPDEST SWAP3 POP POP DUP2 SWAP1 SSTORE POP DUP1 PUSH1 0x3 PUSH1 0x0 DUP8 PUSH20 0xFFFFFFFFFFFFFFFFFFFFFFFFFFFFFFFFFFFFFFFF AND PUSH20 0xFFFFFFFFFFFFFFFFFFFFFFFFFFFFFFFFFFFFFFFF AND DUP2 MSTORE PUSH1 0x20 ADD SWAP1 DUP2 MSTORE PUSH1 0x20 ADD PUSH1 0x0 KECCAK256 PUSH1 0x3 ADD PUSH1 0x0 PUSH2 0x100 EXP DUP2 SLOAD DUP2 PUSH1 0xFF MUL NOT AND SWAP1 DUP4 PUSH1 0x4 DUP2 GT ISZERO PUSH2 0x8F9 JUMPI PUSH2 0x8F8 PUSH2 0x1413 JUMP JUMPDEST JUMPDEST MUL OR SWAP1 SSTORE POP CALLVALUE PUSH1 0x2 PUSH1 0x0 DUP3 DUP3 SLOAD PUSH2 0x910 SWAP2 SWAP1 PUSH2 0x12BD JUMP JUMPDEST SWAP3 POP POP DUP2 SWAP1 SSTORE POP PUSH1 0x0 PUSH1 0x3 PUSH1 0x0 DUP8 PUSH20 0xFFFFFFFFFFFFFFFFFFFFFFFFFFFFFFFFFFFFFFFF AND PUSH20 0xFFFFFFFFFFFFFFFFFFFFFFFFFFFFFFFFFFFFFFFF AND DUP2 MSTORE PUSH1 0x20 ADD SWAP1 DUP2 MSTORE PUSH1 0x20 ADD PUSH1 0x0 KECCAK256 PUSH1 0x3 ADD PUSH1 0x0 SWAP1 SLOAD SWAP1 PUSH2 0x100 EXP SWAP1 DIV PUSH1 0xFF AND PUSH1 0x4 DUP2 GT ISZERO PUSH2 0x97B JUMPI PUSH2 0x97A PUSH2 0x1413 JUMP JUMPDEST JUMPDEST SWAP1 POP DUP5 ISZERO PUSH2 0xA5F JUMPI PUSH1 0x0 PUSH2 0x98F DUP8 DUP4 PUSH2 0xA9E JUMP JUMPDEST SWAP1 POP DUP7 PUSH1 0x3 PUSH1 0x0 DUP10 PUSH20 0xFFFFFFFFFFFFFFFFFFFFFFFFFFFFFFFFFFFFFFFF AND PUSH20 0xFFFFFFFFFFFFFFFFFFFFFFFFFFFFFFFFFFFFFFFF AND DUP2 MSTORE PUSH1 0x20 ADD SWAP1 DUP2 MSTORE PUSH1 0x20 ADD PUSH1 0x0 KECCAK256 PUSH1 0x0 ADD PUSH1 0x0 PUSH2 0x100 EXP DUP2 SLOAD DUP2 PUSH20 0xFFFFFFFFFFFFFFFFFFFFFFFFFFFFFFFFFFFFFFFF MUL NOT AND SWAP1 DUP4 PUSH20 0xFFFFFFFFFFFFFFFFFFFFFFFFFFFFFFFFFFFFFFFF AND MUL OR SWAP1 SSTORE POP DUP1 PUSH1 0x3 PUSH1 0x0 DUP10 PUSH20 0xFFFFFFFFFFFFFFFFFFFFFFFFFFFFFFFFFFFFFFFF AND PUSH20 0xFFFFFFFFFFFFFFFFFFFFFFFFFFFFFFFFFFFFFFFF AND DUP2 MSTORE PUSH1 0x20 ADD SWAP1 DUP2 MSTORE PUSH1 0x20 ADD PUSH1 0x0 KECCAK256 PUSH1 0x2 ADD DUP2 SWAP1 SSTORE POP POP PUSH2 0xA96 JUMP JUMPDEST DUP2 PUSH1 0x4 DUP2 GT ISZERO PUSH2 0xA72 JUMPI PUSH2 0xA71 PUSH2 0x1413 JUMP JUMPDEST JUMPDEST DUP4 PUSH1 0x4 DUP2 GT ISZERO PUSH2 0xA85 JUMPI PUSH2 0xA84 PUSH2 0x1413 JUMP JUMPDEST JUMPDEST EQ PUSH2 0xA95 JUMPI PUSH2 0xA94 DUP5 DUP3 PUSH2 0xB56 JUMP JUMPDEST JUMPDEST JUMPDEST POP POP POP POP POP POP JUMP JUMPDEST PUSH1 0x0 DUP1 PUSH1 0x0 SWAP1 SLOAD SWAP1 PUSH2 0x100 EXP SWAP1 DIV PUSH20 0xFFFFFFFFFFFFFFFFFFFFFFFFFFFFFFFFFFFFFFFF AND PUSH20 0xFFFFFFFFFFFFFFFFFFFFFFFFFFFFFFFFFFFFFFFF AND PUSH4 0xA1448194 DUP5 DUP5 PUSH1 0x40 MLOAD DUP4 PUSH4 0xFFFFFFFF AND PUSH1 0xE0 SHL DUP2 MSTORE PUSH1 0x4 ADD PUSH2 0xAFC SWAP3 SWAP2 SWAP1 PUSH2 0x1066 JUMP JUMPDEST PUSH1 0x20 PUSH1 0x40 MLOAD DUP1 DUP4 SUB DUP2 PUSH1 0x0 DUP8 DUP1 EXTCODESIZE ISZERO DUP1 ISZERO PUSH2 0xB16 JUMPI PUSH1 0x0 DUP1 REVERT JUMPDEST POP GAS CALL ISZERO DUP1 ISZERO PUSH2 0xB2A JUMPI RETURNDATASIZE PUSH1 0x0 DUP1 RETURNDATACOPY RETURNDATASIZE PUSH1 0x0 REVERT JUMPDEST POP POP POP POP PUSH1 0x40 MLOAD RETURNDATASIZE PUSH1 0x1F NOT PUSH1 0x1F DUP3 ADD AND DUP3 ADD DUP1 PUSH1 0x40 MSTORE POP DUP2 ADD SWAP1 PUSH2 0xB4E SWAP2 SWAP1 PUSH2 0xE73 JUMP JUMPDEST SWAP1 POP SWAP3 SWAP2 POP POP JUMP JUMPDEST PUSH1 0x0 DUP1 SLOAD SWAP1 PUSH2 0x100 EXP SWAP1 DIV PUSH20 0xFFFFFFFFFFFFFFFFFFFFFFFFFFFFFFFFFFFFFFFF AND PUSH20 0xFFFFFFFFFFFFFFFFFFFFFFFFFFFFFFFFFFFFFFFF AND PUSH4 0xCD057E88 DUP4 DUP4 PUSH1 0x40 MLOAD DUP4 PUSH4 0xFFFFFFFF AND PUSH1 0xE0 SHL DUP2 MSTORE PUSH1 0x4 ADD PUSH2 0xBB1 SWAP3 SWAP2 SWAP1 PUSH2 0x11BE JUMP JUMPDEST PUSH1 0x0 PUSH1 0x40 MLOAD DUP1 DUP4 SUB DUP2 PUSH1 0x0 DUP8 DUP1 EXTCODESIZE ISZERO DUP1 ISZERO PUSH2 0xBCB JUMPI PUSH1 0x0 DUP1 REVERT JUMPDEST POP GAS CALL ISZERO DUP1 ISZERO PUSH2 0xBDF JUMPI RETURNDATASIZE PUSH1 0x0 DUP1 RETURNDATACOPY RETURNDATASIZE PUSH1 0x0 REVERT JUMPDEST POP POP POP POP POP POP JUMP JUMPDEST PUSH1 0x40 MLOAD DUP1 PUSH1 0xA0 ADD PUSH1 0x40 MSTORE DUP1 PUSH1 0x5 SWAP1 JUMPDEST PUSH1 0x60 DUP2 MSTORE PUSH1 0x20 ADD SWAP1 PUSH1 0x1 SWAP1 SUB SWAP1 DUP2 PUSH2 0xBF6 JUMPI SWAP1 POP POP SWAP1 JUMP JUMPDEST PUSH1 0x40 MLOAD DUP1 PUSH1 0x80 ADD PUSH1 0x40 MSTORE DUP1 PUSH1 0x0 PUSH20 0xFFFFFFFFFFFFFFFFFFFFFFFFFFFFFFFFFFFFFFFF AND DUP2 MSTORE PUSH1 0x20 ADD PUSH1 0x0 DUP2 MSTORE PUSH1 0x20 ADD PUSH1 0x0 DUP2 MSTORE PUSH1 0x20 ADD PUSH1 0x0 PUSH1 0x4 DUP2 GT ISZERO PUSH2 0xC58 JUMPI PUSH2 0xC57 PUSH2 0x1413 JUMP JUMPDEST JUMPDEST DUP2 MSTORE POP SWAP1 JUMP JUMPDEST PUSH1 0x0 PUSH2 0xC71 PUSH2 0xC6C DUP5 PUSH2 0x120C JUMP JUMPDEST PUSH2 0x11E7 JUMP JUMPDEST SWAP1 POP DUP1 DUP3 DUP6 PUSH1 0x20 DUP7 MUL DUP3 ADD GT ISZERO PUSH2 0xC8B JUMPI PUSH2 0xC8A PUSH2 0x14A5 JUMP JUMPDEST JUMPDEST PUSH1 0x0 JUMPDEST DUP6 DUP2 LT ISZERO PUSH2 0xCD9 JUMPI DUP2 MLOAD PUSH8 0xFFFFFFFFFFFFFFFF DUP2 GT ISZERO PUSH2 0xCB1 JUMPI PUSH2 0xCB0 PUSH2 0x14A0 JUMP JUMPDEST JUMPDEST DUP1 DUP7 ADD PUSH2 0xCBE DUP10 DUP3 PUSH2 0xD65 JUMP JUMPDEST DUP6 MSTORE PUSH1 0x20 DUP6 ADD SWAP5 POP PUSH1 0x20 DUP5 ADD SWAP4 POP POP POP PUSH1 0x1 DUP2 ADD SWAP1 POP PUSH2 0xC8E JUMP JUMPDEST POP POP POP SWAP4 SWAP3 POP POP POP JUMP JUMPDEST PUSH1 0x0 PUSH2 0xCF6 PUSH2 0xCF1 DUP5 PUSH2 0x1232 JUMP JUMPDEST PUSH2 0x11E7 JUMP JUMPDEST SWAP1 POP DUP3 DUP2 MSTORE PUSH1 0x20 DUP2 ADD DUP5 DUP5 DUP5 ADD GT ISZERO PUSH2 0xD12 JUMPI PUSH2 0xD11 PUSH2 0x14AA JUMP JUMPDEST JUMPDEST PUSH2 0xD1D DUP5 DUP3 DUP6 PUSH2 0x1380 JUMP JUMPDEST POP SWAP4 SWAP3 POP POP POP JUMP JUMPDEST PUSH1 0x0 DUP2 CALLDATALOAD SWAP1 POP PUSH2 0xD34 DUP2 PUSH2 0x1556 JUMP JUMPDEST SWAP3 SWAP2 POP POP JUMP JUMPDEST PUSH1 0x0 DUP3 PUSH1 0x1F DUP4 ADD SLT PUSH2 0xD4F JUMPI PUSH2 0xD4E PUSH2 0x14A0 JUMP JUMPDEST JUMPDEST PUSH1 0x5 PUSH2 0xD5C DUP5 DUP3 DUP6 PUSH2 0xC5E JUMP JUMPDEST SWAP2 POP POP SWAP3 SWAP2 POP POP JUMP JUMPDEST PUSH1 0x0 DUP3 PUSH1 0x1F DUP4 ADD SLT PUSH2 0xD7A JUMPI PUSH2 0xD79 PUSH2 0x14A0 JUMP JUMPDEST JUMPDEST DUP2 MLOAD PUSH2 0xD8A DUP5 DUP3 PUSH1 0x20 DUP7 ADD PUSH2 0xCE3 JUMP JUMPDEST SWAP2 POP POP SWAP3 SWAP2 POP POP JUMP JUMPDEST PUSH1 0x0 DUP2 CALLDATALOAD SWAP1 POP PUSH2 0xDA2 DUP2 PUSH2 0x156D JUMP JUMPDEST SWAP3 SWAP2 POP POP JUMP JUMPDEST PUSH1 0x0 DUP2 MLOAD SWAP1 POP PUSH2 0xDB7 DUP2 PUSH2 0x156D JUMP JUMPDEST SWAP3 SWAP2 POP POP JUMP JUMPDEST PUSH1 0x0 PUSH1 0x20 DUP3 DUP5 SUB SLT ISZERO PUSH2 0xDD3 JUMPI PUSH2 0xDD2 PUSH2 0x14B4 JUMP JUMPDEST JUMPDEST PUSH1 0x0 PUSH2 0xDE1 DUP5 DUP3 DUP6 ADD PUSH2 0xD25 JUMP JUMPDEST SWAP2 POP POP SWAP3 SWAP2 POP POP JUMP JUMPDEST PUSH1 0x0 DUP1 PUSH1 0x40 DUP4 DUP6 SUB SLT ISZERO PUSH2 0xE01 JUMPI PUSH2 0xE00 PUSH2 0x14B4 JUMP JUMPDEST JUMPDEST PUSH1 0x0 PUSH2 0xE0F DUP6 DUP3 DUP7 ADD PUSH2 0xD25 JUMP JUMPDEST SWAP3 POP POP PUSH1 0x20 PUSH2 0xE20 DUP6 DUP3 DUP7 ADD PUSH2 0xD93 JUMP JUMPDEST SWAP2 POP POP SWAP3 POP SWAP3 SWAP1 POP JUMP JUMPDEST PUSH1 0x0 PUSH1 0x20 DUP3 DUP5 SUB SLT ISZERO PUSH2 0xE40 JUMPI PUSH2 0xE3F PUSH2 0x14B4 JUMP JUMPDEST JUMPDEST PUSH1 0x0 DUP3 ADD MLOAD PUSH8 0xFFFFFFFFFFFFFFFF DUP2 GT ISZERO PUSH2 0xE5E JUMPI PUSH2 0xE5D PUSH2 0x14AF JUMP JUMPDEST JUMPDEST PUSH2 0xE6A DUP5 DUP3 DUP6 ADD PUSH2 0xD3A JUMP JUMPDEST SWAP2 POP POP SWAP3 SWAP2 POP POP JUMP JUMPDEST PUSH1 0x0 PUSH1 0x20 DUP3 DUP5 SUB SLT ISZERO PUSH2 0xE89 JUMPI PUSH2 0xE88 PUSH2 0x14B4 JUMP JUMPDEST JUMPDEST PUSH1 0x0 PUSH2 0xE97 DUP5 DUP3 DUP6 ADD PUSH2 0xDA8 JUMP JUMPDEST SWAP2 POP POP SWAP3 SWAP2 POP POP JUMP JUMPDEST PUSH1 0x0 PUSH2 0xEAC DUP4 DUP4 PUSH2 0xF74 JUMP JUMPDEST SWAP1 POP SWAP3 SWAP2 POP POP JUMP JUMPDEST PUSH2 0xEBD DUP2 PUSH2 0x1313 JUMP JUMPDEST DUP3 MSTORE POP POP JUMP JUMPDEST PUSH2 0xECC DUP2 PUSH2 0x1313 JUMP JUMPDEST DUP3 MSTORE POP POP JUMP JUMPDEST PUSH1 0x0 PUSH2 0xEDD DUP3 PUSH2 0x126D JUMP JUMPDEST PUSH2 0xEE7 DUP2 DUP6 PUSH2 0x1290 JUMP JUMPDEST SWAP4 POP DUP4 PUSH1 0x20 DUP3 MUL DUP6 ADD PUSH2 0xEF9 DUP6 PUSH2 0x1263 JUMP JUMPDEST DUP1 PUSH1 0x0 JUMPDEST DUP6 DUP2 LT ISZERO PUSH2 0xF35 JUMPI DUP5 DUP5 SUB DUP10 MSTORE DUP2 MLOAD PUSH2 0xF16 DUP6 DUP3 PUSH2 0xEA0 JUMP JUMPDEST SWAP5 POP PUSH2 0xF21 DUP4 PUSH2 0x1283 JUMP JUMPDEST SWAP3 POP PUSH1 0x20 DUP11 ADD SWAP10 POP POP PUSH1 0x1 DUP2 ADD SWAP1 POP PUSH2 0xEFD JUMP JUMPDEST POP DUP3 SWAP8 POP DUP8 SWAP6 POP POP POP POP POP POP SWAP3 SWAP2 POP POP JUMP JUMPDEST PUSH2 0xF50 DUP2 PUSH2 0x1325 JUMP JUMPDEST DUP3 MSTORE POP POP JUMP JUMPDEST PUSH2 0xF5F DUP2 PUSH2 0x136E JUMP JUMPDEST DUP3 MSTORE POP POP JUMP JUMPDEST PUSH2 0xF6E DUP2 PUSH2 0x136E JUMP JUMPDEST DUP3 MSTORE POP POP JUMP JUMPDEST PUSH1 0x0 PUSH2 0xF7F DUP3 PUSH2 0x1278 JUMP JUMPDEST PUSH2 0xF89 DUP2 DUP6 PUSH2 0x129B JUMP JUMPDEST SWAP4 POP PUSH2 0xF99 DUP2 DUP6 PUSH1 0x20 DUP7 ADD PUSH2 0x1380 JUMP JUMPDEST PUSH2 0xFA2 DUP2 PUSH2 0x14B9 JUMP JUMPDEST DUP5 ADD SWAP2 POP POP SWAP3 SWAP2 POP POP JUMP JUMPDEST PUSH1 0x0 PUSH2 0xFBA PUSH1 0x15 DUP4 PUSH2 0x12AC JUMP JUMPDEST SWAP2 POP PUSH2 0xFC5 DUP3 PUSH2 0x14CA JUMP JUMPDEST PUSH1 0x20 DUP3 ADD SWAP1 POP SWAP2 SWAP1 POP JUMP JUMPDEST PUSH1 0x0 PUSH2 0xFDD PUSH1 0x2E DUP4 PUSH2 0x12AC JUMP JUMPDEST SWAP2 POP PUSH2 0xFE8 DUP3 PUSH2 0x14F3 JUMP JUMPDEST PUSH1 0x40 DUP3 ADD SWAP1 POP SWAP2 SWAP1 POP JUMP JUMPDEST PUSH1 0x80 DUP3 ADD PUSH1 0x0 DUP3 ADD MLOAD PUSH2 0x1009 PUSH1 0x0 DUP6 ADD DUP3 PUSH2 0xEB4 JUMP JUMPDEST POP PUSH1 0x20 DUP3 ADD MLOAD PUSH2 0x101C PUSH1 0x20 DUP6 ADD DUP3 PUSH2 0x1048 JUMP JUMPDEST POP PUSH1 0x40 DUP3 ADD MLOAD PUSH2 0x102F PUSH1 0x40 DUP6 ADD DUP3 PUSH2 0x1048 JUMP JUMPDEST POP PUSH1 0x60 DUP3 ADD MLOAD PUSH2 0x1042 PUSH1 0x60 DUP6 ADD DUP3 PUSH2 0xF56 JUMP JUMPDEST POP POP POP POP JUMP JUMPDEST PUSH2 0x1051 DUP2 PUSH2 0x1364 JUMP JUMPDEST DUP3 MSTORE POP POP JUMP JUMPDEST PUSH2 0x1060 DUP2 PUSH2 0x1364 JUMP JUMPDEST DUP3 MSTORE POP POP JUMP JUMPDEST PUSH1 0x0 PUSH1 0x40 DUP3 ADD SWAP1 POP PUSH2 0x107B PUSH1 0x0 DUP4 ADD DUP6 PUSH2 0xEC3 JUMP JUMPDEST PUSH2 0x1088 PUSH1 0x20 DUP4 ADD DUP5 PUSH2 0x1057 JUMP JUMPDEST SWAP4 SWAP3 POP POP POP JUMP JUMPDEST PUSH1 0x0 PUSH1 0x80 DUP3 ADD SWAP1 POP PUSH2 0x10A4 PUSH1 0x0 DUP4 ADD DUP8 PUSH2 0xEC3 JUMP JUMPDEST PUSH2 0x10B1 PUSH1 0x20 DUP4 ADD DUP7 PUSH2 0x1057 JUMP JUMPDEST PUSH2 0x10BE PUSH1 0x40 DUP4 ADD DUP6 PUSH2 0x1057 JUMP JUMPDEST PUSH2 0x10CB PUSH1 0x60 DUP4 ADD DUP5 PUSH2 0xF65 JUMP JUMPDEST SWAP6 SWAP5 POP POP POP POP POP JUMP JUMPDEST PUSH1 0x0 PUSH1 0x20 DUP3 ADD SWAP1 POP DUP2 DUP2 SUB PUSH1 0x0 DUP4 ADD MSTORE PUSH2 0x10EE DUP2 DUP5 PUSH2 0xED2 JUMP JUMPDEST SWAP1 POP SWAP3 SWAP2 POP POP JUMP JUMPDEST PUSH1 0x0 PUSH1 0x60 DUP3 ADD SWAP1 POP PUSH2 0x110B PUSH1 0x0 DUP4 ADD DUP7 PUSH2 0xF47 JUMP JUMPDEST PUSH2 0x1118 PUSH1 0x20 DUP4 ADD DUP6 PUSH2 0x1057 JUMP JUMPDEST PUSH2 0x1125 PUSH1 0x40 DUP4 ADD DUP5 PUSH2 0xF65 JUMP JUMPDEST SWAP5 SWAP4 POP POP POP POP JUMP JUMPDEST PUSH1 0x0 PUSH1 0x20 DUP3 ADD SWAP1 POP PUSH2 0x1142 PUSH1 0x0 DUP4 ADD DUP5 PUSH2 0xF65 JUMP JUMPDEST SWAP3 SWAP2 POP POP JUMP JUMPDEST PUSH1 0x0 PUSH1 0x20 DUP3 ADD SWAP1 POP DUP2 DUP2 SUB PUSH1 0x0 DUP4 ADD MSTORE PUSH2 0x1161 DUP2 PUSH2 0xFAD JUMP JUMPDEST SWAP1 POP SWAP2 SWAP1 POP JUMP JUMPDEST PUSH1 0x0 PUSH1 0x20 DUP3 ADD SWAP1 POP DUP2 DUP2 SUB PUSH1 0x0 DUP4 ADD MSTORE PUSH2 0x1181 DUP2 PUSH2 0xFD0 JUMP JUMPDEST SWAP1 POP SWAP2 SWAP1 POP JUMP JUMPDEST PUSH1 0x0 PUSH1 0x80 DUP3 ADD SWAP1 POP PUSH2 0x119D PUSH1 0x0 DUP4 ADD DUP5 PUSH2 0xFF3 JUMP JUMPDEST SWAP3 SWAP2 POP POP JUMP JUMPDEST PUSH1 0x0 PUSH1 0x20 DUP3 ADD SWAP1 POP PUSH2 0x11B8 PUSH1 0x0 DUP4 ADD DUP5 PUSH2 0x1057 JUMP JUMPDEST SWAP3 SWAP2 POP POP JUMP JUMPDEST PUSH1 0x0 PUSH1 0x40 DUP3 ADD SWAP1 POP PUSH2 0x11D3 PUSH1 0x0 DUP4 ADD DUP6 PUSH2 0x1057 JUMP JUMPDEST PUSH2 0x11E0 PUSH1 0x20 DUP4 ADD DUP5 PUSH2 0x1057 JUMP JUMPDEST SWAP4 SWAP3 POP POP POP JUMP JUMPDEST PUSH1 0x0 PUSH2 0x11F1 PUSH2 0x1202 JUMP JUMPDEST SWAP1 POP PUSH2 0x11FD DUP3 DUP3 PUSH2 0x13B3 JUMP JUMPDEST SWAP2 SWAP1 POP JUMP JUMPDEST PUSH1 0x0 PUSH1 0x40 MLOAD SWAP1 POP SWAP1 JUMP JUMPDEST PUSH1 0x0 PUSH8 0xFFFFFFFFFFFFFFFF DUP3 GT ISZERO PUSH2 0x1227 JUMPI PUSH2 0x1226 PUSH2 0x1471 JUMP JUMPDEST JUMPDEST PUSH1 0x20 DUP3 MUL SWAP1 POP SWAP2 SWAP1 POP JUMP JUMPDEST PUSH1 0x0 PUSH8 0xFFFFFFFFFFFFFFFF DUP3 GT ISZERO PUSH2 0x124D JUMPI PUSH2 0x124C PUSH2 0x1471 JUMP JUMPDEST JUMPDEST PUSH2 0x1256 DUP3 PUSH2 0x14B9 JUMP JUMPDEST SWAP1 POP PUSH1 0x20 DUP2 ADD SWAP1 POP SWAP2 SWAP1 POP JUMP JUMPDEST PUSH1 0x0 DUP2 SWAP1 POP SWAP2 SWAP1 POP JUMP JUMPDEST PUSH1 0x0 PUSH1 0x5 SWAP1 POP SWAP2 SWAP1 POP JUMP JUMPDEST PUSH1 0x0 DUP2 MLOAD SWAP1 POP SWAP2 SWAP1 POP JUMP JUMPDEST PUSH1 0x0 PUSH1 0x20 DUP3 ADD SWAP1 POP SWAP2 SWAP1 POP JUMP JUMPDEST PUSH1 0x0 DUP2 SWAP1 POP SWAP3 SWAP2 POP POP JUMP JUMPDEST PUSH1 0x0 DUP3 DUP3 MSTORE PUSH1 0x20 DUP3 ADD SWAP1 POP SWAP3 SWAP2 POP POP JUMP JUMPDEST PUSH1 0x0 DUP3 DUP3 MSTORE PUSH1 0x20 DUP3 ADD SWAP1 POP SWAP3 SWAP2 POP POP JUMP JUMPDEST PUSH1 0x0 PUSH2 0x12C8 DUP3 PUSH2 0x1364 JUMP JUMPDEST SWAP2 POP PUSH2 0x12D3 DUP4 PUSH2 0x1364 JUMP JUMPDEST SWAP3 POP DUP3 PUSH32 0xFFFFFFFFFFFFFFFFFFFFFFFFFFFFFFFFFFFFFFFFFFFFFFFFFFFFFFFFFFFFFFFF SUB DUP3 GT ISZERO PUSH2 0x1308 JUMPI PUSH2 0x1307 PUSH2 0x13E4 JUMP JUMPDEST JUMPDEST DUP3 DUP3 ADD SWAP1 POP SWAP3 SWAP2 POP POP JUMP JUMPDEST PUSH1 0x0 PUSH2 0x131E DUP3 PUSH2 0x1344 JUMP JUMPDEST SWAP1 POP SWAP2 SWAP1 POP JUMP JUMPDEST PUSH1 0x0 DUP2 ISZERO ISZERO SWAP1 POP SWAP2 SWAP1 POP JUMP JUMPDEST PUSH1 0x0 DUP2 SWAP1 POP PUSH2 0x133F DUP3 PUSH2 0x1542 JUMP JUMPDEST SWAP2 SWAP1 POP JUMP JUMPDEST PUSH1 0x0 PUSH20 0xFFFFFFFFFFFFFFFFFFFFFFFFFFFFFFFFFFFFFFFF DUP3 AND SWAP1 POP SWAP2 SWAP1 POP JUMP JUMPDEST PUSH1 0x0 DUP2 SWAP1 POP SWAP2 SWAP1 POP JUMP JUMPDEST PUSH1 0x0 PUSH2 0x1379 DUP3 PUSH2 0x1331 JUMP JUMPDEST SWAP1 POP SWAP2 SWAP1 POP JUMP JUMPDEST PUSH1 0x0 JUMPDEST DUP4 DUP2 LT ISZERO PUSH2 0x139E JUMPI DUP1 DUP3 ADD MLOAD DUP2 DUP5 ADD MSTORE PUSH1 0x20 DUP2 ADD SWAP1 POP PUSH2 0x1383 JUMP JUMPDEST DUP4 DUP2 GT ISZERO PUSH2 0x13AD JUMPI PUSH1 0x0 DUP5 DUP5 ADD MSTORE JUMPDEST POP POP POP POP JUMP JUMPDEST PUSH2 0x13BC DUP3 PUSH2 0x14B9 JUMP JUMPDEST DUP2 ADD DUP2 DUP2 LT PUSH8 0xFFFFFFFFFFFFFFFF DUP3 GT OR ISZERO PUSH2 0x13DB JUMPI PUSH2 0x13DA PUSH2 0x1471 JUMP JUMPDEST JUMPDEST DUP1 PUSH1 0x40 MSTORE POP POP POP JUMP JUMPDEST PUSH32 0x4E487B7100000000000000000000000000000000000000000000000000000000 PUSH1 0x0 MSTORE PUSH1 0x11 PUSH1 0x4 MSTORE PUSH1 0x24 PUSH1 0x0 REVERT JUMPDEST PUSH32 0x4E487B7100000000000000000000000000000000000000000000000000000000 PUSH1 0x0 MSTORE PUSH1 0x21 PUSH1 0x4 MSTORE PUSH1 0x24 PUSH1 0x0 REVERT JUMPDEST PUSH32 0x4E487B7100000000000000000000000000000000000000000000000000000000 PUSH1 0x0 MSTORE PUSH1 0x32 PUSH1 0x4 MSTORE PUSH1 0x24 PUSH1 0x0 REVERT JUMPDEST PUSH32 0x4E487B7100000000000000000000000000000000000000000000000000000000 PUSH1 0x0 MSTORE PUSH1 0x41 PUSH1 0x4 MSTORE PUSH1 0x24 PUSH1 0x0 REVERT JUMPDEST PUSH1 0x0 DUP1 REVERT JUMPDEST PUSH1 0x0 DUP1 REVERT JUMPDEST PUSH1 0x0 DUP1 REVERT JUMPDEST PUSH1 0x0 DUP1 REVERT JUMPDEST PUSH1 0x0 DUP1 REVERT JUMPDEST PUSH1 0x0 PUSH1 0x1F NOT PUSH1 0x1F DUP4 ADD AND SWAP1 POP SWAP2 SWAP1 POP JUMP JUMPDEST PUSH32 0x5472616E7361636374696F6E2061626F727465642E0000000000000000000000 PUSH1 0x0 DUP3 ADD MSTORE POP JUMP JUMPDEST PUSH32 0x56616C7565206D7573742062652067726561746572207468616E20746865206D PUSH1 0x0 DUP3 ADD MSTORE PUSH32 0x696E696D756E20616D6F756E742E000000000000000000000000000000000000 PUSH1 0x20 DUP3 ADD MSTORE POP JUMP JUMPDEST PUSH1 0x5 DUP2 LT PUSH2 0x1553 JUMPI PUSH2 0x1552 PUSH2 0x1413 JUMP JUMPDEST JUMPDEST POP JUMP JUMPDEST PUSH2 0x155F DUP2 PUSH2 0x1313 JUMP JUMPDEST DUP2 EQ PUSH2 0x156A JUMPI PUSH1 0x0 DUP1 REVERT JUMPDEST POP JUMP JUMPDEST PUSH2 0x1576 DUP2 PUSH2 0x1364 JUMP JUMPDEST DUP2 EQ PUSH2 0x1581 JUMPI PUSH1 0x0 DUP1 REVERT JUMPDEST POP JUMP INVALID LOG2 PUSH5 0x6970667358 0x22 SLT KECCAK256 JUMPDEST 0xD5 DUP4 DUP13 LOG1 INVALID PUSH6 0x65690A7D1201 0x2B PUSH24 0x999FD4C852B41B30EDEB6E373378864F9A64736F6C634300 ADDMOD MOD STOP CALLER "
				},
				"gasEstimates": {
					"creation": {
						"codeDepositCost": "1112400",
						"executionCost": "infinite",
						"totalCost": "infinite"
					},
					"external": {
						"_donate()": "infinite",
						"_getLevel(address,uint256)": "infinite",
						"_getUserData(address)": "infinite",
						"_validateUser(address)": "7638",
						"getPreviewNFT()": "infinite",
						"setNftContractAddress(address)": "24744",
						"totalAmount()": "2452",
						"userList(address)": "infinite"
					},
					"internal": {
						"changeLevel(uint256,uint256)": "infinite",
						"safeMint(address,uint256)": "infinite"
					}
				},
				"methodIdentifiers": {
					"_donate()": "f0b1004d",
					"_getLevel(address,uint256)": "e154763e",
					"_getUserData(address)": "4a3c06a1",
					"_validateUser(address)": "991d3942",
					"getPreviewNFT()": "0bbc735a",
					"setNftContractAddress(address)": "da31d640",
					"totalAmount()": "1a39d8ef",
					"userList(address)": "1b4e7bd2"
				}
			},
			"storageLayout": {
				"storage": [
					{
						"astId": 27,
						"contract": "contracts/OpenHelp.sol:OpenHelp",
						"label": "nftContractAddress",
						"offset": 0,
						"slot": "0",
						"type": "t_address"
					},
					{
						"astId": 39,
						"contract": "contracts/OpenHelp.sol:OpenHelp",
						"label": "owner",
						"offset": 0,
						"slot": "1",
						"type": "t_address_payable"
					},
					{
						"astId": 41,
						"contract": "contracts/OpenHelp.sol:OpenHelp",
						"label": "totalAmount",
						"offset": 0,
						"slot": "2",
						"type": "t_uint256"
					},
					{
						"astId": 46,
						"contract": "contracts/OpenHelp.sol:OpenHelp",
						"label": "userList",
						"offset": 0,
						"slot": "3",
						"type": "t_mapping(t_address,t_struct(UserData)37_storage)"
					},
					{
						"astId": 49,
						"contract": "contracts/OpenHelp.sol:OpenHelp",
						"label": "userAmountsLevelLimits",
						"offset": 0,
						"slot": "4",
						"type": "t_array(t_uint256)dyn_storage"
					}
				],
				"types": {
					"t_address": {
						"encoding": "inplace",
						"label": "address",
						"numberOfBytes": "20"
					},
					"t_address_payable": {
						"encoding": "inplace",
						"label": "address payable",
						"numberOfBytes": "20"
					},
					"t_array(t_uint256)dyn_storage": {
						"base": "t_uint256",
						"encoding": "dynamic_array",
						"label": "uint256[]",
						"numberOfBytes": "32"
					},
					"t_enum(Level)55": {
						"encoding": "inplace",
						"label": "enum OpenHelp.Level",
						"numberOfBytes": "1"
					},
					"t_mapping(t_address,t_struct(UserData)37_storage)": {
						"encoding": "mapping",
						"key": "t_address",
						"label": "mapping(address => struct OpenHelp.UserData)",
						"numberOfBytes": "32",
						"value": "t_struct(UserData)37_storage"
					},
					"t_struct(UserData)37_storage": {
						"encoding": "inplace",
						"label": "struct OpenHelp.UserData",
						"members": [
							{
								"astId": 29,
								"contract": "contracts/OpenHelp.sol:OpenHelp",
								"label": "id",
								"offset": 0,
								"slot": "0",
								"type": "t_address"
							},
							{
								"astId": 31,
								"contract": "contracts/OpenHelp.sol:OpenHelp",
								"label": "donationAmount",
								"offset": 0,
								"slot": "1",
								"type": "t_uint256"
							},
							{
								"astId": 33,
								"contract": "contracts/OpenHelp.sol:OpenHelp",
								"label": "nftID",
								"offset": 0,
								"slot": "2",
								"type": "t_uint256"
							},
							{
								"astId": 36,
								"contract": "contracts/OpenHelp.sol:OpenHelp",
								"label": "level",
								"offset": 0,
								"slot": "3",
								"type": "t_enum(Level)55"
							}
						],
						"numberOfBytes": "128"
					},
					"t_uint256": {
						"encoding": "inplace",
						"label": "uint256",
						"numberOfBytes": "32"
					}
				}
			},
			"userdoc": {
				"kind": "user",
				"methods": {
					"_donate()": {
						"notice": "Function when users donate eth crypto to OpenHelp"
					}
				},
				"version": 1
			}
		}
	}
}