{
	"contracts/OpenHelp.sol": {
		"OpenHelp": {
			"abi": [
				{
					"inputs": [
						{
							"internalType": "address",
							"name": "_nftContractAddress",
							"type": "address"
						}
					],
					"stateMutability": "nonpayable",
					"type": "constructor"
				},
				{
					"inputs": [],
					"name": "_donate",
					"outputs": [],
					"stateMutability": "payable",
					"type": "function"
				},
				{
					"inputs": [
						{
							"internalType": "address",
							"name": "_user",
							"type": "address"
						},
						{
							"internalType": "uint256",
							"name": "amount",
							"type": "uint256"
						}
					],
					"name": "_getCategory",
					"outputs": [
						{
							"internalType": "enum OpenHelp.Category",
							"name": "_category",
							"type": "uint8"
						}
					],
					"stateMutability": "view",
					"type": "function"
				},
				{
					"inputs": [
						{
							"internalType": "address",
							"name": "_user",
							"type": "address"
						}
					],
					"name": "_validateUser",
					"outputs": [
						{
							"internalType": "bool",
							"name": "_isNew",
							"type": "bool"
						},
						{
							"internalType": "uint256",
							"name": "_nftID",
							"type": "uint256"
						},
						{
							"internalType": "enum OpenHelp.Category",
							"name": "_actualUserCategory",
							"type": "uint8"
						}
					],
					"stateMutability": "view",
					"type": "function"
				},
				{
					"inputs": [],
					"name": "getPreviewNFT",
					"outputs": [
						{
							"internalType": "string[5]",
							"name": "",
							"type": "string[5]"
						}
					],
					"stateMutability": "view",
					"type": "function"
				},
				{
					"inputs": [
						{
							"internalType": "address",
							"name": "_nftContractAddress",
							"type": "address"
						}
					],
					"name": "setNftContractAddress",
					"outputs": [],
					"stateMutability": "nonpayable",
					"type": "function"
				},
				{
					"inputs": [],
					"name": "totalAmount",
					"outputs": [
						{
							"internalType": "uint256",
							"name": "",
							"type": "uint256"
						}
					],
					"stateMutability": "view",
					"type": "function"
				},
				{
					"inputs": [
						{
							"internalType": "address",
							"name": "",
							"type": "address"
						}
					],
					"name": "userList",
					"outputs": [
						{
							"internalType": "address",
							"name": "id",
							"type": "address"
						},
						{
							"internalType": "uint256",
							"name": "donationAmount",
							"type": "uint256"
						},
						{
							"internalType": "uint256",
							"name": "nftID",
							"type": "uint256"
						},
						{
							"internalType": "enum OpenHelp.Category",
							"name": "category",
							"type": "uint8"
						}
					],
					"stateMutability": "view",
					"type": "function"
				}
			],
			"devdoc": {
				"kind": "dev",
				"methods": {
					"_donate()": {
						"details": "Store value in variable param num value to store"
					}
				},
				"version": 1
			},
			"evm": {
				"assembly": "    /* \"contracts/OpenHelp.sol\":380:4091  contract OpenHelp{... */\n  mstore(0x40, 0x80)\n    /* \"contracts/OpenHelp.sol\":773:992  constructor(address _nftContractAddress){... */\n  callvalue\n  dup1\n  iszero\n  tag_1\n  jumpi\n  0x00\n  dup1\n  revert\ntag_1:\n  pop\n  mload(0x40)\n  sub(codesize, bytecodeSize)\n  dup1\n  bytecodeSize\n  dup4\n  codecopy\n  dup2\n  dup2\n  add\n  0x40\n  mstore\n  dup2\n  add\n  swap1\n  tag_2\n  swap2\n  swap1\n  tag_3\n  jump\t// in\ntag_2:\n    /* \"contracts/OpenHelp.sol\":874:884  msg.sender */\n  caller\n    /* \"contracts/OpenHelp.sol\":857:862  owner */\n  0x01\n  0x00\n    /* \"contracts/OpenHelp.sol\":857:885  owner =  payable(msg.sender) */\n  0x0100\n  exp\n  dup2\n  sload\n  dup2\n  0xffffffffffffffffffffffffffffffffffffffff\n  mul\n  not\n  and\n  swap1\n  dup4\n  0xffffffffffffffffffffffffffffffffffffffff\n  and\n  mul\n  or\n  swap1\n  sstore\n  pop\n    /* \"contracts/OpenHelp.sol\":895:935  userAmountsLevelLimits = [0,10,20,30,40] */\n  mload(0x40)\n  dup1\n  0xa0\n  add\n  0x40\n  mstore\n  dup1\n    /* \"contracts/OpenHelp.sol\":921:922  0 */\n  0x00\n    /* \"contracts/OpenHelp.sol\":895:935  userAmountsLevelLimits = [0,10,20,30,40] */\n  0xff\n  and\n  dup2\n  mstore\n  0x20\n  add\n    /* \"contracts/OpenHelp.sol\":923:925  10 */\n  0x0a\n    /* \"contracts/OpenHelp.sol\":895:935  userAmountsLevelLimits = [0,10,20,30,40] */\n  0xff\n  and\n  dup2\n  mstore\n  0x20\n  add\n    /* \"contracts/OpenHelp.sol\":926:928  20 */\n  0x14\n    /* \"contracts/OpenHelp.sol\":895:935  userAmountsLevelLimits = [0,10,20,30,40] */\n  0xff\n  and\n  dup2\n  mstore\n  0x20\n  add\n    /* \"contracts/OpenHelp.sol\":929:931  30 */\n  0x1e\n    /* \"contracts/OpenHelp.sol\":895:935  userAmountsLevelLimits = [0,10,20,30,40] */\n  0xff\n  and\n  dup2\n  mstore\n  0x20\n  add\n    /* \"contracts/OpenHelp.sol\":932:934  40 */\n  0x28\n    /* \"contracts/OpenHelp.sol\":895:935  userAmountsLevelLimits = [0,10,20,30,40] */\n  0xff\n  and\n  dup2\n  mstore\n  pop\n    /* \"contracts/OpenHelp.sol\":895:917  userAmountsLevelLimits */\n  0x04\n    /* \"contracts/OpenHelp.sol\":895:935  userAmountsLevelLimits = [0,10,20,30,40] */\n  swap1\n  0x05\n  tag_6\n  swap3\n  swap2\n  swap1\n  tag_7\n  jump\t// in\ntag_6:\n  pop\n    /* \"contracts/OpenHelp.sol\":966:985  _nftContractAddress */\n  dup1\n    /* \"contracts/OpenHelp.sol\":945:963  nftContractAddress */\n  0x00\n  dup1\n    /* \"contracts/OpenHelp.sol\":945:985  nftContractAddress = _nftContractAddress */\n  0x0100\n  exp\n  dup2\n  sload\n  dup2\n  0xffffffffffffffffffffffffffffffffffffffff\n  mul\n  not\n  and\n  swap1\n  dup4\n  0xffffffffffffffffffffffffffffffffffffffff\n  and\n  mul\n  or\n  swap1\n  sstore\n  pop\n    /* \"contracts/OpenHelp.sol\":773:992  constructor(address _nftContractAddress){... */\n  pop\n    /* \"contracts/OpenHelp.sol\":380:4091  contract OpenHelp{... */\n  jump(tag_8)\ntag_7:\n  dup3\n  dup1\n  sload\n  dup3\n  dup3\n  sstore\n  swap1\n  0x00\n  mstore\n  keccak256(0x00, 0x20)\n  swap1\n  dup2\n  add\n  swap3\n  dup3\n  iszero\n  tag_9\n  jumpi\n  swap2\n  0x20\n  mul\n  dup3\n  add\ntag_10:\n  dup3\n  dup2\n  gt\n  iszero\n  tag_11\n  jumpi\n  dup3\n  mload\n  dup3\n  swap1\n  0xff\n  and\n  swap1\n  sstore\n  swap2\n  0x20\n  add\n  swap2\n  swap1\n  0x01\n  add\n  swap1\n  jump(tag_10)\ntag_11:\ntag_9:\n  pop\n  swap1\n  pop\n  tag_12\n  swap2\n  swap1\n  tag_13\n  jump\t// in\ntag_12:\n  pop\n  swap1\n  jump\t// out\ntag_13:\ntag_14:\n  dup1\n  dup3\n  gt\n  iszero\n  tag_15\n  jumpi\n  0x00\n  dup2\n  0x00\n  swap1\n  sstore\n  pop\n  0x01\n  add\n  jump(tag_14)\ntag_15:\n  pop\n  swap1\n  jump\t// out\n    /* \"#utility.yul\":7:150   */\ntag_17:\n    /* \"#utility.yul\":64:69   */\n  0x00\n    /* \"#utility.yul\":95:101   */\n  dup2\n    /* \"#utility.yul\":89:102   */\n  mload\n    /* \"#utility.yul\":80:102   */\n  swap1\n  pop\n    /* \"#utility.yul\":111:144   */\n  tag_19\n    /* \"#utility.yul\":138:143   */\n  dup2\n    /* \"#utility.yul\":111:144   */\n  tag_20\n  jump\t// in\ntag_19:\n    /* \"#utility.yul\":70:150   */\n  swap3\n  swap2\n  pop\n  pop\n  jump\t// out\n    /* \"#utility.yul\":156:507   */\ntag_3:\n    /* \"#utility.yul\":226:232   */\n  0x00\n    /* \"#utility.yul\":275:277   */\n  0x20\n    /* \"#utility.yul\":263:272   */\n  dup3\n    /* \"#utility.yul\":254:261   */\n  dup5\n    /* \"#utility.yul\":250:273   */\n  sub\n    /* \"#utility.yul\":246:278   */\n  slt\n    /* \"#utility.yul\":243:245   */\n  iszero\n  tag_22\n  jumpi\n    /* \"#utility.yul\":281:360   */\n  tag_23\n  tag_24\n  jump\t// in\ntag_23:\n    /* \"#utility.yul\":243:245   */\ntag_22:\n    /* \"#utility.yul\":401:402   */\n  0x00\n    /* \"#utility.yul\":426:490   */\n  tag_25\n    /* \"#utility.yul\":482:489   */\n  dup5\n    /* \"#utility.yul\":473:479   */\n  dup3\n    /* \"#utility.yul\":462:471   */\n  dup6\n    /* \"#utility.yul\":458:480   */\n  add\n    /* \"#utility.yul\":426:490   */\n  tag_17\n  jump\t// in\ntag_25:\n    /* \"#utility.yul\":416:490   */\n  swap2\n  pop\n    /* \"#utility.yul\":372:500   */\n  pop\n    /* \"#utility.yul\":233:507   */\n  swap3\n  swap2\n  pop\n  pop\n  jump\t// out\n    /* \"#utility.yul\":594:690   */\ntag_28:\n    /* \"#utility.yul\":631:638   */\n  0x00\n    /* \"#utility.yul\":660:684   */\n  tag_30\n    /* \"#utility.yul\":678:683   */\n  dup3\n    /* \"#utility.yul\":660:684   */\n  tag_31\n  jump\t// in\ntag_30:\n    /* \"#utility.yul\":649:684   */\n  swap1\n  pop\n    /* \"#utility.yul\":639:690   */\n  swap2\n  swap1\n  pop\n  jump\t// out\n    /* \"#utility.yul\":696:822   */\ntag_31:\n    /* \"#utility.yul\":733:740   */\n  0x00\n    /* \"#utility.yul\":773:815   */\n  0xffffffffffffffffffffffffffffffffffffffff\n    /* \"#utility.yul\":766:771   */\n  dup3\n    /* \"#utility.yul\":762:816   */\n  and\n    /* \"#utility.yul\":751:816   */\n  swap1\n  pop\n    /* \"#utility.yul\":741:822   */\n  swap2\n  swap1\n  pop\n  jump\t// out\n    /* \"#utility.yul\":951:1068   */\ntag_24:\n    /* \"#utility.yul\":1060:1061   */\n  0x00\n    /* \"#utility.yul\":1057:1058   */\n  dup1\n    /* \"#utility.yul\":1050:1062   */\n  revert\n    /* \"#utility.yul\":1074:1196   */\ntag_20:\n    /* \"#utility.yul\":1147:1171   */\n  tag_37\n    /* \"#utility.yul\":1165:1170   */\n  dup2\n    /* \"#utility.yul\":1147:1171   */\n  tag_28\n  jump\t// in\ntag_37:\n    /* \"#utility.yul\":1140:1145   */\n  dup2\n    /* \"#utility.yul\":1137:1172   */\n  eq\n    /* \"#utility.yul\":1127:1129   */\n  tag_38\n  jumpi\n    /* \"#utility.yul\":1186:1187   */\n  0x00\n    /* \"#utility.yul\":1183:1184   */\n  dup1\n    /* \"#utility.yul\":1176:1188   */\n  revert\n    /* \"#utility.yul\":1127:1129   */\ntag_38:\n    /* \"#utility.yul\":1117:1196   */\n  pop\n  jump\t// out\n    /* \"contracts/OpenHelp.sol\":380:4091  contract OpenHelp{... */\ntag_8:\n  dataSize(sub_0)\n  dup1\n  dataOffset(sub_0)\n  0x00\n  codecopy\n  0x00\n  return\nstop\n\nsub_0: assembly {\n        /* \"contracts/OpenHelp.sol\":380:4091  contract OpenHelp{... */\n      mstore(0x40, 0x80)\n      jumpi(tag_1, lt(calldatasize, 0x04))\n      shr(0xe0, calldataload(0x00))\n      dup1\n      0x4b82c4b1\n      gt\n      tag_9\n      jumpi\n      dup1\n      0x4b82c4b1\n      eq\n      tag_5\n      jumpi\n      dup1\n      0x991d3942\n      eq\n      tag_6\n      jumpi\n      dup1\n      0xda31d640\n      eq\n      tag_7\n      jumpi\n      dup1\n      0xf0b1004d\n      eq\n      tag_8\n      jumpi\n      jump(tag_1)\n    tag_9:\n      dup1\n      0x0bbc735a\n      eq\n      tag_2\n      jumpi\n      dup1\n      0x1a39d8ef\n      eq\n      tag_3\n      jumpi\n      dup1\n      0x1b4e7bd2\n      eq\n      tag_4\n      jumpi\n    tag_1:\n      0x00\n      dup1\n      revert\n        /* \"contracts/OpenHelp.sol\":1412:1543  function getPreviewNFT() public view returns(string[5] memory){... */\n    tag_2:\n      callvalue\n      dup1\n      iszero\n      tag_10\n      jumpi\n      0x00\n      dup1\n      revert\n    tag_10:\n      pop\n      tag_11\n      tag_12\n      jump\t// in\n    tag_11:\n      mload(0x40)\n      tag_13\n      swap2\n      swap1\n      tag_14\n      jump\t// in\n    tag_13:\n      mload(0x40)\n      dup1\n      swap2\n      sub\n      swap1\n      return\n        /* \"contracts/OpenHelp.sol\":589:612  uint public totalAmount */\n    tag_3:\n      callvalue\n      dup1\n      iszero\n      tag_15\n      jumpi\n      0x00\n      dup1\n      revert\n    tag_15:\n      pop\n      tag_16\n      tag_17\n      jump\t// in\n    tag_16:\n      mload(0x40)\n      tag_18\n      swap2\n      swap1\n      tag_19\n      jump\t// in\n    tag_18:\n      mload(0x40)\n      dup1\n      swap2\n      sub\n      swap1\n      return\n        /* \"contracts/OpenHelp.sol\":618:662  mapping(address => UserData) public userList */\n    tag_4:\n      callvalue\n      dup1\n      iszero\n      tag_20\n      jumpi\n      0x00\n      dup1\n      revert\n    tag_20:\n      pop\n      tag_21\n      0x04\n      dup1\n      calldatasize\n      sub\n      dup2\n      add\n      swap1\n      tag_22\n      swap2\n      swap1\n      tag_23\n      jump\t// in\n    tag_22:\n      tag_24\n      jump\t// in\n    tag_21:\n      mload(0x40)\n      tag_25\n      swap5\n      swap4\n      swap3\n      swap2\n      swap1\n      tag_26\n      jump\t// in\n    tag_25:\n      mload(0x40)\n      dup1\n      swap2\n      sub\n      swap1\n      return\n        /* \"contracts/OpenHelp.sol\":3086:4089  function _getCategory(address _user, uint amount) public view returns (Category _category){... */\n    tag_5:\n      callvalue\n      dup1\n      iszero\n      tag_27\n      jumpi\n      0x00\n      dup1\n      revert\n    tag_27:\n      pop\n      tag_28\n      0x04\n      dup1\n      calldatasize\n      sub\n      dup2\n      add\n      swap1\n      tag_29\n      swap2\n      swap1\n      tag_30\n      jump\t// in\n    tag_29:\n      tag_31\n      jump\t// in\n    tag_28:\n      mload(0x40)\n      tag_32\n      swap2\n      swap1\n      tag_33\n      jump\t// in\n    tag_32:\n      mload(0x40)\n      dup1\n      swap2\n      sub\n      swap1\n      return\n        /* \"contracts/OpenHelp.sol\":2735:3080  function _validateUser(address _user) public view returns (bool _isNew, uint _nftID, Category _actualUserCategory){... */\n    tag_6:\n      callvalue\n      dup1\n      iszero\n      tag_34\n      jumpi\n      0x00\n      dup1\n      revert\n    tag_34:\n      pop\n      tag_35\n      0x04\n      dup1\n      calldatasize\n      sub\n      dup2\n      add\n      swap1\n      tag_36\n      swap2\n      swap1\n      tag_23\n      jump\t// in\n    tag_36:\n      tag_37\n      jump\t// in\n    tag_35:\n      mload(0x40)\n      tag_38\n      swap4\n      swap3\n      swap2\n      swap1\n      tag_39\n      jump\t// in\n    tag_38:\n      mload(0x40)\n      dup1\n      swap2\n      sub\n      swap1\n      return\n        /* \"contracts/OpenHelp.sol\":998:1121  function setNftContractAddress(address _nftContractAddress) public{... */\n    tag_7:\n      callvalue\n      dup1\n      iszero\n      tag_40\n      jumpi\n      0x00\n      dup1\n      revert\n    tag_40:\n      pop\n      tag_41\n      0x04\n      dup1\n      calldatasize\n      sub\n      dup2\n      add\n      swap1\n      tag_42\n      swap2\n      swap1\n      tag_23\n      jump\t// in\n    tag_42:\n      tag_43\n      jump\t// in\n    tag_41:\n      stop\n        /* \"contracts/OpenHelp.sol\":1690:2729  function _donate() public payable{... */\n    tag_8:\n      tag_44\n      tag_45\n      jump\t// in\n    tag_44:\n      stop\n        /* \"contracts/OpenHelp.sol\":1412:1543  function getPreviewNFT() public view returns(string[5] memory){... */\n    tag_12:\n        /* \"contracts/OpenHelp.sol\":1457:1473  string[5] memory */\n      tag_46\n      tag_47\n      jump\t// in\n    tag_46:\n        /* \"contracts/OpenHelp.sol\":1501:1519  nftContractAddress */\n      0x00\n      dup1\n      sload\n      swap1\n      0x0100\n      exp\n      swap1\n      div\n      0xffffffffffffffffffffffffffffffffffffffff\n      and\n        /* \"contracts/OpenHelp.sol\":1491:1534  IOpenHelp(nftContractAddress).getPreviewNFT */\n      0xffffffffffffffffffffffffffffffffffffffff\n      and\n      0x0bbc735a\n        /* \"contracts/OpenHelp.sol\":1491:1536  IOpenHelp(nftContractAddress).getPreviewNFT() */\n      mload(0x40)\n      dup2\n      0xffffffff\n      and\n      0xe0\n      shl\n      dup2\n      mstore\n      0x04\n      add\n      0x00\n      mload(0x40)\n      dup1\n      dup4\n      sub\n      dup2\n      dup7\n      dup1\n      extcodesize\n      iszero\n      dup1\n      iszero\n      tag_49\n      jumpi\n      0x00\n      dup1\n      revert\n    tag_49:\n      pop\n      gas\n      staticcall\n      iszero\n      dup1\n      iszero\n      tag_51\n      jumpi\n      returndatasize\n      0x00\n      dup1\n      returndatacopy\n      revert(0x00, returndatasize)\n    tag_51:\n      pop\n      pop\n      pop\n      pop\n      mload(0x40)\n      returndatasize\n      0x00\n      dup3\n      returndatacopy\n      returndatasize\n      not(0x1f)\n      0x1f\n      dup3\n      add\n      and\n      dup3\n      add\n      dup1\n      0x40\n      mstore\n      pop\n      dup2\n      add\n      swap1\n      tag_52\n      swap2\n      swap1\n      tag_53\n      jump\t// in\n    tag_52:\n        /* \"contracts/OpenHelp.sol\":1484:1536  return IOpenHelp(nftContractAddress).getPreviewNFT() */\n      swap1\n      pop\n        /* \"contracts/OpenHelp.sol\":1412:1543  function getPreviewNFT() public view returns(string[5] memory){... */\n      swap1\n      jump\t// out\n        /* \"contracts/OpenHelp.sol\":589:612  uint public totalAmount */\n    tag_17:\n      sload(0x02)\n      dup2\n      jump\t// out\n        /* \"contracts/OpenHelp.sol\":618:662  mapping(address => UserData) public userList */\n    tag_24:\n      mstore(0x20, 0x03)\n      dup1\n      0x00\n      mstore\n      keccak256(0x00, 0x40)\n      0x00\n      swap2\n      pop\n      swap1\n      pop\n      dup1\n      0x00\n      add\n      0x00\n      swap1\n      sload\n      swap1\n      0x0100\n      exp\n      swap1\n      div\n      0xffffffffffffffffffffffffffffffffffffffff\n      and\n      swap1\n      dup1\n      0x01\n      add\n      sload\n      swap1\n      dup1\n      0x02\n      add\n      sload\n      swap1\n      dup1\n      0x03\n      add\n      0x00\n      swap1\n      sload\n      swap1\n      0x0100\n      exp\n      swap1\n      div\n      0xff\n      and\n      swap1\n      pop\n      dup5\n      jump\t// out\n        /* \"contracts/OpenHelp.sol\":3086:4089  function _getCategory(address _user, uint amount) public view returns (Category _category){... */\n    tag_31:\n        /* \"contracts/OpenHelp.sol\":3157:3175  Category _category */\n      0x00\n        /* \"contracts/OpenHelp.sol\":3248:3264  uint _nextAmount */\n      dup1\n        /* \"contracts/OpenHelp.sol\":3300:3306  amount */\n      dup3\n        /* \"contracts/OpenHelp.sol\":3267:3275  userList */\n      0x03\n        /* \"contracts/OpenHelp.sol\":3267:3282  userList[_user] */\n      0x00\n        /* \"contracts/OpenHelp.sol\":3276:3281  _user */\n      dup7\n        /* \"contracts/OpenHelp.sol\":3267:3282  userList[_user] */\n      0xffffffffffffffffffffffffffffffffffffffff\n      and\n      0xffffffffffffffffffffffffffffffffffffffff\n      and\n      dup2\n      mstore\n      0x20\n      add\n      swap1\n      dup2\n      mstore\n      0x20\n      add\n      0x00\n      keccak256\n        /* \"contracts/OpenHelp.sol\":3267:3297  userList[_user].donationAmount */\n      0x01\n      add\n      sload\n        /* \"contracts/OpenHelp.sol\":3267:3306  userList[_user].donationAmount + amount */\n      tag_55\n      swap2\n      swap1\n      tag_56\n      jump\t// in\n    tag_55:\n        /* \"contracts/OpenHelp.sol\":3248:3306  uint _nextAmount = userList[_user].donationAmount + amount */\n      swap1\n      pop\n        /* \"contracts/OpenHelp.sol\":3347:3369  userAmountsLevelLimits */\n      0x04\n        /* \"contracts/OpenHelp.sol\":3370:3371  0 */\n      0x00\n        /* \"contracts/OpenHelp.sol\":3347:3372  userAmountsLevelLimits[0] */\n      dup2\n      sload\n      dup2\n      lt\n      tag_57\n      jumpi\n      tag_58\n      tag_59\n      jump\t// in\n    tag_58:\n    tag_57:\n      swap1\n      0x00\n      mstore\n      keccak256(0x00, 0x20)\n      add\n      sload\n        /* \"contracts/OpenHelp.sol\":3332:3343  _nextAmount */\n      dup2\n        /* \"contracts/OpenHelp.sol\":3332:3372  _nextAmount >= userAmountsLevelLimits[0] */\n      lt\n      iszero\n        /* \"contracts/OpenHelp.sol\":3332:3428  _nextAmount >= userAmountsLevelLimits[0] && ... */\n      dup1\n      iszero\n      tag_61\n      jumpi\n      pop\n        /* \"contracts/OpenHelp.sol\":3403:3425  userAmountsLevelLimits */\n      0x04\n        /* \"contracts/OpenHelp.sol\":3426:3427  1 */\n      0x01\n        /* \"contracts/OpenHelp.sol\":3403:3428  userAmountsLevelLimits[1] */\n      dup2\n      sload\n      dup2\n      lt\n      tag_62\n      jumpi\n      tag_63\n      tag_59\n      jump\t// in\n    tag_63:\n    tag_62:\n      swap1\n      0x00\n      mstore\n      keccak256(0x00, 0x20)\n      add\n      sload\n        /* \"contracts/OpenHelp.sol\":3389:3400  _nextAmount */\n      dup2\n        /* \"contracts/OpenHelp.sol\":3389:3428  _nextAmount < userAmountsLevelLimits[1] */\n      lt\n        /* \"contracts/OpenHelp.sol\":3332:3428  _nextAmount >= userAmountsLevelLimits[0] && ... */\n    tag_61:\n        /* \"contracts/OpenHelp.sol\":3316:4083  if(... */\n      iszero\n      tag_65\n      jumpi\n        /* \"contracts/OpenHelp.sol\":3464:3479  Category.Nivel1 */\n      0x00\n        /* \"contracts/OpenHelp.sol\":3452:3479  _category = Category.Nivel1 */\n      swap2\n      pop\n        /* \"contracts/OpenHelp.sol\":3316:4083  if(... */\n      jump(tag_66)\n    tag_65:\n        /* \"contracts/OpenHelp.sol\":3526:3548  userAmountsLevelLimits */\n      0x04\n        /* \"contracts/OpenHelp.sol\":3549:3550  1 */\n      0x01\n        /* \"contracts/OpenHelp.sol\":3526:3551  userAmountsLevelLimits[1] */\n      dup2\n      sload\n      dup2\n      lt\n      tag_67\n      jumpi\n      tag_68\n      tag_59\n      jump\t// in\n    tag_68:\n    tag_67:\n      swap1\n      0x00\n      mstore\n      keccak256(0x00, 0x20)\n      add\n      sload\n        /* \"contracts/OpenHelp.sol\":3511:3522  _nextAmount */\n      dup2\n        /* \"contracts/OpenHelp.sol\":3511:3551  _nextAmount >= userAmountsLevelLimits[1] */\n      lt\n      iszero\n        /* \"contracts/OpenHelp.sol\":3511:3607  _nextAmount >= userAmountsLevelLimits[1] && ... */\n      dup1\n      iszero\n      tag_70\n      jumpi\n      pop\n        /* \"contracts/OpenHelp.sol\":3582:3604  userAmountsLevelLimits */\n      0x04\n        /* \"contracts/OpenHelp.sol\":3605:3606  2 */\n      0x02\n        /* \"contracts/OpenHelp.sol\":3582:3607  userAmountsLevelLimits[2] */\n      dup2\n      sload\n      dup2\n      lt\n      tag_71\n      jumpi\n      tag_72\n      tag_59\n      jump\t// in\n    tag_72:\n    tag_71:\n      swap1\n      0x00\n      mstore\n      keccak256(0x00, 0x20)\n      add\n      sload\n        /* \"contracts/OpenHelp.sol\":3568:3579  _nextAmount */\n      dup2\n        /* \"contracts/OpenHelp.sol\":3568:3607  _nextAmount < userAmountsLevelLimits[2] */\n      lt\n        /* \"contracts/OpenHelp.sol\":3511:3607  _nextAmount >= userAmountsLevelLimits[1] && ... */\n    tag_70:\n        /* \"contracts/OpenHelp.sol\":3495:4083  if(... */\n      iszero\n      tag_74\n      jumpi\n        /* \"contracts/OpenHelp.sol\":3643:3658  Category.Nivel2 */\n      0x01\n        /* \"contracts/OpenHelp.sol\":3631:3658  _category = Category.Nivel2 */\n      swap2\n      pop\n        /* \"contracts/OpenHelp.sol\":3495:4083  if(... */\n      jump(tag_75)\n    tag_74:\n        /* \"contracts/OpenHelp.sol\":3705:3727  userAmountsLevelLimits */\n      0x04\n        /* \"contracts/OpenHelp.sol\":3728:3729  2 */\n      0x02\n        /* \"contracts/OpenHelp.sol\":3705:3730  userAmountsLevelLimits[2] */\n      dup2\n      sload\n      dup2\n      lt\n      tag_76\n      jumpi\n      tag_77\n      tag_59\n      jump\t// in\n    tag_77:\n    tag_76:\n      swap1\n      0x00\n      mstore\n      keccak256(0x00, 0x20)\n      add\n      sload\n        /* \"contracts/OpenHelp.sol\":3690:3701  _nextAmount */\n      dup2\n        /* \"contracts/OpenHelp.sol\":3690:3730  _nextAmount >= userAmountsLevelLimits[2] */\n      lt\n      iszero\n        /* \"contracts/OpenHelp.sol\":3690:3786  _nextAmount >= userAmountsLevelLimits[2] && ... */\n      dup1\n      iszero\n      tag_79\n      jumpi\n      pop\n        /* \"contracts/OpenHelp.sol\":3761:3783  userAmountsLevelLimits */\n      0x04\n        /* \"contracts/OpenHelp.sol\":3784:3785  3 */\n      0x03\n        /* \"contracts/OpenHelp.sol\":3761:3786  userAmountsLevelLimits[3] */\n      dup2\n      sload\n      dup2\n      lt\n      tag_80\n      jumpi\n      tag_81\n      tag_59\n      jump\t// in\n    tag_81:\n    tag_80:\n      swap1\n      0x00\n      mstore\n      keccak256(0x00, 0x20)\n      add\n      sload\n        /* \"contracts/OpenHelp.sol\":3747:3758  _nextAmount */\n      dup2\n        /* \"contracts/OpenHelp.sol\":3747:3786  _nextAmount < userAmountsLevelLimits[3] */\n      lt\n        /* \"contracts/OpenHelp.sol\":3690:3786  _nextAmount >= userAmountsLevelLimits[2] && ... */\n    tag_79:\n        /* \"contracts/OpenHelp.sol\":3674:4083  if(... */\n      iszero\n      tag_83\n      jumpi\n        /* \"contracts/OpenHelp.sol\":3822:3837  Category.Nivel3 */\n      0x02\n        /* \"contracts/OpenHelp.sol\":3810:3837  _category = Category.Nivel3 */\n      swap2\n      pop\n        /* \"contracts/OpenHelp.sol\":3674:4083  if(... */\n      jump(tag_84)\n    tag_83:\n        /* \"contracts/OpenHelp.sol\":3884:3906  userAmountsLevelLimits */\n      0x04\n        /* \"contracts/OpenHelp.sol\":3907:3908  3 */\n      0x03\n        /* \"contracts/OpenHelp.sol\":3884:3909  userAmountsLevelLimits[3] */\n      dup2\n      sload\n      dup2\n      lt\n      tag_85\n      jumpi\n      tag_86\n      tag_59\n      jump\t// in\n    tag_86:\n    tag_85:\n      swap1\n      0x00\n      mstore\n      keccak256(0x00, 0x20)\n      add\n      sload\n        /* \"contracts/OpenHelp.sol\":3869:3880  _nextAmount */\n      dup2\n        /* \"contracts/OpenHelp.sol\":3869:3909  _nextAmount >= userAmountsLevelLimits[3] */\n      lt\n      iszero\n        /* \"contracts/OpenHelp.sol\":3869:3965  _nextAmount >= userAmountsLevelLimits[3] && ... */\n      dup1\n      iszero\n      tag_88\n      jumpi\n      pop\n        /* \"contracts/OpenHelp.sol\":3940:3962  userAmountsLevelLimits */\n      0x04\n        /* \"contracts/OpenHelp.sol\":3963:3964  4 */\n      dup1\n        /* \"contracts/OpenHelp.sol\":3940:3965  userAmountsLevelLimits[4] */\n      dup2\n      sload\n      dup2\n      lt\n      tag_89\n      jumpi\n      tag_90\n      tag_59\n      jump\t// in\n    tag_90:\n    tag_89:\n      swap1\n      0x00\n      mstore\n      keccak256(0x00, 0x20)\n      add\n      sload\n        /* \"contracts/OpenHelp.sol\":3926:3937  _nextAmount */\n      dup2\n        /* \"contracts/OpenHelp.sol\":3926:3965  _nextAmount < userAmountsLevelLimits[4] */\n      lt\n        /* \"contracts/OpenHelp.sol\":3869:3965  _nextAmount >= userAmountsLevelLimits[3] && ... */\n    tag_88:\n        /* \"contracts/OpenHelp.sol\":3853:4083  if(... */\n      iszero\n      tag_92\n      jumpi\n        /* \"contracts/OpenHelp.sol\":4001:4016  Category.Nivel4 */\n      0x03\n        /* \"contracts/OpenHelp.sol\":3989:4016  _category = Category.Nivel4 */\n      swap2\n      pop\n        /* \"contracts/OpenHelp.sol\":3853:4083  if(... */\n      jump(tag_93)\n    tag_92:\n        /* \"contracts/OpenHelp.sol\":4057:4072  Category.Nivel5 */\n      0x04\n        /* \"contracts/OpenHelp.sol\":4045:4072  _category = Category.Nivel5 */\n      swap2\n      pop\n        /* \"contracts/OpenHelp.sol\":3853:4083  if(... */\n    tag_93:\n        /* \"contracts/OpenHelp.sol\":3674:4083  if(... */\n    tag_84:\n        /* \"contracts/OpenHelp.sol\":3495:4083  if(... */\n    tag_75:\n        /* \"contracts/OpenHelp.sol\":3316:4083  if(... */\n    tag_66:\n        /* \"contracts/OpenHelp.sol\":3176:4089  {... */\n      pop\n        /* \"contracts/OpenHelp.sol\":3086:4089  function _getCategory(address _user, uint amount) public view returns (Category _category){... */\n      swap3\n      swap2\n      pop\n      pop\n      jump\t// out\n        /* \"contracts/OpenHelp.sol\":2735:3080  function _validateUser(address _user) public view returns (bool _isNew, uint _nftID, Category _actualUserCategory){... */\n    tag_37:\n        /* \"contracts/OpenHelp.sol\":2794:2805  bool _isNew */\n      0x00\n        /* \"contracts/OpenHelp.sol\":2807:2818  uint _nftID */\n      dup1\n        /* \"contracts/OpenHelp.sol\":2820:2848  Category _actualUserCategory */\n      0x00\n        /* \"contracts/OpenHelp.sol\":2887:2888  0 */\n      dup1\n        /* \"contracts/OpenHelp.sol\":2862:2870  userList */\n      0x03\n        /* \"contracts/OpenHelp.sol\":2862:2877  userList[_user] */\n      0x00\n        /* \"contracts/OpenHelp.sol\":2871:2876  _user */\n      dup7\n        /* \"contracts/OpenHelp.sol\":2862:2877  userList[_user] */\n      0xffffffffffffffffffffffffffffffffffffffff\n      and\n      0xffffffffffffffffffffffffffffffffffffffff\n      and\n      dup2\n      mstore\n      0x20\n      add\n      swap1\n      dup2\n      mstore\n      0x20\n      add\n      0x00\n      keccak256\n        /* \"contracts/OpenHelp.sol\":2862:2883  userList[_user].nftID */\n      0x02\n      add\n      sload\n        /* \"contracts/OpenHelp.sol\":2862:2888  userList[_user].nftID != 0 */\n      eq\n        /* \"contracts/OpenHelp.sol\":2859:3074  if(userList[_user].nftID != 0){... */\n      tag_95\n      jumpi\n        /* \"contracts/OpenHelp.sol\":2912:2917  false */\n      0x00\n        /* \"contracts/OpenHelp.sol\":2903:2917  _isNew = false */\n      swap3\n      pop\n        /* \"contracts/OpenHelp.sol\":2940:2948  userList */\n      0x03\n        /* \"contracts/OpenHelp.sol\":2940:2955  userList[_user] */\n      0x00\n        /* \"contracts/OpenHelp.sol\":2949:2954  _user */\n      dup6\n        /* \"contracts/OpenHelp.sol\":2940:2955  userList[_user] */\n      0xffffffffffffffffffffffffffffffffffffffff\n      and\n      0xffffffffffffffffffffffffffffffffffffffff\n      and\n      dup2\n      mstore\n      0x20\n      add\n      swap1\n      dup2\n      mstore\n      0x20\n      add\n      0x00\n      keccak256\n        /* \"contracts/OpenHelp.sol\":2940:2961  userList[_user].nftID */\n      0x02\n      add\n      sload\n        /* \"contracts/OpenHelp.sol\":2931:2961  _nftID = userList[_user].nftID */\n      swap2\n      pop\n        /* \"contracts/OpenHelp.sol\":2997:3005  userList */\n      0x03\n        /* \"contracts/OpenHelp.sol\":2997:3012  userList[_user] */\n      0x00\n        /* \"contracts/OpenHelp.sol\":3006:3011  _user */\n      dup6\n        /* \"contracts/OpenHelp.sol\":2997:3012  userList[_user] */\n      0xffffffffffffffffffffffffffffffffffffffff\n      and\n      0xffffffffffffffffffffffffffffffffffffffff\n      and\n      dup2\n      mstore\n      0x20\n      add\n      swap1\n      dup2\n      mstore\n      0x20\n      add\n      0x00\n      keccak256\n        /* \"contracts/OpenHelp.sol\":2997:3021  userList[_user].category */\n      0x03\n      add\n      0x00\n      swap1\n      sload\n      swap1\n      0x0100\n      exp\n      swap1\n      div\n      0xff\n      and\n        /* \"contracts/OpenHelp.sol\":2975:3021  _actualUserCategory = userList[_user].category */\n      swap1\n      pop\n        /* \"contracts/OpenHelp.sol\":2859:3074  if(userList[_user].nftID != 0){... */\n      jump(tag_96)\n    tag_95:\n        /* \"contracts/OpenHelp.sol\":3059:3063  true */\n      0x01\n        /* \"contracts/OpenHelp.sol\":3050:3063  _isNew = true */\n      swap3\n      pop\n        /* \"contracts/OpenHelp.sol\":2859:3074  if(userList[_user].nftID != 0){... */\n    tag_96:\n        /* \"contracts/OpenHelp.sol\":2735:3080  function _validateUser(address _user) public view returns (bool _isNew, uint _nftID, Category _actualUserCategory){... */\n      swap2\n      swap4\n      swap1\n      swap3\n      pop\n      jump\t// out\n        /* \"contracts/OpenHelp.sol\":998:1121  function setNftContractAddress(address _nftContractAddress) public{... */\n    tag_43:\n        /* \"contracts/OpenHelp.sol\":1095:1114  _nftContractAddress */\n      dup1\n        /* \"contracts/OpenHelp.sol\":1074:1092  nftContractAddress */\n      0x00\n      dup1\n        /* \"contracts/OpenHelp.sol\":1074:1114  nftContractAddress = _nftContractAddress */\n      0x0100\n      exp\n      dup2\n      sload\n      dup2\n      0xffffffffffffffffffffffffffffffffffffffff\n      mul\n      not\n      and\n      swap1\n      dup4\n      0xffffffffffffffffffffffffffffffffffffffff\n      and\n      mul\n      or\n      swap1\n      sstore\n      pop\n        /* \"contracts/OpenHelp.sol\":998:1121  function setNftContractAddress(address _nftContractAddress) public{... */\n      pop\n      jump\t// out\n        /* \"contracts/OpenHelp.sol\":1690:2729  function _donate() public payable{... */\n    tag_45:\n        /* \"contracts/OpenHelp.sol\":1753:1775  userAmountsLevelLimits */\n      0x04\n        /* \"contracts/OpenHelp.sol\":1776:1777  0 */\n      0x00\n        /* \"contracts/OpenHelp.sol\":1753:1778  userAmountsLevelLimits[0] */\n      dup2\n      sload\n      dup2\n      lt\n      tag_99\n      jumpi\n      tag_100\n      tag_59\n      jump\t// in\n    tag_100:\n    tag_99:\n      swap1\n      0x00\n      mstore\n      keccak256(0x00, 0x20)\n      add\n      sload\n        /* \"contracts/OpenHelp.sol\":1741:1750  msg.value */\n      callvalue\n        /* \"contracts/OpenHelp.sol\":1741:1778  msg.value > userAmountsLevelLimits[0] */\n      gt\n        /* \"contracts/OpenHelp.sol\":1733:1829  require(msg.value > userAmountsLevelLimits[0], \"Value must be greater than the minimun amount.\") */\n      tag_102\n      jumpi\n      mload(0x40)\n      0x08c379a000000000000000000000000000000000000000000000000000000000\n      dup2\n      mstore\n      0x04\n      add\n      tag_103\n      swap1\n      tag_104\n      jump\t// in\n    tag_103:\n      mload(0x40)\n      dup1\n      swap2\n      sub\n      swap1\n      revert\n    tag_102:\n        /* \"contracts/OpenHelp.sol\":1839:1854  address _sender */\n      0x00\n        /* \"contracts/OpenHelp.sol\":1857:1867  msg.sender */\n      caller\n        /* \"contracts/OpenHelp.sol\":1839:1867  address _sender = msg.sender */\n      swap1\n      pop\n        /* \"contracts/OpenHelp.sol\":1894:1909  bool _isNewUser */\n      0x00\n        /* \"contracts/OpenHelp.sol\":1911:1926  uint _userNftID */\n      dup1\n        /* \"contracts/OpenHelp.sol\":1928:1956  Category _actualUserCategory */\n      0x00\n        /* \"contracts/OpenHelp.sol\":1960:1982  _validateUser(_sender) */\n      tag_105\n        /* \"contracts/OpenHelp.sol\":1974:1981  _sender */\n      dup5\n        /* \"contracts/OpenHelp.sol\":1960:1973  _validateUser */\n      tag_37\n        /* \"contracts/OpenHelp.sol\":1960:1982  _validateUser(_sender) */\n      jump\t// in\n    tag_105:\n        /* \"contracts/OpenHelp.sol\":1893:1982  (bool _isNewUser, uint _userNftID, Category _actualUserCategory) = _validateUser(_sender) */\n      swap3\n      pop\n      swap3\n      pop\n      swap3\n      pop\n        /* \"contracts/OpenHelp.sol\":1992:2018  Category _userNextCategory */\n      0x00\n        /* \"contracts/OpenHelp.sol\":2021:2053  _getCategory(_sender, msg.value) */\n      tag_106\n        /* \"contracts/OpenHelp.sol\":2034:2041  _sender */\n      dup6\n        /* \"contracts/OpenHelp.sol\":2043:2052  msg.value */\n      callvalue\n        /* \"contracts/OpenHelp.sol\":2021:2033  _getCategory */\n      tag_31\n        /* \"contracts/OpenHelp.sol\":2021:2053  _getCategory(_sender, msg.value) */\n      jump\t// in\n    tag_106:\n        /* \"contracts/OpenHelp.sol\":1992:2053  Category _userNextCategory = _getCategory(_sender, msg.value) */\n      swap1\n      pop\n        /* \"contracts/OpenHelp.sol\":2080:2085  owner */\n      0x01\n      0x00\n      swap1\n      sload\n      swap1\n      0x0100\n      exp\n      swap1\n      div\n      0xffffffffffffffffffffffffffffffffffffffff\n      and\n        /* \"contracts/OpenHelp.sol\":2072:2091  payable(owner).send */\n      0xffffffffffffffffffffffffffffffffffffffff\n      and\n        /* \"contracts/OpenHelp.sol\":2072:2102  payable(owner).send(msg.value) */\n      0x08fc\n        /* \"contracts/OpenHelp.sol\":2092:2101  msg.value */\n      callvalue\n        /* \"contracts/OpenHelp.sol\":2072:2102  payable(owner).send(msg.value) */\n      swap1\n      dup2\n      iszero\n      mul\n      swap1\n      mload(0x40)\n      0x00\n      mload(0x40)\n      dup1\n      dup4\n      sub\n      dup2\n      dup6\n      dup9\n      dup9\n      call\n      swap4\n      pop\n      pop\n      pop\n      pop\n        /* \"contracts/OpenHelp.sol\":2064:2128  require(payable(owner).send(msg.value), \"Transacction aborted.\") */\n      tag_108\n      jumpi\n      mload(0x40)\n      0x08c379a000000000000000000000000000000000000000000000000000000000\n      dup2\n      mstore\n      0x04\n      add\n      tag_109\n      swap1\n      tag_110\n      jump\t// in\n    tag_109:\n      mload(0x40)\n      dup1\n      swap2\n      sub\n      swap1\n      revert\n    tag_108:\n        /* \"contracts/OpenHelp.sol\":2174:2183  msg.value */\n      callvalue\n        /* \"contracts/OpenHelp.sol\":2138:2146  userList */\n      0x03\n        /* \"contracts/OpenHelp.sol\":2138:2155  userList[_sender] */\n      0x00\n        /* \"contracts/OpenHelp.sol\":2147:2154  _sender */\n      dup8\n        /* \"contracts/OpenHelp.sol\":2138:2155  userList[_sender] */\n      0xffffffffffffffffffffffffffffffffffffffff\n      and\n      0xffffffffffffffffffffffffffffffffffffffff\n      and\n      dup2\n      mstore\n      0x20\n      add\n      swap1\n      dup2\n      mstore\n      0x20\n      add\n      0x00\n      keccak256\n        /* \"contracts/OpenHelp.sol\":2138:2170  userList[_sender].donationAmount */\n      0x01\n      add\n      0x00\n        /* \"contracts/OpenHelp.sol\":2138:2183  userList[_sender].donationAmount += msg.value */\n      dup3\n      dup3\n      sload\n      tag_111\n      swap2\n      swap1\n      tag_56\n      jump\t// in\n    tag_111:\n      swap3\n      pop\n      pop\n      dup2\n      swap1\n      sstore\n      pop\n        /* \"contracts/OpenHelp.sol\":2222:2239  _userNextCategory */\n      dup1\n        /* \"contracts/OpenHelp.sol\":2193:2201  userList */\n      0x03\n        /* \"contracts/OpenHelp.sol\":2193:2210  userList[_sender] */\n      0x00\n        /* \"contracts/OpenHelp.sol\":2202:2209  _sender */\n      dup8\n        /* \"contracts/OpenHelp.sol\":2193:2210  userList[_sender] */\n      0xffffffffffffffffffffffffffffffffffffffff\n      and\n      0xffffffffffffffffffffffffffffffffffffffff\n      and\n      dup2\n      mstore\n      0x20\n      add\n      swap1\n      dup2\n      mstore\n      0x20\n      add\n      0x00\n      keccak256\n        /* \"contracts/OpenHelp.sol\":2193:2219  userList[_sender].category */\n      0x03\n      add\n      0x00\n        /* \"contracts/OpenHelp.sol\":2193:2239  userList[_sender].category = _userNextCategory */\n      0x0100\n      exp\n      dup2\n      sload\n      dup2\n      0xff\n      mul\n      not\n      and\n      swap1\n      dup4\n      0x04\n      dup2\n      gt\n      iszero\n      tag_112\n      jumpi\n      tag_113\n      tag_114\n      jump\t// in\n    tag_113:\n    tag_112:\n      mul\n      or\n      swap1\n      sstore\n      pop\n        /* \"contracts/OpenHelp.sol\":2264:2273  msg.value */\n      callvalue\n        /* \"contracts/OpenHelp.sol\":2249:2260  totalAmount */\n      0x02\n      0x00\n        /* \"contracts/OpenHelp.sol\":2249:2273  totalAmount += msg.value */\n      dup3\n      dup3\n      sload\n      tag_115\n      swap2\n      swap1\n      tag_56\n      jump\t// in\n    tag_115:\n      swap3\n      pop\n      pop\n      dup2\n      swap1\n      sstore\n      pop\n        /* \"contracts/OpenHelp.sol\":2286:2296  _isNewUser */\n      dup4\n        /* \"contracts/OpenHelp.sol\":2283:2722  if(_isNewUser){... */\n      iszero\n      tag_116\n      jumpi\n        /* \"contracts/OpenHelp.sol\":2311:2321  uint idNft */\n      0x00\n        /* \"contracts/OpenHelp.sol\":2324:2343  safeMint(_sender,4) */\n      tag_117\n        /* \"contracts/OpenHelp.sol\":2333:2340  _sender */\n      dup7\n        /* \"contracts/OpenHelp.sol\":2341:2342  4 */\n      0x04\n        /* \"contracts/OpenHelp.sol\":2324:2332  safeMint */\n      tag_118\n        /* \"contracts/OpenHelp.sol\":2324:2343  safeMint(_sender,4) */\n      jump\t// in\n    tag_117:\n        /* \"contracts/OpenHelp.sol\":2311:2343  uint idNft = safeMint(_sender,4) */\n      swap1\n      pop\n        /* \"contracts/OpenHelp.sol\":2419:2426  _sender */\n      dup6\n        /* \"contracts/OpenHelp.sol\":2396:2404  userList */\n      0x03\n        /* \"contracts/OpenHelp.sol\":2396:2413  userList[_sender] */\n      0x00\n        /* \"contracts/OpenHelp.sol\":2405:2412  _sender */\n      dup9\n        /* \"contracts/OpenHelp.sol\":2396:2413  userList[_sender] */\n      0xffffffffffffffffffffffffffffffffffffffff\n      and\n      0xffffffffffffffffffffffffffffffffffffffff\n      and\n      dup2\n      mstore\n      0x20\n      add\n      swap1\n      dup2\n      mstore\n      0x20\n      add\n      0x00\n      keccak256\n        /* \"contracts/OpenHelp.sol\":2396:2416  userList[_sender].id */\n      0x00\n      add\n      0x00\n        /* \"contracts/OpenHelp.sol\":2396:2426  userList[_sender].id = _sender */\n      0x0100\n      exp\n      dup2\n      sload\n      dup2\n      0xffffffffffffffffffffffffffffffffffffffff\n      mul\n      not\n      and\n      swap1\n      dup4\n      0xffffffffffffffffffffffffffffffffffffffff\n      and\n      mul\n      or\n      swap1\n      sstore\n      pop\n        /* \"contracts/OpenHelp.sol\":2466:2471  idNft */\n      dup1\n        /* \"contracts/OpenHelp.sol\":2440:2448  userList */\n      0x03\n        /* \"contracts/OpenHelp.sol\":2440:2457  userList[_sender] */\n      0x00\n        /* \"contracts/OpenHelp.sol\":2449:2456  _sender */\n      dup9\n        /* \"contracts/OpenHelp.sol\":2440:2457  userList[_sender] */\n      0xffffffffffffffffffffffffffffffffffffffff\n      and\n      0xffffffffffffffffffffffffffffffffffffffff\n      and\n      dup2\n      mstore\n      0x20\n      add\n      swap1\n      dup2\n      mstore\n      0x20\n      add\n      0x00\n      keccak256\n        /* \"contracts/OpenHelp.sol\":2440:2463  userList[_sender].nftID */\n      0x02\n      add\n        /* \"contracts/OpenHelp.sol\":2440:2471  userList[_sender].nftID = idNft */\n      dup2\n      swap1\n      sstore\n      pop\n        /* \"contracts/OpenHelp.sol\":2297:2482  {... */\n      pop\n        /* \"contracts/OpenHelp.sol\":2283:2722  if(_isNewUser){... */\n      jump(tag_119)\n    tag_116:\n        /* \"contracts/OpenHelp.sol\":2596:2613  _userNextCategory */\n      dup1\n        /* \"contracts/OpenHelp.sol\":2573:2613  _actualUserCategory != _userNextCategory */\n      0x04\n      dup2\n      gt\n      iszero\n      tag_120\n      jumpi\n      tag_121\n      tag_114\n      jump\t// in\n    tag_121:\n    tag_120:\n        /* \"contracts/OpenHelp.sol\":2573:2592  _actualUserCategory */\n      dup3\n        /* \"contracts/OpenHelp.sol\":2573:2613  _actualUserCategory != _userNextCategory */\n      0x04\n      dup2\n      gt\n      iszero\n      tag_122\n      jumpi\n      tag_123\n      tag_114\n      jump\t// in\n    tag_123:\n    tag_122:\n      eq\n        /* \"contracts/OpenHelp.sol\":2569:2712  if (_actualUserCategory != _userNextCategory){... */\n      tag_124\n      jumpi\n        /* \"contracts/OpenHelp.sol\":2632:2657  changeLevel(_userNftID,3) */\n      tag_125\n        /* \"contracts/OpenHelp.sol\":2644:2654  _userNftID */\n      dup4\n        /* \"contracts/OpenHelp.sol\":2655:2656  3 */\n      0x03\n        /* \"contracts/OpenHelp.sol\":2632:2643  changeLevel */\n      tag_126\n        /* \"contracts/OpenHelp.sol\":2632:2657  changeLevel(_userNftID,3) */\n      jump\t// in\n    tag_125:\n        /* \"contracts/OpenHelp.sol\":2569:2712  if (_actualUserCategory != _userNextCategory){... */\n    tag_124:\n        /* \"contracts/OpenHelp.sol\":2283:2722  if(_isNewUser){... */\n    tag_119:\n        /* \"contracts/OpenHelp.sol\":1723:2729  {... */\n      pop\n      pop\n      pop\n      pop\n      pop\n        /* \"contracts/OpenHelp.sol\":1690:2729  function _donate() public payable{... */\n      jump\t// out\n        /* \"contracts/OpenHelp.sol\":1127:1269  function safeMint(address _to, uint _level) private  returns (uint){... */\n    tag_118:\n        /* \"contracts/OpenHelp.sol\":1189:1193  uint */\n      0x00\n        /* \"contracts/OpenHelp.sol\":1221:1239  nftContractAddress */\n      dup1\n      0x00\n      swap1\n      sload\n      swap1\n      0x0100\n      exp\n      swap1\n      div\n      0xffffffffffffffffffffffffffffffffffffffff\n      and\n        /* \"contracts/OpenHelp.sol\":1211:1249  IOpenHelp(nftContractAddress).safeMint */\n      0xffffffffffffffffffffffffffffffffffffffff\n      and\n      0xa1448194\n        /* \"contracts/OpenHelp.sol\":1250:1253  _to */\n      dup5\n        /* \"contracts/OpenHelp.sol\":1255:1261  _level */\n      dup5\n        /* \"contracts/OpenHelp.sol\":1211:1262  IOpenHelp(nftContractAddress).safeMint(_to, _level) */\n      mload(0x40)\n      dup4\n      0xffffffff\n      and\n      0xe0\n      shl\n      dup2\n      mstore\n      0x04\n      add\n      tag_128\n      swap3\n      swap2\n      swap1\n      tag_129\n      jump\t// in\n    tag_128:\n      0x20\n      mload(0x40)\n      dup1\n      dup4\n      sub\n      dup2\n      0x00\n      dup8\n      dup1\n      extcodesize\n      iszero\n      dup1\n      iszero\n      tag_130\n      jumpi\n      0x00\n      dup1\n      revert\n    tag_130:\n      pop\n      gas\n      call\n      iszero\n      dup1\n      iszero\n      tag_132\n      jumpi\n      returndatasize\n      0x00\n      dup1\n      returndatacopy\n      revert(0x00, returndatasize)\n    tag_132:\n      pop\n      pop\n      pop\n      pop\n      mload(0x40)\n      returndatasize\n      not(0x1f)\n      0x1f\n      dup3\n      add\n      and\n      dup3\n      add\n      dup1\n      0x40\n      mstore\n      pop\n      dup2\n      add\n      swap1\n      tag_133\n      swap2\n      swap1\n      tag_134\n      jump\t// in\n    tag_133:\n        /* \"contracts/OpenHelp.sol\":1204:1262  return IOpenHelp(nftContractAddress).safeMint(_to, _level) */\n      swap1\n      pop\n        /* \"contracts/OpenHelp.sol\":1127:1269  function safeMint(address _to, uint _level) private  returns (uint){... */\n      swap3\n      swap2\n      pop\n      pop\n      jump\t// out\n        /* \"contracts/OpenHelp.sol\":1275:1406  function changeLevel(uint _tokenId, uint _level) private{... */\n    tag_126:\n        /* \"contracts/OpenHelp.sol\":1351:1369  nftContractAddress */\n      0x00\n      dup1\n      sload\n      swap1\n      0x0100\n      exp\n      swap1\n      div\n      0xffffffffffffffffffffffffffffffffffffffff\n      and\n        /* \"contracts/OpenHelp.sol\":1341:1382  IOpenHelp(nftContractAddress).changeLevel */\n      0xffffffffffffffffffffffffffffffffffffffff\n      and\n      0xcd057e88\n        /* \"contracts/OpenHelp.sol\":1383:1391  _tokenId */\n      dup4\n        /* \"contracts/OpenHelp.sol\":1392:1398  _level */\n      dup4\n        /* \"contracts/OpenHelp.sol\":1341:1399  IOpenHelp(nftContractAddress).changeLevel(_tokenId,_level) */\n      mload(0x40)\n      dup4\n      0xffffffff\n      and\n      0xe0\n      shl\n      dup2\n      mstore\n      0x04\n      add\n      tag_136\n      swap3\n      swap2\n      swap1\n      tag_137\n      jump\t// in\n    tag_136:\n      0x00\n      mload(0x40)\n      dup1\n      dup4\n      sub\n      dup2\n      0x00\n      dup8\n      dup1\n      extcodesize\n      iszero\n      dup1\n      iszero\n      tag_138\n      jumpi\n      0x00\n      dup1\n      revert\n    tag_138:\n      pop\n      gas\n      call\n      iszero\n      dup1\n      iszero\n      tag_140\n      jumpi\n      returndatasize\n      0x00\n      dup1\n      returndatacopy\n      revert(0x00, returndatasize)\n    tag_140:\n      pop\n      pop\n      pop\n      pop\n        /* \"contracts/OpenHelp.sol\":1275:1406  function changeLevel(uint _tokenId, uint _level) private{... */\n      pop\n      pop\n      jump\t// out\n    tag_47:\n      mload(0x40)\n      dup1\n      0xa0\n      add\n      0x40\n      mstore\n      dup1\n      0x05\n      swap1\n    tag_141:\n      0x60\n      dup2\n      mstore\n      0x20\n      add\n      swap1\n      0x01\n      swap1\n      sub\n      swap1\n      dup2\n      tag_141\n      jumpi\n      swap1\n      pop\n      pop\n      swap1\n      jump\t// out\n        /* \"#utility.yul\":24:929   */\n    tag_143:\n        /* \"#utility.yul\":139:144   */\n      0x00\n        /* \"#utility.yul\":164:253   */\n      tag_145\n        /* \"#utility.yul\":180:252   */\n      tag_146\n        /* \"#utility.yul\":245:251   */\n      dup5\n        /* \"#utility.yul\":180:252   */\n      tag_147\n      jump\t// in\n    tag_146:\n        /* \"#utility.yul\":164:253   */\n      tag_148\n      jump\t// in\n    tag_145:\n        /* \"#utility.yul\":155:253   */\n      swap1\n      pop\n        /* \"#utility.yul\":273:278   */\n      dup1\n        /* \"#utility.yul\":299:305   */\n      dup3\n        /* \"#utility.yul\":349:352   */\n      dup6\n        /* \"#utility.yul\":341:345   */\n      0x20\n        /* \"#utility.yul\":333:339   */\n      dup7\n        /* \"#utility.yul\":329:346   */\n      mul\n        /* \"#utility.yul\":324:327   */\n      dup3\n        /* \"#utility.yul\":320:347   */\n      add\n        /* \"#utility.yul\":317:353   */\n      gt\n        /* \"#utility.yul\":314:316   */\n      iszero\n      tag_149\n      jumpi\n        /* \"#utility.yul\":368:447   */\n      tag_150\n      tag_151\n      jump\t// in\n    tag_150:\n        /* \"#utility.yul\":314:316   */\n    tag_149:\n        /* \"#utility.yul\":481:482   */\n      0x00\n        /* \"#utility.yul\":466:923   */\n    tag_152:\n        /* \"#utility.yul\":491:497   */\n      dup6\n        /* \"#utility.yul\":488:489   */\n      dup2\n        /* \"#utility.yul\":485:498   */\n      lt\n        /* \"#utility.yul\":466:923   */\n      iszero\n      tag_154\n      jumpi\n        /* \"#utility.yul\":566:569   */\n      dup2\n        /* \"#utility.yul\":560:570   */\n      mload\n        /* \"#utility.yul\":602:620   */\n      0xffffffffffffffff\n        /* \"#utility.yul\":589:600   */\n      dup2\n        /* \"#utility.yul\":586:621   */\n      gt\n        /* \"#utility.yul\":583:585   */\n      iszero\n      tag_155\n      jumpi\n        /* \"#utility.yul\":624:703   */\n      tag_156\n      tag_157\n      jump\t// in\n    tag_156:\n        /* \"#utility.yul\":583:585   */\n    tag_155:\n        /* \"#utility.yul\":748:759   */\n      dup1\n        /* \"#utility.yul\":740:746   */\n      dup7\n        /* \"#utility.yul\":736:760   */\n      add\n        /* \"#utility.yul\":786:844   */\n      tag_158\n        /* \"#utility.yul\":840:843   */\n      dup10\n        /* \"#utility.yul\":828:838   */\n      dup3\n        /* \"#utility.yul\":786:844   */\n      tag_159\n      jump\t// in\n    tag_158:\n        /* \"#utility.yul\":781:784   */\n      dup6\n        /* \"#utility.yul\":774:845   */\n      mstore\n        /* \"#utility.yul\":874:878   */\n      0x20\n        /* \"#utility.yul\":869:872   */\n      dup6\n        /* \"#utility.yul\":865:879   */\n      add\n        /* \"#utility.yul\":858:879   */\n      swap5\n      pop\n        /* \"#utility.yul\":908:912   */\n      0x20\n        /* \"#utility.yul\":903:906   */\n      dup5\n        /* \"#utility.yul\":899:913   */\n      add\n        /* \"#utility.yul\":892:913   */\n      swap4\n      pop\n        /* \"#utility.yul\":526:923   */\n      pop\n      pop\n        /* \"#utility.yul\":513:514   */\n      0x01\n        /* \"#utility.yul\":510:511   */\n      dup2\n        /* \"#utility.yul\":506:515   */\n      add\n        /* \"#utility.yul\":501:515   */\n      swap1\n      pop\n        /* \"#utility.yul\":466:923   */\n      jump(tag_152)\n    tag_154:\n        /* \"#utility.yul\":470:484   */\n      pop\n        /* \"#utility.yul\":145:929   */\n      pop\n      pop\n      swap4\n      swap3\n      pop\n      pop\n      pop\n      jump\t// out\n        /* \"#utility.yul\":935:1356   */\n    tag_160:\n        /* \"#utility.yul\":1024:1029   */\n      0x00\n        /* \"#utility.yul\":1049:1115   */\n      tag_162\n        /* \"#utility.yul\":1065:1114   */\n      tag_163\n        /* \"#utility.yul\":1107:1113   */\n      dup5\n        /* \"#utility.yul\":1065:1114   */\n      tag_164\n      jump\t// in\n    tag_163:\n        /* \"#utility.yul\":1049:1115   */\n      tag_148\n      jump\t// in\n    tag_162:\n        /* \"#utility.yul\":1040:1115   */\n      swap1\n      pop\n        /* \"#utility.yul\":1138:1144   */\n      dup3\n        /* \"#utility.yul\":1131:1136   */\n      dup2\n        /* \"#utility.yul\":1124:1145   */\n      mstore\n        /* \"#utility.yul\":1176:1180   */\n      0x20\n        /* \"#utility.yul\":1169:1174   */\n      dup2\n        /* \"#utility.yul\":1165:1181   */\n      add\n        /* \"#utility.yul\":1214:1217   */\n      dup5\n        /* \"#utility.yul\":1205:1211   */\n      dup5\n        /* \"#utility.yul\":1200:1203   */\n      dup5\n        /* \"#utility.yul\":1196:1212   */\n      add\n        /* \"#utility.yul\":1193:1218   */\n      gt\n        /* \"#utility.yul\":1190:1192   */\n      iszero\n      tag_165\n      jumpi\n        /* \"#utility.yul\":1221:1300   */\n      tag_166\n      tag_167\n      jump\t// in\n    tag_166:\n        /* \"#utility.yul\":1190:1192   */\n    tag_165:\n        /* \"#utility.yul\":1311:1350   */\n      tag_168\n        /* \"#utility.yul\":1343:1349   */\n      dup5\n        /* \"#utility.yul\":1338:1341   */\n      dup3\n        /* \"#utility.yul\":1333:1336   */\n      dup6\n        /* \"#utility.yul\":1311:1350   */\n      tag_169\n      jump\t// in\n    tag_168:\n        /* \"#utility.yul\":1030:1356   */\n      pop\n      swap4\n      swap3\n      pop\n      pop\n      pop\n      jump\t// out\n        /* \"#utility.yul\":1362:1501   */\n    tag_170:\n        /* \"#utility.yul\":1408:1413   */\n      0x00\n        /* \"#utility.yul\":1446:1452   */\n      dup2\n        /* \"#utility.yul\":1433:1453   */\n      calldataload\n        /* \"#utility.yul\":1424:1453   */\n      swap1\n      pop\n        /* \"#utility.yul\":1462:1495   */\n      tag_172\n        /* \"#utility.yul\":1489:1494   */\n      dup2\n        /* \"#utility.yul\":1462:1495   */\n      tag_173\n      jump\t// in\n    tag_172:\n        /* \"#utility.yul\":1414:1501   */\n      swap3\n      swap2\n      pop\n      pop\n      jump\t// out\n        /* \"#utility.yul\":1524:1905   */\n    tag_174:\n        /* \"#utility.yul\":1614:1619   */\n      0x00\n        /* \"#utility.yul\":1663:1666   */\n      dup3\n        /* \"#utility.yul\":1656:1660   */\n      0x1f\n        /* \"#utility.yul\":1648:1654   */\n      dup4\n        /* \"#utility.yul\":1644:1661   */\n      add\n        /* \"#utility.yul\":1640:1667   */\n      slt\n        /* \"#utility.yul\":1630:1632   */\n      tag_176\n      jumpi\n        /* \"#utility.yul\":1671:1750   */\n      tag_177\n      tag_157\n      jump\t// in\n    tag_177:\n        /* \"#utility.yul\":1630:1632   */\n    tag_176:\n        /* \"#utility.yul\":1775:1779   */\n      0x05\n        /* \"#utility.yul\":1797:1899   */\n      tag_178\n        /* \"#utility.yul\":1895:1898   */\n      dup5\n        /* \"#utility.yul\":1887:1893   */\n      dup3\n        /* \"#utility.yul\":1879:1885   */\n      dup6\n        /* \"#utility.yul\":1797:1899   */\n      tag_143\n      jump\t// in\n    tag_178:\n        /* \"#utility.yul\":1788:1899   */\n      swap2\n      pop\n        /* \"#utility.yul\":1620:1905   */\n      pop\n      swap3\n      swap2\n      pop\n      pop\n      jump\t// out\n        /* \"#utility.yul\":1925:2280   */\n    tag_159:\n        /* \"#utility.yul\":1992:1997   */\n      0x00\n        /* \"#utility.yul\":2041:2044   */\n      dup3\n        /* \"#utility.yul\":2034:2038   */\n      0x1f\n        /* \"#utility.yul\":2026:2032   */\n      dup4\n        /* \"#utility.yul\":2022:2039   */\n      add\n        /* \"#utility.yul\":2018:2045   */\n      slt\n        /* \"#utility.yul\":2008:2010   */\n      tag_180\n      jumpi\n        /* \"#utility.yul\":2049:2128   */\n      tag_181\n      tag_157\n      jump\t// in\n    tag_181:\n        /* \"#utility.yul\":2008:2010   */\n    tag_180:\n        /* \"#utility.yul\":2159:2165   */\n      dup2\n        /* \"#utility.yul\":2153:2166   */\n      mload\n        /* \"#utility.yul\":2184:2274   */\n      tag_182\n        /* \"#utility.yul\":2270:2273   */\n      dup5\n        /* \"#utility.yul\":2262:2268   */\n      dup3\n        /* \"#utility.yul\":2255:2259   */\n      0x20\n        /* \"#utility.yul\":2247:2253   */\n      dup7\n        /* \"#utility.yul\":2243:2260   */\n      add\n        /* \"#utility.yul\":2184:2274   */\n      tag_160\n      jump\t// in\n    tag_182:\n        /* \"#utility.yul\":2175:2274   */\n      swap2\n      pop\n        /* \"#utility.yul\":1998:2280   */\n      pop\n      swap3\n      swap2\n      pop\n      pop\n      jump\t// out\n        /* \"#utility.yul\":2286:2425   */\n    tag_183:\n        /* \"#utility.yul\":2332:2337   */\n      0x00\n        /* \"#utility.yul\":2370:2376   */\n      dup2\n        /* \"#utility.yul\":2357:2377   */\n      calldataload\n        /* \"#utility.yul\":2348:2377   */\n      swap1\n      pop\n        /* \"#utility.yul\":2386:2419   */\n      tag_185\n        /* \"#utility.yul\":2413:2418   */\n      dup2\n        /* \"#utility.yul\":2386:2419   */\n      tag_186\n      jump\t// in\n    tag_185:\n        /* \"#utility.yul\":2338:2425   */\n      swap3\n      swap2\n      pop\n      pop\n      jump\t// out\n        /* \"#utility.yul\":2431:2574   */\n    tag_187:\n        /* \"#utility.yul\":2488:2493   */\n      0x00\n        /* \"#utility.yul\":2519:2525   */\n      dup2\n        /* \"#utility.yul\":2513:2526   */\n      mload\n        /* \"#utility.yul\":2504:2526   */\n      swap1\n      pop\n        /* \"#utility.yul\":2535:2568   */\n      tag_189\n        /* \"#utility.yul\":2562:2567   */\n      dup2\n        /* \"#utility.yul\":2535:2568   */\n      tag_186\n      jump\t// in\n    tag_189:\n        /* \"#utility.yul\":2494:2574   */\n      swap3\n      swap2\n      pop\n      pop\n      jump\t// out\n        /* \"#utility.yul\":2580:2909   */\n    tag_23:\n        /* \"#utility.yul\":2639:2645   */\n      0x00\n        /* \"#utility.yul\":2688:2690   */\n      0x20\n        /* \"#utility.yul\":2676:2685   */\n      dup3\n        /* \"#utility.yul\":2667:2674   */\n      dup5\n        /* \"#utility.yul\":2663:2686   */\n      sub\n        /* \"#utility.yul\":2659:2691   */\n      slt\n        /* \"#utility.yul\":2656:2658   */\n      iszero\n      tag_191\n      jumpi\n        /* \"#utility.yul\":2694:2773   */\n      tag_192\n      tag_193\n      jump\t// in\n    tag_192:\n        /* \"#utility.yul\":2656:2658   */\n    tag_191:\n        /* \"#utility.yul\":2814:2815   */\n      0x00\n        /* \"#utility.yul\":2839:2892   */\n      tag_194\n        /* \"#utility.yul\":2884:2891   */\n      dup5\n        /* \"#utility.yul\":2875:2881   */\n      dup3\n        /* \"#utility.yul\":2864:2873   */\n      dup6\n        /* \"#utility.yul\":2860:2882   */\n      add\n        /* \"#utility.yul\":2839:2892   */\n      tag_170\n      jump\t// in\n    tag_194:\n        /* \"#utility.yul\":2829:2892   */\n      swap2\n      pop\n        /* \"#utility.yul\":2785:2902   */\n      pop\n        /* \"#utility.yul\":2646:2909   */\n      swap3\n      swap2\n      pop\n      pop\n      jump\t// out\n        /* \"#utility.yul\":2915:3389   */\n    tag_30:\n        /* \"#utility.yul\":2983:2989   */\n      0x00\n        /* \"#utility.yul\":2991:2997   */\n      dup1\n        /* \"#utility.yul\":3040:3042   */\n      0x40\n        /* \"#utility.yul\":3028:3037   */\n      dup4\n        /* \"#utility.yul\":3019:3026   */\n      dup6\n        /* \"#utility.yul\":3015:3038   */\n      sub\n        /* \"#utility.yul\":3011:3043   */\n      slt\n        /* \"#utility.yul\":3008:3010   */\n      iszero\n      tag_196\n      jumpi\n        /* \"#utility.yul\":3046:3125   */\n      tag_197\n      tag_193\n      jump\t// in\n    tag_197:\n        /* \"#utility.yul\":3008:3010   */\n    tag_196:\n        /* \"#utility.yul\":3166:3167   */\n      0x00\n        /* \"#utility.yul\":3191:3244   */\n      tag_198\n        /* \"#utility.yul\":3236:3243   */\n      dup6\n        /* \"#utility.yul\":3227:3233   */\n      dup3\n        /* \"#utility.yul\":3216:3225   */\n      dup7\n        /* \"#utility.yul\":3212:3234   */\n      add\n        /* \"#utility.yul\":3191:3244   */\n      tag_170\n      jump\t// in\n    tag_198:\n        /* \"#utility.yul\":3181:3244   */\n      swap3\n      pop\n        /* \"#utility.yul\":3137:3254   */\n      pop\n        /* \"#utility.yul\":3293:3295   */\n      0x20\n        /* \"#utility.yul\":3319:3372   */\n      tag_199\n        /* \"#utility.yul\":3364:3371   */\n      dup6\n        /* \"#utility.yul\":3355:3361   */\n      dup3\n        /* \"#utility.yul\":3344:3353   */\n      dup7\n        /* \"#utility.yul\":3340:3362   */\n      add\n        /* \"#utility.yul\":3319:3372   */\n      tag_183\n      jump\t// in\n    tag_199:\n        /* \"#utility.yul\":3309:3372   */\n      swap2\n      pop\n        /* \"#utility.yul\":3264:3382   */\n      pop\n        /* \"#utility.yul\":2998:3389   */\n      swap3\n      pop\n      swap3\n      swap1\n      pop\n      jump\t// out\n        /* \"#utility.yul\":3395:3965   */\n    tag_53:\n        /* \"#utility.yul\":3498:3504   */\n      0x00\n        /* \"#utility.yul\":3547:3549   */\n      0x20\n        /* \"#utility.yul\":3535:3544   */\n      dup3\n        /* \"#utility.yul\":3526:3533   */\n      dup5\n        /* \"#utility.yul\":3522:3545   */\n      sub\n        /* \"#utility.yul\":3518:3550   */\n      slt\n        /* \"#utility.yul\":3515:3517   */\n      iszero\n      tag_201\n      jumpi\n        /* \"#utility.yul\":3553:3632   */\n      tag_202\n      tag_193\n      jump\t// in\n    tag_202:\n        /* \"#utility.yul\":3515:3517   */\n    tag_201:\n        /* \"#utility.yul\":3694:3695   */\n      0x00\n        /* \"#utility.yul\":3683:3692   */\n      dup3\n        /* \"#utility.yul\":3679:3696   */\n      add\n        /* \"#utility.yul\":3673:3697   */\n      mload\n        /* \"#utility.yul\":3724:3742   */\n      0xffffffffffffffff\n        /* \"#utility.yul\":3716:3722   */\n      dup2\n        /* \"#utility.yul\":3713:3743   */\n      gt\n        /* \"#utility.yul\":3710:3712   */\n      iszero\n      tag_203\n      jumpi\n        /* \"#utility.yul\":3746:3825   */\n      tag_204\n      tag_205\n      jump\t// in\n    tag_204:\n        /* \"#utility.yul\":3710:3712   */\n    tag_203:\n        /* \"#utility.yul\":3851:3948   */\n      tag_206\n        /* \"#utility.yul\":3940:3947   */\n      dup5\n        /* \"#utility.yul\":3931:3937   */\n      dup3\n        /* \"#utility.yul\":3920:3929   */\n      dup6\n        /* \"#utility.yul\":3916:3938   */\n      add\n        /* \"#utility.yul\":3851:3948   */\n      tag_174\n      jump\t// in\n    tag_206:\n        /* \"#utility.yul\":3841:3948   */\n      swap2\n      pop\n        /* \"#utility.yul\":3644:3958   */\n      pop\n        /* \"#utility.yul\":3505:3965   */\n      swap3\n      swap2\n      pop\n      pop\n      jump\t// out\n        /* \"#utility.yul\":3971:4322   */\n    tag_134:\n        /* \"#utility.yul\":4041:4047   */\n      0x00\n        /* \"#utility.yul\":4090:4092   */\n      0x20\n        /* \"#utility.yul\":4078:4087   */\n      dup3\n        /* \"#utility.yul\":4069:4076   */\n      dup5\n        /* \"#utility.yul\":4065:4088   */\n      sub\n        /* \"#utility.yul\":4061:4093   */\n      slt\n        /* \"#utility.yul\":4058:4060   */\n      iszero\n      tag_208\n      jumpi\n        /* \"#utility.yul\":4096:4175   */\n      tag_209\n      tag_193\n      jump\t// in\n    tag_209:\n        /* \"#utility.yul\":4058:4060   */\n    tag_208:\n        /* \"#utility.yul\":4216:4217   */\n      0x00\n        /* \"#utility.yul\":4241:4305   */\n      tag_210\n        /* \"#utility.yul\":4297:4304   */\n      dup5\n        /* \"#utility.yul\":4288:4294   */\n      dup3\n        /* \"#utility.yul\":4277:4286   */\n      dup6\n        /* \"#utility.yul\":4273:4295   */\n      add\n        /* \"#utility.yul\":4241:4305   */\n      tag_187\n      jump\t// in\n    tag_210:\n        /* \"#utility.yul\":4231:4305   */\n      swap2\n      pop\n        /* \"#utility.yul\":4187:4315   */\n      pop\n        /* \"#utility.yul\":4048:4322   */\n      swap3\n      swap2\n      pop\n      pop\n      jump\t// out\n        /* \"#utility.yul\":4328:4524   */\n    tag_211:\n        /* \"#utility.yul\":4417:4427   */\n      0x00\n        /* \"#utility.yul\":4452:4518   */\n      tag_213\n        /* \"#utility.yul\":4514:4517   */\n      dup4\n        /* \"#utility.yul\":4506:4512   */\n      dup4\n        /* \"#utility.yul\":4452:4518   */\n      tag_214\n      jump\t// in\n    tag_213:\n        /* \"#utility.yul\":4438:4518   */\n      swap1\n      pop\n        /* \"#utility.yul\":4428:4524   */\n      swap3\n      swap2\n      pop\n      pop\n      jump\t// out\n        /* \"#utility.yul\":4530:4648   */\n    tag_215:\n        /* \"#utility.yul\":4617:4641   */\n      tag_217\n        /* \"#utility.yul\":4635:4640   */\n      dup2\n        /* \"#utility.yul\":4617:4641   */\n      tag_218\n      jump\t// in\n    tag_217:\n        /* \"#utility.yul\":4612:4615   */\n      dup3\n        /* \"#utility.yul\":4605:4642   */\n      mstore\n        /* \"#utility.yul\":4595:4648   */\n      pop\n      pop\n      jump\t// out\n        /* \"#utility.yul\":4684:5663   */\n    tag_219:\n        /* \"#utility.yul\":4819:4822   */\n      0x00\n        /* \"#utility.yul\":4848:4910   */\n      tag_221\n        /* \"#utility.yul\":4904:4909   */\n      dup3\n        /* \"#utility.yul\":4848:4910   */\n      tag_222\n      jump\t// in\n    tag_221:\n        /* \"#utility.yul\":4926:5020   */\n      tag_223\n        /* \"#utility.yul\":5013:5019   */\n      dup2\n        /* \"#utility.yul\":5008:5011   */\n      dup6\n        /* \"#utility.yul\":4926:5020   */\n      tag_224\n      jump\t// in\n    tag_223:\n        /* \"#utility.yul\":4919:5020   */\n      swap4\n      pop\n        /* \"#utility.yul\":5046:5049   */\n      dup4\n        /* \"#utility.yul\":5091:5095   */\n      0x20\n        /* \"#utility.yul\":5083:5089   */\n      dup3\n        /* \"#utility.yul\":5079:5096   */\n      mul\n        /* \"#utility.yul\":5074:5077   */\n      dup6\n        /* \"#utility.yul\":5070:5097   */\n      add\n        /* \"#utility.yul\":5121:5185   */\n      tag_225\n        /* \"#utility.yul\":5179:5184   */\n      dup6\n        /* \"#utility.yul\":5121:5185   */\n      tag_226\n      jump\t// in\n    tag_225:\n        /* \"#utility.yul\":5208:5215   */\n      dup1\n        /* \"#utility.yul\":5239:5240   */\n      0x00\n        /* \"#utility.yul\":5224:5618   */\n    tag_227:\n        /* \"#utility.yul\":5249:5255   */\n      dup6\n        /* \"#utility.yul\":5246:5247   */\n      dup2\n        /* \"#utility.yul\":5243:5256   */\n      lt\n        /* \"#utility.yul\":5224:5618   */\n      iszero\n      tag_229\n      jumpi\n        /* \"#utility.yul\":5320:5329   */\n      dup5\n        /* \"#utility.yul\":5314:5318   */\n      dup5\n        /* \"#utility.yul\":5310:5330   */\n      sub\n        /* \"#utility.yul\":5305:5308   */\n      dup10\n        /* \"#utility.yul\":5298:5331   */\n      mstore\n        /* \"#utility.yul\":5371:5377   */\n      dup2\n        /* \"#utility.yul\":5365:5378   */\n      mload\n        /* \"#utility.yul\":5399:5483   */\n      tag_230\n        /* \"#utility.yul\":5478:5482   */\n      dup6\n        /* \"#utility.yul\":5463:5476   */\n      dup3\n        /* \"#utility.yul\":5399:5483   */\n      tag_211\n      jump\t// in\n    tag_230:\n        /* \"#utility.yul\":5391:5483   */\n      swap5\n      pop\n        /* \"#utility.yul\":5506:5574   */\n      tag_231\n        /* \"#utility.yul\":5567:5573   */\n      dup4\n        /* \"#utility.yul\":5506:5574   */\n      tag_232\n      jump\t// in\n    tag_231:\n        /* \"#utility.yul\":5496:5574   */\n      swap3\n      pop\n        /* \"#utility.yul\":5603:5607   */\n      0x20\n        /* \"#utility.yul\":5598:5601   */\n      dup11\n        /* \"#utility.yul\":5594:5608   */\n      add\n        /* \"#utility.yul\":5587:5608   */\n      swap10\n      pop\n        /* \"#utility.yul\":5284:5618   */\n      pop\n        /* \"#utility.yul\":5271:5272   */\n      0x01\n        /* \"#utility.yul\":5268:5269   */\n      dup2\n        /* \"#utility.yul\":5264:5273   */\n      add\n        /* \"#utility.yul\":5259:5273   */\n      swap1\n      pop\n        /* \"#utility.yul\":5224:5618   */\n      jump(tag_227)\n    tag_229:\n        /* \"#utility.yul\":5228:5242   */\n      pop\n        /* \"#utility.yul\":5634:5638   */\n      dup3\n        /* \"#utility.yul\":5627:5638   */\n      swap8\n      pop\n        /* \"#utility.yul\":5654:5657   */\n      dup8\n        /* \"#utility.yul\":5647:5657   */\n      swap6\n      pop\n        /* \"#utility.yul\":4824:5663   */\n      pop\n      pop\n      pop\n      pop\n      pop\n      swap3\n      swap2\n      pop\n      pop\n      jump\t// out\n        /* \"#utility.yul\":5669:5778   */\n    tag_233:\n        /* \"#utility.yul\":5750:5771   */\n      tag_235\n        /* \"#utility.yul\":5765:5770   */\n      dup2\n        /* \"#utility.yul\":5750:5771   */\n      tag_236\n      jump\t// in\n    tag_235:\n        /* \"#utility.yul\":5745:5748   */\n      dup3\n        /* \"#utility.yul\":5738:5772   */\n      mstore\n        /* \"#utility.yul\":5728:5778   */\n      pop\n      pop\n      jump\t// out\n        /* \"#utility.yul\":5784:5933   */\n    tag_237:\n        /* \"#utility.yul\":5880:5926   */\n      tag_239\n        /* \"#utility.yul\":5920:5925   */\n      dup2\n        /* \"#utility.yul\":5880:5926   */\n      tag_240\n      jump\t// in\n    tag_239:\n        /* \"#utility.yul\":5875:5878   */\n      dup3\n        /* \"#utility.yul\":5868:5927   */\n      mstore\n        /* \"#utility.yul\":5858:5933   */\n      pop\n      pop\n      jump\t// out\n        /* \"#utility.yul\":5939:6283   */\n    tag_214:\n        /* \"#utility.yul\":6017:6020   */\n      0x00\n        /* \"#utility.yul\":6045:6084   */\n      tag_242\n        /* \"#utility.yul\":6078:6083   */\n      dup3\n        /* \"#utility.yul\":6045:6084   */\n      tag_243\n      jump\t// in\n    tag_242:\n        /* \"#utility.yul\":6100:6161   */\n      tag_244\n        /* \"#utility.yul\":6154:6160   */\n      dup2\n        /* \"#utility.yul\":6149:6152   */\n      dup6\n        /* \"#utility.yul\":6100:6161   */\n      tag_245\n      jump\t// in\n    tag_244:\n        /* \"#utility.yul\":6093:6161   */\n      swap4\n      pop\n        /* \"#utility.yul\":6170:6222   */\n      tag_246\n        /* \"#utility.yul\":6215:6221   */\n      dup2\n        /* \"#utility.yul\":6210:6213   */\n      dup6\n        /* \"#utility.yul\":6203:6207   */\n      0x20\n        /* \"#utility.yul\":6196:6201   */\n      dup7\n        /* \"#utility.yul\":6192:6208   */\n      add\n        /* \"#utility.yul\":6170:6222   */\n      tag_169\n      jump\t// in\n    tag_246:\n        /* \"#utility.yul\":6247:6276   */\n      tag_247\n        /* \"#utility.yul\":6269:6275   */\n      dup2\n        /* \"#utility.yul\":6247:6276   */\n      tag_248\n      jump\t// in\n    tag_247:\n        /* \"#utility.yul\":6242:6245   */\n      dup5\n        /* \"#utility.yul\":6238:6277   */\n      add\n        /* \"#utility.yul\":6231:6277   */\n      swap2\n      pop\n        /* \"#utility.yul\":6021:6283   */\n      pop\n      swap3\n      swap2\n      pop\n      pop\n      jump\t// out\n        /* \"#utility.yul\":6289:6655   */\n    tag_249:\n        /* \"#utility.yul\":6431:6434   */\n      0x00\n        /* \"#utility.yul\":6452:6519   */\n      tag_251\n        /* \"#utility.yul\":6516:6518   */\n      0x15\n        /* \"#utility.yul\":6511:6514   */\n      dup4\n        /* \"#utility.yul\":6452:6519   */\n      tag_252\n      jump\t// in\n    tag_251:\n        /* \"#utility.yul\":6445:6519   */\n      swap2\n      pop\n        /* \"#utility.yul\":6528:6621   */\n      tag_253\n        /* \"#utility.yul\":6617:6620   */\n      dup3\n        /* \"#utility.yul\":6528:6621   */\n      tag_254\n      jump\t// in\n    tag_253:\n        /* \"#utility.yul\":6646:6648   */\n      0x20\n        /* \"#utility.yul\":6641:6644   */\n      dup3\n        /* \"#utility.yul\":6637:6649   */\n      add\n        /* \"#utility.yul\":6630:6649   */\n      swap1\n      pop\n        /* \"#utility.yul\":6435:6655   */\n      swap2\n      swap1\n      pop\n      jump\t// out\n        /* \"#utility.yul\":6661:7027   */\n    tag_255:\n        /* \"#utility.yul\":6803:6806   */\n      0x00\n        /* \"#utility.yul\":6824:6891   */\n      tag_257\n        /* \"#utility.yul\":6888:6890   */\n      0x2e\n        /* \"#utility.yul\":6883:6886   */\n      dup4\n        /* \"#utility.yul\":6824:6891   */\n      tag_252\n      jump\t// in\n    tag_257:\n        /* \"#utility.yul\":6817:6891   */\n      swap2\n      pop\n        /* \"#utility.yul\":6900:6993   */\n      tag_258\n        /* \"#utility.yul\":6989:6992   */\n      dup3\n        /* \"#utility.yul\":6900:6993   */\n      tag_259\n      jump\t// in\n    tag_258:\n        /* \"#utility.yul\":7018:7020   */\n      0x40\n        /* \"#utility.yul\":7013:7016   */\n      dup3\n        /* \"#utility.yul\":7009:7021   */\n      add\n        /* \"#utility.yul\":7002:7021   */\n      swap1\n      pop\n        /* \"#utility.yul\":6807:7027   */\n      swap2\n      swap1\n      pop\n      jump\t// out\n        /* \"#utility.yul\":7033:7151   */\n    tag_260:\n        /* \"#utility.yul\":7120:7144   */\n      tag_262\n        /* \"#utility.yul\":7138:7143   */\n      dup2\n        /* \"#utility.yul\":7120:7144   */\n      tag_263\n      jump\t// in\n    tag_262:\n        /* \"#utility.yul\":7115:7118   */\n      dup3\n        /* \"#utility.yul\":7108:7145   */\n      mstore\n        /* \"#utility.yul\":7098:7151   */\n      pop\n      pop\n      jump\t// out\n        /* \"#utility.yul\":7157:7489   */\n    tag_129:\n        /* \"#utility.yul\":7278:7282   */\n      0x00\n        /* \"#utility.yul\":7316:7318   */\n      0x40\n        /* \"#utility.yul\":7305:7314   */\n      dup3\n        /* \"#utility.yul\":7301:7319   */\n      add\n        /* \"#utility.yul\":7293:7319   */\n      swap1\n      pop\n        /* \"#utility.yul\":7329:7400   */\n      tag_265\n        /* \"#utility.yul\":7397:7398   */\n      0x00\n        /* \"#utility.yul\":7386:7395   */\n      dup4\n        /* \"#utility.yul\":7382:7399   */\n      add\n        /* \"#utility.yul\":7373:7379   */\n      dup6\n        /* \"#utility.yul\":7329:7400   */\n      tag_215\n      jump\t// in\n    tag_265:\n        /* \"#utility.yul\":7410:7482   */\n      tag_266\n        /* \"#utility.yul\":7478:7480   */\n      0x20\n        /* \"#utility.yul\":7467:7476   */\n      dup4\n        /* \"#utility.yul\":7463:7481   */\n      add\n        /* \"#utility.yul\":7454:7460   */\n      dup5\n        /* \"#utility.yul\":7410:7482   */\n      tag_260\n      jump\t// in\n    tag_266:\n        /* \"#utility.yul\":7283:7489   */\n      swap4\n      swap3\n      pop\n      pop\n      pop\n      jump\t// out\n        /* \"#utility.yul\":7495:8066   */\n    tag_26:\n        /* \"#utility.yul\":7681:7685   */\n      0x00\n        /* \"#utility.yul\":7719:7722   */\n      0x80\n        /* \"#utility.yul\":7708:7717   */\n      dup3\n        /* \"#utility.yul\":7704:7723   */\n      add\n        /* \"#utility.yul\":7696:7723   */\n      swap1\n      pop\n        /* \"#utility.yul\":7733:7804   */\n      tag_268\n        /* \"#utility.yul\":7801:7802   */\n      0x00\n        /* \"#utility.yul\":7790:7799   */\n      dup4\n        /* \"#utility.yul\":7786:7803   */\n      add\n        /* \"#utility.yul\":7777:7783   */\n      dup8\n        /* \"#utility.yul\":7733:7804   */\n      tag_215\n      jump\t// in\n    tag_268:\n        /* \"#utility.yul\":7814:7886   */\n      tag_269\n        /* \"#utility.yul\":7882:7884   */\n      0x20\n        /* \"#utility.yul\":7871:7880   */\n      dup4\n        /* \"#utility.yul\":7867:7885   */\n      add\n        /* \"#utility.yul\":7858:7864   */\n      dup7\n        /* \"#utility.yul\":7814:7886   */\n      tag_260\n      jump\t// in\n    tag_269:\n        /* \"#utility.yul\":7896:7968   */\n      tag_270\n        /* \"#utility.yul\":7964:7966   */\n      0x40\n        /* \"#utility.yul\":7953:7962   */\n      dup4\n        /* \"#utility.yul\":7949:7967   */\n      add\n        /* \"#utility.yul\":7940:7946   */\n      dup6\n        /* \"#utility.yul\":7896:7968   */\n      tag_260\n      jump\t// in\n    tag_270:\n        /* \"#utility.yul\":7978:8059   */\n      tag_271\n        /* \"#utility.yul\":8055:8057   */\n      0x60\n        /* \"#utility.yul\":8044:8053   */\n      dup4\n        /* \"#utility.yul\":8040:8058   */\n      add\n        /* \"#utility.yul\":8031:8037   */\n      dup5\n        /* \"#utility.yul\":7978:8059   */\n      tag_237\n      jump\t// in\n    tag_271:\n        /* \"#utility.yul\":7686:8066   */\n      swap6\n      swap5\n      pop\n      pop\n      pop\n      pop\n      pop\n      jump\t// out\n        /* \"#utility.yul\":8072:8477   */\n    tag_14:\n        /* \"#utility.yul\":8231:8235   */\n      0x00\n        /* \"#utility.yul\":8269:8271   */\n      0x20\n        /* \"#utility.yul\":8258:8267   */\n      dup3\n        /* \"#utility.yul\":8254:8272   */\n      add\n        /* \"#utility.yul\":8246:8272   */\n      swap1\n      pop\n        /* \"#utility.yul\":8318:8327   */\n      dup2\n        /* \"#utility.yul\":8312:8316   */\n      dup2\n        /* \"#utility.yul\":8308:8328   */\n      sub\n        /* \"#utility.yul\":8304:8305   */\n      0x00\n        /* \"#utility.yul\":8293:8302   */\n      dup4\n        /* \"#utility.yul\":8289:8306   */\n      add\n        /* \"#utility.yul\":8282:8329   */\n      mstore\n        /* \"#utility.yul\":8346:8470   */\n      tag_273\n        /* \"#utility.yul\":8465:8469   */\n      dup2\n        /* \"#utility.yul\":8456:8462   */\n      dup5\n        /* \"#utility.yul\":8346:8470   */\n      tag_219\n      jump\t// in\n    tag_273:\n        /* \"#utility.yul\":8338:8470   */\n      swap1\n      pop\n        /* \"#utility.yul\":8236:8477   */\n      swap3\n      swap2\n      pop\n      pop\n      jump\t// out\n        /* \"#utility.yul\":8483:8931   */\n    tag_39:\n        /* \"#utility.yul\":8635:8639   */\n      0x00\n        /* \"#utility.yul\":8673:8675   */\n      0x60\n        /* \"#utility.yul\":8662:8671   */\n      dup3\n        /* \"#utility.yul\":8658:8676   */\n      add\n        /* \"#utility.yul\":8650:8676   */\n      swap1\n      pop\n        /* \"#utility.yul\":8686:8751   */\n      tag_275\n        /* \"#utility.yul\":8748:8749   */\n      0x00\n        /* \"#utility.yul\":8737:8746   */\n      dup4\n        /* \"#utility.yul\":8733:8750   */\n      add\n        /* \"#utility.yul\":8724:8730   */\n      dup7\n        /* \"#utility.yul\":8686:8751   */\n      tag_233\n      jump\t// in\n    tag_275:\n        /* \"#utility.yul\":8761:8833   */\n      tag_276\n        /* \"#utility.yul\":8829:8831   */\n      0x20\n        /* \"#utility.yul\":8818:8827   */\n      dup4\n        /* \"#utility.yul\":8814:8832   */\n      add\n        /* \"#utility.yul\":8805:8811   */\n      dup6\n        /* \"#utility.yul\":8761:8833   */\n      tag_260\n      jump\t// in\n    tag_276:\n        /* \"#utility.yul\":8843:8924   */\n      tag_277\n        /* \"#utility.yul\":8920:8922   */\n      0x40\n        /* \"#utility.yul\":8909:8918   */\n      dup4\n        /* \"#utility.yul\":8905:8923   */\n      add\n        /* \"#utility.yul\":8896:8902   */\n      dup5\n        /* \"#utility.yul\":8843:8924   */\n      tag_237\n      jump\t// in\n    tag_277:\n        /* \"#utility.yul\":8640:8931   */\n      swap5\n      swap4\n      pop\n      pop\n      pop\n      pop\n      jump\t// out\n        /* \"#utility.yul\":8937:9177   */\n    tag_33:\n        /* \"#utility.yul\":9039:9043   */\n      0x00\n        /* \"#utility.yul\":9077:9079   */\n      0x20\n        /* \"#utility.yul\":9066:9075   */\n      dup3\n        /* \"#utility.yul\":9062:9080   */\n      add\n        /* \"#utility.yul\":9054:9080   */\n      swap1\n      pop\n        /* \"#utility.yul\":9090:9170   */\n      tag_279\n        /* \"#utility.yul\":9167:9168   */\n      0x00\n        /* \"#utility.yul\":9156:9165   */\n      dup4\n        /* \"#utility.yul\":9152:9169   */\n      add\n        /* \"#utility.yul\":9143:9149   */\n      dup5\n        /* \"#utility.yul\":9090:9170   */\n      tag_237\n      jump\t// in\n    tag_279:\n        /* \"#utility.yul\":9044:9177   */\n      swap3\n      swap2\n      pop\n      pop\n      jump\t// out\n        /* \"#utility.yul\":9183:9602   */\n    tag_110:\n        /* \"#utility.yul\":9349:9353   */\n      0x00\n        /* \"#utility.yul\":9387:9389   */\n      0x20\n        /* \"#utility.yul\":9376:9385   */\n      dup3\n        /* \"#utility.yul\":9372:9390   */\n      add\n        /* \"#utility.yul\":9364:9390   */\n      swap1\n      pop\n        /* \"#utility.yul\":9436:9445   */\n      dup2\n        /* \"#utility.yul\":9430:9434   */\n      dup2\n        /* \"#utility.yul\":9426:9446   */\n      sub\n        /* \"#utility.yul\":9422:9423   */\n      0x00\n        /* \"#utility.yul\":9411:9420   */\n      dup4\n        /* \"#utility.yul\":9407:9424   */\n      add\n        /* \"#utility.yul\":9400:9447   */\n      mstore\n        /* \"#utility.yul\":9464:9595   */\n      tag_281\n        /* \"#utility.yul\":9590:9594   */\n      dup2\n        /* \"#utility.yul\":9464:9595   */\n      tag_249\n      jump\t// in\n    tag_281:\n        /* \"#utility.yul\":9456:9595   */\n      swap1\n      pop\n        /* \"#utility.yul\":9354:9602   */\n      swap2\n      swap1\n      pop\n      jump\t// out\n        /* \"#utility.yul\":9608:10027   */\n    tag_104:\n        /* \"#utility.yul\":9774:9778   */\n      0x00\n        /* \"#utility.yul\":9812:9814   */\n      0x20\n        /* \"#utility.yul\":9801:9810   */\n      dup3\n        /* \"#utility.yul\":9797:9815   */\n      add\n        /* \"#utility.yul\":9789:9815   */\n      swap1\n      pop\n        /* \"#utility.yul\":9861:9870   */\n      dup2\n        /* \"#utility.yul\":9855:9859   */\n      dup2\n        /* \"#utility.yul\":9851:9871   */\n      sub\n        /* \"#utility.yul\":9847:9848   */\n      0x00\n        /* \"#utility.yul\":9836:9845   */\n      dup4\n        /* \"#utility.yul\":9832:9849   */\n      add\n        /* \"#utility.yul\":9825:9872   */\n      mstore\n        /* \"#utility.yul\":9889:10020   */\n      tag_283\n        /* \"#utility.yul\":10015:10019   */\n      dup2\n        /* \"#utility.yul\":9889:10020   */\n      tag_255\n      jump\t// in\n    tag_283:\n        /* \"#utility.yul\":9881:10020   */\n      swap1\n      pop\n        /* \"#utility.yul\":9779:10027   */\n      swap2\n      swap1\n      pop\n      jump\t// out\n        /* \"#utility.yul\":10033:10255   */\n    tag_19:\n        /* \"#utility.yul\":10126:10130   */\n      0x00\n        /* \"#utility.yul\":10164:10166   */\n      0x20\n        /* \"#utility.yul\":10153:10162   */\n      dup3\n        /* \"#utility.yul\":10149:10167   */\n      add\n        /* \"#utility.yul\":10141:10167   */\n      swap1\n      pop\n        /* \"#utility.yul\":10177:10248   */\n      tag_285\n        /* \"#utility.yul\":10245:10246   */\n      0x00\n        /* \"#utility.yul\":10234:10243   */\n      dup4\n        /* \"#utility.yul\":10230:10247   */\n      add\n        /* \"#utility.yul\":10221:10227   */\n      dup5\n        /* \"#utility.yul\":10177:10248   */\n      tag_260\n      jump\t// in\n    tag_285:\n        /* \"#utility.yul\":10131:10255   */\n      swap3\n      swap2\n      pop\n      pop\n      jump\t// out\n        /* \"#utility.yul\":10261:10593   */\n    tag_137:\n        /* \"#utility.yul\":10382:10386   */\n      0x00\n        /* \"#utility.yul\":10420:10422   */\n      0x40\n        /* \"#utility.yul\":10409:10418   */\n      dup3\n        /* \"#utility.yul\":10405:10423   */\n      add\n        /* \"#utility.yul\":10397:10423   */\n      swap1\n      pop\n        /* \"#utility.yul\":10433:10504   */\n      tag_287\n        /* \"#utility.yul\":10501:10502   */\n      0x00\n        /* \"#utility.yul\":10490:10499   */\n      dup4\n        /* \"#utility.yul\":10486:10503   */\n      add\n        /* \"#utility.yul\":10477:10483   */\n      dup6\n        /* \"#utility.yul\":10433:10504   */\n      tag_260\n      jump\t// in\n    tag_287:\n        /* \"#utility.yul\":10514:10586   */\n      tag_288\n        /* \"#utility.yul\":10582:10584   */\n      0x20\n        /* \"#utility.yul\":10571:10580   */\n      dup4\n        /* \"#utility.yul\":10567:10585   */\n      add\n        /* \"#utility.yul\":10558:10564   */\n      dup5\n        /* \"#utility.yul\":10514:10586   */\n      tag_260\n      jump\t// in\n    tag_288:\n        /* \"#utility.yul\":10387:10593   */\n      swap4\n      swap3\n      pop\n      pop\n      pop\n      jump\t// out\n        /* \"#utility.yul\":10599:10728   */\n    tag_148:\n        /* \"#utility.yul\":10633:10639   */\n      0x00\n        /* \"#utility.yul\":10660:10680   */\n      tag_290\n      tag_291\n      jump\t// in\n    tag_290:\n        /* \"#utility.yul\":10650:10680   */\n      swap1\n      pop\n        /* \"#utility.yul\":10689:10722   */\n      tag_292\n        /* \"#utility.yul\":10717:10721   */\n      dup3\n        /* \"#utility.yul\":10709:10715   */\n      dup3\n        /* \"#utility.yul\":10689:10722   */\n      tag_293\n      jump\t// in\n    tag_292:\n        /* \"#utility.yul\":10640:10728   */\n      swap2\n      swap1\n      pop\n      jump\t// out\n        /* \"#utility.yul\":10734:10809   */\n    tag_291:\n        /* \"#utility.yul\":10767:10773   */\n      0x00\n        /* \"#utility.yul\":10800:10802   */\n      0x40\n        /* \"#utility.yul\":10794:10803   */\n      mload\n        /* \"#utility.yul\":10784:10803   */\n      swap1\n      pop\n        /* \"#utility.yul\":10774:10809   */\n      swap1\n      jump\t// out\n        /* \"#utility.yul\":10815:11074   */\n    tag_147:\n        /* \"#utility.yul\":10900:10904   */\n      0x00\n        /* \"#utility.yul\":10990:11008   */\n      0xffffffffffffffff\n        /* \"#utility.yul\":10982:10988   */\n      dup3\n        /* \"#utility.yul\":10979:11009   */\n      gt\n        /* \"#utility.yul\":10976:10978   */\n      iszero\n      tag_296\n      jumpi\n        /* \"#utility.yul\":11012:11030   */\n      tag_297\n      tag_298\n      jump\t// in\n    tag_297:\n        /* \"#utility.yul\":10976:10978   */\n    tag_296:\n        /* \"#utility.yul\":11062:11066   */\n      0x20\n        /* \"#utility.yul\":11054:11060   */\n      dup3\n        /* \"#utility.yul\":11050:11067   */\n      mul\n        /* \"#utility.yul\":11042:11067   */\n      swap1\n      pop\n        /* \"#utility.yul\":10905:11074   */\n      swap2\n      swap1\n      pop\n      jump\t// out\n        /* \"#utility.yul\":11080:11388   */\n    tag_164:\n        /* \"#utility.yul\":11142:11146   */\n      0x00\n        /* \"#utility.yul\":11232:11250   */\n      0xffffffffffffffff\n        /* \"#utility.yul\":11224:11230   */\n      dup3\n        /* \"#utility.yul\":11221:11251   */\n      gt\n        /* \"#utility.yul\":11218:11220   */\n      iszero\n      tag_300\n      jumpi\n        /* \"#utility.yul\":11254:11272   */\n      tag_301\n      tag_298\n      jump\t// in\n    tag_301:\n        /* \"#utility.yul\":11218:11220   */\n    tag_300:\n        /* \"#utility.yul\":11292:11321   */\n      tag_302\n        /* \"#utility.yul\":11314:11320   */\n      dup3\n        /* \"#utility.yul\":11292:11321   */\n      tag_248\n      jump\t// in\n    tag_302:\n        /* \"#utility.yul\":11284:11321   */\n      swap1\n      pop\n        /* \"#utility.yul\":11376:11380   */\n      0x20\n        /* \"#utility.yul\":11370:11374   */\n      dup2\n        /* \"#utility.yul\":11366:11381   */\n      add\n        /* \"#utility.yul\":11358:11381   */\n      swap1\n      pop\n        /* \"#utility.yul\":11147:11388   */\n      swap2\n      swap1\n      pop\n      jump\t// out\n        /* \"#utility.yul\":11394:11502   */\n    tag_226:\n        /* \"#utility.yul\":11469:11473   */\n      0x00\n        /* \"#utility.yul\":11492:11495   */\n      dup2\n        /* \"#utility.yul\":11484:11495   */\n      swap1\n      pop\n        /* \"#utility.yul\":11474:11502   */\n      swap2\n      swap1\n      pop\n      jump\t// out\n        /* \"#utility.yul\":11508:11622   */\n    tag_222:\n        /* \"#utility.yul\":11583:11589   */\n      0x00\n        /* \"#utility.yul\":11611:11615   */\n      0x05\n        /* \"#utility.yul\":11601:11615   */\n      swap1\n      pop\n        /* \"#utility.yul\":11590:11622   */\n      swap2\n      swap1\n      pop\n      jump\t// out\n        /* \"#utility.yul\":11628:11727   */\n    tag_243:\n        /* \"#utility.yul\":11680:11686   */\n      0x00\n        /* \"#utility.yul\":11714:11719   */\n      dup2\n        /* \"#utility.yul\":11708:11720   */\n      mload\n        /* \"#utility.yul\":11698:11720   */\n      swap1\n      pop\n        /* \"#utility.yul\":11687:11727   */\n      swap2\n      swap1\n      pop\n      jump\t// out\n        /* \"#utility.yul\":11733:11854   */\n    tag_232:\n        /* \"#utility.yul\":11811:11815   */\n      0x00\n        /* \"#utility.yul\":11843:11847   */\n      0x20\n        /* \"#utility.yul\":11838:11841   */\n      dup3\n        /* \"#utility.yul\":11834:11848   */\n      add\n        /* \"#utility.yul\":11826:11848   */\n      swap1\n      pop\n        /* \"#utility.yul\":11816:11854   */\n      swap2\n      swap1\n      pop\n      jump\t// out\n        /* \"#utility.yul\":11860:12013   */\n    tag_224:\n        /* \"#utility.yul\":11967:11978   */\n      0x00\n        /* \"#utility.yul\":12004:12007   */\n      dup2\n        /* \"#utility.yul\":11989:12007   */\n      swap1\n      pop\n        /* \"#utility.yul\":11979:12013   */\n      swap3\n      swap2\n      pop\n      pop\n      jump\t// out\n        /* \"#utility.yul\":12019:12178   */\n    tag_245:\n        /* \"#utility.yul\":12093:12104   */\n      0x00\n        /* \"#utility.yul\":12127:12133   */\n      dup3\n        /* \"#utility.yul\":12122:12125   */\n      dup3\n        /* \"#utility.yul\":12115:12134   */\n      mstore\n        /* \"#utility.yul\":12167:12171   */\n      0x20\n        /* \"#utility.yul\":12162:12165   */\n      dup3\n        /* \"#utility.yul\":12158:12172   */\n      add\n        /* \"#utility.yul\":12143:12172   */\n      swap1\n      pop\n        /* \"#utility.yul\":12105:12178   */\n      swap3\n      swap2\n      pop\n      pop\n      jump\t// out\n        /* \"#utility.yul\":12184:12353   */\n    tag_252:\n        /* \"#utility.yul\":12268:12279   */\n      0x00\n        /* \"#utility.yul\":12302:12308   */\n      dup3\n        /* \"#utility.yul\":12297:12300   */\n      dup3\n        /* \"#utility.yul\":12290:12309   */\n      mstore\n        /* \"#utility.yul\":12342:12346   */\n      0x20\n        /* \"#utility.yul\":12337:12340   */\n      dup3\n        /* \"#utility.yul\":12333:12347   */\n      add\n        /* \"#utility.yul\":12318:12347   */\n      swap1\n      pop\n        /* \"#utility.yul\":12280:12353   */\n      swap3\n      swap2\n      pop\n      pop\n      jump\t// out\n        /* \"#utility.yul\":12359:12664   */\n    tag_56:\n        /* \"#utility.yul\":12399:12402   */\n      0x00\n        /* \"#utility.yul\":12418:12438   */\n      tag_311\n        /* \"#utility.yul\":12436:12437   */\n      dup3\n        /* \"#utility.yul\":12418:12438   */\n      tag_263\n      jump\t// in\n    tag_311:\n        /* \"#utility.yul\":12413:12438   */\n      swap2\n      pop\n        /* \"#utility.yul\":12452:12472   */\n      tag_312\n        /* \"#utility.yul\":12470:12471   */\n      dup4\n        /* \"#utility.yul\":12452:12472   */\n      tag_263\n      jump\t// in\n    tag_312:\n        /* \"#utility.yul\":12447:12472   */\n      swap3\n      pop\n        /* \"#utility.yul\":12606:12607   */\n      dup3\n        /* \"#utility.yul\":12538:12604   */\n      0xffffffffffffffffffffffffffffffffffffffffffffffffffffffffffffffff\n        /* \"#utility.yul\":12534:12608   */\n      sub\n        /* \"#utility.yul\":12531:12532   */\n      dup3\n        /* \"#utility.yul\":12528:12609   */\n      gt\n        /* \"#utility.yul\":12525:12527   */\n      iszero\n      tag_313\n      jumpi\n        /* \"#utility.yul\":12612:12630   */\n      tag_314\n      tag_315\n      jump\t// in\n    tag_314:\n        /* \"#utility.yul\":12525:12527   */\n    tag_313:\n        /* \"#utility.yul\":12656:12657   */\n      dup3\n        /* \"#utility.yul\":12653:12654   */\n      dup3\n        /* \"#utility.yul\":12649:12658   */\n      add\n        /* \"#utility.yul\":12642:12658   */\n      swap1\n      pop\n        /* \"#utility.yul\":12403:12664   */\n      swap3\n      swap2\n      pop\n      pop\n      jump\t// out\n        /* \"#utility.yul\":12670:12766   */\n    tag_218:\n        /* \"#utility.yul\":12707:12714   */\n      0x00\n        /* \"#utility.yul\":12736:12760   */\n      tag_317\n        /* \"#utility.yul\":12754:12759   */\n      dup3\n        /* \"#utility.yul\":12736:12760   */\n      tag_318\n      jump\t// in\n    tag_317:\n        /* \"#utility.yul\":12725:12760   */\n      swap1\n      pop\n        /* \"#utility.yul\":12715:12766   */\n      swap2\n      swap1\n      pop\n      jump\t// out\n        /* \"#utility.yul\":12772:12862   */\n    tag_236:\n        /* \"#utility.yul\":12806:12813   */\n      0x00\n        /* \"#utility.yul\":12849:12854   */\n      dup2\n        /* \"#utility.yul\":12842:12855   */\n      iszero\n        /* \"#utility.yul\":12835:12856   */\n      iszero\n        /* \"#utility.yul\":12824:12856   */\n      swap1\n      pop\n        /* \"#utility.yul\":12814:12862   */\n      swap2\n      swap1\n      pop\n      jump\t// out\n        /* \"#utility.yul\":12868:13001   */\n    tag_320:\n        /* \"#utility.yul\":12916:12923   */\n      0x00\n        /* \"#utility.yul\":12945:12950   */\n      dup2\n        /* \"#utility.yul\":12934:12950   */\n      swap1\n      pop\n        /* \"#utility.yul\":12951:12995   */\n      tag_322\n        /* \"#utility.yul\":12989:12994   */\n      dup3\n        /* \"#utility.yul\":12951:12995   */\n      tag_323\n      jump\t// in\n    tag_322:\n        /* \"#utility.yul\":12924:13001   */\n      swap2\n      swap1\n      pop\n      jump\t// out\n        /* \"#utility.yul\":13007:13133   */\n    tag_318:\n        /* \"#utility.yul\":13044:13051   */\n      0x00\n        /* \"#utility.yul\":13084:13126   */\n      0xffffffffffffffffffffffffffffffffffffffff\n        /* \"#utility.yul\":13077:13082   */\n      dup3\n        /* \"#utility.yul\":13073:13127   */\n      and\n        /* \"#utility.yul\":13062:13127   */\n      swap1\n      pop\n        /* \"#utility.yul\":13052:13133   */\n      swap2\n      swap1\n      pop\n      jump\t// out\n        /* \"#utility.yul\":13139:13216   */\n    tag_263:\n        /* \"#utility.yul\":13176:13183   */\n      0x00\n        /* \"#utility.yul\":13205:13210   */\n      dup2\n        /* \"#utility.yul\":13194:13210   */\n      swap1\n      pop\n        /* \"#utility.yul\":13184:13216   */\n      swap2\n      swap1\n      pop\n      jump\t// out\n        /* \"#utility.yul\":13222:13355   */\n    tag_240:\n        /* \"#utility.yul\":13281:13290   */\n      0x00\n        /* \"#utility.yul\":13314:13349   */\n      tag_327\n        /* \"#utility.yul\":13343:13348   */\n      dup3\n        /* \"#utility.yul\":13314:13349   */\n      tag_320\n      jump\t// in\n    tag_327:\n        /* \"#utility.yul\":13301:13349   */\n      swap1\n      pop\n        /* \"#utility.yul\":13291:13355   */\n      swap2\n      swap1\n      pop\n      jump\t// out\n        /* \"#utility.yul\":13361:13668   */\n    tag_169:\n        /* \"#utility.yul\":13429:13430   */\n      0x00\n        /* \"#utility.yul\":13439:13552   */\n    tag_329:\n        /* \"#utility.yul\":13453:13459   */\n      dup4\n        /* \"#utility.yul\":13450:13451   */\n      dup2\n        /* \"#utility.yul\":13447:13460   */\n      lt\n        /* \"#utility.yul\":13439:13552   */\n      iszero\n      tag_331\n      jumpi\n        /* \"#utility.yul\":13538:13539   */\n      dup1\n        /* \"#utility.yul\":13533:13536   */\n      dup3\n        /* \"#utility.yul\":13529:13540   */\n      add\n        /* \"#utility.yul\":13523:13541   */\n      mload\n        /* \"#utility.yul\":13519:13520   */\n      dup2\n        /* \"#utility.yul\":13514:13517   */\n      dup5\n        /* \"#utility.yul\":13510:13521   */\n      add\n        /* \"#utility.yul\":13503:13542   */\n      mstore\n        /* \"#utility.yul\":13475:13477   */\n      0x20\n        /* \"#utility.yul\":13472:13473   */\n      dup2\n        /* \"#utility.yul\":13468:13478   */\n      add\n        /* \"#utility.yul\":13463:13478   */\n      swap1\n      pop\n        /* \"#utility.yul\":13439:13552   */\n      jump(tag_329)\n    tag_331:\n        /* \"#utility.yul\":13570:13576   */\n      dup4\n        /* \"#utility.yul\":13567:13568   */\n      dup2\n        /* \"#utility.yul\":13564:13577   */\n      gt\n        /* \"#utility.yul\":13561:13563   */\n      iszero\n      tag_332\n      jumpi\n        /* \"#utility.yul\":13650:13651   */\n      0x00\n        /* \"#utility.yul\":13641:13647   */\n      dup5\n        /* \"#utility.yul\":13636:13639   */\n      dup5\n        /* \"#utility.yul\":13632:13648   */\n      add\n        /* \"#utility.yul\":13625:13652   */\n      mstore\n        /* \"#utility.yul\":13561:13563   */\n    tag_332:\n        /* \"#utility.yul\":13410:13668   */\n      pop\n      pop\n      pop\n      pop\n      jump\t// out\n        /* \"#utility.yul\":13674:13955   */\n    tag_293:\n        /* \"#utility.yul\":13757:13784   */\n      tag_334\n        /* \"#utility.yul\":13779:13783   */\n      dup3\n        /* \"#utility.yul\":13757:13784   */\n      tag_248\n      jump\t// in\n    tag_334:\n        /* \"#utility.yul\":13749:13755   */\n      dup2\n        /* \"#utility.yul\":13745:13785   */\n      add\n        /* \"#utility.yul\":13887:13893   */\n      dup2\n        /* \"#utility.yul\":13875:13885   */\n      dup2\n        /* \"#utility.yul\":13872:13894   */\n      lt\n        /* \"#utility.yul\":13851:13869   */\n      0xffffffffffffffff\n        /* \"#utility.yul\":13839:13849   */\n      dup3\n        /* \"#utility.yul\":13836:13870   */\n      gt\n        /* \"#utility.yul\":13833:13895   */\n      or\n        /* \"#utility.yul\":13830:13832   */\n      iszero\n      tag_335\n      jumpi\n        /* \"#utility.yul\":13898:13916   */\n      tag_336\n      tag_298\n      jump\t// in\n    tag_336:\n        /* \"#utility.yul\":13830:13832   */\n    tag_335:\n        /* \"#utility.yul\":13938:13948   */\n      dup1\n        /* \"#utility.yul\":13934:13936   */\n      0x40\n        /* \"#utility.yul\":13927:13949   */\n      mstore\n        /* \"#utility.yul\":13717:13955   */\n      pop\n      pop\n      pop\n      jump\t// out\n        /* \"#utility.yul\":13961:14141   */\n    tag_315:\n        /* \"#utility.yul\":14009:14086   */\n      0x4e487b7100000000000000000000000000000000000000000000000000000000\n        /* \"#utility.yul\":14006:14007   */\n      0x00\n        /* \"#utility.yul\":13999:14087   */\n      mstore\n        /* \"#utility.yul\":14106:14110   */\n      0x11\n        /* \"#utility.yul\":14103:14104   */\n      0x04\n        /* \"#utility.yul\":14096:14111   */\n      mstore\n        /* \"#utility.yul\":14130:14134   */\n      0x24\n        /* \"#utility.yul\":14127:14128   */\n      0x00\n        /* \"#utility.yul\":14120:14135   */\n      revert\n        /* \"#utility.yul\":14147:14327   */\n    tag_114:\n        /* \"#utility.yul\":14195:14272   */\n      0x4e487b7100000000000000000000000000000000000000000000000000000000\n        /* \"#utility.yul\":14192:14193   */\n      0x00\n        /* \"#utility.yul\":14185:14273   */\n      mstore\n        /* \"#utility.yul\":14292:14296   */\n      0x21\n        /* \"#utility.yul\":14289:14290   */\n      0x04\n        /* \"#utility.yul\":14282:14297   */\n      mstore\n        /* \"#utility.yul\":14316:14320   */\n      0x24\n        /* \"#utility.yul\":14313:14314   */\n      0x00\n        /* \"#utility.yul\":14306:14321   */\n      revert\n        /* \"#utility.yul\":14333:14513   */\n    tag_59:\n        /* \"#utility.yul\":14381:14458   */\n      0x4e487b7100000000000000000000000000000000000000000000000000000000\n        /* \"#utility.yul\":14378:14379   */\n      0x00\n        /* \"#utility.yul\":14371:14459   */\n      mstore\n        /* \"#utility.yul\":14478:14482   */\n      0x32\n        /* \"#utility.yul\":14475:14476   */\n      0x04\n        /* \"#utility.yul\":14468:14483   */\n      mstore\n        /* \"#utility.yul\":14502:14506   */\n      0x24\n        /* \"#utility.yul\":14499:14500   */\n      0x00\n        /* \"#utility.yul\":14492:14507   */\n      revert\n        /* \"#utility.yul\":14519:14699   */\n    tag_298:\n        /* \"#utility.yul\":14567:14644   */\n      0x4e487b7100000000000000000000000000000000000000000000000000000000\n        /* \"#utility.yul\":14564:14565   */\n      0x00\n        /* \"#utility.yul\":14557:14645   */\n      mstore\n        /* \"#utility.yul\":14664:14668   */\n      0x41\n        /* \"#utility.yul\":14661:14662   */\n      0x04\n        /* \"#utility.yul\":14654:14669   */\n      mstore\n        /* \"#utility.yul\":14688:14692   */\n      0x24\n        /* \"#utility.yul\":14685:14686   */\n      0x00\n        /* \"#utility.yul\":14678:14693   */\n      revert\n        /* \"#utility.yul\":14705:14822   */\n    tag_157:\n        /* \"#utility.yul\":14814:14815   */\n      0x00\n        /* \"#utility.yul\":14811:14812   */\n      dup1\n        /* \"#utility.yul\":14804:14816   */\n      revert\n        /* \"#utility.yul\":14828:14945   */\n    tag_151:\n        /* \"#utility.yul\":14937:14938   */\n      0x00\n        /* \"#utility.yul\":14934:14935   */\n      dup1\n        /* \"#utility.yul\":14927:14939   */\n      revert\n        /* \"#utility.yul\":14951:15068   */\n    tag_167:\n        /* \"#utility.yul\":15060:15061   */\n      0x00\n        /* \"#utility.yul\":15057:15058   */\n      dup1\n        /* \"#utility.yul\":15050:15062   */\n      revert\n        /* \"#utility.yul\":15074:15191   */\n    tag_205:\n        /* \"#utility.yul\":15183:15184   */\n      0x00\n        /* \"#utility.yul\":15180:15181   */\n      dup1\n        /* \"#utility.yul\":15173:15185   */\n      revert\n        /* \"#utility.yul\":15197:15314   */\n    tag_193:\n        /* \"#utility.yul\":15306:15307   */\n      0x00\n        /* \"#utility.yul\":15303:15304   */\n      dup1\n        /* \"#utility.yul\":15296:15308   */\n      revert\n        /* \"#utility.yul\":15320:15422   */\n    tag_248:\n        /* \"#utility.yul\":15361:15367   */\n      0x00\n        /* \"#utility.yul\":15412:15414   */\n      0x1f\n        /* \"#utility.yul\":15408:15415   */\n      not\n        /* \"#utility.yul\":15403:15405   */\n      0x1f\n        /* \"#utility.yul\":15396:15401   */\n      dup4\n        /* \"#utility.yul\":15392:15406   */\n      add\n        /* \"#utility.yul\":15388:15416   */\n      and\n        /* \"#utility.yul\":15378:15416   */\n      swap1\n      pop\n        /* \"#utility.yul\":15368:15422   */\n      swap2\n      swap1\n      pop\n      jump\t// out\n        /* \"#utility.yul\":15428:15599   */\n    tag_254:\n        /* \"#utility.yul\":15568:15591   */\n      0x5472616e7361636374696f6e2061626f727465642e0000000000000000000000\n        /* \"#utility.yul\":15564:15565   */\n      0x00\n        /* \"#utility.yul\":15556:15562   */\n      dup3\n        /* \"#utility.yul\":15552:15566   */\n      add\n        /* \"#utility.yul\":15545:15592   */\n      mstore\n        /* \"#utility.yul\":15534:15599   */\n      pop\n      jump\t// out\n        /* \"#utility.yul\":15605:15838   */\n    tag_259:\n        /* \"#utility.yul\":15745:15779   */\n      0x56616c7565206d7573742062652067726561746572207468616e20746865206d\n        /* \"#utility.yul\":15741:15742   */\n      0x00\n        /* \"#utility.yul\":15733:15739   */\n      dup3\n        /* \"#utility.yul\":15729:15743   */\n      add\n        /* \"#utility.yul\":15722:15780   */\n      mstore\n        /* \"#utility.yul\":15814:15830   */\n      0x696e696d756e20616d6f756e742e000000000000000000000000000000000000\n        /* \"#utility.yul\":15809:15811   */\n      0x20\n        /* \"#utility.yul\":15801:15807   */\n      dup3\n        /* \"#utility.yul\":15797:15812   */\n      add\n        /* \"#utility.yul\":15790:15831   */\n      mstore\n        /* \"#utility.yul\":15711:15838   */\n      pop\n      jump\t// out\n        /* \"#utility.yul\":15844:15960   */\n    tag_323:\n        /* \"#utility.yul\":15928:15929   */\n      0x05\n        /* \"#utility.yul\":15921:15926   */\n      dup2\n        /* \"#utility.yul\":15918:15930   */\n      lt\n        /* \"#utility.yul\":15908:15910   */\n      tag_350\n      jumpi\n        /* \"#utility.yul\":15934:15952   */\n      tag_351\n      tag_114\n      jump\t// in\n    tag_351:\n        /* \"#utility.yul\":15908:15910   */\n    tag_350:\n        /* \"#utility.yul\":15898:15960   */\n      pop\n      jump\t// out\n        /* \"#utility.yul\":15966:16088   */\n    tag_173:\n        /* \"#utility.yul\":16039:16063   */\n      tag_353\n        /* \"#utility.yul\":16057:16062   */\n      dup2\n        /* \"#utility.yul\":16039:16063   */\n      tag_218\n      jump\t// in\n    tag_353:\n        /* \"#utility.yul\":16032:16037   */\n      dup2\n        /* \"#utility.yul\":16029:16064   */\n      eq\n        /* \"#utility.yul\":16019:16021   */\n      tag_354\n      jumpi\n        /* \"#utility.yul\":16078:16079   */\n      0x00\n        /* \"#utility.yul\":16075:16076   */\n      dup1\n        /* \"#utility.yul\":16068:16080   */\n      revert\n        /* \"#utility.yul\":16019:16021   */\n    tag_354:\n        /* \"#utility.yul\":16009:16088   */\n      pop\n      jump\t// out\n        /* \"#utility.yul\":16094:16216   */\n    tag_186:\n        /* \"#utility.yul\":16167:16191   */\n      tag_356\n        /* \"#utility.yul\":16185:16190   */\n      dup2\n        /* \"#utility.yul\":16167:16191   */\n      tag_263\n      jump\t// in\n    tag_356:\n        /* \"#utility.yul\":16160:16165   */\n      dup2\n        /* \"#utility.yul\":16157:16192   */\n      eq\n        /* \"#utility.yul\":16147:16149   */\n      tag_357\n      jumpi\n        /* \"#utility.yul\":16206:16207   */\n      0x00\n        /* \"#utility.yul\":16203:16204   */\n      dup1\n        /* \"#utility.yul\":16196:16208   */\n      revert\n        /* \"#utility.yul\":16147:16149   */\n    tag_357:\n        /* \"#utility.yul\":16137:16216   */\n      pop\n      jump\t// out\n\n    auxdata: 0xa2646970667358221220f08b35bc3c8198d6aea554185797e25a071d092b68dac20a7137b0c92aa0ac9964736f6c63430008060033\n}\n",
				"bytecode": {
					"linkReferences": {},
					"object": "60806040523480156200001157600080fd5b50604051620015513803806200155183398181016040528101906200003791906200019a565b33600160006101000a81548173ffffffffffffffffffffffffffffffffffffffff021916908373ffffffffffffffffffffffffffffffffffffffff1602179055506040518060a00160405280600060ff168152602001600a60ff168152602001601460ff168152602001601e60ff168152602001602860ff168152506004906005620000c59291906200010d565b50806000806101000a81548173ffffffffffffffffffffffffffffffffffffffff021916908373ffffffffffffffffffffffffffffffffffffffff160217905550506200021f565b82805482825590600052602060002090810192821562000151579160200282015b8281111562000150578251829060ff169055916020019190600101906200012e565b5b50905062000160919062000164565b5090565b5b808211156200017f57600081600090555060010162000165565b5090565b600081519050620001948162000205565b92915050565b600060208284031215620001b357620001b262000200565b5b6000620001c38482850162000183565b91505092915050565b6000620001d982620001e0565b9050919050565b600073ffffffffffffffffffffffffffffffffffffffff82169050919050565b600080fd5b6200021081620001cc565b81146200021c57600080fd5b50565b611322806200022f6000396000f3fe6080604052600436106100705760003560e01c80634b82c4b11161004e5780634b82c4b11461010b578063991d394214610148578063da31d64014610187578063f0b1004d146101b057610070565b80630bbc735a146100755780631a39d8ef146100a05780631b4e7bd2146100cb575b600080fd5b34801561008157600080fd5b5061008a6101ba565b6040516100979190610e57565b60405180910390f35b3480156100ac57600080fd5b506100b561026a565b6040516100c29190610f0b565b60405180910390f35b3480156100d757600080fd5b506100f260048036038101906100ed9190610bc2565b610270565b6040516101029493929190610e12565b60405180910390f35b34801561011757600080fd5b50610132600480360381019061012d9190610bef565b6102cd565b60405161013f9190610eb0565b60405180910390f35b34801561015457600080fd5b5061016f600480360381019061016a9190610bc2565b61049a565b60405161017e93929190610e79565b60405180910390f35b34801561019357600080fd5b506101ae60048036038101906101a99190610bc2565b610594565b005b6101b86105d7565b005b6101c2610a3c565b60008054906101000a900473ffffffffffffffffffffffffffffffffffffffff1673ffffffffffffffffffffffffffffffffffffffff16630bbc735a6040518163ffffffff1660e01b815260040160006040518083038186803b15801561022857600080fd5b505afa15801561023c573d6000803e3d6000fd5b505050506040513d6000823e3d601f19601f820116820180604052508101906102659190610c2f565b905090565b60025481565b60036020528060005260406000206000915090508060000160009054906101000a900473ffffffffffffffffffffffffffffffffffffffff16908060010154908060020154908060030160009054906101000a900460ff16905084565b60008082600360008673ffffffffffffffffffffffffffffffffffffffff1673ffffffffffffffffffffffffffffffffffffffff1681526020019081526020016000206001015461031e9190611025565b90506004600081548110610335576103346111aa565b5b9060005260206000200154811015801561036d5750600460018154811061035f5761035e6111aa565b5b906000526020600020015481105b1561037b5760009150610493565b60046001815481106103905761038f6111aa565b5b906000526020600020015481101580156103c8575060046002815481106103ba576103b96111aa565b5b906000526020600020015481105b156103d65760019150610492565b60046002815481106103eb576103ea6111aa565b5b9060005260206000200154811015801561042357506004600381548110610415576104146111aa565b5b906000526020600020015481105b156104315760029150610491565b6004600381548110610446576104456111aa565b5b9060005260206000200154811015801561047d57506004808154811061046f5761046e6111aa565b5b906000526020600020015481105b1561048b5760039150610490565b600491505b5b5b5b5092915050565b600080600080600360008673ffffffffffffffffffffffffffffffffffffffff1673ffffffffffffffffffffffffffffffffffffffff16815260200190815260200160002060020154146105885760009250600360008573ffffffffffffffffffffffffffffffffffffffff1673ffffffffffffffffffffffffffffffffffffffff168152602001908152602001600020600201549150600360008573ffffffffffffffffffffffffffffffffffffffff1673ffffffffffffffffffffffffffffffffffffffff16815260200190815260200160002060030160009054906101000a900460ff16905061058d565b600192505b9193909250565b806000806101000a81548173ffffffffffffffffffffffffffffffffffffffff021916908373ffffffffffffffffffffffffffffffffffffffff16021790555050565b60046000815481106105ec576105eb6111aa565b5b90600052602060002001543411610638576040517f08c379a000000000000000000000000000000000000000000000000000000000815260040161062f90610eeb565b60405180910390fd5b6000339050600080600061064b8461049a565b925092509250600061065d85346102cd565b9050600160009054906101000a900473ffffffffffffffffffffffffffffffffffffffff1673ffffffffffffffffffffffffffffffffffffffff166108fc349081150290604051600060405180830381858888f193505050506106f5576040517f08c379a00000000000000000000000000000000000000000000000000000000081526004016106ec90610ecb565b60405180910390fd5b34600360008773ffffffffffffffffffffffffffffffffffffffff1673ffffffffffffffffffffffffffffffffffffffff16815260200190815260200160002060010160008282546107479190611025565b9250508190555080600360008773ffffffffffffffffffffffffffffffffffffffff1673ffffffffffffffffffffffffffffffffffffffff16815260200190815260200160002060030160006101000a81548160ff021916908360048111156107b3576107b261117b565b5b021790555034600260008282546107ca9190611025565b9250508190555083156108b45760006107e48660046108f3565b905085600360008873ffffffffffffffffffffffffffffffffffffffff1673ffffffffffffffffffffffffffffffffffffffff16815260200190815260200160002060000160006101000a81548173ffffffffffffffffffffffffffffffffffffffff021916908373ffffffffffffffffffffffffffffffffffffffff16021790555080600360008873ffffffffffffffffffffffffffffffffffffffff1673ffffffffffffffffffffffffffffffffffffffff16815260200190815260200160002060020181905550506108ec565b8060048111156108c7576108c661117b565b5b8260048111156108da576108d961117b565b5b146108eb576108ea8360036109ab565b5b5b5050505050565b60008060009054906101000a900473ffffffffffffffffffffffffffffffffffffffff1673ffffffffffffffffffffffffffffffffffffffff1663a144819484846040518363ffffffff1660e01b8152600401610951929190610de9565b602060405180830381600087803b15801561096b57600080fd5b505af115801561097f573d6000803e3d6000fd5b505050506040513d601f19601f820116820180604052508101906109a39190610c78565b905092915050565b60008054906101000a900473ffffffffffffffffffffffffffffffffffffffff1673ffffffffffffffffffffffffffffffffffffffff1663cd057e8883836040518363ffffffff1660e01b8152600401610a06929190610f26565b600060405180830381600087803b158015610a2057600080fd5b505af1158015610a34573d6000803e3d6000fd5b505050505050565b6040518060a001604052806005905b6060815260200190600190039081610a4b5790505090565b6000610a76610a7184610f74565b610f4f565b90508082856020860282011115610a9057610a8f61120d565b5b60005b85811015610ade57815167ffffffffffffffff811115610ab657610ab5611208565b5b808601610ac38982610b6a565b85526020850194506020840193505050600181019050610a93565b5050509392505050565b6000610afb610af684610f9a565b610f4f565b905082815260208101848484011115610b1757610b16611212565b5b610b228482856110e8565b509392505050565b600081359050610b39816112be565b92915050565b600082601f830112610b5457610b53611208565b5b6005610b61848285610a63565b91505092915050565b600082601f830112610b7f57610b7e611208565b5b8151610b8f848260208601610ae8565b91505092915050565b600081359050610ba7816112d5565b92915050565b600081519050610bbc816112d5565b92915050565b600060208284031215610bd857610bd761121c565b5b6000610be684828501610b2a565b91505092915050565b60008060408385031215610c0657610c0561121c565b5b6000610c1485828601610b2a565b9250506020610c2585828601610b98565b9150509250929050565b600060208284031215610c4557610c4461121c565b5b600082015167ffffffffffffffff811115610c6357610c62611217565b5b610c6f84828501610b3f565b91505092915050565b600060208284031215610c8e57610c8d61121c565b5b6000610c9c84828501610bad565b91505092915050565b6000610cb18383610d5b565b905092915050565b610cc28161107b565b82525050565b6000610cd382610fd5565b610cdd8185610ff8565b935083602082028501610cef85610fcb565b8060005b85811015610d2b5784840389528151610d0c8582610ca5565b9450610d1783610feb565b925060208a01995050600181019050610cf3565b50829750879550505050505092915050565b610d468161108d565b82525050565b610d55816110d6565b82525050565b6000610d6682610fe0565b610d708185611003565b9350610d808185602086016110e8565b610d8981611221565b840191505092915050565b6000610da1601583611014565b9150610dac82611232565b602082019050919050565b6000610dc4602e83611014565b9150610dcf8261125b565b604082019050919050565b610de3816110cc565b82525050565b6000604082019050610dfe6000830185610cb9565b610e0b6020830184610dda565b9392505050565b6000608082019050610e276000830187610cb9565b610e346020830186610dda565b610e416040830185610dda565b610e4e6060830184610d4c565b95945050505050565b60006020820190508181036000830152610e718184610cc8565b905092915050565b6000606082019050610e8e6000830186610d3d565b610e9b6020830185610dda565b610ea86040830184610d4c565b949350505050565b6000602082019050610ec56000830184610d4c565b92915050565b60006020820190508181036000830152610ee481610d94565b9050919050565b60006020820190508181036000830152610f0481610db7565b9050919050565b6000602082019050610f206000830184610dda565b92915050565b6000604082019050610f3b6000830185610dda565b610f486020830184610dda565b9392505050565b6000610f59610f6a565b9050610f65828261111b565b919050565b6000604051905090565b600067ffffffffffffffff821115610f8f57610f8e6111d9565b5b602082029050919050565b600067ffffffffffffffff821115610fb557610fb46111d9565b5b610fbe82611221565b9050602081019050919050565b6000819050919050565b600060059050919050565b600081519050919050565b6000602082019050919050565b600081905092915050565b600082825260208201905092915050565b600082825260208201905092915050565b6000611030826110cc565b915061103b836110cc565b9250827fffffffffffffffffffffffffffffffffffffffffffffffffffffffffffffffff038211156110705761106f61114c565b5b828201905092915050565b6000611086826110ac565b9050919050565b60008115159050919050565b60008190506110a7826112aa565b919050565b600073ffffffffffffffffffffffffffffffffffffffff82169050919050565b6000819050919050565b60006110e182611099565b9050919050565b60005b838110156111065780820151818401526020810190506110eb565b83811115611115576000848401525b50505050565b61112482611221565b810181811067ffffffffffffffff82111715611143576111426111d9565b5b80604052505050565b7f4e487b7100000000000000000000000000000000000000000000000000000000600052601160045260246000fd5b7f4e487b7100000000000000000000000000000000000000000000000000000000600052602160045260246000fd5b7f4e487b7100000000000000000000000000000000000000000000000000000000600052603260045260246000fd5b7f4e487b7100000000000000000000000000000000000000000000000000000000600052604160045260246000fd5b600080fd5b600080fd5b600080fd5b600080fd5b600080fd5b6000601f19601f8301169050919050565b7f5472616e7361636374696f6e2061626f727465642e0000000000000000000000600082015250565b7f56616c7565206d7573742062652067726561746572207468616e20746865206d60008201527f696e696d756e20616d6f756e742e000000000000000000000000000000000000602082015250565b600581106112bb576112ba61117b565b5b50565b6112c78161107b565b81146112d257600080fd5b50565b6112de816110cc565b81146112e957600080fd5b5056fea2646970667358221220f08b35bc3c8198d6aea554185797e25a071d092b68dac20a7137b0c92aa0ac9964736f6c63430008060033",
					"opcodes": "PUSH1 0x80 PUSH1 0x40 MSTORE CALLVALUE DUP1 ISZERO PUSH3 0x11 JUMPI PUSH1 0x0 DUP1 REVERT JUMPDEST POP PUSH1 0x40 MLOAD PUSH3 0x1551 CODESIZE SUB DUP1 PUSH3 0x1551 DUP4 CODECOPY DUP2 DUP2 ADD PUSH1 0x40 MSTORE DUP2 ADD SWAP1 PUSH3 0x37 SWAP2 SWAP1 PUSH3 0x19A JUMP JUMPDEST CALLER PUSH1 0x1 PUSH1 0x0 PUSH2 0x100 EXP DUP2 SLOAD DUP2 PUSH20 0xFFFFFFFFFFFFFFFFFFFFFFFFFFFFFFFFFFFFFFFF MUL NOT AND SWAP1 DUP4 PUSH20 0xFFFFFFFFFFFFFFFFFFFFFFFFFFFFFFFFFFFFFFFF AND MUL OR SWAP1 SSTORE POP PUSH1 0x40 MLOAD DUP1 PUSH1 0xA0 ADD PUSH1 0x40 MSTORE DUP1 PUSH1 0x0 PUSH1 0xFF AND DUP2 MSTORE PUSH1 0x20 ADD PUSH1 0xA PUSH1 0xFF AND DUP2 MSTORE PUSH1 0x20 ADD PUSH1 0x14 PUSH1 0xFF AND DUP2 MSTORE PUSH1 0x20 ADD PUSH1 0x1E PUSH1 0xFF AND DUP2 MSTORE PUSH1 0x20 ADD PUSH1 0x28 PUSH1 0xFF AND DUP2 MSTORE POP PUSH1 0x4 SWAP1 PUSH1 0x5 PUSH3 0xC5 SWAP3 SWAP2 SWAP1 PUSH3 0x10D JUMP JUMPDEST POP DUP1 PUSH1 0x0 DUP1 PUSH2 0x100 EXP DUP2 SLOAD DUP2 PUSH20 0xFFFFFFFFFFFFFFFFFFFFFFFFFFFFFFFFFFFFFFFF MUL NOT AND SWAP1 DUP4 PUSH20 0xFFFFFFFFFFFFFFFFFFFFFFFFFFFFFFFFFFFFFFFF AND MUL OR SWAP1 SSTORE POP POP PUSH3 0x21F JUMP JUMPDEST DUP3 DUP1 SLOAD DUP3 DUP3 SSTORE SWAP1 PUSH1 0x0 MSTORE PUSH1 0x20 PUSH1 0x0 KECCAK256 SWAP1 DUP2 ADD SWAP3 DUP3 ISZERO PUSH3 0x151 JUMPI SWAP2 PUSH1 0x20 MUL DUP3 ADD JUMPDEST DUP3 DUP2 GT ISZERO PUSH3 0x150 JUMPI DUP3 MLOAD DUP3 SWAP1 PUSH1 0xFF AND SWAP1 SSTORE SWAP2 PUSH1 0x20 ADD SWAP2 SWAP1 PUSH1 0x1 ADD SWAP1 PUSH3 0x12E JUMP JUMPDEST JUMPDEST POP SWAP1 POP PUSH3 0x160 SWAP2 SWAP1 PUSH3 0x164 JUMP JUMPDEST POP SWAP1 JUMP JUMPDEST JUMPDEST DUP1 DUP3 GT ISZERO PUSH3 0x17F JUMPI PUSH1 0x0 DUP2 PUSH1 0x0 SWAP1 SSTORE POP PUSH1 0x1 ADD PUSH3 0x165 JUMP JUMPDEST POP SWAP1 JUMP JUMPDEST PUSH1 0x0 DUP2 MLOAD SWAP1 POP PUSH3 0x194 DUP2 PUSH3 0x205 JUMP JUMPDEST SWAP3 SWAP2 POP POP JUMP JUMPDEST PUSH1 0x0 PUSH1 0x20 DUP3 DUP5 SUB SLT ISZERO PUSH3 0x1B3 JUMPI PUSH3 0x1B2 PUSH3 0x200 JUMP JUMPDEST JUMPDEST PUSH1 0x0 PUSH3 0x1C3 DUP5 DUP3 DUP6 ADD PUSH3 0x183 JUMP JUMPDEST SWAP2 POP POP SWAP3 SWAP2 POP POP JUMP JUMPDEST PUSH1 0x0 PUSH3 0x1D9 DUP3 PUSH3 0x1E0 JUMP JUMPDEST SWAP1 POP SWAP2 SWAP1 POP JUMP JUMPDEST PUSH1 0x0 PUSH20 0xFFFFFFFFFFFFFFFFFFFFFFFFFFFFFFFFFFFFFFFF DUP3 AND SWAP1 POP SWAP2 SWAP1 POP JUMP JUMPDEST PUSH1 0x0 DUP1 REVERT JUMPDEST PUSH3 0x210 DUP2 PUSH3 0x1CC JUMP JUMPDEST DUP2 EQ PUSH3 0x21C JUMPI PUSH1 0x0 DUP1 REVERT JUMPDEST POP JUMP JUMPDEST PUSH2 0x1322 DUP1 PUSH3 0x22F PUSH1 0x0 CODECOPY PUSH1 0x0 RETURN INVALID PUSH1 0x80 PUSH1 0x40 MSTORE PUSH1 0x4 CALLDATASIZE LT PUSH2 0x70 JUMPI PUSH1 0x0 CALLDATALOAD PUSH1 0xE0 SHR DUP1 PUSH4 0x4B82C4B1 GT PUSH2 0x4E JUMPI DUP1 PUSH4 0x4B82C4B1 EQ PUSH2 0x10B JUMPI DUP1 PUSH4 0x991D3942 EQ PUSH2 0x148 JUMPI DUP1 PUSH4 0xDA31D640 EQ PUSH2 0x187 JUMPI DUP1 PUSH4 0xF0B1004D EQ PUSH2 0x1B0 JUMPI PUSH2 0x70 JUMP JUMPDEST DUP1 PUSH4 0xBBC735A EQ PUSH2 0x75 JUMPI DUP1 PUSH4 0x1A39D8EF EQ PUSH2 0xA0 JUMPI DUP1 PUSH4 0x1B4E7BD2 EQ PUSH2 0xCB JUMPI JUMPDEST PUSH1 0x0 DUP1 REVERT JUMPDEST CALLVALUE DUP1 ISZERO PUSH2 0x81 JUMPI PUSH1 0x0 DUP1 REVERT JUMPDEST POP PUSH2 0x8A PUSH2 0x1BA JUMP JUMPDEST PUSH1 0x40 MLOAD PUSH2 0x97 SWAP2 SWAP1 PUSH2 0xE57 JUMP JUMPDEST PUSH1 0x40 MLOAD DUP1 SWAP2 SUB SWAP1 RETURN JUMPDEST CALLVALUE DUP1 ISZERO PUSH2 0xAC JUMPI PUSH1 0x0 DUP1 REVERT JUMPDEST POP PUSH2 0xB5 PUSH2 0x26A JUMP JUMPDEST PUSH1 0x40 MLOAD PUSH2 0xC2 SWAP2 SWAP1 PUSH2 0xF0B JUMP JUMPDEST PUSH1 0x40 MLOAD DUP1 SWAP2 SUB SWAP1 RETURN JUMPDEST CALLVALUE DUP1 ISZERO PUSH2 0xD7 JUMPI PUSH1 0x0 DUP1 REVERT JUMPDEST POP PUSH2 0xF2 PUSH1 0x4 DUP1 CALLDATASIZE SUB DUP2 ADD SWAP1 PUSH2 0xED SWAP2 SWAP1 PUSH2 0xBC2 JUMP JUMPDEST PUSH2 0x270 JUMP JUMPDEST PUSH1 0x40 MLOAD PUSH2 0x102 SWAP5 SWAP4 SWAP3 SWAP2 SWAP1 PUSH2 0xE12 JUMP JUMPDEST PUSH1 0x40 MLOAD DUP1 SWAP2 SUB SWAP1 RETURN JUMPDEST CALLVALUE DUP1 ISZERO PUSH2 0x117 JUMPI PUSH1 0x0 DUP1 REVERT JUMPDEST POP PUSH2 0x132 PUSH1 0x4 DUP1 CALLDATASIZE SUB DUP2 ADD SWAP1 PUSH2 0x12D SWAP2 SWAP1 PUSH2 0xBEF JUMP JUMPDEST PUSH2 0x2CD JUMP JUMPDEST PUSH1 0x40 MLOAD PUSH2 0x13F SWAP2 SWAP1 PUSH2 0xEB0 JUMP JUMPDEST PUSH1 0x40 MLOAD DUP1 SWAP2 SUB SWAP1 RETURN JUMPDEST CALLVALUE DUP1 ISZERO PUSH2 0x154 JUMPI PUSH1 0x0 DUP1 REVERT JUMPDEST POP PUSH2 0x16F PUSH1 0x4 DUP1 CALLDATASIZE SUB DUP2 ADD SWAP1 PUSH2 0x16A SWAP2 SWAP1 PUSH2 0xBC2 JUMP JUMPDEST PUSH2 0x49A JUMP JUMPDEST PUSH1 0x40 MLOAD PUSH2 0x17E SWAP4 SWAP3 SWAP2 SWAP1 PUSH2 0xE79 JUMP JUMPDEST PUSH1 0x40 MLOAD DUP1 SWAP2 SUB SWAP1 RETURN JUMPDEST CALLVALUE DUP1 ISZERO PUSH2 0x193 JUMPI PUSH1 0x0 DUP1 REVERT JUMPDEST POP PUSH2 0x1AE PUSH1 0x4 DUP1 CALLDATASIZE SUB DUP2 ADD SWAP1 PUSH2 0x1A9 SWAP2 SWAP1 PUSH2 0xBC2 JUMP JUMPDEST PUSH2 0x594 JUMP JUMPDEST STOP JUMPDEST PUSH2 0x1B8 PUSH2 0x5D7 JUMP JUMPDEST STOP JUMPDEST PUSH2 0x1C2 PUSH2 0xA3C JUMP JUMPDEST PUSH1 0x0 DUP1 SLOAD SWAP1 PUSH2 0x100 EXP SWAP1 DIV PUSH20 0xFFFFFFFFFFFFFFFFFFFFFFFFFFFFFFFFFFFFFFFF AND PUSH20 0xFFFFFFFFFFFFFFFFFFFFFFFFFFFFFFFFFFFFFFFF AND PUSH4 0xBBC735A PUSH1 0x40 MLOAD DUP2 PUSH4 0xFFFFFFFF AND PUSH1 0xE0 SHL DUP2 MSTORE PUSH1 0x4 ADD PUSH1 0x0 PUSH1 0x40 MLOAD DUP1 DUP4 SUB DUP2 DUP7 DUP1 EXTCODESIZE ISZERO DUP1 ISZERO PUSH2 0x228 JUMPI PUSH1 0x0 DUP1 REVERT JUMPDEST POP GAS STATICCALL ISZERO DUP1 ISZERO PUSH2 0x23C JUMPI RETURNDATASIZE PUSH1 0x0 DUP1 RETURNDATACOPY RETURNDATASIZE PUSH1 0x0 REVERT JUMPDEST POP POP POP POP PUSH1 0x40 MLOAD RETURNDATASIZE PUSH1 0x0 DUP3 RETURNDATACOPY RETURNDATASIZE PUSH1 0x1F NOT PUSH1 0x1F DUP3 ADD AND DUP3 ADD DUP1 PUSH1 0x40 MSTORE POP DUP2 ADD SWAP1 PUSH2 0x265 SWAP2 SWAP1 PUSH2 0xC2F JUMP JUMPDEST SWAP1 POP SWAP1 JUMP JUMPDEST PUSH1 0x2 SLOAD DUP2 JUMP JUMPDEST PUSH1 0x3 PUSH1 0x20 MSTORE DUP1 PUSH1 0x0 MSTORE PUSH1 0x40 PUSH1 0x0 KECCAK256 PUSH1 0x0 SWAP2 POP SWAP1 POP DUP1 PUSH1 0x0 ADD PUSH1 0x0 SWAP1 SLOAD SWAP1 PUSH2 0x100 EXP SWAP1 DIV PUSH20 0xFFFFFFFFFFFFFFFFFFFFFFFFFFFFFFFFFFFFFFFF AND SWAP1 DUP1 PUSH1 0x1 ADD SLOAD SWAP1 DUP1 PUSH1 0x2 ADD SLOAD SWAP1 DUP1 PUSH1 0x3 ADD PUSH1 0x0 SWAP1 SLOAD SWAP1 PUSH2 0x100 EXP SWAP1 DIV PUSH1 0xFF AND SWAP1 POP DUP5 JUMP JUMPDEST PUSH1 0x0 DUP1 DUP3 PUSH1 0x3 PUSH1 0x0 DUP7 PUSH20 0xFFFFFFFFFFFFFFFFFFFFFFFFFFFFFFFFFFFFFFFF AND PUSH20 0xFFFFFFFFFFFFFFFFFFFFFFFFFFFFFFFFFFFFFFFF AND DUP2 MSTORE PUSH1 0x20 ADD SWAP1 DUP2 MSTORE PUSH1 0x20 ADD PUSH1 0x0 KECCAK256 PUSH1 0x1 ADD SLOAD PUSH2 0x31E SWAP2 SWAP1 PUSH2 0x1025 JUMP JUMPDEST SWAP1 POP PUSH1 0x4 PUSH1 0x0 DUP2 SLOAD DUP2 LT PUSH2 0x335 JUMPI PUSH2 0x334 PUSH2 0x11AA JUMP JUMPDEST JUMPDEST SWAP1 PUSH1 0x0 MSTORE PUSH1 0x20 PUSH1 0x0 KECCAK256 ADD SLOAD DUP2 LT ISZERO DUP1 ISZERO PUSH2 0x36D JUMPI POP PUSH1 0x4 PUSH1 0x1 DUP2 SLOAD DUP2 LT PUSH2 0x35F JUMPI PUSH2 0x35E PUSH2 0x11AA JUMP JUMPDEST JUMPDEST SWAP1 PUSH1 0x0 MSTORE PUSH1 0x20 PUSH1 0x0 KECCAK256 ADD SLOAD DUP2 LT JUMPDEST ISZERO PUSH2 0x37B JUMPI PUSH1 0x0 SWAP2 POP PUSH2 0x493 JUMP JUMPDEST PUSH1 0x4 PUSH1 0x1 DUP2 SLOAD DUP2 LT PUSH2 0x390 JUMPI PUSH2 0x38F PUSH2 0x11AA JUMP JUMPDEST JUMPDEST SWAP1 PUSH1 0x0 MSTORE PUSH1 0x20 PUSH1 0x0 KECCAK256 ADD SLOAD DUP2 LT ISZERO DUP1 ISZERO PUSH2 0x3C8 JUMPI POP PUSH1 0x4 PUSH1 0x2 DUP2 SLOAD DUP2 LT PUSH2 0x3BA JUMPI PUSH2 0x3B9 PUSH2 0x11AA JUMP JUMPDEST JUMPDEST SWAP1 PUSH1 0x0 MSTORE PUSH1 0x20 PUSH1 0x0 KECCAK256 ADD SLOAD DUP2 LT JUMPDEST ISZERO PUSH2 0x3D6 JUMPI PUSH1 0x1 SWAP2 POP PUSH2 0x492 JUMP JUMPDEST PUSH1 0x4 PUSH1 0x2 DUP2 SLOAD DUP2 LT PUSH2 0x3EB JUMPI PUSH2 0x3EA PUSH2 0x11AA JUMP JUMPDEST JUMPDEST SWAP1 PUSH1 0x0 MSTORE PUSH1 0x20 PUSH1 0x0 KECCAK256 ADD SLOAD DUP2 LT ISZERO DUP1 ISZERO PUSH2 0x423 JUMPI POP PUSH1 0x4 PUSH1 0x3 DUP2 SLOAD DUP2 LT PUSH2 0x415 JUMPI PUSH2 0x414 PUSH2 0x11AA JUMP JUMPDEST JUMPDEST SWAP1 PUSH1 0x0 MSTORE PUSH1 0x20 PUSH1 0x0 KECCAK256 ADD SLOAD DUP2 LT JUMPDEST ISZERO PUSH2 0x431 JUMPI PUSH1 0x2 SWAP2 POP PUSH2 0x491 JUMP JUMPDEST PUSH1 0x4 PUSH1 0x3 DUP2 SLOAD DUP2 LT PUSH2 0x446 JUMPI PUSH2 0x445 PUSH2 0x11AA JUMP JUMPDEST JUMPDEST SWAP1 PUSH1 0x0 MSTORE PUSH1 0x20 PUSH1 0x0 KECCAK256 ADD SLOAD DUP2 LT ISZERO DUP1 ISZERO PUSH2 0x47D JUMPI POP PUSH1 0x4 DUP1 DUP2 SLOAD DUP2 LT PUSH2 0x46F JUMPI PUSH2 0x46E PUSH2 0x11AA JUMP JUMPDEST JUMPDEST SWAP1 PUSH1 0x0 MSTORE PUSH1 0x20 PUSH1 0x0 KECCAK256 ADD SLOAD DUP2 LT JUMPDEST ISZERO PUSH2 0x48B JUMPI PUSH1 0x3 SWAP2 POP PUSH2 0x490 JUMP JUMPDEST PUSH1 0x4 SWAP2 POP JUMPDEST JUMPDEST JUMPDEST JUMPDEST POP SWAP3 SWAP2 POP POP JUMP JUMPDEST PUSH1 0x0 DUP1 PUSH1 0x0 DUP1 PUSH1 0x3 PUSH1 0x0 DUP7 PUSH20 0xFFFFFFFFFFFFFFFFFFFFFFFFFFFFFFFFFFFFFFFF AND PUSH20 0xFFFFFFFFFFFFFFFFFFFFFFFFFFFFFFFFFFFFFFFF AND DUP2 MSTORE PUSH1 0x20 ADD SWAP1 DUP2 MSTORE PUSH1 0x20 ADD PUSH1 0x0 KECCAK256 PUSH1 0x2 ADD SLOAD EQ PUSH2 0x588 JUMPI PUSH1 0x0 SWAP3 POP PUSH1 0x3 PUSH1 0x0 DUP6 PUSH20 0xFFFFFFFFFFFFFFFFFFFFFFFFFFFFFFFFFFFFFFFF AND PUSH20 0xFFFFFFFFFFFFFFFFFFFFFFFFFFFFFFFFFFFFFFFF AND DUP2 MSTORE PUSH1 0x20 ADD SWAP1 DUP2 MSTORE PUSH1 0x20 ADD PUSH1 0x0 KECCAK256 PUSH1 0x2 ADD SLOAD SWAP2 POP PUSH1 0x3 PUSH1 0x0 DUP6 PUSH20 0xFFFFFFFFFFFFFFFFFFFFFFFFFFFFFFFFFFFFFFFF AND PUSH20 0xFFFFFFFFFFFFFFFFFFFFFFFFFFFFFFFFFFFFFFFF AND DUP2 MSTORE PUSH1 0x20 ADD SWAP1 DUP2 MSTORE PUSH1 0x20 ADD PUSH1 0x0 KECCAK256 PUSH1 0x3 ADD PUSH1 0x0 SWAP1 SLOAD SWAP1 PUSH2 0x100 EXP SWAP1 DIV PUSH1 0xFF AND SWAP1 POP PUSH2 0x58D JUMP JUMPDEST PUSH1 0x1 SWAP3 POP JUMPDEST SWAP2 SWAP4 SWAP1 SWAP3 POP JUMP JUMPDEST DUP1 PUSH1 0x0 DUP1 PUSH2 0x100 EXP DUP2 SLOAD DUP2 PUSH20 0xFFFFFFFFFFFFFFFFFFFFFFFFFFFFFFFFFFFFFFFF MUL NOT AND SWAP1 DUP4 PUSH20 0xFFFFFFFFFFFFFFFFFFFFFFFFFFFFFFFFFFFFFFFF AND MUL OR SWAP1 SSTORE POP POP JUMP JUMPDEST PUSH1 0x4 PUSH1 0x0 DUP2 SLOAD DUP2 LT PUSH2 0x5EC JUMPI PUSH2 0x5EB PUSH2 0x11AA JUMP JUMPDEST JUMPDEST SWAP1 PUSH1 0x0 MSTORE PUSH1 0x20 PUSH1 0x0 KECCAK256 ADD SLOAD CALLVALUE GT PUSH2 0x638 JUMPI PUSH1 0x40 MLOAD PUSH32 0x8C379A000000000000000000000000000000000000000000000000000000000 DUP2 MSTORE PUSH1 0x4 ADD PUSH2 0x62F SWAP1 PUSH2 0xEEB JUMP JUMPDEST PUSH1 0x40 MLOAD DUP1 SWAP2 SUB SWAP1 REVERT JUMPDEST PUSH1 0x0 CALLER SWAP1 POP PUSH1 0x0 DUP1 PUSH1 0x0 PUSH2 0x64B DUP5 PUSH2 0x49A JUMP JUMPDEST SWAP3 POP SWAP3 POP SWAP3 POP PUSH1 0x0 PUSH2 0x65D DUP6 CALLVALUE PUSH2 0x2CD JUMP JUMPDEST SWAP1 POP PUSH1 0x1 PUSH1 0x0 SWAP1 SLOAD SWAP1 PUSH2 0x100 EXP SWAP1 DIV PUSH20 0xFFFFFFFFFFFFFFFFFFFFFFFFFFFFFFFFFFFFFFFF AND PUSH20 0xFFFFFFFFFFFFFFFFFFFFFFFFFFFFFFFFFFFFFFFF AND PUSH2 0x8FC CALLVALUE SWAP1 DUP2 ISZERO MUL SWAP1 PUSH1 0x40 MLOAD PUSH1 0x0 PUSH1 0x40 MLOAD DUP1 DUP4 SUB DUP2 DUP6 DUP9 DUP9 CALL SWAP4 POP POP POP POP PUSH2 0x6F5 JUMPI PUSH1 0x40 MLOAD PUSH32 0x8C379A000000000000000000000000000000000000000000000000000000000 DUP2 MSTORE PUSH1 0x4 ADD PUSH2 0x6EC SWAP1 PUSH2 0xECB JUMP JUMPDEST PUSH1 0x40 MLOAD DUP1 SWAP2 SUB SWAP1 REVERT JUMPDEST CALLVALUE PUSH1 0x3 PUSH1 0x0 DUP8 PUSH20 0xFFFFFFFFFFFFFFFFFFFFFFFFFFFFFFFFFFFFFFFF AND PUSH20 0xFFFFFFFFFFFFFFFFFFFFFFFFFFFFFFFFFFFFFFFF AND DUP2 MSTORE PUSH1 0x20 ADD SWAP1 DUP2 MSTORE PUSH1 0x20 ADD PUSH1 0x0 KECCAK256 PUSH1 0x1 ADD PUSH1 0x0 DUP3 DUP3 SLOAD PUSH2 0x747 SWAP2 SWAP1 PUSH2 0x1025 JUMP JUMPDEST SWAP3 POP POP DUP2 SWAP1 SSTORE POP DUP1 PUSH1 0x3 PUSH1 0x0 DUP8 PUSH20 0xFFFFFFFFFFFFFFFFFFFFFFFFFFFFFFFFFFFFFFFF AND PUSH20 0xFFFFFFFFFFFFFFFFFFFFFFFFFFFFFFFFFFFFFFFF AND DUP2 MSTORE PUSH1 0x20 ADD SWAP1 DUP2 MSTORE PUSH1 0x20 ADD PUSH1 0x0 KECCAK256 PUSH1 0x3 ADD PUSH1 0x0 PUSH2 0x100 EXP DUP2 SLOAD DUP2 PUSH1 0xFF MUL NOT AND SWAP1 DUP4 PUSH1 0x4 DUP2 GT ISZERO PUSH2 0x7B3 JUMPI PUSH2 0x7B2 PUSH2 0x117B JUMP JUMPDEST JUMPDEST MUL OR SWAP1 SSTORE POP CALLVALUE PUSH1 0x2 PUSH1 0x0 DUP3 DUP3 SLOAD PUSH2 0x7CA SWAP2 SWAP1 PUSH2 0x1025 JUMP JUMPDEST SWAP3 POP POP DUP2 SWAP1 SSTORE POP DUP4 ISZERO PUSH2 0x8B4 JUMPI PUSH1 0x0 PUSH2 0x7E4 DUP7 PUSH1 0x4 PUSH2 0x8F3 JUMP JUMPDEST SWAP1 POP DUP6 PUSH1 0x3 PUSH1 0x0 DUP9 PUSH20 0xFFFFFFFFFFFFFFFFFFFFFFFFFFFFFFFFFFFFFFFF AND PUSH20 0xFFFFFFFFFFFFFFFFFFFFFFFFFFFFFFFFFFFFFFFF AND DUP2 MSTORE PUSH1 0x20 ADD SWAP1 DUP2 MSTORE PUSH1 0x20 ADD PUSH1 0x0 KECCAK256 PUSH1 0x0 ADD PUSH1 0x0 PUSH2 0x100 EXP DUP2 SLOAD DUP2 PUSH20 0xFFFFFFFFFFFFFFFFFFFFFFFFFFFFFFFFFFFFFFFF MUL NOT AND SWAP1 DUP4 PUSH20 0xFFFFFFFFFFFFFFFFFFFFFFFFFFFFFFFFFFFFFFFF AND MUL OR SWAP1 SSTORE POP DUP1 PUSH1 0x3 PUSH1 0x0 DUP9 PUSH20 0xFFFFFFFFFFFFFFFFFFFFFFFFFFFFFFFFFFFFFFFF AND PUSH20 0xFFFFFFFFFFFFFFFFFFFFFFFFFFFFFFFFFFFFFFFF AND DUP2 MSTORE PUSH1 0x20 ADD SWAP1 DUP2 MSTORE PUSH1 0x20 ADD PUSH1 0x0 KECCAK256 PUSH1 0x2 ADD DUP2 SWAP1 SSTORE POP POP PUSH2 0x8EC JUMP JUMPDEST DUP1 PUSH1 0x4 DUP2 GT ISZERO PUSH2 0x8C7 JUMPI PUSH2 0x8C6 PUSH2 0x117B JUMP JUMPDEST JUMPDEST DUP3 PUSH1 0x4 DUP2 GT ISZERO PUSH2 0x8DA JUMPI PUSH2 0x8D9 PUSH2 0x117B JUMP JUMPDEST JUMPDEST EQ PUSH2 0x8EB JUMPI PUSH2 0x8EA DUP4 PUSH1 0x3 PUSH2 0x9AB JUMP JUMPDEST JUMPDEST JUMPDEST POP POP POP POP POP JUMP JUMPDEST PUSH1 0x0 DUP1 PUSH1 0x0 SWAP1 SLOAD SWAP1 PUSH2 0x100 EXP SWAP1 DIV PUSH20 0xFFFFFFFFFFFFFFFFFFFFFFFFFFFFFFFFFFFFFFFF AND PUSH20 0xFFFFFFFFFFFFFFFFFFFFFFFFFFFFFFFFFFFFFFFF AND PUSH4 0xA1448194 DUP5 DUP5 PUSH1 0x40 MLOAD DUP4 PUSH4 0xFFFFFFFF AND PUSH1 0xE0 SHL DUP2 MSTORE PUSH1 0x4 ADD PUSH2 0x951 SWAP3 SWAP2 SWAP1 PUSH2 0xDE9 JUMP JUMPDEST PUSH1 0x20 PUSH1 0x40 MLOAD DUP1 DUP4 SUB DUP2 PUSH1 0x0 DUP8 DUP1 EXTCODESIZE ISZERO DUP1 ISZERO PUSH2 0x96B JUMPI PUSH1 0x0 DUP1 REVERT JUMPDEST POP GAS CALL ISZERO DUP1 ISZERO PUSH2 0x97F JUMPI RETURNDATASIZE PUSH1 0x0 DUP1 RETURNDATACOPY RETURNDATASIZE PUSH1 0x0 REVERT JUMPDEST POP POP POP POP PUSH1 0x40 MLOAD RETURNDATASIZE PUSH1 0x1F NOT PUSH1 0x1F DUP3 ADD AND DUP3 ADD DUP1 PUSH1 0x40 MSTORE POP DUP2 ADD SWAP1 PUSH2 0x9A3 SWAP2 SWAP1 PUSH2 0xC78 JUMP JUMPDEST SWAP1 POP SWAP3 SWAP2 POP POP JUMP JUMPDEST PUSH1 0x0 DUP1 SLOAD SWAP1 PUSH2 0x100 EXP SWAP1 DIV PUSH20 0xFFFFFFFFFFFFFFFFFFFFFFFFFFFFFFFFFFFFFFFF AND PUSH20 0xFFFFFFFFFFFFFFFFFFFFFFFFFFFFFFFFFFFFFFFF AND PUSH4 0xCD057E88 DUP4 DUP4 PUSH1 0x40 MLOAD DUP4 PUSH4 0xFFFFFFFF AND PUSH1 0xE0 SHL DUP2 MSTORE PUSH1 0x4 ADD PUSH2 0xA06 SWAP3 SWAP2 SWAP1 PUSH2 0xF26 JUMP JUMPDEST PUSH1 0x0 PUSH1 0x40 MLOAD DUP1 DUP4 SUB DUP2 PUSH1 0x0 DUP8 DUP1 EXTCODESIZE ISZERO DUP1 ISZERO PUSH2 0xA20 JUMPI PUSH1 0x0 DUP1 REVERT JUMPDEST POP GAS CALL ISZERO DUP1 ISZERO PUSH2 0xA34 JUMPI RETURNDATASIZE PUSH1 0x0 DUP1 RETURNDATACOPY RETURNDATASIZE PUSH1 0x0 REVERT JUMPDEST POP POP POP POP POP POP JUMP JUMPDEST PUSH1 0x40 MLOAD DUP1 PUSH1 0xA0 ADD PUSH1 0x40 MSTORE DUP1 PUSH1 0x5 SWAP1 JUMPDEST PUSH1 0x60 DUP2 MSTORE PUSH1 0x20 ADD SWAP1 PUSH1 0x1 SWAP1 SUB SWAP1 DUP2 PUSH2 0xA4B JUMPI SWAP1 POP POP SWAP1 JUMP JUMPDEST PUSH1 0x0 PUSH2 0xA76 PUSH2 0xA71 DUP5 PUSH2 0xF74 JUMP JUMPDEST PUSH2 0xF4F JUMP JUMPDEST SWAP1 POP DUP1 DUP3 DUP6 PUSH1 0x20 DUP7 MUL DUP3 ADD GT ISZERO PUSH2 0xA90 JUMPI PUSH2 0xA8F PUSH2 0x120D JUMP JUMPDEST JUMPDEST PUSH1 0x0 JUMPDEST DUP6 DUP2 LT ISZERO PUSH2 0xADE JUMPI DUP2 MLOAD PUSH8 0xFFFFFFFFFFFFFFFF DUP2 GT ISZERO PUSH2 0xAB6 JUMPI PUSH2 0xAB5 PUSH2 0x1208 JUMP JUMPDEST JUMPDEST DUP1 DUP7 ADD PUSH2 0xAC3 DUP10 DUP3 PUSH2 0xB6A JUMP JUMPDEST DUP6 MSTORE PUSH1 0x20 DUP6 ADD SWAP5 POP PUSH1 0x20 DUP5 ADD SWAP4 POP POP POP PUSH1 0x1 DUP2 ADD SWAP1 POP PUSH2 0xA93 JUMP JUMPDEST POP POP POP SWAP4 SWAP3 POP POP POP JUMP JUMPDEST PUSH1 0x0 PUSH2 0xAFB PUSH2 0xAF6 DUP5 PUSH2 0xF9A JUMP JUMPDEST PUSH2 0xF4F JUMP JUMPDEST SWAP1 POP DUP3 DUP2 MSTORE PUSH1 0x20 DUP2 ADD DUP5 DUP5 DUP5 ADD GT ISZERO PUSH2 0xB17 JUMPI PUSH2 0xB16 PUSH2 0x1212 JUMP JUMPDEST JUMPDEST PUSH2 0xB22 DUP5 DUP3 DUP6 PUSH2 0x10E8 JUMP JUMPDEST POP SWAP4 SWAP3 POP POP POP JUMP JUMPDEST PUSH1 0x0 DUP2 CALLDATALOAD SWAP1 POP PUSH2 0xB39 DUP2 PUSH2 0x12BE JUMP JUMPDEST SWAP3 SWAP2 POP POP JUMP JUMPDEST PUSH1 0x0 DUP3 PUSH1 0x1F DUP4 ADD SLT PUSH2 0xB54 JUMPI PUSH2 0xB53 PUSH2 0x1208 JUMP JUMPDEST JUMPDEST PUSH1 0x5 PUSH2 0xB61 DUP5 DUP3 DUP6 PUSH2 0xA63 JUMP JUMPDEST SWAP2 POP POP SWAP3 SWAP2 POP POP JUMP JUMPDEST PUSH1 0x0 DUP3 PUSH1 0x1F DUP4 ADD SLT PUSH2 0xB7F JUMPI PUSH2 0xB7E PUSH2 0x1208 JUMP JUMPDEST JUMPDEST DUP2 MLOAD PUSH2 0xB8F DUP5 DUP3 PUSH1 0x20 DUP7 ADD PUSH2 0xAE8 JUMP JUMPDEST SWAP2 POP POP SWAP3 SWAP2 POP POP JUMP JUMPDEST PUSH1 0x0 DUP2 CALLDATALOAD SWAP1 POP PUSH2 0xBA7 DUP2 PUSH2 0x12D5 JUMP JUMPDEST SWAP3 SWAP2 POP POP JUMP JUMPDEST PUSH1 0x0 DUP2 MLOAD SWAP1 POP PUSH2 0xBBC DUP2 PUSH2 0x12D5 JUMP JUMPDEST SWAP3 SWAP2 POP POP JUMP JUMPDEST PUSH1 0x0 PUSH1 0x20 DUP3 DUP5 SUB SLT ISZERO PUSH2 0xBD8 JUMPI PUSH2 0xBD7 PUSH2 0x121C JUMP JUMPDEST JUMPDEST PUSH1 0x0 PUSH2 0xBE6 DUP5 DUP3 DUP6 ADD PUSH2 0xB2A JUMP JUMPDEST SWAP2 POP POP SWAP3 SWAP2 POP POP JUMP JUMPDEST PUSH1 0x0 DUP1 PUSH1 0x40 DUP4 DUP6 SUB SLT ISZERO PUSH2 0xC06 JUMPI PUSH2 0xC05 PUSH2 0x121C JUMP JUMPDEST JUMPDEST PUSH1 0x0 PUSH2 0xC14 DUP6 DUP3 DUP7 ADD PUSH2 0xB2A JUMP JUMPDEST SWAP3 POP POP PUSH1 0x20 PUSH2 0xC25 DUP6 DUP3 DUP7 ADD PUSH2 0xB98 JUMP JUMPDEST SWAP2 POP POP SWAP3 POP SWAP3 SWAP1 POP JUMP JUMPDEST PUSH1 0x0 PUSH1 0x20 DUP3 DUP5 SUB SLT ISZERO PUSH2 0xC45 JUMPI PUSH2 0xC44 PUSH2 0x121C JUMP JUMPDEST JUMPDEST PUSH1 0x0 DUP3 ADD MLOAD PUSH8 0xFFFFFFFFFFFFFFFF DUP2 GT ISZERO PUSH2 0xC63 JUMPI PUSH2 0xC62 PUSH2 0x1217 JUMP JUMPDEST JUMPDEST PUSH2 0xC6F DUP5 DUP3 DUP6 ADD PUSH2 0xB3F JUMP JUMPDEST SWAP2 POP POP SWAP3 SWAP2 POP POP JUMP JUMPDEST PUSH1 0x0 PUSH1 0x20 DUP3 DUP5 SUB SLT ISZERO PUSH2 0xC8E JUMPI PUSH2 0xC8D PUSH2 0x121C JUMP JUMPDEST JUMPDEST PUSH1 0x0 PUSH2 0xC9C DUP5 DUP3 DUP6 ADD PUSH2 0xBAD JUMP JUMPDEST SWAP2 POP POP SWAP3 SWAP2 POP POP JUMP JUMPDEST PUSH1 0x0 PUSH2 0xCB1 DUP4 DUP4 PUSH2 0xD5B JUMP JUMPDEST SWAP1 POP SWAP3 SWAP2 POP POP JUMP JUMPDEST PUSH2 0xCC2 DUP2 PUSH2 0x107B JUMP JUMPDEST DUP3 MSTORE POP POP JUMP JUMPDEST PUSH1 0x0 PUSH2 0xCD3 DUP3 PUSH2 0xFD5 JUMP JUMPDEST PUSH2 0xCDD DUP2 DUP6 PUSH2 0xFF8 JUMP JUMPDEST SWAP4 POP DUP4 PUSH1 0x20 DUP3 MUL DUP6 ADD PUSH2 0xCEF DUP6 PUSH2 0xFCB JUMP JUMPDEST DUP1 PUSH1 0x0 JUMPDEST DUP6 DUP2 LT ISZERO PUSH2 0xD2B JUMPI DUP5 DUP5 SUB DUP10 MSTORE DUP2 MLOAD PUSH2 0xD0C DUP6 DUP3 PUSH2 0xCA5 JUMP JUMPDEST SWAP5 POP PUSH2 0xD17 DUP4 PUSH2 0xFEB JUMP JUMPDEST SWAP3 POP PUSH1 0x20 DUP11 ADD SWAP10 POP POP PUSH1 0x1 DUP2 ADD SWAP1 POP PUSH2 0xCF3 JUMP JUMPDEST POP DUP3 SWAP8 POP DUP8 SWAP6 POP POP POP POP POP POP SWAP3 SWAP2 POP POP JUMP JUMPDEST PUSH2 0xD46 DUP2 PUSH2 0x108D JUMP JUMPDEST DUP3 MSTORE POP POP JUMP JUMPDEST PUSH2 0xD55 DUP2 PUSH2 0x10D6 JUMP JUMPDEST DUP3 MSTORE POP POP JUMP JUMPDEST PUSH1 0x0 PUSH2 0xD66 DUP3 PUSH2 0xFE0 JUMP JUMPDEST PUSH2 0xD70 DUP2 DUP6 PUSH2 0x1003 JUMP JUMPDEST SWAP4 POP PUSH2 0xD80 DUP2 DUP6 PUSH1 0x20 DUP7 ADD PUSH2 0x10E8 JUMP JUMPDEST PUSH2 0xD89 DUP2 PUSH2 0x1221 JUMP JUMPDEST DUP5 ADD SWAP2 POP POP SWAP3 SWAP2 POP POP JUMP JUMPDEST PUSH1 0x0 PUSH2 0xDA1 PUSH1 0x15 DUP4 PUSH2 0x1014 JUMP JUMPDEST SWAP2 POP PUSH2 0xDAC DUP3 PUSH2 0x1232 JUMP JUMPDEST PUSH1 0x20 DUP3 ADD SWAP1 POP SWAP2 SWAP1 POP JUMP JUMPDEST PUSH1 0x0 PUSH2 0xDC4 PUSH1 0x2E DUP4 PUSH2 0x1014 JUMP JUMPDEST SWAP2 POP PUSH2 0xDCF DUP3 PUSH2 0x125B JUMP JUMPDEST PUSH1 0x40 DUP3 ADD SWAP1 POP SWAP2 SWAP1 POP JUMP JUMPDEST PUSH2 0xDE3 DUP2 PUSH2 0x10CC JUMP JUMPDEST DUP3 MSTORE POP POP JUMP JUMPDEST PUSH1 0x0 PUSH1 0x40 DUP3 ADD SWAP1 POP PUSH2 0xDFE PUSH1 0x0 DUP4 ADD DUP6 PUSH2 0xCB9 JUMP JUMPDEST PUSH2 0xE0B PUSH1 0x20 DUP4 ADD DUP5 PUSH2 0xDDA JUMP JUMPDEST SWAP4 SWAP3 POP POP POP JUMP JUMPDEST PUSH1 0x0 PUSH1 0x80 DUP3 ADD SWAP1 POP PUSH2 0xE27 PUSH1 0x0 DUP4 ADD DUP8 PUSH2 0xCB9 JUMP JUMPDEST PUSH2 0xE34 PUSH1 0x20 DUP4 ADD DUP7 PUSH2 0xDDA JUMP JUMPDEST PUSH2 0xE41 PUSH1 0x40 DUP4 ADD DUP6 PUSH2 0xDDA JUMP JUMPDEST PUSH2 0xE4E PUSH1 0x60 DUP4 ADD DUP5 PUSH2 0xD4C JUMP JUMPDEST SWAP6 SWAP5 POP POP POP POP POP JUMP JUMPDEST PUSH1 0x0 PUSH1 0x20 DUP3 ADD SWAP1 POP DUP2 DUP2 SUB PUSH1 0x0 DUP4 ADD MSTORE PUSH2 0xE71 DUP2 DUP5 PUSH2 0xCC8 JUMP JUMPDEST SWAP1 POP SWAP3 SWAP2 POP POP JUMP JUMPDEST PUSH1 0x0 PUSH1 0x60 DUP3 ADD SWAP1 POP PUSH2 0xE8E PUSH1 0x0 DUP4 ADD DUP7 PUSH2 0xD3D JUMP JUMPDEST PUSH2 0xE9B PUSH1 0x20 DUP4 ADD DUP6 PUSH2 0xDDA JUMP JUMPDEST PUSH2 0xEA8 PUSH1 0x40 DUP4 ADD DUP5 PUSH2 0xD4C JUMP JUMPDEST SWAP5 SWAP4 POP POP POP POP JUMP JUMPDEST PUSH1 0x0 PUSH1 0x20 DUP3 ADD SWAP1 POP PUSH2 0xEC5 PUSH1 0x0 DUP4 ADD DUP5 PUSH2 0xD4C JUMP JUMPDEST SWAP3 SWAP2 POP POP JUMP JUMPDEST PUSH1 0x0 PUSH1 0x20 DUP3 ADD SWAP1 POP DUP2 DUP2 SUB PUSH1 0x0 DUP4 ADD MSTORE PUSH2 0xEE4 DUP2 PUSH2 0xD94 JUMP JUMPDEST SWAP1 POP SWAP2 SWAP1 POP JUMP JUMPDEST PUSH1 0x0 PUSH1 0x20 DUP3 ADD SWAP1 POP DUP2 DUP2 SUB PUSH1 0x0 DUP4 ADD MSTORE PUSH2 0xF04 DUP2 PUSH2 0xDB7 JUMP JUMPDEST SWAP1 POP SWAP2 SWAP1 POP JUMP JUMPDEST PUSH1 0x0 PUSH1 0x20 DUP3 ADD SWAP1 POP PUSH2 0xF20 PUSH1 0x0 DUP4 ADD DUP5 PUSH2 0xDDA JUMP JUMPDEST SWAP3 SWAP2 POP POP JUMP JUMPDEST PUSH1 0x0 PUSH1 0x40 DUP3 ADD SWAP1 POP PUSH2 0xF3B PUSH1 0x0 DUP4 ADD DUP6 PUSH2 0xDDA JUMP JUMPDEST PUSH2 0xF48 PUSH1 0x20 DUP4 ADD DUP5 PUSH2 0xDDA JUMP JUMPDEST SWAP4 SWAP3 POP POP POP JUMP JUMPDEST PUSH1 0x0 PUSH2 0xF59 PUSH2 0xF6A JUMP JUMPDEST SWAP1 POP PUSH2 0xF65 DUP3 DUP3 PUSH2 0x111B JUMP JUMPDEST SWAP2 SWAP1 POP JUMP JUMPDEST PUSH1 0x0 PUSH1 0x40 MLOAD SWAP1 POP SWAP1 JUMP JUMPDEST PUSH1 0x0 PUSH8 0xFFFFFFFFFFFFFFFF DUP3 GT ISZERO PUSH2 0xF8F JUMPI PUSH2 0xF8E PUSH2 0x11D9 JUMP JUMPDEST JUMPDEST PUSH1 0x20 DUP3 MUL SWAP1 POP SWAP2 SWAP1 POP JUMP JUMPDEST PUSH1 0x0 PUSH8 0xFFFFFFFFFFFFFFFF DUP3 GT ISZERO PUSH2 0xFB5 JUMPI PUSH2 0xFB4 PUSH2 0x11D9 JUMP JUMPDEST JUMPDEST PUSH2 0xFBE DUP3 PUSH2 0x1221 JUMP JUMPDEST SWAP1 POP PUSH1 0x20 DUP2 ADD SWAP1 POP SWAP2 SWAP1 POP JUMP JUMPDEST PUSH1 0x0 DUP2 SWAP1 POP SWAP2 SWAP1 POP JUMP JUMPDEST PUSH1 0x0 PUSH1 0x5 SWAP1 POP SWAP2 SWAP1 POP JUMP JUMPDEST PUSH1 0x0 DUP2 MLOAD SWAP1 POP SWAP2 SWAP1 POP JUMP JUMPDEST PUSH1 0x0 PUSH1 0x20 DUP3 ADD SWAP1 POP SWAP2 SWAP1 POP JUMP JUMPDEST PUSH1 0x0 DUP2 SWAP1 POP SWAP3 SWAP2 POP POP JUMP JUMPDEST PUSH1 0x0 DUP3 DUP3 MSTORE PUSH1 0x20 DUP3 ADD SWAP1 POP SWAP3 SWAP2 POP POP JUMP JUMPDEST PUSH1 0x0 DUP3 DUP3 MSTORE PUSH1 0x20 DUP3 ADD SWAP1 POP SWAP3 SWAP2 POP POP JUMP JUMPDEST PUSH1 0x0 PUSH2 0x1030 DUP3 PUSH2 0x10CC JUMP JUMPDEST SWAP2 POP PUSH2 0x103B DUP4 PUSH2 0x10CC JUMP JUMPDEST SWAP3 POP DUP3 PUSH32 0xFFFFFFFFFFFFFFFFFFFFFFFFFFFFFFFFFFFFFFFFFFFFFFFFFFFFFFFFFFFFFFFF SUB DUP3 GT ISZERO PUSH2 0x1070 JUMPI PUSH2 0x106F PUSH2 0x114C JUMP JUMPDEST JUMPDEST DUP3 DUP3 ADD SWAP1 POP SWAP3 SWAP2 POP POP JUMP JUMPDEST PUSH1 0x0 PUSH2 0x1086 DUP3 PUSH2 0x10AC JUMP JUMPDEST SWAP1 POP SWAP2 SWAP1 POP JUMP JUMPDEST PUSH1 0x0 DUP2 ISZERO ISZERO SWAP1 POP SWAP2 SWAP1 POP JUMP JUMPDEST PUSH1 0x0 DUP2 SWAP1 POP PUSH2 0x10A7 DUP3 PUSH2 0x12AA JUMP JUMPDEST SWAP2 SWAP1 POP JUMP JUMPDEST PUSH1 0x0 PUSH20 0xFFFFFFFFFFFFFFFFFFFFFFFFFFFFFFFFFFFFFFFF DUP3 AND SWAP1 POP SWAP2 SWAP1 POP JUMP JUMPDEST PUSH1 0x0 DUP2 SWAP1 POP SWAP2 SWAP1 POP JUMP JUMPDEST PUSH1 0x0 PUSH2 0x10E1 DUP3 PUSH2 0x1099 JUMP JUMPDEST SWAP1 POP SWAP2 SWAP1 POP JUMP JUMPDEST PUSH1 0x0 JUMPDEST DUP4 DUP2 LT ISZERO PUSH2 0x1106 JUMPI DUP1 DUP3 ADD MLOAD DUP2 DUP5 ADD MSTORE PUSH1 0x20 DUP2 ADD SWAP1 POP PUSH2 0x10EB JUMP JUMPDEST DUP4 DUP2 GT ISZERO PUSH2 0x1115 JUMPI PUSH1 0x0 DUP5 DUP5 ADD MSTORE JUMPDEST POP POP POP POP JUMP JUMPDEST PUSH2 0x1124 DUP3 PUSH2 0x1221 JUMP JUMPDEST DUP2 ADD DUP2 DUP2 LT PUSH8 0xFFFFFFFFFFFFFFFF DUP3 GT OR ISZERO PUSH2 0x1143 JUMPI PUSH2 0x1142 PUSH2 0x11D9 JUMP JUMPDEST JUMPDEST DUP1 PUSH1 0x40 MSTORE POP POP POP JUMP JUMPDEST PUSH32 0x4E487B7100000000000000000000000000000000000000000000000000000000 PUSH1 0x0 MSTORE PUSH1 0x11 PUSH1 0x4 MSTORE PUSH1 0x24 PUSH1 0x0 REVERT JUMPDEST PUSH32 0x4E487B7100000000000000000000000000000000000000000000000000000000 PUSH1 0x0 MSTORE PUSH1 0x21 PUSH1 0x4 MSTORE PUSH1 0x24 PUSH1 0x0 REVERT JUMPDEST PUSH32 0x4E487B7100000000000000000000000000000000000000000000000000000000 PUSH1 0x0 MSTORE PUSH1 0x32 PUSH1 0x4 MSTORE PUSH1 0x24 PUSH1 0x0 REVERT JUMPDEST PUSH32 0x4E487B7100000000000000000000000000000000000000000000000000000000 PUSH1 0x0 MSTORE PUSH1 0x41 PUSH1 0x4 MSTORE PUSH1 0x24 PUSH1 0x0 REVERT JUMPDEST PUSH1 0x0 DUP1 REVERT JUMPDEST PUSH1 0x0 DUP1 REVERT JUMPDEST PUSH1 0x0 DUP1 REVERT JUMPDEST PUSH1 0x0 DUP1 REVERT JUMPDEST PUSH1 0x0 DUP1 REVERT JUMPDEST PUSH1 0x0 PUSH1 0x1F NOT PUSH1 0x1F DUP4 ADD AND SWAP1 POP SWAP2 SWAP1 POP JUMP JUMPDEST PUSH32 0x5472616E7361636374696F6E2061626F727465642E0000000000000000000000 PUSH1 0x0 DUP3 ADD MSTORE POP JUMP JUMPDEST PUSH32 0x56616C7565206D7573742062652067726561746572207468616E20746865206D PUSH1 0x0 DUP3 ADD MSTORE PUSH32 0x696E696D756E20616D6F756E742E000000000000000000000000000000000000 PUSH1 0x20 DUP3 ADD MSTORE POP JUMP JUMPDEST PUSH1 0x5 DUP2 LT PUSH2 0x12BB JUMPI PUSH2 0x12BA PUSH2 0x117B JUMP JUMPDEST JUMPDEST POP JUMP JUMPDEST PUSH2 0x12C7 DUP2 PUSH2 0x107B JUMP JUMPDEST DUP2 EQ PUSH2 0x12D2 JUMPI PUSH1 0x0 DUP1 REVERT JUMPDEST POP JUMP JUMPDEST PUSH2 0x12DE DUP2 PUSH2 0x10CC JUMP JUMPDEST DUP2 EQ PUSH2 0x12E9 JUMPI PUSH1 0x0 DUP1 REVERT JUMPDEST POP JUMP INVALID LOG2 PUSH5 0x6970667358 0x22 SLT KECCAK256 CREATE DUP12 CALLDATALOAD 0xBC EXTCODECOPY DUP2 SWAP9 0xD6 0xAE 0xA5 SLOAD XOR JUMPI SWAP8 0xE2 GAS SMOD SAR MULMOD 0x2B PUSH9 0xDAC20A7137B0C92AA0 0xAC SWAP10 PUSH5 0x736F6C6343 STOP ADDMOD MOD STOP CALLER "
				},
				"gasEstimates": {
					"creation": {
						"codeDepositCost": "979600",
						"executionCost": "infinite",
						"totalCost": "infinite"
					},
					"external": {
						"_donate()": "infinite",
						"_getCategory(address,uint256)": "infinite",
						"_validateUser(address)": "7660",
						"getPreviewNFT()": "infinite",
						"setNftContractAddress(address)": "24766",
						"totalAmount()": "2452",
						"userList(address)": "infinite"
					},
					"internal": {
						"changeLevel(uint256,uint256)": "infinite",
						"safeMint(address,uint256)": "infinite"
					}
				},
				"methodIdentifiers": {
					"_donate()": "f0b1004d",
					"_getCategory(address,uint256)": "4b82c4b1",
					"_validateUser(address)": "991d3942",
					"getPreviewNFT()": "0bbc735a",
					"setNftContractAddress(address)": "da31d640",
					"totalAmount()": "1a39d8ef",
					"userList(address)": "1b4e7bd2"
				}
			},
			"storageLayout": {
				"storage": [
					{
						"astId": 27,
						"contract": "contracts/OpenHelp.sol:OpenHelp",
						"label": "nftContractAddress",
						"offset": 0,
						"slot": "0",
						"type": "t_address"
					},
					{
						"astId": 39,
						"contract": "contracts/OpenHelp.sol:OpenHelp",
						"label": "owner",
						"offset": 0,
						"slot": "1",
						"type": "t_address_payable"
					},
					{
						"astId": 41,
						"contract": "contracts/OpenHelp.sol:OpenHelp",
						"label": "totalAmount",
						"offset": 0,
						"slot": "2",
						"type": "t_uint256"
					},
					{
						"astId": 46,
						"contract": "contracts/OpenHelp.sol:OpenHelp",
						"label": "userList",
						"offset": 0,
						"slot": "3",
						"type": "t_mapping(t_address,t_struct(UserData)37_storage)"
					},
					{
						"astId": 49,
						"contract": "contracts/OpenHelp.sol:OpenHelp",
						"label": "userAmountsLevelLimits",
						"offset": 0,
						"slot": "4",
						"type": "t_array(t_uint256)dyn_storage"
					}
				],
				"types": {
					"t_address": {
						"encoding": "inplace",
						"label": "address",
						"numberOfBytes": "20"
					},
					"t_address_payable": {
						"encoding": "inplace",
						"label": "address payable",
						"numberOfBytes": "20"
					},
					"t_array(t_uint256)dyn_storage": {
						"base": "t_uint256",
						"encoding": "dynamic_array",
						"label": "uint256[]",
						"numberOfBytes": "32"
					},
					"t_enum(Category)55": {
						"encoding": "inplace",
						"label": "enum OpenHelp.Category",
						"numberOfBytes": "1"
					},
					"t_mapping(t_address,t_struct(UserData)37_storage)": {
						"encoding": "mapping",
						"key": "t_address",
						"label": "mapping(address => struct OpenHelp.UserData)",
						"numberOfBytes": "32",
						"value": "t_struct(UserData)37_storage"
					},
					"t_struct(UserData)37_storage": {
						"encoding": "inplace",
						"label": "struct OpenHelp.UserData",
						"members": [
							{
								"astId": 29,
								"contract": "contracts/OpenHelp.sol:OpenHelp",
								"label": "id",
								"offset": 0,
								"slot": "0",
								"type": "t_address"
							},
							{
								"astId": 31,
								"contract": "contracts/OpenHelp.sol:OpenHelp",
								"label": "donationAmount",
								"offset": 0,
								"slot": "1",
								"type": "t_uint256"
							},
							{
								"astId": 33,
								"contract": "contracts/OpenHelp.sol:OpenHelp",
								"label": "nftID",
								"offset": 0,
								"slot": "2",
								"type": "t_uint256"
							},
							{
								"astId": 36,
								"contract": "contracts/OpenHelp.sol:OpenHelp",
								"label": "category",
								"offset": 0,
								"slot": "3",
								"type": "t_enum(Category)55"
							}
						],
						"numberOfBytes": "128"
					},
					"t_uint256": {
						"encoding": "inplace",
						"label": "uint256",
						"numberOfBytes": "32"
					}
				}
			},
			"userdoc": {
				"kind": "user",
				"methods": {
					"_donate()": {
						"notice": "Function when users donate eth crypto to OpenHelp"
					}
				},
				"version": 1
			}
		}
	}
}